:020000040800F2
:1000000000800120250C0108879300088D930008CB
:1000100093930008999300089F9300080000000044
:10002000000000000000000000000000CD66000895
:10003000A59300080000000089660008B965000863
:10004000750C0108750C0108750C0108750C010888
:10005000750C0108750C0108750C0108750C010878
:10006000750C0108750C0108750C0108B3930008A4
:10007000CD1F0008750C0108750C0108750C0108EE
:10008000C1930008CF930008DD930008750C0108A8
:10009000750C0108750C0108750C0108750C010838
:1000A000750C0108ED930008750C0108750C01082A
:1000B000750C0108750C0108750C0108750C010818
:1000C000750C0108750C0108750C0108750C010808
:1000D000750C0108750C0108750C0108750C0108F8
:1000E000750C0108750C0108750C0108750C0108E8
:1000F000750C0108750C0108750C0108750C0108D8
:10010000750C0108750C0108750C0108750C0108C7
:10011000750C0108750C0108750C0108750C0108B7
:10012000750C0108750C0108750C0108750C0108A7
:10013000750C0108750C0108750C0108750C010897
:10014000750C0108750C0108750C01080194000874
:10015000750C0108750C0108750C0108750C010877
:10016000750C0108750C0108750C0108750C010867
:10017000750C0108750C0108750C010800000000E1
:08018000750C0108750C010863
:1001880081F0004102E000BF83F0004330B54FEA40
:1001980041044FEA430594EA050F08BF90EA020FAD
:1001A8001FBF54EA000C55EA020C7FEA645C7FEA40
:1001B800655C00F0E2804FEA5454D4EB5555B8BF63
:1001C8006D420CDD2C4480EA020281EA030382EAD4
:1001D800000083EA010180EA020281EA0303362D66
:1001E80088BF30BD11F0004F4FEA01314FF4801C39
:1001F8004CEA113102D0404261EB410113F0004F4B
:100208004FEA03334CEA133302D0524263EB430301
:1002180094EA050F00F0A780A4F10104D5F1200E9F
:100228000DDB02FA0EFC22FA05F2801841F10001FA
:1002380003FA0EF2801843FA05F359410EE0A5F1CE
:1002480020050EF1200E012A03FA0EFC28BF4CF0FF
:10025800020C43FA05F3C01851EBE37101F00045B5
:1002680007D54FF0000EDCF1000C7EEB00006EEBC2
:100278000101B1F5801F1BD3B1F5001F0CD349084C
:100288005FEA30004FEA3C0C04F101044FEA4452A3
:1002980012F5800F80F09A80BCF1004F08BF5FEA2A
:1002A800500C50F1000041EB045141EA050130BD0A
:1002B8005FEA4C0C404141EB0101013C28BFB1F51C
:1002C800801FE9D291F0000F04BF01460020B1FA67
:1002D80081F308BF2033A3F10B03B3F120020CDA3A
:1002E8000C3208DD02F1140CC2F10C0201FA0CF018
:1002F80021FA02F10CE002F11402D8BFC2F1200C7D
:1003080001FA02F120FA0CFCDCBF41EA0C01904032
:10031800E41AA2BF01EB0451294330BD6FEA04047B
:100328001F3C1CDA0C340EDC04F11404C4F1200266
:1003380020FA04F001FA02F340EA030021FA04F378
:1003480045EA030130BDC4F10C04C4F1200220FACF
:1003580002F001FA04F340EA0300294630BD21FA0D
:1003680004F0294630BD94F0000F83F4801306BFD3
:1003780081F480110134013D4EE77FEA645C18BFC7
:100388007FEA655C29D094EA050F08BF90EA020F5E
:1003980005D054EA000C04BF1946104630BD91EA56
:1003A800030F1EBF0021002030BD5FEA545C05D159
:1003B8004000494128BF41F0004130BD14F5800498
:1003C8003CBF01F5801130BD01F0004545F0FE410C
:1003D80041F470014FF0000030BD7FEA645C1ABF41
:1003E800194610467FEA655C1CBF0B46024650EA78
:1003F800013406BF52EA033591EA030F41F40021A4
:1004080030BD00BF90F0000F04BF0021704730B529
:100418004FF4806404F132044FF000054FF00001FE
:1004280050E700BF90F0000F04BF0021704730B5BF
:100438004FF4806404F1320410F0004548BF404294
:100448004FF000013EE700BF42004FEAE2014FEAE9
:1004580031014FEA02701FBF12F07F4393F07F4FC4
:1004680081F06051704732F07F4208BF704793F0C7
:100478007F4F04BF41F40021704730B54FF46074DA
:1004880001F0004521F000411CE700BF50EA0102DD
:1004980008BF704730B54FF000050AE050EA010286
:1004A80008BF704730B511F0004502D5404261EBF6
:1004B80041014FF4806404F132045FEA915C3FF437
:1004C800D8AE4FF003025FEADC0C18BF03325FEAD4
:1004D800DC0C18BF033202EBDC02C2F1200300FA85
:1004E80003FC20FA02F001FA03FE40EA0E0021FAAA
:1004F80002F11444BDE600BF70B54FF0FF0C4CF498
:10050800E06C1CEA11541DBF1CEA135594EA0C0F49
:1005180095EA0C0F00F0DEF82C4481EA030621EA84
:100528004C5123EA4C5350EA013518BF52EA0335BF
:1005380041F4801143F4801338D0A0FB02CE4FF071
:100548000005E1FB02E506F00042E0FB03E54FF0A1
:100558000006E1FB03569CF0000F18BF4EF0010E99
:10056800A4F1FF04B6F5007F64F5407404D25FEA95
:100578004E0E6D4146EB060642EAC62141EA555148
:100588004FEAC52040EA5E504FEACE2EB4F1FD0C8A
:1005980088BFBCF5E06F1ED8BEF1004F08BF5FEA08
:1005A800500E50F1000041EB045170BD06F00046BA
:1005B80046EA010140EA020081EA0301B4EB5C0467
:1005C800C2BFD4EB0C0541EA045170BD41F480115F
:1005D8004FF0000E013C00F3AB8014F1360FDEBF84
:1005E800002001F0004170BDC4F10004203C35DA60
:1005F8000C341BDC04F11404C4F1200500FA05F3E3
:1006080020FA04F001FA05F240EA020001F0004283
:1006180021F0004110EBD37021FA04F642EB0601F9
:100628005EEA430E08BF20EAD37070BDC4F10C0423
:10063800C4F1200500FA04F320FA05F001FA04F2E7
:1006480040EA020001F0004110EBD37041F10001D3
:100658005EEA430E08BF20EAD37070BDC4F12005DE
:1006680000FA05F24EEA020E20FA04F301FA05F246
:1006780043EA020321FA04F001F0004121FA04F2EE
:1006880020EA020000EBD3705EEA430E08BF20EABE
:10069800D37070BD94F0000F0FD101F000464000F8
:1006A80041EB010111F4801F08BF013CF7D041EA7A
:1006B800060195F0000F18BF704703F0004652007E
:1006C80043EB030313F4801F08BF013DF7D043EA4F
:1006D8000603704794EA0C0F0CEA135518BF95EA05
:1006E8000C0F0CD050EA410618BF52EA4306D1D18C
:1006F80081EA030101F000414FF0000070BD50EAAB
:10070800410606BF1046194652EA430619D094EA34
:100718000C0F02D150EA013613D195EA0C0F05D11E
:1007280052EA03361CBF104619460AD181EA030172
:1007380001F0004141F0FE4141F470014FF000002A
:1007480070BD41F0FE4141F4780170BD70B54FF0C5
:10075800FF0C4CF4E06C1CEA11541DBF1CEA135545
:1007680094EA0C0F95EA0C0F00F0A7F8A4EB050427
:1007780081EA030E52EA03354FEA013100F088801E
:100788004FEA03334FF0805545EA131343EA1263E7
:100798004FEA022245EA111545EA10654FEA00269C
:1007A8000EF000419D4208BF964244F1FD0404F555
:1007B800407402D25B084FEA3202B61A65EB0305B1
:1007C8005B084FEA32024FF480104FF4002CB6EB6E
:1007D800020E75EB030E22BFB61A754640EA0C00EE
:1007E8005B084FEA3202B6EB020E75EB030E22BF2E
:1007F800B61A754640EA5C005B084FEA3202B6EB6F
:10080800020E75EB030E22BFB61A754640EA9C002D
:100818005B084FEA3202B6EB020E75EB030E22BFFD
:10082800B61A754640EADC0055EA060E18D04FEABB
:10083800051545EA16754FEA06164FEAC30343EA5B
:1008480052734FEAC2025FEA1C1CC0D111F4801F28
:100858000BD141EA00014FF000004FF0004CB6E721
:1008680011F4801F04BF01430020B4F1FD0C88BFC0
:10087800BCF5E06F3FF6AFAEB5EB030C04BFB6EBCB
:10088800020C5FEA500C50F1000041EB045170BDBE
:100898000EF0004E4EEA113114EB5C04C2BFD4EBEB
:1008A8000C0541EA045170BD41F480114FF0000E6F
:1008B800013C90E645EA060E8DE60CEA135594EAEB
:1008C8000C0F08BF95EA0C0F3FF43BAF94EA0C0FEE
:1008D8000AD150EA01347FF434AF95EA0C0F7FF463
:1008E80025AF104619462CE795EA0C0F06D152EAB7
:1008F80003353FF4FDAE1046194622E750EA41069B
:1009080018BF52EA43067FF4C5AE50EA41047FF4AB
:100918000DAF52EA43057FF4EBAE12E74FF0FF3C10
:1009280006E000BF4FF0010C02E000BF4FF0010CE1
:100938004DF804CD4FEA410C7FEA6C5C4FEA430C5A
:1009480018BF7FEA6C5C1BD001B050EA410C0CBFA9
:1009580052EA430C91EA030F02BF90EA020F00200B
:10096800704710F1000F91EA030F58BF994208BF72
:1009780090422CBFD8176FEAE37040F0010070472F
:100988004FEA410C7FEA6C5C02D150EA013C07D186
:100998004FEA430C7FEA6C5CD6D152EA033CD3D0D1
:1009A8005DF8040B704700BF8446104662468C46CB
:1009B8001946634600E000BF01B5FFF7B7FF0028FE
:1009C80048BF10F1000F01BD4DF808EDFFF7F4FF27
:1009D8000CBF012000205DF808FB00BF4DF808EDB2
:1009E800FFF7EAFF34BF012000205DF808FB00BFD5
:1009F8004DF808EDFFF7E0FF94BF012000205DF8F7
:100A080008FB00BF4DF808EDFFF7CEFF94BF0120AB
:100A180000205DF808FB00BF4DF808EDFFF7C4FFA4
:100A280034BF012000205DF808FB00BF4FEA410CED
:100A38007FEA6C5C02D150EA013C0AD14FEA430CD0
:100A48007FEA6C5C02D152EA033C02D14FF000000D
:100A580070474FF0010070474A0011D212F500129A
:100A680011D20DD56FF47873B3EB62520ED44FEAFE
:100A7800C12343F0004343EA505323FA02F070477E
:100A88004FF00000704750EA013002D14FF0FF30BC
:100A980070474FF0000070470348044B834202D070
:100AA800034B03B118477047680300206803002010
:100AB800000000000548064B1B1AD90F01EBA301E3
:100AC800491002D0034B03B1184770476803002050
:100AD800680300200000000010B5064C237843B9D5
:100AE800FFF7DAFF044B13B10448AFF3008001238A
:100AF800237010BD68030020000000005412010894
:100B080008B5054B1BB105490548AFF30080BDE8A2
:100B18000840FFF7CFBF00BF000000006C030020B3
:100B28005412010880B485B000AF78607B681B68F8
:100B380003F06003FB60FB68002B04D17B681B6833
:100B480003F01003FB60FB6818461437BD465DF8D8
:100B5800047B704780B483B000AF78607B681B6B00
:100B680018460C37BD465DF8047B704780B483B0E7
:100B780000AF786039607B681A6A3B681A437B6803
:100B88001A6200BF0C37BD465DF8047B704780B41D
:100B980083B000AF786039607B681A6A3B68DB43D2
:100BA8001A407B681A6200BF0C37BD465DF8047BAB
:100BB800704780B483B000AF78607B685B6C43F4A7
:100BC80000427B685A6400BF0C37BD465DF8047B61
:100BD800704780B483B000AF78607B68DB6843F00F
:100BE80001027B68DA6000BF0C37BD465DF8047B04
:100BF800704780B483B000AF78607B68DB6823F00F
:100C080001027B68DA6000BF0C37BD465DF8047BE3
:100C1800704780B483B000AF78607B68DB6803F00E
:100C28000103012B01D1012300E0002318460C37F2
:100C3800BD465DF8047B704780B483B000AF786030
:100C48007B68DB6843F002027B68DA6000BF0C3720
:100C5800BD465DF8047B704780B483B000AF786010
:100C68007B68DB6823F002027B68DA6000BF0C3720
:100C7800BD465DF8047B704780B483B000AF7860F0
:100C88007B68DB6803F00203022B01D1012300E03B
:100C9800002318460C37BD465DF8047B704780B4C6
:100CA80083B000AF78607B68DB6843F004027B6840
:100CB800DA6000BF0C37BD465DF8047B704780B42E
:100CC80083B000AF78607B68DB6823F004027B6840
:100CD800DA6000BF0C37BD465DF8047B704780B40E
:100CE80083B000AF78607B68DB6803F00403042BF3
:100CF80001D1012300E0002318460C37BD465DF8FA
:100D0800047B704780B483B000AF78607B68DB6891
:100D180043F008027B68DA6000BF0C37BD465DF817
:100D2800047B704780B483B000AF78607B68DB6871
:100D380023F008027B68DA6000BF0C37BD465DF817
:100D4800047B704780B483B000AF78607B68DB6851
:100D580003F00803082B01D1012300E00023184603
:100D68000C37BD465DF8047B704780B483B000AF94
:100D780078607B68DB6843F010027B68DA6000BF4C
:100D88000C37BD465DF8047B704780B483B000AF74
:100D980078607B68DB6823F010027B68DA6000BF4C
:100DA8000C37BD465DF8047B704780B483B000AF54
:100DB80078607B68DB6803F01003102B01D10123F6
:100DC80000E0002318460C37BD465DF8047B7047E9
:100DD80080B483B000AF78607B68DB6843F02002A2
:100DE8007B68DA6000BF0C37BD465DF8047B70474E
:100DF80080B483B000AF78607B68DB6823F02002A2
:100E08007B68DA6000BF0C37BD465DF8047B70472D
:100E180080B483B000AF78607B68DB6803F02003A0
:100E2800202B01D1012300E0002318460C37BD46D2
:100E38005DF8047B704780B483B000AF78607B684E
:100E4800DB6843F040027B68DA6000BF0C37BD46C0
:100E58005DF8047B704780B483B000AF78607B682E
:100E6800DB6823F040027B68DA6000BF0C37BD46C0
:100E78005DF8047B704780B483B000AF78607B680E
:100E8800DB6803F04003402B01D1012300E000237D
:100E980018460C37BD465DF8047B704780B483B0B4
:100EA80000AF78607B68DB6843F080027B68DA60BB
:100EB80000BF0C37BD465DF8047B704780B483B033
:100EC80000AF78607B68DB6823F080027B68DA60BB
:100ED80000BF0C37BD465DF8047B704780B483B013
:100EE80000AF78607B68DB6803F08003802B01D15A
:100EF800012300E0002318460C37BD465DF8047B4B
:100F0800704780B582B000AF78600B467B807B88E5
:100F180003F00103002B0CD07B681B681846FFF711
:100F2800AAFF0346012B04D07B681B681846FFF70D
:100F380082FF7B8803F00203002B0CD07B681B68C0
:100F48001846FFF799FE0346012B04D07B681B68FF
:100F58001846FFF771FE7B8803F00403002B0CD0C2
:100F68007B681B681846FFF7BAFE0346012B04D0BE
:100F78007B681B681846FFF792FE7B8803F008031E
:100F8800002B0CD07B681B681846FFF7DBFE034676
:100F9800012B04D07B681B681846FFF7B3FE7B88DB
:100FA80003F01003002B0CD07B681B681846FFF772
:100FB800FCFE0346012B04D07B681B681846FFF72C
:100FC800D4FE7B8803F02003002B0CD07B681B68C1
:100FD8001846FFF71EFE0346012B04D07B681B68EA
:100FE8001846FFF7F6FD7B8803F04003002B0CD072
:100FF8007B681B681846FFF771FF0346012B04D076
:101008007B681B681846FFF749FF7B8803F080035D
:10101800002B0CD07B681B681846FFF7F9FE0346C7
:10102800012B04D07B681B681846FFF7D1FE00BF70
:101038000837BD4680BD80B582B000AF78600B46EA
:101048007B807B8803F00103002B0CD07B681B6836
:101058001846FFF710FF0346012B04D17B681B6875
:101068001846FFF7F8FE7B8803F00203002B0CD02C
:101078007B681B681846FFF7FFFD0346012B04D168
:101088007B681B681846FFF7E7FD7B8803F00403BD
:10109800002B0CD07B681B681846FFF720FE034620
:1010A800012B04D17B681B681846FFF708FE7B8874
:1010B80003F00803002B0CD07B681B681846FFF769
:1010C80041FE0346012B04D17B681B681846FFF7D5
:1010D80029FE7B8803F01003002B0CD07B681B686B
:1010E8001846FFF762FE0346012B04D17B681B6894
:1010F8001846FFF74AFE7B8803F02003002B0CD02C
:101108007B681B681846FFF784FD0346012B04D053
:101118007B681B681846FFF76CFD7B8803F040036B
:10112800002B0CD07B681B681846FFF7D7FE0346D8
:10113800012B04D17B681B681846FFF7BFFE7B882C
:1011480003F08003002B0CD07B681B681846FFF760
:101158005FFE0346012B04D17B681B681846FFF726
:1011680047FE00BF0837BD4680BD000080B582B08D
:1011780000AF78600B46FB70FB78022B06D17B68CA
:101188001B6801211846FFF7F1FC31E07B681B68FA
:10119800194A934213D07B681B68184A93420ED0B1
:1011A8007B681B68164A934209D07B681B68154AFE
:1011B800934204D07B681B68134A934218D1FB788A
:1011C800032B06D17B681B6804211846FFF7CEFC69
:1011D8000EE0FB78042B0BD17B681B6801211846B5
:1011E800FFF7C4FC7B681B6804211846FFF7BEFCA8
:1011F80000BF0837BD4680BD002C014000340140C7
:1012080000400140004401400048014080B582B0E0
:1012180000AF78600B46FB70FB78022B06D17B6829
:101228001B6801211846FFF7B2FC31E07B681B6898
:10123800194A934213D07B681B68184A93420ED010
:101248007B681B68164A934209D07B681B68154A5D
:10125800934204D07B681B68134A934218D1FB78E9
:10126800032B06D17B681B6804211846FFF78FFC07
:101278000EE0FB78042B0BD17B681B680121184614
:10128800FFF785FC7B681B6804211846FFF77FFC85
:1012980000BF0837BD4680BD002C01400034014026
:1012A80000400140004401400048014080B582B040
:1012B80000AF78600B46FB70FB78022B06D17B6889
:1012C8001B6810211846FFF751FC31E07B681B684A
:1012D800194A934213D07B681B68184A93420ED070
:1012E8007B681B68164A934209D07B681B68154ABD
:1012F800934204D07B681B68134A934218D1FB7849
:10130800032B06D17B681B6840211846FFF72EFC8B
:101318000EE0FB78042B0BD17B681B681021184664
:10132800FFF724FC7B681B6840211846FFF71EFC6A
:1013380000BF0837BD4680BD002C01400034014085
:1013480000400140004401400048014080B582B09F
:1013580000AF78600B46FB70FB78022B06D17B68E8
:101368001B6810211846FFF712FC31E07B681B68E8
:10137800194A934213D07B681B68184A93420ED0CF
:101388007B681B68164A934209D07B681B68154A1C
:10139800934204D07B681B68134A934218D1FB78A8
:1013A800032B06D17B681B6840211846FFF7EFFB2B
:1013B8000EE0FB78042B0BD17B681B6810211846C4
:1013C800FFF7E5FB7B681B6840211846FFF7DFFB4A
:1013D80000BF0837BD4680BD002C014000340140E5
:1013E80000400140004401400048014080B582B0FF
:1013F80000AF78600B46FB70FB78022B07D17B6847
:101408001B684FF480711846FFF7B0FB34E07B6827
:101418001B681B4A934213D07B681B68194A934286
:101428000ED07B681B68184A934209D07B681B68FA
:10143800164A934204D07B681B68154A93421BD115
:10144800FB78032B07D17B681B684FF48061184633
:10145800FFF78CFB10E0FB78042B0DD17B681B6831
:101468004FF480711846FFF781FB7B681B684FF4C7
:1014780080611846FFF77AFB00BF0837BD4680BD7C
:10148800002C01400034014000400140004401406C
:101498000048014080B582B000AF78600B46FB7011
:1014A800FB78022B07D17B681B684FF480711846C4
:1014B800FFF76DFB34E07B681B681B4A934213D02F
:1014C8007B681B68194A93420ED07B681B68184AD0
:1014D800934209D07B681B68164A934204D07B6804
:1014E8001B68154A93421BD1FB78032B07D17B68F5
:1014F8001B684FF480611846FFF749FB10E0FB7842
:10150800042B0DD17B681B684FF480711846FFF7D8
:101518003EFB7B681B684FF480611846FFF737FB7A
:1015280000BF0837BD4680BD002C01400034014093
:1015380000400140004401400048014080B582B0AD
:1015480000AF78600B46FB70FB78022B06D17B68F6
:101558001B684FF480511846FFF708FB00BF083797
:10156800BD4680BD80B582B000AF78600B46FB7089
:10157800FB78022B06D17B681B684FF48051184614
:10158800FFF705FB00BF0837BD4680BD80B584B0B6
:1015980000AF78600023FB607B681B68304A934289
:1015A80001D1304BFB607B681A68FB681A60FB68E6
:1015B8001B681846FFF7B6FAB860BB68002B06D060
:1015C800BB68102B03D0FB6801221A7102E0FB688C
:1015D80000221A71FB681B68234A934213D0FB68E8
:1015E8001B68224A93420ED0FB681B68204A93422C
:1015F80009D0FB681B681F4A934204D0FB681B682C
:101608001D4A934204D1FB681B681846FFF7D1FABC
:10161800FB681B68144A934213D0FB681B68134A83
:1016280093420ED0FB681B68114A934209D0FB68AD
:101638001B68104A934204D0FB681B680E4A934209
:1016480008D17B681B681846FFF784FA0346DAB2AC
:10165800FB685A71FB6818461037BD4680BD00BF4D
:101668000004004084030020002C014000340140A5
:1016780000400140004401400048014080B485B06A
:1016880000AF786039603B68FB603B68B3F5803F2A
:101698000CD37B681B68B3F1804F07D07B681B684D
:1016A800064A934202D04FF6FF73FB60FB68184668
:1016B8001437BD465DF8047B704700BF000C00403E
:1016C80080B485B000AF786039603B68002B03D1E7
:1016D8007B684033FB6001E0044BFB60FB68184605
:1016E8001437BD465DF8047B704700BF0C030450F7
:1016F80080B483B000AF78607B68DB6803F4406334
:10170800002B01D1012300E0002318460C37BD4609
:101718005DF8047B704780B483B000AF78603960AF
:101728007B681B6B23F00F023B681A437B681A63C4
:1017380000BF0C37BD465DF8047B704780B483B0AA
:1017480000AF786039607B68DB6823F003023B6890
:101758001A437B68DA6000BF0C37BD465DF8047B2E
:10176800704780B483B000AF78607B68DB6C03F0AF
:10177800C003002B01D1012300E0002318460C37D9
:10178800BD465DF8047B704780B483B000AF7860D5
:101798007B689B6823F0004323F03F0343F001027A
:1017A8007B689A6000BF0C37BD465DF8047B7047C4
:1017B80080B483B000AF78607B689B6823F00043F7
:1017C80023F03F0343F002027B689A6000BF0C37A6
:1017D800BD465DF8047B704780B483B000AF786085
:1017E8007B689B6803F00103012B01D1012300E012
:1017F800002318460C37BD465DF8047B704780B45B
:1018080083B000AF786039607B689B6823F0404301
:1018180023F03F033A6802F08042134343F000424A
:101828007B689A6000BF0C37BD465DF8047B704743
:1018380080B483B000AF78607B689B6803F0004396
:10184800B3F1004F01D1012300E0002318460C3703
:10185800BD465DF8047B704780B483B000AF786004
:101868007B689B6823F0004323F03F0343F00402A6
:101878007B689A6000BF0C37BD465DF8047B7047F3
:1018880080B483B000AF78607B689B6823F0004326
:1018980023F03F0343F008027B689A6000BF0C37CF
:1018A800BD465DF8047B704780B483B000AF7860B4
:1018B8007B681B6803F00803082B01D1012300E0B3
:1018C800002318460C37BD465DF8047B704780B48A
:1018D80083B000AF78607B681B6803F01003102B9F
:1018E80001D1012300E0002318460C37BD465DF8FE
:1018F800047B704780B483B000AF78607B681022A7
:101908001A6000BF0C37BD465DF8047B704780B491
:1019180083B000AF78607B685B6843F008027B683F
:101928005A6000BF0C37BD465DF8047B704780B431
:1019380083B000AF78607B685B6843F040027B68E7
:101948005A6000BF0C37BD465DF8047B704780B411
:1019580083B000AF78607B685B6823F008027B681F
:101968005A6000BF0C37BD465DF8047B704780B4F1
:1019780083B000AF78607B685B6823F010027B68F7
:101988005A6000BF0C37BD465DF8047B704780B4D1
:1019980083B000AF78607B685B6823F040027B68A7
:1019A8005A6000BF0C37BD465DF8047B704780B4B1
:1019B80083B000AF78607B685B6823F080027B6847
:1019C8005A6000BF0C37BD465DF8047B704780B491
:1019D80083B000AF78607B685B6803F01003102B5E
:1019E80001D1012300E0002318460C37BD465DF8FD
:1019F800047B704780B483B000AF78607B685B6815
:101A080003F08003802B01D1012300E00023184656
:101A18000C37BD465DF8047B7047000080B485B084
:101A280000AF786039607B68FB600C4A3B68134400
:101A38001B781A46FB6813441B6808493A680A442D
:101A480012781146FA680A4443F00103136000BF94
:101A58001437BD465DF8047B704700BFC412010807
:101A680080B485B000AF786039607B68FB600C4A51
:101A78003B6813441B781A46FB6813441B680849E3
:101A88003A680A4412781146FA680A4423F00103B6
:101A9800136000BF1437BD465DF8047B704700BF74
:101AA800C412010880B485B000AF786039607B68E3
:101AB800FB60084A3B6813441B781A46FB681344CA
:101AC8001B6803F0200318461437BD465DF8047BF5
:101AD800704700BFC412010880B487B000AFF86037
:101AE800B9607A60FB687B610D4ABB6813441B7858
:101AF8001A467B6913445B681B0C1B040849BA68C7
:101B08000A44127811467A690A4411467A681343DE
:101B18004B6000BF1C37BD465DF8047B704700BFB3
:101B2800C412010880B487B000AFF860B9607A6069
:101B38003B60FB687B613B6A102B14D1174ABB687A
:101B480013441B781A467B6913441A467B68D36092
:101B5800124ABB6813441B781A467B6913441A4619
:101B68003B68936013E00D4ABB6813441B781A4620
:101B78007B6913441A467B689360084ABB68134420
:101B88001B781A467B6913441A463B68D36000BF2A
:101B98001C37BD465DF8047B704700BFC4120108BE
:101BA80080B487B000AFF860B9607A60FB687B6189
:101BB800074ABB6813441B781A467B6913441A46C4
:101BC8007B68936000BF1C37BD465DF8047B704797
:101BD800C412010880B483B000AF78607B681B68CA
:101BE80003F02003202B01D1012300E00023184635
:101BF8000C37BD465DF8047B704780B483B000AFF6
:101C080078607B6820225A6000BF0C37BD465DF8BB
:101C1800047B704780B485B000AF786039607B681A
:101C2800FB600C4A3B6813441B781A46FB68134454
:101C38001B6808493A680A4412781146FA680A4447
:101C480043F00203136000BF1437BD465DF8047B00
:101C5800704700BFC412010880B485B000AF786037
:101C680039607B68FB600C4A3B6813441B781A4652
:101C7800FB6813441B6808493A680A4412781146FD
:101C8800FA680A4443F00803136000BF1437BD46DE
:101C98005DF8047B704700BFC412010880B485B0AA
:101CA80000AF786039607B68FB600C4A3B6813447E
:101CB8001B781A46FB6813441B6808493A680A44AB
:101CC80012781146FA680A4423F00203136000BF31
:101CD8001437BD465DF8047B704700BFC412010885
:101CE80080B485B000AF786039607B68FB600C4ACF
:101CF8003B6813441B781A46FB6813441B68084961
:101D08003A680A4412781146FA680A4423F0040330
:101D1800136000BF1437BD465DF8047B704700BFF1
:101D2800C412010880B485B000AF786039607B6860
:101D3800FB600C4A3B6813441B781A46FB68134443
:101D48001B6808493A680A4412781146FA680A4436
:101D580023F00803136000BF1437BD465DF8047B09
:101D6800704700BFC412010880B485B000AF786026
:101D780039607B68FB600A4A3B6813441B781A4643
:101D8800FB6813441B6803F00203022B01D10123F3
:101D980000E0002318461437BD465DF8047B704701
:101DA800C412010880B584B000AF78600123FB81BC
:101DB8007B681B691846FFF79BFC0346002B2FD056
:101DC8007B685B7ADBB2022B11D07B685B7ADBB273
:101DD800042B0CD07B685B7ADBB2082B07D07B68BE
:101DE8001B691846FFF760FD0346012B18D1786878
:101DF80000F0F8F80346002B12D17B685B7ADBB25F
:101E0800082B03D17B6801225A7202E07B682022EA
:101E18005A727B681B691846FFF71EFD0023FB8179
:101E2800FB8918461037BD4680BD80B586B002AF25
:101E3800F860B9607A603B600021F868FFF740FC01
:101E480003461A467968B868FFF7AAFE0021F868C1
:101E5800FFF736FC02463B68002100917968B868B4
:101E6800FFF760FEBA697968B868FFF735FE7968E8
:101E7800B868FFF7CFFE7968B868FFF7EDFE7968B4
:101E8800B868FFF7CBFD00BF1037BD4680BD80B5F1
:101E980084B000AFF860B9607A607968B868FFF715
:101EA800DFFD7968B868FFF71BFF7968B868FFF746
:101EB80039FF7968B868FFF7F1FE00227968B868D9
:101EC800FFF70AFE00BF1037BD4680BD80B584B05D
:101ED80000AF786039600223FB737B68DB79012BE4
:101EE8000FD17B68DA687B681B685B00D118FB7BC5
:101EF8007A68126802FB03F31A4638680FF098F9FB
:101F08000AE07B68D968FB7B7A68126802FB03F3F6
:101F18001A4638680FF08CF900BF1037BD4680BDEF
:101F280080B586B000AFF860B9607A60FB685A691E
:101F3800FB689B7919461046FFF716FF0346DBB28C
:101F4800012B37D1FB685A69BB681046984703468E
:101F5800012B2FD1FB6804225A72FB685A697B68EF
:101F680010469847FB685A69FB689B7919461046E2
:101F7800FFF798FD0346002B19D1FB685A69FB68E7
:101F88009B7919461046FFF76BFDFB685869FB689B
:101F98009B791946FB681B681A46FFF79DFDFB688D
:101FA8005A69FB689B7919461046FFF737FD0123EC
:101FB800FB7501E00023FB75FB7D18461837BD460D
:101FC80080BD000080B500AF034A04490448FFF70C
:101FD800A7FF00BF80BD00BF031C0008DD1B000871
:101FE8001004002080B582B000AF78607B681B6960
:101FF8001846FFF76CFC0346DBB2012B07D17B6860
:102008001B691846FFF776FC7B6810225A727B68BA
:102018005B7ADBB2102B0CBF01230023DBB218461E
:102028000837BD4680BD80B582B000AF78600B46EA
:10203800FB70FB78012B0DD17B681B691846FFF7F5
:1020480057FB0346012B12D07B681B691846FFF724
:1020580003FC0CE07B681B691846FFF782FB03460C
:10206800012B04D07B681B691846FFF709FC00BFE9
:102078000837BD4680BD000090B589B002AFF86052
:10208800084611461A4603467B810B463B81134698
:10209800FB8000237B61FB681B693C4A934201D1AA
:1020A8003B4B7B617B69002B6BD0FB681A697B69B2
:1020B8001A617B690022DA71FB88012B61D03B89A8
:1020C800002B47D07B695B7ADBB2082B42D0FB68D8
:1020D800DA687B69DA60FB681A687B691A60FB68F2
:1020E8005A697B695A61FB689A797B699A71FB68BE
:1020F8001A797B691A717B691B69B96A1846FFF7F7
:102108000AFB7B89012B21D07B89042B16D17B69A3
:102118001B6903211846FFF711FB7B6918697B6966
:1021280059697B699B791C467B69DA687B691B68FE
:10213800009313462246FFF778FE07E07B89022BBF
:1021480004D17B691B691846FFF7E1FB7B6908220C
:102158005A7216E03B89002B13D17B699B7ADBB25C
:10216800082B0ED0FB685A797B695A717B89022B40
:1021780004D17B691B691846FFF7D9FB7B690822E4
:102188009A727B6918461C37BD4690BD0001045001
:102198001004002080B582B000AF78607B681B69AE
:1021A8001846FFF719FB0346002B04D17B681B690F
:1021B8001846FFF7E9FA00BF0837BD4680BD80B56D
:1021C80086B000AFF8600B467A607B810123FB8202
:1021D800FB681B69002B46D07B89012B05D1F86869
:1021E800FFF7E0FD0346FB823DE07B89042B1FD10E
:1021F800FB681B691846FFF77BFA0346002B32D0B1
:10220800FB6801225A72FB681B691846FFF724FB1A
:1022180000BFFB685B7ADBB2042BFAD17968F868F7
:10222800FFF754FEFB6808225A720023FB821AE06B
:102238007B89022B17D1FB685B7ADBB2202B09D094
:10224800FB685B7ADBB2042B04D0FB685B7ADBB2F9
:10225800102B08D1FB6808225A727968F868FFF7D2
:1022680035FE0023FB82FB8A18461837BD4680BD21
:1022780080B582B000AF78600B467B8013463B8008
:102288007B681B691846FFF7A7FA0346002B04D0A2
:102298007B681B691846FFF78BFA7B681B69184631
:1022A800FFF7A8FB0346002B04D07B681B69184680
:1022B800FFF77DFB7B681B691846FFF788FB034621
:1022C800002B04D07B681B691846FFF750FB3B883E
:1022D800002B35D07B88012B1AD07B88022B05D1A7
:1022E8007B681B691846FFF732FB11E07B88042BDB
:1022F8000ED17B6818697B6859697B689B791A4697
:10230800FFF7C5FD7B681B6900211846FFF716FA21
:102318007B680022DA607B6800221A607B680022F2
:102328005A617B6800229A717B6800221A717B6867
:102338001A697B681B7919461046FFF7ECF90AE021
:102348007B6800225A717B88022B04D17B681B6949
:102358001846FFF71CFB00BF0837BD4680BD0000CC
:1023680080B584B000AF78600B46FB707B681B6952
:102378001846FFF731FA0346FB7397F90F30012B24
:1023880004D17B681B691846FFF712FAFB78002B0B
:102398000FD17B681B697F211846FFF730FA00BF11
:1023A8007B681B691846FFF743FA0346012BF7D0F1
:1023B80040E0FB78012B0FD17B681B692C4918463C
:1023C800FFF71DFA00BF7B681B691846FFF730FA54
:1023D8000346012BF7D02DE07B681B697F21184647
:1023E800FFF70DFA00BF7B681B691846FFF720FA54
:1023F8000346012BF7D00023BB8107E000BFBB8950
:102408001BB29BB201339BB21BB2BB81BB891BB20F
:102418009BB2032BF2D97B681B6915491846FFF755
:10242800EEF900BF7B681B691846FFF701FA0346FF
:10243800012BF7D00023BB8107E000BFBB891BB28B
:102448009BB201339BB21BB2BB81BB891BB29BB24F
:10245800032BF2D997F90F30012B04D17B681B6944
:102468001846FFF791F900BF1037BD4680BD00BF81
:1024780000007F4080B483B000AF78607B681B6841
:1024880043F001027B681A6000BF0C37BD465DF857
:10249800047B704780B483B000AF78607B681B68AA
:1024A80023F001027B681A6000BF0C37BD465DF857
:1024B800047B704780B483B000AF786039607B6874
:1024C8001B6823F004023B681A437B681A6000BF4C
:1024D8000C37BD465DF8047B704780B483B000AF0D
:1024E80078607B681B6803F0040318460C37BD4608
:1024F8005DF8047B704780B483B000AF78603960C2
:102508007B683A681A6300BF0C37BD465DF8047BE8
:10251800704780B483B000AF786039607B683A68F0
:102528005A6300BF0C37BD465DF8047B704780B422
:1025380083B000AF786039607B683A689A6300BFFF
:102548000C37BD465DF8047B704780B483B000AF9C
:10255800786039607B683A68DA6300BF0C37BD463B
:102568005DF8047B704780B483B000AF7860396051
:102578007B683A681A6400BF0C37BD465DF8047B77
:10258800704780B483B000AF78607B685B6B184697
:102598000C37BD465DF8047B704780B483B000AF4C
:1025A80078607B689B6B18460C37BD465DF8047BEA
:1025B800704780B483B000AF78607B68DB6B1846E7
:1025C8000C37BD465DF8047B704780B483B000AF1C
:1025D80078607B681B6C18460C37BD465DF8047B39
:1025E800704780B483B000AF78607B685B6943F064
:1025F80001027B685A6100BF0C37BD465DF8047B59
:10260800704780B483B000AF78607B681B69184658
:102618000C37BD465DF8047B704780B483B000AFCB
:10262800786039607B683A689A6100BF0C37BD46AC
:102638005DF8047B704780B483B000AF7860396080
:102648007B683A689A6200BF0C37BD465DF8047B28
:10265800704780B582B000AF786039607B681B68CE
:102668001846FFF78EFF02463B68934205D07B6809
:102678001B6839681846FFF74CFF00BF0837BD468E
:1026880080BD80B582B000AF786039607B681B6818
:102698001846FFF782FF02463B68934205D07B68E5
:1026A8001B6839681846FFF742FF00BF0837BD4668
:1026B80080BD80B582B000AF786039607B681B68E8
:1026C8001846FFF776FF02463B68934205D07B68C1
:1026D8001B6839681846FFF738FF00BF0837BD4642
:1026E80080BD80B582B000AF786039607B681B68B8
:1026F8001846FFF76AFF02463B68934205D07B689D
:102708001B6839681846FFF72EFF00BF0837BD461B
:1027180080BD000080B485B000AF78607B681B681E
:102728009A68074B1340FB60FB68062B0CBF01231C
:102738000023DBB218461437BD465DF8047B7047AA
:102748000700010080B584B000AF78600B46FB70CD
:102758007B681B681846FFF7C0FEF860FB78002B03
:102768001ED07B681B68324A934213D07B681B6873
:10277800304A93420ED07B681B682F4A934209D097
:102788007B681B682D4A934204D07B681B682C4ADF
:10279800934205D17B681B6800211846FFF7ABFE02
:1027A800FB68042B11D07B681B6804211846FFF7CF
:1027B80081FE7B681B681846FFF713FF7B681B6860
:1027C800F9681846FFF776FE04E07B681B68184630
:1027D800FFF707FF7B681B681846FFF74BFEFB787F
:1027E800002B20D07B681B68114A934213D07B686A
:1027F8001B68104A93420ED07B681B680E4A9342AE
:1028080009D07B681B680D4A934204D07B681B681B
:102818000B4A934207D17B681A687B685B79194633
:102828001046FFF768FE00BF1037BD4680BD00BFE9
:10283800002C0140003401400040014000440140A8
:102848000048014080B582B000AF78607B681B68A3
:102858001846FFF71FFE00BF0837BD4680BD0000C1
:1028680080B483B000AF7860074B5B79002B0CBF56
:1028780001230023DAB27B6801331A7000BF0C37DA
:10288800BD465DF8047B7047B020002080B400AFDF
:102898000C4B5B79002B0CBF01230023DAB2094BE8
:1028A8009A71084B5A790132D2B25A71054B5B7949
:1028B800032B02D9034B00225A7100BFBD465DF8B5
:1028C800047B7047B020002080B485B000AF7860EA
:1028D80039607B68012283F8D8203B68D3E900235C
:1028E8007968C1E902237B6801221A600023FB6032
:1028F8000CE07B68D3E902237868F9680231C900E3
:102908000144C1E90023FB680133FB60FB68182B15
:10291800EFDD00BF00BF1437BD465DF8047B70478C
:1029280080B586B000AF87ED040BF860B9607A60B7
:10293800BB68D3E902017B68D3E90023FEF744F8BA
:102948000346002B05D17B68D3E90023B968C1E9A8
:102958000223F868BB681033C82219460EF068FCD9
:10296800F968D7E90423C1E93223FB6803F1D000F1
:10297800BB681033C02219460EF05AFCBB6803F13D
:102988001000FB68C833C82219460EF051FC00BF7E
:102998001837BD4680BD80B485B000AF7860396017
:1029A8007B68012283F860203B68D3E900237968BB
:1029B800C1E902237B6801221A600023FB600CE056
:1029C8007B68D3E902237868F9680231C9000144B9
:1029D800C1E90023FB680133FB60FB68092BEFDDCD
:1029E80000BF00BF1437BD465DF8047B704780B553
:1029F80086B000AF87ED040BF860B9607A60BB68F9
:102A0800D3E902017B68D3E90023FDF7DDFF034624
:102A1800002B05D17B68D3E90023B968C1E90223FB
:102A2800F868BB681033502219460EF001FCF968AB
:102A3800D7E90423C1E91423FB6803F15800BB68F4
:102A48001033482219460EF0F3FBBB6803F110005F
:102A5800FB685033502219460EF0EAFB00BF1837C6
:102A6800BD4680BD80B584B000AF87ED000B3868E7
:102A78007B6823F000414FF000022C4BFDF7AEFFBE
:102A88000346002B42D04FF00002294BD7E9000142
:102A9800FDF7B8FF0346002B13D04FF00002244B7C
:102AA800D7E90001FDF772FB02460B4643EC172BF2
:102AB800B0EE470AF0EE670A0EF0BEF987ED020B9A
:102AC80028E04FF000021B4BD7E90001FDF7A4FFF7
:102AD8000346002B06D04FF000024FF00003C7E971
:102AE800022317E04FF00002114BD7E90001FDF770
:102AF8004BFB02460B4643EC172BB0EE470AF0EEB1
:102B0800670A0EF011F987ED020B03E0D7E90023FD
:102B1800C7E90223D7E9022343EC172BB0EE470A93
:102B2800F0EE670A1037BD4680BD00BF0000304395
:102B38000000E03F0000E0BFB0B588B000AFF8602B
:102B4800B9607A603B60964B93F8E430C3F30303B3
:102B5800DBB2013B082B00F20B8401A252F823F0F0
:102B68008D2B0008FD2C0008612E0008712F00082D
:102B7800C52F00083D3000080B310008D931000886
:102B88007D320008FB68D3E90045854BD3E91E0177
:102B980081A3D3E90023FDF7F9FA02460B46204644
:102BA8002946FDF739FF0346002B2CD0BB68D3E933
:102BB80000457B4BD3E91C0177A3D3E90023FDF73C
:102BC800E5FA02460B4620462946FDF725FF03464F
:102BD800002B18D0734B002283F8A020714B0022E1
:102BE80083F8A2206F4B002283F8A1206C4B0022AF
:102BF80083F8F0206A4A92F8E430032161F3030372
:102C080082F8E43075E07B6BD3E900017B68D3E997
:102C18000023FDF701FF0346002B0AD17B6BD3E9A4
:102C280000017B68D3E90023FDF7D8FE0346002B9B
:102C380018D05C4B002283F8A0205A4B002283F85E
:102C4800A220584B002283F8A120554B002283F87C
:102C5800F020534A92F8E430092161F3030382F823
:102C6800E43046E04E494FF000024F4BC1E91A23C9
:102C78004C4B002283F8A0204A4B002283F8A22064
:102C8800484B002283F8A12046494FF000024FF03C
:102C98000003C1E9162343494FF000024FF0000337
:102CA800C1E918233F494FF00002404BC1E9122304
:102CB8003C494FF000023D4BC1E91423384BD3E99E
:102CC80032233849C1E90C23354BD3E9322335493E
:102CD800C1E9102333494FF000024FF00003C1E966
:102CE8000A2330494FF000024FF00003C1E90E23D8
:102CF800BCE3BBE32A4BD3E92C014FF000024FF0B1
:102D08008043FDF761FE0346002B14D0254B0022BB
:102D180083F8A020234B002283F8A220214B002215
:102D280083F8A1201E4A92F8E430012161F30303DD
:102D380082F8E4309AE37B6BD3E900017B68D3E93E
:102D48000023FDF769FE0346002B0AD17B6BD3E90C
:102D580000017B68D3E90023FDF740FE0346002B02
:102D680026D0104B002283F8A0200E4B002283F8B7
:102D7800A2200C4B002283F8A120094B002283F8E3
:102D8800F020074A92F8E4300A2161F3030382F83D
:102D9800E4306BE3AFF300809A9999999999C93F08
:102DA80028160020A00400200000F0BF0000F03F1B
:102DB8009B4B93F8A030002B0CBF01230023DBB200
:102DC8001A46974B83F8A020954B93F8A230002B16
:102DD8000CBF01230023DBB21A46914B83F8A220D3
:102DE8008F4B93F8A130002B0CBF01230023DBB2DB
:102DF8001A468B4B83F8A1208A494FF000028A4B70
:102E0800C1E92C237B68D3E90001864BD3E922234F
:102E1800FDF7EEFD0346002B0AD07B6BD3E90001DA
:102E2800804BD3E92023FDF7E3FD0346002B0BD1AC
:102E38007C4BD3E91A014FF000027C4BFDF7E2FD11
:102E48000346002B00D111E376494FF000024FF002
:102E58008043C1E92C2309E3724B93F8F0304F2BE0
:102E680047D9704A92F8E430052161F3030382F8E8
:102E7800E4303B6BD3E900016A4BD3E92423FDF727
:102E880083F902460B461146B96123F00043FB6102
:102E98003B68D3E90001634BD3E92623FDF774F9B6
:102EA80002460B461146396123F000437B61D7E99E
:102EB8000423D7E90601FDF7AFFD0346002B06D032
:102EC80058494FF000025A4BC1E92C23CEE2D7E90A
:102ED8000423D7E90601FDF781FD0346002B00D145
:102EE800C4E250494FF000024FF00003C1E92C231F
:102EF800BCE24B494FF000024FF00003C1E90C233C
:102F080047494FF000024FF00003C1E9102344493C
:102F18004FF000024FF00003C1E90A2340494FF087
:102F280000024FF00003C1E90E233D494FF00002B3
:102F38004FF00003C1E9122339494FF000024FF066
:102F48000003C1E9142336494FF00002384BC1E9A8
:102F5800162333494FF00002354BC1E91823304B93
:102F6800012283F8A22081E22E4BD3E92C014FF0F5
:102F780000024FF00003FDF727FD0346002B08D0A1
:102F8800284A92F8E430012161F3030382F8E4301F
:102F98006CE2244BD3E92C014FF00002244BFDF7DF
:102FA80013FD0346002B00D160E21E4A92F8E4307C
:102FB800022161F3030382F8E43057E2194BD3E9A5
:102FC8002C014FF000021A4BFDF7FEFC0346002BC4
:102FD8000CD0144B002283F8F020124A92F8E43007
:102FE800062161F3030382F8E4303FE20D4BD3E995
:102FF8002C014FF000024FF00003FDF7E5FC0346FB
:10300800002B00D132E2074B002283F8F020054A5A
:1030180092F8E430072161F3030382F8E43025E2F3
:10302800A0040020281600200000F0BF000008407F
:103038000000F03F9A4B93F8F030332B28D9984B87
:10304800002283F8F020964A92F8E430082161F3D0
:10305800030382F8E43093494FF000024FF0000375
:10306800C1E90C238F494FF000024FF00003C1E97A
:1030780010238C494FF000024FF00003C1E90A23E6
:1030880088494FF000024FF00003C1E90E23EDE13B
:10309800844B012283F8A02082494FF000024FF0B0
:1030A8000003C1E90C237F4979A3D3E90023C1E9CF
:1030B80010237C4976A3D3E90023C1E90A2379497F
:1030C8004FF000024FF00003C1E90E2375494FF09D
:1030D8000002754BC1E9122372494FF00002724B8E
:1030E800C1E914236F494FF000024FF00003C1E912
:1030F80016236C494FF000024FF00003C1E9182372
:10310800B4E1674B93F8F030332B28D9644B002295
:1031180083F8F020624A92F8E430082161F303034F
:1031280082F8E4305F494FF000024FF00003C1E934
:103138000C235C494FF000024FF00003C1E9102353
:1031480058494FF000024FF00003C1E90A235549DE
:103158004FF000024FF00003C1E90E2386E1514B06
:10316800012283F8A1204F4949A3D3E90023C1E9EB
:103178000C234C494FF000024FF00003C1E9102323
:1031880048494FF000024FF00003C1E90A234549BE
:103198003FA3D3E90023C1E90E2342494FF00002BF
:1031A800414BC1E912233F494FF000023E4BC1E9B0
:1031B80014233C494FF000024FF00003C1E91623E5
:1031C80038494FF000024FF00003C1E918234DE1E0
:1031D800334B93F8F030272B40F24781304A92F86E
:1031E800E430042161F3030382F8E4302C494FF002
:1031F80000024FF00003C1E92C232A4B002283F878
:10320800A020284B002283F8A220264B002283F816
:10321800A120FB68D3E90045214BD3E91E011EA379
:10322800D3E90023FCF7B2FF02460B4620462946A5
:10323800FDF7D4FB0346002B00D116E1BB68D3E9A8
:103248000045174BD3E91C0113A3D3E90023FCF76E
:103258009DFF02460B4620462946FDF7BFFB034665
:10326800002B00D101E10E494FF000020E4BC1E9DD
:103278002C23FAE00A4B93F8F030032B16D9084AAE
:1032880092F8E430012161F3030382F8E430EDE0C1
:10329800000000000070A7409A9999999999C93F30
:1032A80028160020A00400200000F03F7B6BD3E923
:1032B80000017B68D3E90023FDF7AEFB0346002B32
:1032C80024D06C4B012283F8A1206B4BD3E9322325
:1032D8006849C1E90C23684BD3E93201664BD3E94D
:1032E8003423FCF753FF02460B466249C1E9102319
:1032F80060494FF000024FF00003C1E90A235D491D
:103308004FF000024FF00003C1E90E237B6BD3E9B5
:1033180000017B68D3E90023FDF760FB0346002B1F
:1033280000D1A3E0534B012283F8A020524BD3E9EC
:103338003201514BD3E93423FCF728FF02460B46F0
:103348004C49C1E90C234C4BD3E932234949C1E923
:10335800102348494FF000024FF00003C1E90A2347
:1033680044494FF000024FF00003C1E90E237DE00D
:10337800414B93F8F030032B08D93F4A92F8E430D8
:10338800022161F3030382F8E4306FE03A4BD3E99A
:103398001A014FF00002394BFCF7F8FE02460B46C3
:1033A8003549C1E91A237B6BD3E900017B68D3E96E
:1033B8000023FDF731FB0346002B24D02D4B0122BF
:1033C80083F8A1202C4BD3E936232A49C1E90C23E1
:1033D800294BD3E93601284BD3E93423FCF7D6FE31
:1033E80002460B462349C1E9102322494FF0000247
:1033F8004FF00003C1E90A231E494FF000024FF0C5
:103408000003C1E90E237B6BD3E900017B68D3E994
:103418000023FDF7E3FA0346002B00D126E0154B05
:10342800012283F8A020144BD3E93601124BD3E9CB
:103438003423FCF7ABFE02460B460E49C1E90C23C8
:103448000D4BD3E936230B49C1E9102309494FF045
:1034580000024FF00003C1E90A2306494FF00002B9
:103468004FF00003C1E90E2300E000BF00BF203782
:10347800BD46B0BDA0040020281600200000F03F83
:1034880080B58CB002AF78607B6800221A727B68C6
:1034980001225A607B681033BB6100237B741A4B8E
:1034A800FB611A4B3B620123BB74002387F824306D
:1034B800022387F825300923FB6009233B7407F1B1
:1034C8000C0008230093042301220421FEF7D4FDF5
:1034D80002467B68DA607B68DB6802211846FEF7E3
:1034E8003FFF7B68DB681846FEF754FE7B68DB68A5
:1034F80001211846FEF797FD7B6801221A7200BF6A
:103508002837BD4680BD00BF0001045000000240BE
:1035180080B5A6B000AF78601A4BBB6000233B7340
:1035280000237B7307F108031846FEF72FF80246BD
:103538007B68DA607B68DB6800211846FDF7E1FCF0
:103548007B68DB6802211846FDF710FE7B68DB68A4
:1035580002211846FDF7AAFE7B68DB681846FFF7CC
:10356800D9F8034687F8973097F89730002B05D19C
:103578007B68DB6800211846FFF7E4F800BF98373E
:10358800BD4680BD0004004080B5A6B000AF78609D
:103598001A4BBB6000233B7300237B7307F10803BE
:1035A8001846FDF7F3FF02467B68DA607B68DB6844
:1035B80000211846FDF7A5FC7B68DB680221184648
:1035C800FDF714FF7B68DB6802211846FDF7B6FF9C
:1035D8007B68DB681846FFF79DF8034687F8973045
:1035E80097F89730002B05D17B68DB6800211846D7
:1035F800FFF7A8F800BF9837BD4680BD000400401B
:103608002DE9B04FA2B002AFFFF740F9804BDB685D
:10361800804A04211846FEF7D2FD7D4BB3F8E83006
:10362800A7F876307B4BDB897B4A1382794B1B8862
:10363800794AD383774B9B89774A5382754B5B884A
:10364800754A9383734B5B89734A9382714B9B884A
:10365800714A53836F4B1B896F4AD3826D4BDB884A
:103668006D4A13830023FB670BE06B4AFB6F08333B
:1036780032F813306849FA6F21F81230FB6F0133C2
:10368800FB67FB6F072BF0DD634B5B881846FCF785
:10369800B9FE04460D46614A6149624845EC104B43
:1036A800FFF7A5F95C4B03F5536353E90223C7E918
:1036B80014230023FB671DE0FB6F0133564A03F216
:1036C800A513DB001344D3E900235349C1E924239C
:1036D800514BD3E92401D7E91423FDF79DF903469B
:1036E800002B04D04C4BD3E92423C7E91423FB6FE8
:1036F8000133FB67FB6F082BDEDD97ED147B4A4A2D
:103708004A494B48B0EE470AF0EE670AFFF708F956
:10371800414B03F5805353E902233F49C1E9222372
:103728000023FB671FE0FB6F01333B4A03F2FF13E3
:10373800DB001344D3E900233749C1E92423364B7E
:10374800D3E92201344BD3E92423FDF765F9034675
:10375800002B05D0304BD3E924232F49C1E922237C
:10376800FB6F0133FB67FB6F172BDCDD2A4B9B8854
:103778001846FCF747FE04460D462E4A2E492F48A8
:1037880045EC104BFFF7CCF8234B03F5086353E9DE
:103798000223C7E914230023FB671DE0FB6F0133F5
:1037A8001D4A03F20F13DB001344D3E900231A491F
:1037B800C1E92423184BD3E92401D7E91423FDF7E1
:1037C8002BF90346002B04D0134BD3E92423C7E974
:1037D8001423FB6F0133FB67FB6F172BDEDD0E4BEA
:1037E800DB881846FCF70EFE04460D46144A1549B8
:1037F800154845EC104BFFF793F8074B03F5AC63FE
:1038080053E90223C7E918230023FB673BE000BF05
:10381800281600204C040020A00400206801002085
:10382800201E0020C811002080010020D01F002089
:103838009814002050010020801B0020180D002043
:1038480040010020C0190020F8090020FB6F013357
:103858006E4AAB33DB001344D3E900236B49C1E95B
:1038680024236A4BD3E92401D7E91823FDF7D4F8B8
:103878000346002B04D0654BD3E92423C7E918235A
:10388800FB6F0133FB67FB6F172BDFDD5F4B1B897A
:103898001846FCF7B7FD04460D465D4A5D495E488B
:1038A80045EC104BFFF73CF8584BD3E9F223C7E936
:1038B8001A230023FB671CE0FB6F0133534A79335B
:1038C800DB001344D3E900235049C1E924234F4BBB
:1038D800D3E92401D7E91A23FDF79EF80346002B04
:1038E80004D04A4BD3E92423C7E91A23FB6F0133D9
:1038F800FB67FB6F172BDFDD444B5B891846FCF732
:1039080081FD04460D46454A4549464845EC104B5D
:10391800FFF706F83D4BD3E98E23C7E916230023AA
:10392800FB671CE0FB6F0133384A4733DB00134465
:10393800D3E900233549C1E92423344BD3E92401D1
:10394800D7E91623FDF768F80346002B04D02F4B60
:10395800D3E92423C7E91623FB6F0133FB67FB6F09
:10396800172BDFDD294B9B891846FCF74BFD0446D6
:103978000D462D4A2D492E4845EC104BFFF737F8D8
:10398800224B03F55D6353E902232049C1E926234D
:103998000023FB671FE0FB6F01331C4A03F2B913D6
:1039A800DB001344D3E900231849C1E92423174B4A
:1039B800D3E92601154BD3E92423FDF70FF8034675
:1039C800002B05D0114BD3E924231049C1E9262344
:1039D800FB6F0133FB67FB6F082BDCDD0B4B93EDB3
:1039E800267B144A14491548B0EE470AF0EE670AD8
:1039F800FEF796FF054B03F5676353E90223034976
:103A0800C1E926230023FB673AE000BFA004002099
:103A180038010020E018002068080020300100204C
:103A280000180020D806002070010020881E002001
:103A38006812002078010020F01E002008130020E2
:103A4800FB6F0133B64A03F2CD13DB001344D3E90D
:103A58000023B349C1E92423B14BD3E92601B04B74
:103A6800D3E92423FCF7D8FF0346002B05D0AC4B41
:103A7800D3E92423AA49C1E92623FB6F0133FB6755
:103A8800FB6F172BDCDDA74BB3F8EA30A7F87430CF
:103A9800A54AB7F876301380A14B93ED227BB0EEA0
:103AA800470AF0EE670A0DF0C7F9B0EE407AF0EE7B
:103AB800607A9FED991BB0EE470AF0EE670A0DF0A9
:103AC800FDF8B0EE407AF0EE607A954B83ED247BFA
:103AD800934BD3E924014FF000024FF00003FCF7A9
:103AE8007DFF0346002B0ED08D4BD3E9242390464F
:103AF80083F0004940464946FCF7AEFF03469BB2B7
:103B08005B429BB208E0864BD3E924231046194652
:103B1800FCF7A2FF03469BB2834A538097ED147BC0
:103B2800B0EE470AF0EE670A0DF086F9B0EE407A7B
:103B3800F0EE607A9FED781BB0EE470AF0EE670A68
:103B48000DF0BCF8B0EE407AF0EE607A744B83ED7D
:103B5800247B734BD3E924014FF000024FF000039C
:103B6800FCF73CFF0346002B0ED06D4BD3E9242312
:103B7800924683F0004B50465946FCF76DFF0346CA
:103B88009BB25B429BB208E0654BD3E92423104605
:103B98001946FCF761FF03469BB2634A938097ED91
:103BA800187BB0EE470AF0EE670A0DF045F9B0EE63
:103BB800407AF0EE607A9FED581BB0EE470AF0EEBF
:103BC800670A0DF07BF8B0EE407AF0EE607A544B5D
:103BD80083ED247B524BD3E924014FF000024FF0D0
:103BE8000003FCF7FBFE0346002B0FD04C4BD3E938
:103BF8002423BA6483F00043FB64D7E91201FCF77D
:103C08002BFF03469BB25B429BB208E0444BD3E9CF
:103C1800242310461946FCF71FFF03469BB2424A6D
:103C2800D38097ED1A7BB0EE470AF0EE670A0DF0E5
:103C380003F9B0EE407AF0EE607A9FED371BB0EEF4
:103C4800470AF0EE670A0DF039F8B0EE407AF0EE68
:103C5800607A334B83ED247B314BD3E924014FF059
:103C680000024FF00003FCF7B9FE0346002B0FD00B
:103C78002B4BD3E924233A6483F000437B64D7E9D0
:103C88001001FCF7E9FE03469BB25B429BB208E0D9
:103C9800234BD3E9242310461946FCF7DDFE0346DF
:103CA8009BB2214A138197ED167BB0EE470AF0EEDE
:103CB800670A0DF0C1F8B0EE407AF0EE607A9FED39
:103CC800161BB0EE470AF0EE670A0CF0F7FFB0EEED
:103CD800407AF0EE607A124B83ED247B104BD3E9E7
:103CE80024014FF000024FF00003FCF777FE034673
:103CF800002B1BD00A4BD3E92423BA6383F000437B
:103D0800FB63D7E90E01FCF7A7FE03469BB25B42B3
:103D18009BB214E0AFF30080000000000000F04008
:103D2800A00400202816002060040020924BD3E94C
:103D3800242310461946FCF78FFE03469BB28F4A90
:103D480053818D4B93ED267BB0EE470AF0EE670A60
:103D58000DF072F8B0EE407AF0EE607A9FED841BB9
:103D6800B0EE470AF0EE670A0CF0A8FFB0EE407A12
:103D7800F0EE607A804B83ED247B7F4BD3E92401FE
:103D88004FF000024FF00003FCF728FE0346002B1B
:103D98000FD0794BD3E924233A6383F000437B6344
:103DA800D7E90C01FCF758FE03469BB25B429BB275
:103DB80008E0714BD3E9242310461946FCF74CFE62
:103DC80003469BB26D4A93816C4AB7F87430D3812D
:103DD8006B4BB3F81431694A13826A4BB3F8EC3071
:103DE800A7F87630644B5B881846FCF70BFB044653
:103DF8000D46654A6549664845EC104BFEF790FD4F
:103E08005D4B03F53A6353E902235B49C1E9222379
:103E18000023FB671FE0FB6F0133574A03F273135C
:103E2800DB001344D3E900235349C1E92423524B4F
:103E3800D3E92201504BD3E92423FCF7EDFD0346D7
:103E4800002B05D04C4BD3E924234B49C1E922234D
:103E5800FB6F0133FB67FB6F172BDCDD464B03F56C
:103E6800086353E902234449C1E926230023FB6779
:103E78001FE0FB6F0133404A03F20F13DB001344CA
:103E8800D3E900233C49C1E924233B4BD3E926016C
:103E9800394BD3E92423FCF7BFFD0346002B05D09B
:103EA800354BD3E924233449C1E92623FB6F013379
:103EB800FB67FB6F172BDCDD2F4B03F5AC6353E976
:103EC8000223C7E914230023FB671CE0FB6F0133BF
:103ED800294AAB33DB001344D3E900232649C1E95F
:103EE8002423254BD3E92401D7E91423FCF776FDD5
:103EF8000346002B04D0204BD3E92423C7E914231D
:103F0800FB6F0133FB67FB6F172BDFDD1A4BD3E920
:103F1800F223C7E918230023FB671CE0FB6F01337A
:103F2800154A7933DB001344D3E900231249C1E968
:103F38002423114BD3E92401D7E91823FCF74EFDBC
:103F48000346002B04D00C4BD3E92423C7E91823DC
:103F5800FB6F0133FB67FB6F172BDFDD064BD3E9E4
:103F68008E23C7E91A230023FB6730E0AFF30080F4
:103F7800000000000000F040A004002060040020C1
:103F8800000000202816002060010020401D0020AD
:103F980038100020FB6F0133B14A4733DB0013446C
:103FA800D3E90023AE49C1E92423AD4BD3E9240169
:103FB800D7E91A23FCF712FD0346002B04D0A84BBF
:103FC800D3E92423C7E91A23FB6F0133FB67FB6F8F
:103FD800172BDFDDA24B9B891846FCF713FA044622
:103FE8000D46A04AA049A14845EC104BFEF798FCA5
:103FF8009B4B03F5216353E90223C7E916230023EA
:10400800FB671DE0FB6F0133954A03F24113DB00A8
:104018001344D3E900239249C1E92423904BD3E9FF
:104028002401D7E91623FCF7D9FC0346002B04D05A
:104038008B4BD3E92423C7E91623FB6F0133FB67B6
:10404800FB6F172BDEDD8A4BB3F8EE30A7F8743020
:10405800884AB7F876301380814B93ED227BB0EE17
:10406800470AF0EE670A0CF0E7FEB0EE407AF0EE91
:10407800607A9FED791BB0EE470AF0EE670A0CF004
:104088001DFEB0EE407AF0EE607A754B83ED247B2E
:10409800734BD3E924014FF000024FF00003FCF703
:1040A8009DFC0346002B0FD06D4BD3E92423BA6245
:1040B80083F00043FB62D7E90A01FCF7CDFC034615
:1040C8009BB25B429BB208E0654BD3E924231046C0
:1040D8001946FCF7C1FC03469BB2664A5380604B05
:1040E80093ED267BB0EE470AF0EE670A0CF0A4FECB
:1040F800B0EE407AF0EE607A9FED571BB0EE470ABB
:10410800F0EE670A0CF0DAFDB0EE407AF0EE607A75
:10411800534B83ED247B524BD3E924014FF000022B
:104128004FF00003FCF75AFC0346002B0FD04C4B12
:10413800D3E924233A6283F000437B62D7E908017C
:10414800FCF78AFC03469BB25B429BB208E0444BF7
:10415800D3E9242310461946FCF77EFC03469BB29C
:10416800444A938097ED147BB0EE470AF0EE670A55
:104178000CF062FEB0EE407AF0EE607A9FED361BEE
:10418800B0EE470AF0EE670A0CF098FDB0EE407A00
:10419800F0EE607A324B83ED247B314BD3E9240176
:1041A8004FF000024FF00003FCF718FC0346002B09
:1041B8000FD02B4BD3E92423BA6183F00043FB6172
:1041C800D7E90601FCF748FC03469BB25B429BB269
:1041D80008E0234BD3E9242310461946FCF73CFC9E
:1041E80003469BB2234AD38097ED187BB0EE470A6B
:1041F800F0EE670A0CF020FEB0EE407AF0EE607A3E
:104208009FED151BB0EE470AF0EE670A0CF056FD5D
:10421800B0EE407AF0EE607A114B83ED247B104BC0
:10422800D3E924014FF000024FF00003FCF7D6FB5E
:104238000346002B20D00A4BD3E924233A6183F0AC
:1042480000437B61D7E90401FCF706FC03469BB2F7
:104258005B429BB219E000BF000000000000F04084
:10426800A004002058010020601C0020A80E002097
:104278002816002074040020854BD3E92423104617
:104288001946FCF7E9FB03469BB2824A138197ED76
:104298001A7BB0EE470AF0EE670A0CF0CDFDB0EEDF
:1042A800407AF0EE607A9FED781BB0EE470AF0EEA8
:1042B800670A0CF003FDB0EE407AF0EE607A744BBA
:1042C80083ED247B724BD3E924014FF000024FF0B9
:1042D8000003FCF783FB0346002B0FD06C4BD3E99C
:1042E8002423BA6083F00043FB60D7E90201FCF79E
:1042F800B3FB03469BB25B429BB208E0644BD3E935
:10430800242310461946FCF7A7FB03469BB2614AD3
:10431800538197ED167BB0EE470AF0EE670A0CF072
:104328008BFDB0EE407AF0EE607A9FED571BB0EE51
:10433800470AF0EE670A0CF0C1FCB0EE407AF0EEE6
:10434800607A534B83ED247B514BD3E924014FF022
:1043580000024FF00003FCF741FB0346002B0FD08F
:104368004B4BD3E924233A6083F000437B60D7E9C1
:104378000001FCF771FB03469BB25B429BB208E06D
:10438800434BD3E9242310461946FCF765FB034643
:104398009BB2404A93813F4AB7F87430D3813E4B71
:1043A800B3F81A213B4B1A823C4B9B79002B13D054
:1043B800374B1B881846FCF725F802460B46384948
:1043C800C1E91623324BDB891846FCF71BF8024675
:1043D8000B463349C1E918230023FB670CE0314A37
:1043E800FB6F134400221A702F4AFB6F002122F83A
:1043F8001310FB6F0133FB67FB6F072BEFDD2B4BB4
:1044080000221A602A4B00221A60254BD3F8E030AC
:104418001846FCF707F8204BD3E92423FCF7DEFA0B
:104428000346002B08D01E4BD3F8E030002B03DBEB
:10443800194BD3E9202303E04FF000024FF00003AB
:104448001349C1E92223164BD3F8E0301846FBF78D
:10445800E9FF04460D46104BD3E922014FF0000254
:10446800144BFBF791FE02460B4620462946FCF703
:10447800C9FA0346002B1FD0094B0022C3F8E020DD
:1044880021E000BFAFF30080000000000000F04012
:10449800A00400207404002000000020B0200020A8
:1044A80028160020980400208804002044040020D6
:1044B800480400200000F03FBF4BD3F8E030013340
:1044C800BD4AC2F8E030BD48FEF79BF8BC48FEF78D
:1044D80098F8B867BB4BB3F800311A46BA4B9B89BA
:1044E80002FB03F31846FBF78DFF4FF00002B74BB2
:1044F800FCF702F802460B4610461946B14BD3E9C1
:104508002823FCF723F902460B4643EC172BB0EEA1
:10451800470AF0EE670AFEF7A5FA51EC100BA94B13
:10452800D3E92823FBF7E8FF02460B46A849C1E96F
:104538002423A44BB3F802311A46A34B5B8802FB31
:1045480003F31846FBF75EFF4FF000029F4BFBF7A3
:10455800D3FF02460B46104619469A4BD3E92A2345
:10456800FCF7F4F802460B4643EC172BB0EE470A6B
:10457800F0EE670AFEF776FA51EC100B914BD3E98F
:104588002A23FBF7B9FF02460B469149C1E92623C6
:104598008C4BB3F804311A468B4B5B8902FB03F34F
:1045A8001846FBF72FFF4FF00002884BFBF7A4FFDC
:1045B80002460B4610461946824BD3E92C23FCF7DA
:1045C800C5F802460B4643EC172BB0EE470AF0EE4F
:1045D800670AFEF747FA51EC100B7A4BD3E92C2304
:1045E800FBF78AFF02460B46C7E91423754BB3F85D
:1045F80006311A46744B1B8902FB03F31846FBF776
:1046080001FF4FF00002714BFBF776FF02460B46A5
:10461800104619466B4BD3E92E23FCF797F8024650
:104628000B4643EC172BB0EE470AF0EE670AFEF78D
:1046380019FA51EC100B634BD3E92E23FBF75CFFFF
:1046480002460B46C7E918235E4BB3F808311A46F1
:104658005D4BDB8802FB03F31846FBF7D3FE4FF0F4
:1046680000025A4BFBF748FF02460B461046194614
:10467800544BD3E93023FCF769F802460B4643EC68
:10468800172BB0EE470AF0EE670AFEF7EBF951EC8C
:10469800100B4C4BD3E93023FBF72EFF02460B4699
:1046A800C7E91A23474BB3F80A311A46464B9B8889
:1046B80002FB03F31846FBF7A5FE4FF00002434B3D
:1046C800FBF71AFF02460B46104619463D4BD3E945
:1046D8003223FCF73BF802460B4643EC172BB0EEAF
:1046E800470AF0EE670AFEF7BDF951EC100B354B9F
:1046F800D3E93223FBF700FF02460B46C7E916232E
:104708002D4B93F8F0307E2B07D82B4B93F8F030D5
:104718000133DAB2284B83F8F020274B93F8E430C2
:1047280023F07F03DBB2002B40F0F780224A92F897
:10473800E43043F0800382F8E4301F4A92F8E43012
:10474800042161F3061382F8E430214B93F8A0307A
:10475800002B0CBF01230023DBB21A461C4B83F845
:10476800A0201B4B93F8A230002B0CBF0123002381
:10477800DBB21A46164B83F8A220154B93F8A130EA
:10478800002B0CBF01230023DBB21A46104B83F821
:10479800A120094906A3D3E90023C1E93223064928
:1047A8004FF000020B4BC1E93423034914E000BF6A
:1047B800000000000070A7402816002000040048F0
:1047C80000100048000000204C0400200000503E6B
:1047D800A004002000006940A1A3D3E90023C1E997
:1047E800362399494FF000024FF00003C1E90C232A
:1047F80095494FF000024FF00003C1E91023924998
:104808004FF000024FF00003C1E90A238E494FF030
:1048180000024FF00003C1E90E238C494FF000025B
:104828004FF00003C1E91C2388494FF000024FF004
:104838000003C1E91E2385494FF000024FF0000331
:10484800C1E9202381494FF000024FF00003C1E97C
:1048580026237E494FF000024FF00003C1E92423CC
:104868007A494FF000024FF00003C1E9222377494B
:104878004FF000024FF00003C1E91A2372494FF0CC
:1048880000024FF00003C1E912236F494FF0000204
:104898004FF00003C1E914236B494FF000024FF0B9
:1048A8000003C1E9162368494FF000024FF00003E6
:1048B800C1E9182364494FF00002654BC1E91A2386
:1048C80061494FF00002624BC1E91C235E494FF079
:1048D80000024FF00003C1E91E235B494FF00002BC
:1048E8004FF00003C1E92023584955A3D3E9002319
:1048F800C1E92E23554952A3D3E90023C1E9302346
:1049080052494FF00002534BC1E92C234F494FF055
:1049180000024F4BC1E92823A4E14C4B93F8E43043
:10492800C3F30213DBB2013B042B00F2588101A24E
:1049380052F823F051490008714900082B4A000831
:10494800D34A0008514B000807F1600107F15002F3
:1049580007F15803019307F1680300930B463E499A
:104968003E48FEF7E9F87DE1BB6F03F04003002BFA
:1049780010D1364A92F8E430012161F3061382F827
:10498800E430324A92F8E430012161F3030382F8FB
:10499800E43067E12C4B012283F8A0202A4B012246
:1049A80083F8A220284B012283F8A120264BD3E9C3
:1049B80026232649C1E91C23234BD3E92423234971
:1049C800C1E91E23D7E914232049C1E92223D7E9E5
:1049D80016231E49C1E920231C4BD3E92E01D7E930
:1049E8001623FCF719F80346002B04D0D7E9162341
:1049F8001649C1E92E23154BD3E93001D7E9142311
:104A0800FCF70AF80346002B04D0D7E914230F4912
:104A1800C1E930230D494FF000020D4BC1E92A23AB
:104A280020E10A4B93F8F030772B1DD9074A92F80A
:104A3800E430022161F3061382F8E43012E100BF8A
:104A48006666666666660A40A0040020281600208E
:104A58000000F03F0000F0BF3805002030050020BE
:104A68000000000000A8A640944B93F8A030002B4B
:104A78000CBF01230023DBB21A46904B83F8A02019
:104A88008E4B93F8A230002B0CBF01230023DBB21E
:104A98001A468A4B83F8A220884B93F8A130002B42
:104AA8000CBF01230023DBB21A46844B83F8A120F4
:104AB80082494FF00002824BC1E912237F494FF02F
:104AC80000027F4BC1E91423CCE07C494FF000027F
:104AD8007B4BC1E91A2379494FF00002784BC1E9B1
:104AE8001C2376494FF000024FF00003C1E91E2352
:104AF80072494FF000024FF00003C1E92023714BC7
:104B0800D3E928014FF000026D4BFBF75DFF034628
:104B1800002B00D1A6E06B4B002283F8F020694AF5
:104B280092F8E430062161F3061382F8E430634911
:104B38004FF00002624BC1E9162360494FF00002B2
:104B48005F4BC1E918238DE05E4BD3E92A014FF092
:104B580000025B4BFBF738FF0346002B1AD057497E
:104B68004FF000024FF00003C1E9162353494FF0FC
:104B780000024FF00003C1E91823524B002283F8CA
:104B8800F020504A92F8E430032161F3061382F8CA
:104B9800E43067E0494B93F8A030002B0CBF0123A9
:104BA8000023DBB21A46454B83F8A020434B93F809
:104BB800A230002B0CBF01230023DBB21A463F4B67
:104BC80083F8A2203D4B93F8A130002B0CBF0123A2
:104BD8000023DBB21A46394B83F8A12042E0394B57
:104BE80093F8F030772B18D9364A92F8E43005213B
:104BF80061F3061382F8E430D7E918233149C1E993
:104C08002623D7E91A232F49C1E924232D494FF038
:104C180000022B4BC1E92A2323E0284B93F8A0304C
:104C2800002B0CBF01230023DBB21A46234B83F869
:104C3800A020224B93F8A230002B0CBF01230023A5
:104C4800DBB21A461D4B83F8A2201C4B93F8A13007
:104C5800002B0CBF01230023DBB21A46174B83F845
:104C6800A12000BF154B184A1A62144BD3E91A0148
:104C7800164BD3E91023FBF7CFFE0346002B06D0D3
:104C88000E4BD3E922230D49C1E9242305E00F4B3C
:104C9800D3E902230949C1E92423084BD3E92401B4
:104CA8004FF000024FF00003FBF78EFE0346002B87
:104CB8000ED14FF40073FB670CE000BFA004002086
:104CC8000000F03F281600200010004800000020D7
:104CD8000023FB67994B1B6AFA6F11461846FDF7CC
:104CE8009CFC964B1A6AFB6FDB4303F4007319466E
:104CF8001046FDF7A0FC914B914A1A628F4BD3E9FD
:104D08001C01904BD3E91223FBF786FE0346002BC8
:104D180006D08A4BD3E922238849C1E9242305E038
:104D2800884BD3E908238549C1E92423834BD3E978
:104D380024014FF000024FF00003FBF745FE034645
:104D4800002B03D14FF48043FB6701E00023FB678E
:104D58007A4B1B6AFA6F11461846FDF75EFC774BD3
:104D68001A6AFB6FDB4303F4804319461046FDF7CC
:104D780062FC724B724A1A62704BD3E91201714B92
:104D8800D3E91423FBF748FE0346002B06D06B4BF0
:104D9800D3E922236949C1E9242305E0694BD3E912
:104DA80000236649C1E92423644BD3E924014FF069
:104DB80000024FF00003FBF707FE0346002B03D168
:104DC8004FF48073FB6701E00023FB675B4B1B6AB2
:104DD800FA6F11461846FDF720FC584B1A6AFB6F0C
:104DE800DB4303F4807319461046FDF724FC534B4C
:104DF800534A1A62514BD3E91401524BD3E9162393
:104E0800FBF70AFE0346002B06D04C4BD3E92223BE
:104E18004A49C1E9242305E04A4BD3E90A23474913
:104E2800C1E92423454BD3E924014FF000024FF098
:104E38000003FBF7C9FD0346002B03D14FF40043E1
:104E4800FB6701E00023FB673C4B1B6AFA6F1146C6
:104E58001846FDF7E2FB394B1A6AFB6FDB4303F494
:104E6800004319461046FDF7E6FB344B344A1A62F4
:104E7800324BD3E91601334BD3E91823FBF7CCFDAA
:104E88000346002B06D02D4BD3E922232B49C1E939
:104E9800242305E02B4BD3E904232849C1E9242323
:104EA800264BD3E924014FF000024FF00003FBF733
:104EB8008BFD0346002B03D14FF48053FB6701E0C1
:104EC8000023FB671D4B1B6AFA6F11461846FDF756
:104ED800A4FB1A4B1A6AFB6FDB4303F48053194691
:104EE8001046FDF7A8FB154B174A1A62134BD3E976
:104EF8002001144BD3E91A23FBF78EFD0346002B40
:104F080006D00E4BD3E922230C49C1E9242305E03E
:104F18000C4BD3E90E230949C1E92423074BD3E9F4
:104F280024014FF000024FF00003FBF74DFD03464C
:104F3800002B0BD14FF48053FB6709E0A00400203D
:104F48000010004800000020000400480023FB6710
:104F5800A04B1B6AFA6F11461846FDF75EFB9D4B86
:104F68001A6AFB6FDB4303F4805319461046FDF7BA
:104F780062FB984B984A1A62964BD3E91E01974BED
:104F8800D3E91C23FBF748FD0346002B06D0914BC1
:104F9800D3E922238F49C1E9242305E08F4BD3E9C4
:104FA8000C238C49C1E924238A4BD3E924014FF00F
:104FB80000024FF00003FBF707FD0346002B03D167
:104FC8004FF40053FB6701E00023FB67814B1B6A2A
:104FD800FA6F11461846FDF720FB7E4B1A6AFB6FE5
:104FE800DB4303F4005319461046FDF724FB794BC5
:104FF800794A1A62774BD3E91801784BD3E91E2313
:10500800FBF7F6FC0346002B05D0744BD3E90623C7
:105018007049C1E922236F4BD3E922014FF0000206
:105028004FF00003FBF7D0FC0346002B03D14FF4ED
:105038000063FB6701E00023FB67664B1B6AFA6F9E
:1050480011461846FDF7E9FA624B1A6AFB6FDB4313
:1050580003F4006319461046FDF7EDFA5D4B93ED36
:105068000E7BB0EE470AF0EE670AFDF7FBFCB0EEE8
:10507800407AF0EE607A574B83ED247B554BD3E9A9
:1050880024014FF00002564BFBF7A8FC0346002B07
:1050980018D0504BD3E924014FF000024FF0000321
:1050A800FBF7B0FC0346002B09D04A4BD3E9242375
:1050B80010461946FBF7D0FC0346BB6705E0002302
:1050C800BB6702E04FF0FF33BB67464B1B6CB96F01
:1050D8001846FCF7D3FAB867424B1B6CB96F1846F1
:1050E800FDF7B7FA3B4B93ED107BB0EE470AF0EEB5
:1050F800670AFDF7B7FCB0EE407AF0EE607A354B00
:1051080083ED247B334BD3E924014FF00002344B69
:10511800FBF764FC0346002B18D02E4BD3E924017F
:105128004FF000024FF00003FBF76CFC0346002B26
:1051380009D0284BD3E9242310461946FBF78CFCE9
:105148000346BB6705E00023BB6702E04FF0FF336F
:10515800BB67244B1B6CB96F1846FCF78FFAB8670E
:10516800204B1B6CB96F1846FDF78BFA194B93ED62
:105178000C7BB0EE470AF0EE670AFDF773FCB0EE61
:10518800407AF0EE607A134B83ED247B114BD3E920
:1051980024014FF00002124BFBF720FC0346002BC2
:1051A80022D00C4BD3E924014FF000024FF000034A
:1051B800FBF728FC0346002B09D0064BD3E9242330
:1051C80010461946FBF748FC0346BB670FE000236F
:1051D800BB670CE0A004002000100048000000207D
:1051E8000000F041281600204FF0FF33BB67804BCA
:1051F8001B6DB96F1846FCF741FAB8677C4B1B6DFD
:10520800B96F1846FDF755FA7A4B93ED0A7BB0EE65
:10521800470AF0EE670AFDF725FCB0EE407AF0EE9B
:10522800607A744B83ED247B724BD3E924014FF0F1
:105238000002714BFBF7D2FB0346002B18D06D4BD5
:10524800D3E924014FF000024FF00003FBF7DAFB2B
:105258000346002B09D0674BD3E92423104619468F
:10526800FBF7FAFB0346BB6705E00023BB6702E0D8
:105278004FF0FF33BB675E4B1B6DB96F1846FCF7E9
:10528800FDF9B8675A4B1B6DB96F1846FDF729FA37
:10529800584B5A4A1A625A4BD3E938014FF0000268
:1052A8004FF00003FBF790FB0346002B02D180234D
:1052B800FB6701E00023FB674E4B1B6AFA6F114640
:1052C8001846FDF7AAF94B4B1A6AFB6FDB4303F04C
:1052D800800319461046FDF7AEF9464B494A1A6253
:1052E800444B93F8A030002B03D04FF40053FB67D6
:1052F80001E00023FB673F4B1B6AFA6F1146184613
:10530800FDF78BF93B4B1A6AFB6FDB4303F4005341
:1053180019461046FDF78FF9364B3A4A1A62354B53
:1053280093F8A230002B03D04FF48043FB6701E0D1
:105338000023FB672F4B1B6AFA6F11461846FDF7CF
:105348006CF92C4B1A6AFB6FDB4303F48043194654
:105358001046FDF770F9274B2A4A1A62254B93F835
:10536800A130002B03D04FF40043FB6701E000237A
:10537800FB67204B1B6AFA6F11461846FDF74DF97B
:105388001C4B1A6AFB6FDB4303F4004319461046B3
:10539800FDF751F9174B1C4A1A62194BD3E93A0128
:1053A8004FF000024FF00003FBF70EFB0346002B03
:1053B80002D10823FB6701E00023FB670D4B1B6A42
:1053C800FA6F11461846FDF728F90A4B1A6AFB6F5F
:1053D800DB4303F0080319461046FDF72CF900F0EB
:1053E800F3FC00F007FE00BF8037BD46BDE8B08F74
:1053F80028160020A00400200000F041000C0048FE
:1054080000000020000800480004004800000000D8
:10541800B0B58EB000AF9C4B93ED167B9B4A9C4970
:105428009C48B0EE470AF0EE670AFDF779FA9A4B06
:1054380003F5DE6353E90223C7E90C230023FB626B
:1054480019E0FB6A0133944ADD33DB001344D3E9E6
:105458000023C7E90823D7E90823D7E90C01FBF79C
:10546800BDFA0346002B03D0D7E90823C7E90C236C
:10547800FB6A0133FB62FB6A172BE2DD97ED0C0B2D
:105488000BF0DAFCB0EE407AF0EE607A9FED7C1B10
:10549800B0EE470AF0EE670A0BF010FC87ED080B38
:1054A8004FF000024FF00003D7E90801FBF796FA26
:1054B8000346002B0ED03B6A3B617B6A83F00043B6
:1054C8007B61D7E90401FBF7C7FA03469BB25B424D
:1054D8009BB205E0D7E90801FBF7BEFA03469BB289
:1054E800FB83694B93ED187B6C4A6D496D48B0EEB0
:1054F800470AF0EE670AFDF713FA674BD3E92A2348
:10550800C7E90C230023FB6219E0FB6A0133624AF6
:105518001533DB001344D3E90023C7E90823D7E98F
:105528000823D7E90C01FBF759FA0346002B03D0EF
:10553800D7E90823C7E90C23FB6A0133FB62FB6A3E
:10554800172BE2DD97ED0C0B0BF076FCB0EE407AF2
:10555800F0EE607A9FED4A1BB0EE470AF0EE670A5C
:105568000BF0ACFB87ED080B4FF000024FF0000387
:10557800D7E90801FBF732FA0346002B0ED03B6A45
:10558800BB607B6A83F00043FB60D7E90201FBF74D
:1055980063FA03469BB25B429BB205E0D7E9080178
:1055A800FBF75AFA03469BB2BB83374ABB8BA2F878
:1055B800EA30354AFB8BA2F8E830374BD3E92A2387
:1055C800C7E90C230023FB6219E0FB6A0133324A66
:1055D8001533DB001344D3E90023C7E90823D7E9CF
:1055E8000823D7E90C01FBF717FA0346002B03D071
:1055F800D7E90823C7E90C23FB6A0133FB62FB6A7E
:10560800172BE2DD97ED0C0B0BF016FCB0EE407A91
:10561800F0EE607A9FED1A1BB0EE470AF0EE670ACB
:105628000BF04CFB87ED080B4FF000024FF0000326
:10563800D7E90801FBF7D2F90346002B0ED03B6AE5
:105648003B607B6A83F000437B60D7E90001FBF78E
:1056580003FA03469BB25B429BB205E0D7E9080117
:10566800FBF7FAF903469BB2FB830B4B03F5DE63AA
:1056780053E90223C7E90C230023FB622EE000BF95
:10568800000000000000F04028160020480100201B
:10569800A01A0020880B0020A00400202801002068
:1056A8002017002048050020FB6A0133304ADD330B
:1056B800DB001344D3E90023C7E90823D7E908230B
:1056C800D7E90C01FBF7A8F90346002B03D0D7E96B
:1056D8000823C7E90C23FB6A0133FB62FB6A172B1B
:1056E800E2DD97ED0C0B0BF0A7FBB0EE407AF0EE85
:1056F800607A9FED1D1BB0EE470AF0EE670A0BF0CB
:10570800DDFA87ED080B4FF000024FF00003D7E9F0
:105718000801FBF763F90346002B0CD03C6A7B6A4F
:1057280083F0004520462946FBF796F903469BB2CD
:105738005B429BB205E0D7E90801FBF78DF9034608
:105748009BB2BB830B4AFB8BA2F8EE30094ABB8B9A
:10575800A2F8EC3000F038FB00F04CFC00BF383702
:10576800BD46B0BDAFF30080000000000000F0406F
:10577800A00400202816002080B582B000AF0023C6
:105788007B6017E06A4BB3F81C116A4A7B6822F801
:105798001310674BB3F81E11674A7B6822F8131081
:1057A800634BB3F82011654A7B6822F813107B68B5
:1057B80001337B607B68082BE4DD00237B6011E00C
:1057C8005B4B93F824115E4A7B6813440A461A70AF
:1057D800574BB3F822115B4A7B6822F813107B6899
:1057E80001337B607B68072BEADD514BD3F8F0303F
:1057F800554A13604E4BD3F8F430544A13604C4B5F
:10580800D3F8F830524A1360494BD3F8FC30514A68
:105818001360474BD3F8F8304D4A5360444BD3F8E4
:10582800FC304C4A5360424BD3F8F830484A9360F6
:105838003F4BD3F8FC30474A936000F059FB3C4B90
:10584800B3F81021444BA3F8E820394BB3F81221E0
:10585800414BA3F8EA20364BB3F816213E4BA3F888
:10586800EC20334BB3F818213B4BA3F8EE203A4B0E
:1058780000225A60384B00221A703748FDF700FEA4
:1058880036493748FDF787F836493748FDF71CF899
:1058980036493748FDF718F836493748FDF714F800
:1058A80036493748FDF710F836493748FDF70CF800
:1058B80036493748FDF76FF836493748FDF704F899
:1058C80036493748FDF700F836493748FCF7FCFFFA
:1058D800214B002283F834201F4B002283F83C2000
:1058E8001D4B01229A633148FDF712FE1A4B012223
:1058F80083F83C20184B002283F84420164B0022E2
:1059080083F84C20144B01229A642948FDF73CFE89
:10591800114B012283F84C2026492748FCF7D4FF75
:1059280026492748FCF7D0FF00BF0837BD4680BD91
:10593800000000204C0400206004002074040020B3
:105948009804002088040020440400204804002013
:105958002C040020380400202816002068010020AC
:10596800201E002080010020D01F002050010020B0
:10597800801B002040010020C019002038010020B1
:10598800E0180020300100200018002070010020DD
:10599800881E002078010020F01E002060010020F1
:1059A800401D002058010020601C00205C160020CB
:1059B8006C16002048010020A01A002028010020B1
:1059C8002017002080B500AF344B1B78002B11D175
:1059D800324B01221A70314B5B68012B0AD12F4BD5
:1059E8001B7A002B06D02D4BDB68012204211846B8
:1059F800FCF73EFC294B93F83430002B23D1274B7E
:105A0800012283F83420254B9B6B012B1BD1234BA0
:105A180093F83C30002B16D0204B1B6C1846FCF733
:105A280011FF1E4B1B6C00211846FBF704FB1B4B98
:105A38001B6C02211846FBF7E9FB184B1B6C022173
:105A48001846FBF783FC154B93F84430002B23D101
:105A5800124B012283F84420104B9B6C012B1BD165
:105A68000E4B93F84C30002B16D00C4B1B6D184680
:105A7800FCF7E8FE094B1B6D00211846FBF7DBFA23
:105A8800064B1B6D02211846FBF704FD034B1B6DEB
:105A980002211846FBF766FD00BF80BD28160020CE
:105AA80080B489B000AFF860B9607A60FB68BB6108
:105AB8000023FB61BB689B087B611B4B1B68B3F52C
:105AC800C87F2AD00023FB6122E0174B1B681749C7
