:020000040800F2
:1000000000800120C5FC0008278400082D8400081A
:1000100033840008398400083F8400080000000091
:100020000000000000000000000000006D57000804
:1000300045840008000000002957000859560008B0
:1000400015FD000815FD000815FD000815FD000848
:1000500015FD000815FD000815FD000815FD000838
:1000600015FD000815FD000815FD00085384000863
:10007000CD1F000815FD000815FD000815FD00083E
:10008000618400086F8400087D84000815FD000865
:1000900015FD000815FD000815FD000815FD0008F8
:1000A00015FD00088D84000815FD000815FD0008E9
:1000B00015FD000815FD000815FD000815FD0008D8
:1000C00015FD000815FD000815FD000815FD0008C8
:1000D00015FD000815FD000815FD000815FD0008B8
:1000E00015FD000815FD000815FD000815FD0008A8
:1000F00015FD000815FD000815FD000815FD000898
:1001000015FD000815FD000815FD000815FD000887
:1001100015FD000815FD000815FD000815FD000877
:1001200015FD000815FD000815FD000815FD000867
:1001300015FD000815FD000815FD000815FD000857
:1001400015FD000815FD000815FD0008A184000834
:1001500015FD000815FD000815FD000815FD000837
:1001600015FD000815FD000815FD000815FD000827
:1001700015FD000815FD000815FD00080000000031
:0801800015FD000815FD000843
:1001880081F0004102E000BF83F0004330B54FEA40
:1001980041044FEA430594EA050F08BF90EA020FAD
:1001A8001FBF54EA000C55EA020C7FEA645C7FEA40
:1001B800655C00F0E2804FEA5454D4EB5555B8BF63
:1001C8006D420CDD2C4480EA020281EA030382EAD4
:1001D800000083EA010180EA020281EA0303362D66
:1001E80088BF30BD11F0004F4FEA01314FF4801C39
:1001F8004CEA113102D0404261EB410113F0004F4B
:100208004FEA03334CEA133302D0524263EB430301
:1002180094EA050F00F0A780A4F10104D5F1200E9F
:100228000DDB02FA0EFC22FA05F2801841F10001FA
:1002380003FA0EF2801843FA05F359410EE0A5F1CE
:1002480020050EF1200E012A03FA0EFC28BF4CF0FF
:10025800020C43FA05F3C01851EBE37101F00045B5
:1002680007D54FF0000EDCF1000C7EEB00006EEBC2
:100278000101B1F5801F1BD3B1F5001F0CD349084C
:100288005FEA30004FEA3C0C04F101044FEA4452A3
:1002980012F5800F80F09A80BCF1004F08BF5FEA2A
:1002A800500C50F1000041EB045141EA050130BD0A
:1002B8005FEA4C0C404141EB0101013C28BFB1F51C
:1002C800801FE9D291F0000F04BF01460020B1FA67
:1002D80081F308BF2033A3F10B03B3F120020CDA3A
:1002E8000C3208DD02F1140CC2F10C0201FA0CF018
:1002F80021FA02F10CE002F11402D8BFC2F1200C7D
:1003080001FA02F120FA0CFCDCBF41EA0C01904032
:10031800E41AA2BF01EB0451294330BD6FEA04047B
:100328001F3C1CDA0C340EDC04F11404C4F1200266
:1003380020FA04F001FA02F340EA030021FA04F378
:1003480045EA030130BDC4F10C04C4F1200220FACF
:1003580002F001FA04F340EA0300294630BD21FA0D
:1003680004F0294630BD94F0000F83F4801306BFD3
:1003780081F480110134013D4EE77FEA645C18BFC7
:100388007FEA655C29D094EA050F08BF90EA020F5E
:1003980005D054EA000C04BF1946104630BD91EA56
:1003A800030F1EBF0021002030BD5FEA545C05D159
:1003B8004000494128BF41F0004130BD14F5800498
:1003C8003CBF01F5801130BD01F0004545F0FE410C
:1003D80041F470014FF0000030BD7FEA645C1ABF41
:1003E800194610467FEA655C1CBF0B46024650EA78
:1003F800013406BF52EA033591EA030F41F40021A4
:1004080030BD00BF90F0000F04BF0021704730B529
:100418004FF4806404F132044FF000054FF00001FE
:1004280050E700BF90F0000F04BF0021704730B5BF
:100438004FF4806404F1320410F0004548BF404294
:100448004FF000013EE700BF42004FEAE2014FEAE9
:1004580031014FEA02701FBF12F07F4393F07F4FC4
:1004680081F06051704732F07F4208BF704793F0C7
:100478007F4F04BF41F40021704730B54FF46074DA
:1004880001F0004521F000411CE700BF50EA0102DD
:1004980008BF704730B54FF000050AE050EA010286
:1004A80008BF704730B511F0004502D5404261EBF6
:1004B80041014FF4806404F132045FEA915C3FF437
:1004C800D8AE4FF003025FEADC0C18BF03325FEAD4
:1004D800DC0C18BF033202EBDC02C2F1200300FA85
:1004E80003FC20FA02F001FA03FE40EA0E0021FAAA
:1004F80002F11444BDE600BF70B54FF0FF0C4CF498
:10050800E06C1CEA11541DBF1CEA135594EA0C0F49
:1005180095EA0C0F00F0DEF82C4481EA030621EA84
:100528004C5123EA4C5350EA013518BF52EA0335BF
:1005380041F4801143F4801338D0A0FB02CE4FF071
:100548000005E1FB02E506F00042E0FB03E54FF0A1
:100558000006E1FB03569CF0000F18BF4EF0010E99
:10056800A4F1FF04B6F5007F64F5407404D25FEA95
:100578004E0E6D4146EB060642EAC62141EA555148
:100588004FEAC52040EA5E504FEACE2EB4F1FD0C8A
:1005980088BFBCF5E06F1ED8BEF1004F08BF5FEA08
:1005A800500E50F1000041EB045170BD06F00046BA
:1005B80046EA010140EA020081EA0301B4EB5C0467
:1005C800C2BFD4EB0C0541EA045170BD41F480115F
:1005D8004FF0000E013C00F3AB8014F1360FDEBF84
:1005E800002001F0004170BDC4F10004203C35DA60
:1005F8000C341BDC04F11404C4F1200500FA05F3E3
:1006080020FA04F001FA05F240EA020001F0004283
:1006180021F0004110EBD37021FA04F642EB0601F9
:100628005EEA430E08BF20EAD37070BDC4F10C0423
:10063800C4F1200500FA04F320FA05F001FA04F2E7
:1006480040EA020001F0004110EBD37041F10001D3
:100658005EEA430E08BF20EAD37070BDC4F12005DE
:1006680000FA05F24EEA020E20FA04F301FA05F246
:1006780043EA020321FA04F001F0004121FA04F2EE
:1006880020EA020000EBD3705EEA430E08BF20EABE
:10069800D37070BD94F0000F0FD101F000464000F8
:1006A80041EB010111F4801F08BF013CF7D041EA7A
:1006B800060195F0000F18BF704703F0004652007E
:1006C80043EB030313F4801F08BF013DF7D043EA4F
:1006D8000603704794EA0C0F0CEA135518BF95EA05
:1006E8000C0F0CD050EA410618BF52EA4306D1D18C
:1006F80081EA030101F000414FF0000070BD50EAAB
:10070800410606BF1046194652EA430619D094EA34
:100718000C0F02D150EA013613D195EA0C0F05D11E
:1007280052EA03361CBF104619460AD181EA030172
:1007380001F0004141F0FE4141F470014FF000002A
:1007480070BD41F0FE4141F4780170BD70B54FF0C5
:10075800FF0C4CF4E06C1CEA11541DBF1CEA135545
:1007680094EA0C0F95EA0C0F00F0A7F8A4EB050427
:1007780081EA030E52EA03354FEA013100F088801E
:100788004FEA03334FF0805545EA131343EA1263E7
:100798004FEA022245EA111545EA10654FEA00269C
:1007A8000EF000419D4208BF964244F1FD0404F555
:1007B800407402D25B084FEA3202B61A65EB0305B1
:1007C8005B084FEA32024FF480104FF4002CB6EB6E
:1007D800020E75EB030E22BFB61A754640EA0C00EE
:1007E8005B084FEA3202B6EB020E75EB030E22BF2E
:1007F800B61A754640EA5C005B084FEA3202B6EB6F
:10080800020E75EB030E22BFB61A754640EA9C002D
:100818005B084FEA3202B6EB020E75EB030E22BFFD
:10082800B61A754640EADC0055EA060E18D04FEABB
:10083800051545EA16754FEA06164FEAC30343EA5B
:1008480052734FEAC2025FEA1C1CC0D111F4801F28
:100858000BD141EA00014FF000004FF0004CB6E721
:1008680011F4801F04BF01430020B4F1FD0C88BFC0
:10087800BCF5E06F3FF6AFAEB5EB030C04BFB6EBCB
:10088800020C5FEA500C50F1000041EB045170BDBE
:100898000EF0004E4EEA113114EB5C04C2BFD4EBEB
:1008A8000C0541EA045170BD41F480114FF0000E6F
:1008B800013C90E645EA060E8DE60CEA135594EAEB
:1008C8000C0F08BF95EA0C0F3FF43BAF94EA0C0FEE
:1008D8000AD150EA01347FF434AF95EA0C0F7FF463
:1008E80025AF104619462CE795EA0C0F06D152EAB7
:1008F80003353FF4FDAE1046194622E750EA41069B
:1009080018BF52EA43067FF4C5AE50EA41047FF4AB
:100918000DAF52EA43057FF4EBAE12E74FF0FF3C10
:1009280006E000BF4FF0010C02E000BF4FF0010CE1
:100938004DF804CD4FEA410C7FEA6C5C4FEA430C5A
:1009480018BF7FEA6C5C1BD001B050EA410C0CBFA9
:1009580052EA430C91EA030F02BF90EA020F00200B
:10096800704710F1000F91EA030F58BF994208BF72
:1009780090422CBFD8176FEAE37040F0010070472F
:100988004FEA410C7FEA6C5C02D150EA013C07D186
:100998004FEA430C7FEA6C5CD6D152EA033CD3D0D1
:1009A8005DF8040B704700BF8446104662468C46CB
:1009B8001946634600E000BF01B5FFF7B7FF0028FE
:1009C80048BF10F1000F01BD4DF808EDFFF7F4FF27
:1009D8000CBF012000205DF808FB00BF4DF808EDB2
:1009E800FFF7EAFF34BF012000205DF808FB00BFD5
:1009F8004DF808EDFFF7E0FF94BF012000205DF8F7
:100A080008FB00BF4DF808EDFFF7CEFF94BF0120AB
:100A180000205DF808FB00BF4DF808EDFFF7C4FFA4
:100A280034BF012000205DF808FB00BF4FEA410CED
:100A38007FEA6C5C02D150EA013C0AD14FEA430CD0
:100A48007FEA6C5C02D152EA033C02D14FF000000D
:100A580070474FF0010070474A0011D212F500129A
:100A680011D20DD56FF47873B3EB62520ED44FEAFE
:100A7800C12343F0004343EA505323FA02F070477E
:100A88004FF00000704750EA013002D14FF0FF30BC
:100A980070474FF0000070470348044B834202D070
:100AA800034B03B118477047300300203003002080
:100AB800000000000548064B1B1AD90F01EBA301E3
:100AC800491002D0034B03B1184770473003002088
:100AD800300300200000000010B5064C237843B90D
:100AE800FFF7DAFF044B13B10448AFF3008001238A
:100AF800237010BD3003002000000000F40201083C
:100B080008B5054B1BB105490548AFF30080BDE8A2
:100B18000840FFF7CFBF00BF0000000034030020EB
:100B2800F402010880B485B000AF78607B681B6868
:100B380003F06003FB60FB68002B04D17B681B6833
:100B480003F01003FB60FB6818461437BD465DF8D8
:100B5800047B704780B483B000AF78607B681B6B00
:100B680018460C37BD465DF8047B704780B483B0E7
:100B780000AF786039607B681A6A3B681A437B6803
:100B88001A6200BF0C37BD465DF8047B704780B41D
:100B980083B000AF786039607B681A6A3B68DB43D2
:100BA8001A407B681A6200BF0C37BD465DF8047BAB
:100BB800704780B483B000AF78607B685B6C43F4A7
:100BC80000427B685A6400BF0C37BD465DF8047B61
:100BD800704780B483B000AF78607B68DB6843F00F
:100BE80001027B68DA6000BF0C37BD465DF8047B04
:100BF800704780B483B000AF78607B68DB6823F00F
:100C080001027B68DA6000BF0C37BD465DF8047BE3
:100C1800704780B483B000AF78607B68DB6803F00E
:100C28000103012B01D1012300E0002318460C37F2
:100C3800BD465DF8047B704780B483B000AF786030
:100C48007B68DB6843F002027B68DA6000BF0C3720
:100C5800BD465DF8047B704780B483B000AF786010
:100C68007B68DB6823F002027B68DA6000BF0C3720
:100C7800BD465DF8047B704780B483B000AF7860F0
:100C88007B68DB6803F00203022B01D1012300E03B
:100C9800002318460C37BD465DF8047B704780B4C6
:100CA80083B000AF78607B68DB6843F004027B6840
:100CB800DA6000BF0C37BD465DF8047B704780B42E
:100CC80083B000AF78607B68DB6823F004027B6840
:100CD800DA6000BF0C37BD465DF8047B704780B40E
:100CE80083B000AF78607B68DB6803F00403042BF3
:100CF80001D1012300E0002318460C37BD465DF8FA
:100D0800047B704780B483B000AF78607B68DB6891
:100D180043F008027B68DA6000BF0C37BD465DF817
:100D2800047B704780B483B000AF78607B68DB6871
:100D380023F008027B68DA6000BF0C37BD465DF817
:100D4800047B704780B483B000AF78607B68DB6851
:100D580003F00803082B01D1012300E00023184603
:100D68000C37BD465DF8047B704780B483B000AF94
:100D780078607B68DB6843F010027B68DA6000BF4C
:100D88000C37BD465DF8047B704780B483B000AF74
:100D980078607B68DB6823F010027B68DA6000BF4C
:100DA8000C37BD465DF8047B704780B483B000AF54
:100DB80078607B68DB6803F01003102B01D10123F6
:100DC80000E0002318460C37BD465DF8047B7047E9
:100DD80080B483B000AF78607B68DB6843F02002A2
:100DE8007B68DA6000BF0C37BD465DF8047B70474E
:100DF80080B483B000AF78607B68DB6823F02002A2
:100E08007B68DA6000BF0C37BD465DF8047B70472D
:100E180080B483B000AF78607B68DB6803F02003A0
:100E2800202B01D1012300E0002318460C37BD46D2
:100E38005DF8047B704780B483B000AF78607B684E
:100E4800DB6843F040027B68DA6000BF0C37BD46C0
:100E58005DF8047B704780B483B000AF78607B682E
:100E6800DB6823F040027B68DA6000BF0C37BD46C0
:100E78005DF8047B704780B483B000AF78607B680E
:100E8800DB6803F04003402B01D1012300E000237D
:100E980018460C37BD465DF8047B704780B483B0B4
:100EA80000AF78607B68DB6843F080027B68DA60BB
:100EB80000BF0C37BD465DF8047B704780B483B033
:100EC80000AF78607B68DB6823F080027B68DA60BB
:100ED80000BF0C37BD465DF8047B704780B483B013
:100EE80000AF78607B68DB6803F08003802B01D15A
:100EF800012300E0002318460C37BD465DF8047B4B
:100F0800704780B582B000AF78600B467B807B88E5
:100F180003F00103002B0CD07B681B681846FFF711
:100F2800AAFF0346012B04D07B681B681846FFF70D
:100F380082FF7B8803F00203002B0CD07B681B68C0
:100F48001846FFF799FE0346012B04D07B681B68FF
:100F58001846FFF771FE7B8803F00403002B0CD0C2
:100F68007B681B681846FFF7BAFE0346012B04D0BE
:100F78007B681B681846FFF792FE7B8803F008031E
:100F8800002B0CD07B681B681846FFF7DBFE034676
:100F9800012B04D07B681B681846FFF7B3FE7B88DB
:100FA80003F01003002B0CD07B681B681846FFF772
:100FB800FCFE0346012B04D07B681B681846FFF72C
:100FC800D4FE7B8803F02003002B0CD07B681B68C1
:100FD8001846FFF71EFE0346012B04D07B681B68EA
:100FE8001846FFF7F6FD7B8803F04003002B0CD072
:100FF8007B681B681846FFF771FF0346012B04D076
:101008007B681B681846FFF749FF7B8803F080035D
:10101800002B0CD07B681B681846FFF7F9FE0346C7
:10102800012B04D07B681B681846FFF7D1FE00BF70
:101038000837BD4680BD80B582B000AF78600B46EA
:101048007B807B8803F00103002B0CD07B681B6836
:101058001846FFF710FF0346012B04D17B681B6875
:101068001846FFF7F8FE7B8803F00203002B0CD02C
:101078007B681B681846FFF7FFFD0346012B04D168
:101088007B681B681846FFF7E7FD7B8803F00403BD
:10109800002B0CD07B681B681846FFF720FE034620
:1010A800012B04D17B681B681846FFF708FE7B8874
:1010B80003F00803002B0CD07B681B681846FFF769
:1010C80041FE0346012B04D17B681B681846FFF7D5
:1010D80029FE7B8803F01003002B0CD07B681B686B
:1010E8001846FFF762FE0346012B04D17B681B6894
:1010F8001846FFF74AFE7B8803F02003002B0CD02C
:101108007B681B681846FFF784FD0346012B04D053
:101118007B681B681846FFF76CFD7B8803F040036B
:10112800002B0CD07B681B681846FFF7D7FE0346D8
:10113800012B04D17B681B681846FFF7BFFE7B882C
:1011480003F08003002B0CD07B681B681846FFF760
:101158005FFE0346012B04D17B681B681846FFF726
:1011680047FE00BF0837BD4680BD000080B582B08D
:1011780000AF78600B46FB70FB78022B06D17B68CA
:101188001B6801211846FFF7F1FC31E07B681B68FA
:10119800194A934213D07B681B68184A93420ED0B1
:1011A8007B681B68164A934209D07B681B68154AFE
:1011B800934204D07B681B68134A934218D1FB788A
:1011C800032B06D17B681B6804211846FFF7CEFC69
:1011D8000EE0FB78042B0BD17B681B6801211846B5
:1011E800FFF7C4FC7B681B6804211846FFF7BEFCA8
:1011F80000BF0837BD4680BD002C014000340140C7
:1012080000400140004401400048014080B582B0E0
:1012180000AF78600B46FB70FB78022B06D17B6829
:101228001B6801211846FFF7B2FC31E07B681B6898
:10123800194A934213D07B681B68184A93420ED010
:101248007B681B68164A934209D07B681B68154A5D
:10125800934204D07B681B68134A934218D1FB78E9
:10126800032B06D17B681B6804211846FFF78FFC07
:101278000EE0FB78042B0BD17B681B680121184614
:10128800FFF785FC7B681B6804211846FFF77FFC85
:1012980000BF0837BD4680BD002C01400034014026
:1012A80000400140004401400048014080B582B040
:1012B80000AF78600B46FB70FB78022B06D17B6889
:1012C8001B6810211846FFF751FC31E07B681B684A
:1012D800194A934213D07B681B68184A93420ED070
:1012E8007B681B68164A934209D07B681B68154ABD
:1012F800934204D07B681B68134A934218D1FB7849
:10130800032B06D17B681B6840211846FFF72EFC8B
:101318000EE0FB78042B0BD17B681B681021184664
:10132800FFF724FC7B681B6840211846FFF71EFC6A
:1013380000BF0837BD4680BD002C01400034014085
:1013480000400140004401400048014080B582B09F
:1013580000AF78600B46FB70FB78022B06D17B68E8
:101368001B6810211846FFF712FC31E07B681B68E8
:10137800194A934213D07B681B68184A93420ED0CF
:101388007B681B68164A934209D07B681B68154A1C
:10139800934204D07B681B68134A934218D1FB78A8
:1013A800032B06D17B681B6840211846FFF7EFFB2B
:1013B8000EE0FB78042B0BD17B681B6810211846C4
:1013C800FFF7E5FB7B681B6840211846FFF7DFFB4A
:1013D80000BF0837BD4680BD002C014000340140E5
:1013E80000400140004401400048014080B582B0FF
:1013F80000AF78600B46FB70FB78022B07D17B6847
:101408001B684FF480711846FFF7B0FB34E07B6827
:101418001B681B4A934213D07B681B68194A934286
:101428000ED07B681B68184A934209D07B681B68FA
:10143800164A934204D07B681B68154A93421BD115
:10144800FB78032B07D17B681B684FF48061184633
:10145800FFF78CFB10E0FB78042B0DD17B681B6831
:101468004FF480711846FFF781FB7B681B684FF4C7
:1014780080611846FFF77AFB00BF0837BD4680BD7C
:10148800002C01400034014000400140004401406C
:101498000048014080B582B000AF78600B46FB7011
:1014A800FB78022B07D17B681B684FF480711846C4
:1014B800FFF76DFB34E07B681B681B4A934213D02F
:1014C8007B681B68194A93420ED07B681B68184AD0
:1014D800934209D07B681B68164A934204D07B6804
:1014E8001B68154A93421BD1FB78032B07D17B68F5
:1014F8001B684FF480611846FFF749FB10E0FB7842
:10150800042B0DD17B681B684FF480711846FFF7D8
:101518003EFB7B681B684FF480611846FFF737FB7A
:1015280000BF0837BD4680BD002C01400034014093
:1015380000400140004401400048014080B582B0AD
:1015480000AF78600B46FB70FB78022B06D17B68F6
:101558001B684FF480511846FFF708FB00BF083797
:10156800BD4680BD80B582B000AF78600B46FB7089
:10157800FB78022B06D17B681B684FF48051184614
:10158800FFF705FB00BF0837BD4680BD80B584B0B6
:1015980000AF78600023FB607B681B68304A934289
:1015A80001D1304BFB607B681A68FB681A60FB68E6
:1015B8001B681846FFF7B6FAB860BB68002B06D060
:1015C800BB68102B03D0FB6801221A7102E0FB688C
:1015D80000221A71FB681B68234A934213D0FB68E8
:1015E8001B68224A93420ED0FB681B68204A93422C
:1015F80009D0FB681B681F4A934204D0FB681B682C
:101608001D4A934204D1FB681B681846FFF7D1FABC
:10161800FB681B68144A934213D0FB681B68134A83
:1016280093420ED0FB681B68114A934209D0FB68AD
:101638001B68104A934204D0FB681B680E4A934209
:1016480008D17B681B681846FFF784FA0346DAB2AC
:10165800FB685A71FB6818461037BD4680BD00BF4D
:10166800000400404C030020002C014000340140DD
:1016780000400140004401400048014080B485B06A
:1016880000AF786039603B68FB603B68B3F5803F2A
:101698000CD37B681B68B3F1804F07D07B681B684D
:1016A800064A934202D04FF6FF73FB60FB68184668
:1016B8001437BD465DF8047B704700BF000C00403E
:1016C80080B485B000AF786039603B68002B03D1E7
:1016D8007B684033FB6001E0044BFB60FB68184605
:1016E8001437BD465DF8047B704700BF0C030450F7
:1016F80080B483B000AF78607B68DB6803F4406334
:10170800002B01D1012300E0002318460C37BD4609
:101718005DF8047B704780B483B000AF78603960AF
:101728007B681B6B23F00F023B681A437B681A63C4
:1017380000BF0C37BD465DF8047B704780B483B0AA
:1017480000AF786039607B68DB6823F003023B6890
:101758001A437B68DA6000BF0C37BD465DF8047B2E
:10176800704780B483B000AF78607B68DB6C03F0AF
:10177800C003002B01D1012300E0002318460C37D9
:10178800BD465DF8047B704780B483B000AF7860D5
:101798007B689B6823F0004323F03F0343F001027A
:1017A8007B689A6000BF0C37BD465DF8047B7047C4
:1017B80080B483B000AF78607B689B6823F00043F7
:1017C80023F03F0343F002027B689A6000BF0C37A6
:1017D800BD465DF8047B704780B483B000AF786085
:1017E8007B689B6803F00103012B01D1012300E012
:1017F800002318460C37BD465DF8047B704780B45B
:1018080083B000AF786039607B689B6823F0404301
:1018180023F03F033A6802F08042134343F000424A
:101828007B689A6000BF0C37BD465DF8047B704743
:1018380080B483B000AF78607B689B6803F0004396
:10184800B3F1004F01D1012300E0002318460C3703
:10185800BD465DF8047B704780B483B000AF786004
:101868007B689B6823F0004323F03F0343F00402A6
:101878007B689A6000BF0C37BD465DF8047B7047F3
:1018880080B483B000AF78607B689B6823F0004326
:1018980023F03F0343F008027B689A6000BF0C37CF
:1018A800BD465DF8047B704780B483B000AF7860B4
:1018B8007B681B6803F00803082B01D1012300E0B3
:1018C800002318460C37BD465DF8047B704780B48A
:1018D80083B000AF78607B681B6803F01003102B9F
:1018E80001D1012300E0002318460C37BD465DF8FE
:1018F800047B704780B483B000AF78607B681022A7
:101908001A6000BF0C37BD465DF8047B704780B491
:1019180083B000AF78607B685B6843F008027B683F
:101928005A6000BF0C37BD465DF8047B704780B431
:1019380083B000AF78607B685B6843F040027B68E7
:101948005A6000BF0C37BD465DF8047B704780B411
:1019580083B000AF78607B685B6823F008027B681F
:101968005A6000BF0C37BD465DF8047B704780B4F1
:1019780083B000AF78607B685B6823F010027B68F7
:101988005A6000BF0C37BD465DF8047B704780B4D1
:1019980083B000AF78607B685B6823F040027B68A7
:1019A8005A6000BF0C37BD465DF8047B704780B4B1
:1019B80083B000AF78607B685B6823F080027B6847
:1019C8005A6000BF0C37BD465DF8047B704780B491
:1019D80083B000AF78607B685B6803F01003102B5E
:1019E80001D1012300E0002318460C37BD465DF8FD
:1019F800047B704780B483B000AF78607B685B6815
:101A080003F08003802B01D1012300E00023184656
:101A18000C37BD465DF8047B7047000080B485B084
:101A280000AF786039607B68FB600C4A3B68134400
:101A38001B781A46FB6813441B6808493A680A442D
:101A480012781146FA680A4443F00103136000BF94
:101A58001437BD465DF8047B704700BF6403010876
:101A680080B485B000AF786039607B68FB600C4A51
:101A78003B6813441B781A46FB6813441B680849E3
:101A88003A680A4412781146FA680A4423F00103B6
:101A9800136000BF1437BD465DF8047B704700BF74
:101AA8006403010880B485B000AF786039607B6852
:101AB800FB60084A3B6813441B781A46FB681344CA
:101AC8001B6803F0200318461437BD465DF8047BF5
:101AD800704700BF6403010880B487B000AFF860A6
:101AE800B9607A60FB687B610D4ABB6813441B7858
:101AF8001A467B6913445B681B0C1B040849BA68C7
:101B08000A44127811467A690A4411467A681343DE
:101B18004B6000BF1C37BD465DF8047B704700BFB3
:101B28006403010880B487B000AFF860B9607A60D8
:101B38003B60FB687B613B6A102B14D1174ABB687A
:101B480013441B781A467B6913441A467B68D36092
:101B5800124ABB6813441B781A467B6913441A4619
:101B68003B68936013E00D4ABB6813441B781A4620
:101B78007B6913441A467B689360084ABB68134420
:101B88001B781A467B6913441A463B68D36000BF2A
:101B98001C37BD465DF8047B704700BF640301082D
:101BA80080B487B000AFF860B9607A60FB687B6189
:101BB800074ABB6813441B781A467B6913441A46C4
:101BC8007B68936000BF1C37BD465DF8047B704797
:101BD8006403010880B483B000AF78607B681B6839
:101BE80003F02003202B01D1012300E00023184635
:101BF8000C37BD465DF8047B704780B483B000AFF6
:101C080078607B6820225A6000BF0C37BD465DF8BB
:101C1800047B704780B485B000AF786039607B681A
:101C2800FB600C4A3B6813441B781A46FB68134454
:101C38001B6808493A680A4412781146FA680A4447
:101C480043F00203136000BF1437BD465DF8047B00
:101C5800704700BF6403010880B485B000AF7860A6
:101C680039607B68FB600C4A3B6813441B781A4652
:101C7800FB6813441B6808493A680A4412781146FD
:101C8800FA680A4443F00803136000BF1437BD46DE
:101C98005DF8047B704700BF6403010880B485B019
:101CA80000AF786039607B68FB600C4A3B6813447E
:101CB8001B781A46FB6813441B6808493A680A44AB
:101CC80012781146FA680A4423F00203136000BF31
:101CD8001437BD465DF8047B704700BF64030108F4
:101CE80080B485B000AF786039607B68FB600C4ACF
:101CF8003B6813441B781A46FB6813441B68084961
:101D08003A680A4412781146FA680A4423F0040330
:101D1800136000BF1437BD465DF8047B704700BFF1
:101D28006403010880B485B000AF786039607B68CF
:101D3800FB600C4A3B6813441B781A46FB68134443
:101D48001B6808493A680A4412781146FA680A4436
:101D580023F00803136000BF1437BD465DF8047B09
:101D6800704700BF6403010880B485B000AF786095
:101D780039607B68FB600A4A3B6813441B781A4643
:101D8800FB6813441B6803F00203022B01D10123F3
:101D980000E0002318461437BD465DF8047B704701
:101DA8006403010880B584B000AF78600123FB812B
:101DB8007B681B691846FFF79BFC0346002B2FD056
:101DC8007B685B7ADBB2022B11D07B685B7ADBB273
:101DD800042B0CD07B685B7ADBB2082B07D07B68BE
:101DE8001B691846FFF760FD0346012B18D1786878
:101DF80000F0F8F80346002B12D17B685B7ADBB25F
:101E0800082B03D17B6801225A7202E07B682022EA
:101E18005A727B681B691846FFF71EFD0023FB8179
:101E2800FB8918461037BD4680BD80B586B002AF25
:101E3800F860B9607A603B600021F868FFF740FC01
:101E480003461A467968B868FFF7AAFE0021F868C1
:101E5800FFF736FC02463B68002100917968B868B4
:101E6800FFF760FEBA697968B868FFF735FE7968E8
:101E7800B868FFF7CFFE7968B868FFF7EDFE7968B4
:101E8800B868FFF7CBFD00BF1037BD4680BD80B5F1
:101E980084B000AFF860B9607A607968B868FFF715
:101EA800DFFD7968B868FFF71BFF7968B868FFF746
:101EB80039FF7968B868FFF7F1FE00227968B868D9
:101EC800FFF70AFE00BF1037BD4680BD80B584B05D
:101ED80000AF786039600223FB737B68DB79012BE4
:101EE8000FD17B68DA687B681B685B00D118FB7BC5
:101EF8007A68126802FB03F31A4638680EF0E8F9AC
:101F08000AE07B68D968FB7B7A68126802FB03F3F6
:101F18001A4638680EF0DCF900BF1037BD4680BDA0
:101F280080B586B000AFF860B9607A60FB685A691E
:101F3800FB689B7919461046FFF716FF0346DBB28C
:101F4800012B37D1FB685A69BB681046984703468E
:101F5800012B2FD1FB6804225A72FB685A697B68EF
:101F680010469847FB685A69FB689B7919461046E2
:101F7800FFF798FD0346002B19D1FB685A69FB68E7
:101F88009B7919461046FFF76BFDFB685869FB689B
:101F98009B791946FB681B681A46FFF79DFDFB688D
:101FA8005A69FB689B7919461046FFF737FD0123EC
:101FB800FB7501E00023FB75FB7D18461837BD460D
:101FC80080BD000080B500AF034A04490448FFF70C
:101FD800A7FF00BF80BD00BF031C0008DD1B000871
:101FE800D803002080B582B000AF78607B681B6999
:101FF8001846FFF76CFC0346DBB2012B07D17B6860
:102008001B691846FFF776FC7B6810225A727B68BA
:102018005B7ADBB2102B0CBF01230023DBB218461E
:102028000837BD4680BD80B582B000AF78600B46EA
:10203800FB70FB78012B0DD17B681B691846FFF7F5
:1020480057FB0346012B12D07B681B691846FFF724
:1020580003FC0CE07B681B691846FFF782FB03460C
:10206800012B04D07B681B691846FFF709FC00BFE9
:102078000837BD4680BD000090B589B002AFF86052
:10208800084611461A4603467B810B463B81134698
:10209800FB8000237B61FB681B693C4A934201D1AA
:1020A8003B4B7B617B69002B6BD0FB681A697B69B2
:1020B8001A617B690022DA71FB88012B61D03B89A8
:1020C800002B47D07B695B7ADBB2082B42D0FB68D8
:1020D800DA687B69DA60FB681A687B691A60FB68F2
:1020E8005A697B695A61FB689A797B699A71FB68BE
:1020F8001A797B691A717B691B69B96A1846FFF7F7
:102108000AFB7B89012B21D07B89042B16D17B69A3
:102118001B6903211846FFF711FB7B6918697B6966
:1021280059697B699B791C467B69DA687B691B68FE
:10213800009313462246FFF778FE07E07B89022BBF
:1021480004D17B691B691846FFF7E1FB7B6908220C
:102158005A7216E03B89002B13D17B699B7ADBB25C
:10216800082B0ED0FB685A797B695A717B89022B40
:1021780004D17B691B691846FFF7D9FB7B690822E4
:102188009A727B6918461C37BD4690BD0001045001
:10219800D803002080B582B000AF78607B681B69E7
:1021A8001846FFF719FB0346002B04D17B681B690F
:1021B8001846FFF7E9FA00BF0837BD4680BD80B56D
:1021C80086B000AFF8600B467A607B810123FB8202
:1021D800FB681B69002B46D07B89012B05D1F86869
:1021E800FFF7E0FD0346FB823DE07B89042B1FD10E
:1021F800FB681B691846FFF77BFA0346002B32D0B1
:10220800FB6801225A72FB681B691846FFF724FB1A
:1022180000BFFB685B7ADBB2042BFAD17968F868F7
:10222800FFF754FEFB6808225A720023FB821AE06B
:102238007B89022B17D1FB685B7ADBB2202B09D094
:10224800FB685B7ADBB2042B04D0FB685B7ADBB2F9
:10225800102B08D1FB6808225A727968F868FFF7D2
:1022680035FE0023FB82FB8A18461837BD4680BD21
:1022780080B582B000AF78600B467B8013463B8008
:102288007B681B691846FFF7A7FA0346002B04D0A2
:102298007B681B691846FFF78BFA7B681B69184631
:1022A800FFF7A8FB0346002B04D07B681B69184680
:1022B800FFF77DFB7B681B691846FFF788FB034621
:1022C800002B04D07B681B691846FFF750FB3B883E
:1022D800002B35D07B88012B1AD07B88022B05D1A7
:1022E8007B681B691846FFF732FB11E07B88042BDB
:1022F8000ED17B6818697B6859697B689B791A4697
:10230800FFF7C5FD7B681B6900211846FFF716FA21
:102318007B680022DA607B6800221A607B680022F2
:102328005A617B6800229A717B6800221A717B6867
:102338001A697B681B7919461046FFF7ECF90AE021
:102348007B6800225A717B88022B04D17B681B6949
:102358001846FFF71CFB00BF0837BD4680BD0000CC
:1023680080B584B000AF78600B46FB707B681B6952
:102378001846FFF731FA0346FB7397F90F30012B24
:1023880004D17B681B691846FFF712FAFB78002B0B
:102398000FD17B681B697F211846FFF730FA00BF11
:1023A8007B681B691846FFF743FA0346012BF7D0F1
:1023B80040E0FB78012B0FD17B681B692C4918463C
:1023C800FFF71DFA00BF7B681B691846FFF730FA54
:1023D8000346012BF7D02DE07B681B697F21184647
:1023E800FFF70DFA00BF7B681B691846FFF720FA54
:1023F8000346012BF7D00023BB8107E000BFBB8950
:102408001BB29BB201339BB21BB2BB81BB891BB20F
:102418009BB2032BF2D97B681B6915491846FFF755
:10242800EEF900BF7B681B691846FFF701FA0346FF
:10243800012BF7D00023BB8107E000BFBB891BB28B
:102448009BB201339BB21BB2BB81BB891BB29BB24F
:10245800032BF2D997F90F30012B04D17B681B6944
:102468001846FFF791F900BF1037BD4680BD00BF81
:1024780000007F4080B483B000AF78607B681B6841
:1024880043F001027B681A6000BF0C37BD465DF857
:10249800047B704780B483B000AF78607B681B68AA
:1024A80023F001027B681A6000BF0C37BD465DF857
:1024B800047B704780B483B000AF786039607B6874
:1024C8001B6823F004023B681A437B681A6000BF4C
:1024D8000C37BD465DF8047B704780B483B000AF0D
:1024E80078607B681B6803F0040318460C37BD4608
:1024F8005DF8047B704780B483B000AF78603960C2
:102508007B683A681A6300BF0C37BD465DF8047BE8
:10251800704780B483B000AF786039607B683A68F0
:102528005A6300BF0C37BD465DF8047B704780B422
:1025380083B000AF786039607B683A689A6300BFFF
:102548000C37BD465DF8047B704780B483B000AF9C
:10255800786039607B683A68DA6300BF0C37BD463B
:102568005DF8047B704780B483B000AF7860396051
:102578007B683A681A6400BF0C37BD465DF8047B77
:10258800704780B483B000AF78607B685B6B184697
:102598000C37BD465DF8047B704780B483B000AF4C
:1025A80078607B689B6B18460C37BD465DF8047BEA
:1025B800704780B483B000AF78607B68DB6B1846E7
:1025C8000C37BD465DF8047B704780B483B000AF1C
:1025D80078607B681B6C18460C37BD465DF8047B39
:1025E800704780B483B000AF78607B685B6943F064
:1025F80001027B685A6100BF0C37BD465DF8047B59
:10260800704780B483B000AF78607B681B69184658
:102618000C37BD465DF8047B704780B483B000AFCB
:10262800786039607B683A689A6100BF0C37BD46AC
:102638005DF8047B704780B483B000AF7860396080
:102648007B683A689A6200BF0C37BD465DF8047B28
:10265800704780B582B000AF786039607B681B68CE
:102668001846FFF78EFF02463B68934205D07B6809
:102678001B6839681846FFF74CFF00BF0837BD468E
:1026880080BD80B582B000AF786039607B681B6818
:102698001846FFF782FF02463B68934205D07B68E5
:1026A8001B6839681846FFF742FF00BF0837BD4668
:1026B80080BD80B582B000AF786039607B681B68E8
:1026C8001846FFF776FF02463B68934205D07B68C1
:1026D8001B6839681846FFF738FF00BF0837BD4642
:1026E80080BD80B582B000AF786039607B681B68B8
:1026F8001846FFF76AFF02463B68934205D07B689D
:102708001B6839681846FFF72EFF00BF0837BD461B
:1027180080BD000080B485B000AF78607B681B681E
:102728009A68074B1340FB60FB68062B0CBF01231C
:102738000023DBB218461437BD465DF8047B7047AA
:102748000700010080B584B000AF78600B46FB70CD
:102758007B681B681846FFF7C0FEF860FB78002B03
:102768001ED07B681B68324A934213D07B681B6873
:10277800304A93420ED07B681B682F4A934209D097
:102788007B681B682D4A934204D07B681B682C4ADF
:10279800934205D17B681B6800211846FFF7ABFE02
:1027A800FB68042B11D07B681B6804211846FFF7CF
:1027B80081FE7B681B681846FFF713FF7B681B6860
:1027C800F9681846FFF776FE04E07B681B68184630
:1027D800FFF707FF7B681B681846FFF74BFEFB787F
:1027E800002B20D07B681B68114A934213D07B686A
:1027F8001B68104A93420ED07B681B680E4A9342AE
:1028080009D07B681B680D4A934204D07B681B681B
:102818000B4A934207D17B681A687B685B79194633
:102828001046FFF768FE00BF1037BD4680BD00BFE9
:10283800002C0140003401400040014000440140A8
:102848000048014080B582B000AF78607B681B68A3
:102858001846FFF71FFE00BF0837BD4680BD0000C1
:1028680080B483B000AF7860074B5B79002B0CBF56
:1028780001230023DAB27B6801331A7000BF0C37DA
:10288800BD465DF8047B7047A81F002080B400AFE8
:102898000C4B5B79002B0CBF01230023DAB2094BE8
:1028A8009A71084B5A790132D2B25A71054B5B7949
:1028B800032B02D9034B00225A7100BFBD465DF8B5
:1028C800047B7047A81F002080B485B000AF7860F3
:1028D80039607B68012283F8D8203B68D3E900235C
:1028E8007968C1E902237B6801221A600023FB6032
:1028F8000CE07B68D3E902237868F9680231C900E3
:102908000144C1E90023FB680133FB60FB68182B15
:10291800EFDD00BF00BF1437BD465DF8047B70478C
:1029280080B586B000AF87ED040BF860B9607A60B7
:10293800BB68D3E902017B68D3E90023FEF744F8BA
:102948000346002B05D17B68D3E90023B968C1E9A8
:102958000223F868BB681033C82219460DF0B8FC8A
:10296800F968D7E90423C1E93223FB6803F1D000F1
:10297800BB681033C02219460DF0AAFCBB6803F1EE
:102988001000FB68C833C82219460DF0A1FC00BF2F
:102998001837BD4680BD80B485B000AF7860396017
:1029A8007B68012283F860203B68D3E900237968BB
:1029B800C1E902237B6801221A600023FB600CE056
:1029C8007B68D3E902237868F9680231C9000144B9
:1029D800C1E90023FB680133FB60FB68092BEFDDCD
:1029E80000BF00BF1437BD465DF8047B704780B553
:1029F80086B000AF87ED040BF860B9607A60BB68F9
:102A0800D3E902017B68D3E90023FDF7DDFF034624
:102A1800002B05D17B68D3E90023B968C1E90223FB
:102A2800F868BB681033502219460DF051FCF9685C
:102A3800D7E90423C1E91423FB6803F15800BB68F4
:102A48001033482219460DF043FCBB6803F110000F
:102A5800FB685033502219460DF03AFC00BF183776
:102A6800BD4680BD80B485B000AFF860B9607A60BB
:102A78003B6039684FF00002224BC1E900237968B6
:102A88004FF000021F4BC1E90023B9684FF0000264
:102A98004FF00003C1E90023F9684FF000024FF03E
:102AA8000003C1E90023184B012283F85020164B7C
:102AB800012283F85220144B012283F85120124935
:102AC8004FF000024FF00003C1E90C230E494FF00C
:102AD80000024FF00003C1E910230B494FF0000238
:102AE8004FF00003C1E90A2307494FF000024FF0F5
:102AF8000003C1E90E2300BF1437BD465DF8047B0F
:102B0800704700BF0000F03F6804002080B584B023
:102B180000AF87ED000B38687B6823F000414FF069
:102B280000022C4BFDF75AFF0346002B42D04FF012
:102B38000002294BD7E90001FDF764FF0346002B8B
:102B480013D04FF00002244BD7E90001FDF71EFB1C
:102B580002460B4643EC172BB0EE470AF0EE670A25
:102B68000DF0BAF987ED020B28E04FF000021B4B7D
:102B7800D7E90001FDF750FF0346002B06D04FF0C0
:102B880000024FF00003C7E9022317E04FF00002EC
:102B9800114BD7E90001FDF7F7FA02460B4643EC63
:102BA800172BB0EE470AF0EE670A0DF00DF987ED26
:102BB800020B03E0D7E90023C7E90223D7E9022380
:102BC80043EC172BB0EE470AF0EE670A1037BD4604
:102BD80080BD00BF000030430000E03F0000E0BFC0
:102BE80080B58CB002AF78607B6800221A727B686F
:102BF80001225A607B681033BB6100237B741A4B37
:102C0800FB611A4B3B620123BB74002387F8243015
:102C1800022387F825300923FB6009233B7407F159
:102C28000C0008230093042301220421FFF724FA4F
:102C380002467B68DA607B68DB6802211846FFF78A
:102C48008FFB7B68DB681846FFF7A4FA7B68DB68B4
:102C580001211846FFF7E7F97B6801221A7200BFC5
:102C68002837BD4680BD00BF000104500000024067
:102C780080B5A6B000AF78601A4BBB6000233B73E9
:102C880000237B7307F108031846FEF77FFC024612
:102C98007B68DA607B68DB6800211846FEF731F94B
:102CA8007B68DB6802211846FEF760FA7B68DB6800
:102CB80002211846FEF7FAFA7B68DB681846FFF728
:102CC80029FD034687F8973097F89730002B05D1F0
:102CD8007B68DB6800211846FFF734FD00BF983792
:102CE800BD4680BD0004004080B5A6B000AF786046
:102CF8001A4BBB6000233B7300237B7307F1080367
:102D08001846FEF743FC02467B68DA607B68DB689E
:102D180000211846FEF7F5F87B68DB6802211846A3
:102D2800FEF764FB7B68DB6802211846FEF706FCA9
:102D38007B68DB681846FFF7EDFC034687F8973099
:102D480097F89730002B05D17B68DB68002118467F
:102D5800FFF7F8FC00BF9837BD4680BD000400406F
:102D6800B0B5A8B000AFFFF791FDA14BDB68A14A51
:102D780004211846FFF723FA9D4BB3F87030A7F8E3
:102D880086309C4BDB899C4A13829A4B1B889A4A53
:102D9800D383984B9B89984A5382964B5B88964A73
:102DA8009383944B5B89944A9382924B9B88924A73
:102DB8005383904B1B89904AD3828E4BDB888E4A73
:102DC80013830023C7F88C300FE08B4AD7F88C3078
:102DD800083332F813308849D7F88C2021F812309C
:102DE800D7F88C300133C7F88C30D7F88C30072BE4
:102DF800EBDD814B5B881846FDF704FB04460D4666
:102E08007E4A7F497F4845EC104BFFF7F0FD7A4B2F
:102E180003F54E6353E90223C7E91C230023C7F8CF
:102E28008C301DE0D7F88C300133734A03F29B13C2
:102E3800DB001344D3E90023C7E92423D7E91C2383
:102E4800D7E92401FDF7E8FD0346002B03D0D7E9B5
:102E58002423C7E91C23D7F88C300133C7F88C30FA
:102E6800D7F88C30082BDDDD97ED1C7B664A674967
:102E78006748B0EE470AF0EE670AFFF751FD5E4B70
:102E880003F57B6353E90223C7E926230023C7F828
:102E98008C301DE0D7F88C300133574A03F2F51314
:102EA800DB001344D3E90023C7E92423D7E924230B
:102EB800D7E92601FDF7B0FD0346002B03D0D7E97B
:102EC8002423C7E92623D7F88C300133C7F88C3080
:102ED800D7F88C30172BDDDD474B9B881846FDF75C
:102EE80091FA04460D464B4A4B494C4845EC104B69
:102EF800FFF716FD404B03F5036353E90223C7E9C7
:102F08001C230023C7F88C301DE0D7F88C30013320
:102F1800394A03F20513DB001344D3E90023C7E958
:102F28002423D7E91C23D7E92401FDF775FD0346BF
:102F3800002B03D0D7E92423C7E91C23D7F88C300A
:102F48000133C7F88C30D7F88C30172BDDDD2A4BCE
:102F5800DB881846FDF756FA04460D46304A3149D3
:102F6800314845EC104BFFF7DBFC234B03F5A2631C
:102F780053E90223C7E91A230023C7F88C301CE061
:102F8800D7F88C3001331C4AA133DB001344D3E952
:102F98000023C7E92423D7E91A23D7E92401FDF739
:102FA8003BFD0346002B03D0D7E92423C7E91A23A6
:102FB800D7F88C300133C7F88C30D7F88C30172B02
:102FC800DEDD0D4B1B891846FDF71CFA04460D463D
:102FD800164A1749174845EC104BFFF7A1FC064B5A
:102FE800D3E9DE23C7E918230023C7F88C3040E073
:102FF800A0150020140400206804002030010020DF
:10300800181D00204011002048010020C81E002083
:103018001014002018010020781A0020900C0020BD
:1030280008010020B81800207009002000010020C5
:10303800D8170020E0070020D7F88C300133A04AC9
:103048006F33DB001344D3E90023C7E92423D7E90E
:103058001823D7E92401FDF7DFFC0346002B03D032
:10306800D7E92423C7E91823D7F88C300133C7F8E8
:103078008C30D7F88C30172BDEDD914B5B891846E6
:10308800FDF7C0F904460D468E4A8F498F4845EC36
:10309800104BFFF745FC8A4BD3E97A238849C1E9ED
:1030A80012230023C7F88C301EE0D7F88C30013388
:1030B800834A3D33DB001344D3E90023C7E92423C3
:1030C8007F4BD3E91223D7E92401FDF7A5FC03467A
:1030D800002B04D07A49D7E92423C1E91223D7F871
:1030E8008C300133C7F88C30D7F88C30172BDCDDE7
:1030F800734B9B891846FDF785F904460D46744ABB
:103108007449754845EC104BFFF771FC6C4B03F59F
:10311800586353E90223C7E91E230023C7F88C30FC
:103128001DE0D7F88C300133654A03F2AF13DB009A
:103138001344D3E90023C7E92423D7E91E23D7E999
:103148002401FDF769FC0346002B03D0D7E92423AB
:10315800C7E91E23D7F88C300133C7F88C30D7F86D
:103168008C30082BDDDD97ED1E7B5C4A5C495D48A1
:10317800B0EE470AF0EE670AFFF7D2FB504B03F5B3
:10318800626353E90223C7E91E230023C7F88C3082
:103198001DE0D7F88C300133494A03F2C313DB0032
:1031A8001344D3E90023C7E92423D7E91E23D7E929
:1031B8002401FDF713FC0346002B03D0D7E9242391
:1031C800C7E91E23D7F88C300133C7F88C30D7F8FD
:1031D8008C30172BDDDD444BB3F87230A7F8843000
:1031E800424AB7F88630138097ED260B0CF074FE30
:1031F800B0EE407AF0EE607A9FED2F1BB0EE470AF2
:10320800F0EE670A0CF0AAFD87ED240B4FF00002E0
:103218004FF00003D7E92401FDF7E0FB0346002B3C
:1032280010D0D7F89030BB65D7F8943083F00043BE
:10323800FB65D7E91601FDF70FFC03469BB25B421D
:103248009BB205E0D7E92401FDF706FC03469BB2D3
:10325800264A538097ED1C7BB0EE470AF0EE670ACA
:103268000CF03AFEB0EE407AF0EE607A9FED121B59
:10327800B0EE470AF0EE670A0CF070FD87ED240BFC
:103288004FF000024FF00003D7E92401FDF7A6FB39
:103298000346002B2CD0D7F890303B65D7F89430F4
:1032A80083F000437B65D7E91401FDF7D5FB03469E
:1032B8009BB25B429BB221E0000000000000F0409E
:1032C80068040020F8000020F816002050060020AE
:1032D80038010020801D0020E0110020400100205E
:1032E800E81D002080120020A015002028040020DE
:1032F800D7E92401FDF7B0FB03469BB2B84A938097
:1033080097ED1A7BB0EE470AF0EE670A0CF0E4FD81
:10331800B0EE407AF0EE607A9FEDAF1BB0EE470A50
:10332800F0EE670A0CF01AFD87ED240B4FF000024F
:103338004FF00003D7E92401FDF750FB0346002BAB
:1033480010D0D7F89030BB64D7F8943083F000439E
:10335800FB64D7E91201FDF77FFB03469BB25B4292
:103368009BB205E0D7E92401FDF776FB03469BB243
:103378009B4AD38097ED187BB0EE470AF0EE670AB8
:103388000CF0AAFDB0EE407AF0EE607A9FED921B49
:10339800B0EE470AF0EE670A0CF0E0FC87ED240B6C
:1033A8004FF000024FF00003D7E92401FDF716FBA8
:1033B8000346002B10D0D7F890303B64D7F89430F0
:1033C80083F000437B64D7E91001FDF745FB034612
:1033D8009BB25B429BB205E0D7E92401FDF73CFBB9
:1033E80003469BB27E4A13817E4B93ED127BB0EE6F
:1033F800470AF0EE670A0CF06FFDB0EE407AF0EE87
:10340800607A9FED751BB0EE470AF0EE670A0CF084
:10341800A5FC87ED240B4FF000024FF00003D7E91D
:103428002401FDF7DBFA0346002B10D0D7F89030C3
:10343800BB63D7F8943083F00043FB63D7E90E01F0
:10344800FDF70AFB03469BB25B429BB205E0D7E956
:103458002401FDF701FB03469BB2614A538197EDB6
:103468001E7BB0EE470AF0EE670A0CF035FDB0EEB1
:10347800407AF0EE607A9FED581BB0EE470AF0EE06
:10348800670A0CF06BFC87ED240B4FF000024FF03D
:103498000003D7E92401FDF7A1FA0346002B10D059
:1034A800D7F890303B63D7F8943083F000437B63C0
:1034B800D7E90C01FDF7D0FA03469BB25B429BB2F9
:1034C80005E0D7E92401FDF7C7FA03469BB2444A51
:1034D8009381434AB7F88430D381434BB3F8D8304B
:1034E8003F4A1382414BB3F87430A7F886303D4BFE
:1034F8005B881846FCF786FF04460D463C4A3D4962
:103508003D4845EC104BFFF70BFA364B03F5356396
:1035180053E90223C7E926230023C7F88C301DE0AE
:10352800D7F88C3001332F4A03F26913DB001344B8
:10353800D3E90023C7E92423D7E92423D7E92601BF
:10354800FDF76AFA0346002B03D0D7E92423C7E91D
:103558002623D7F88C300133C7F88C30D7F88C3055
:10356800172BDDDD1F4B03F5036353E90223C7E97E
:103578001E230023C7F88C301DE0D7F88C300133A8
:10358800184A03F20513DB001344D3E90023C7E903
:103598002423D7E91E23D7E92401FDF71FFA0346A0
:1035A800002B03D0D7E92423C7E91E23D7F88C3092
:1035B8000133C7F88C30D7F88C30172BDDDD094B79
:1035C80003F5A26353E90223C7E91C230023C7F8C4
:1035D8008C3030E0AFF30080000000000000F040C5
:1035E800280400206804002000000020A015002006
:1035F80028010020381C0020B00F0020D7F88C309C
:103608000133AF4AA133DB001344D3E90023C7E9F0
:103618002423D7E91C23D7E92401FDF7DFF9034662
:10362800002B03D0D7E92423C7E91C23D7F88C3013
:103638000133C7F88C30D7F88C30172BDEDDA04B60
:10364800D3E9DE23C7E91A230023C7F88C301CE02E
:10365800D7F88C3001339A4A6F33DB001344D3E92F
:103668000023C7E92423D7E91A23D7E92401FDF762
:10367800B5F90346002B03D0D7E92423C7E91A2359
:10368800D7F88C300133C7F88C30D7F88C30172B2B
:10369800DEDD8B4BD3E97A23C7E918230023C7F86B
:1036A8008C301CE0D7F88C300133854A3D33DB0081
:1036B8001344D3E90023C7E92423D7E91823D7E91A
:1036C8002401FDF78BF90346002B03D0D7E9242307
:1036D800C7E91823D7F88C300133C7F88C30D7F8EE
:1036E8008C30172BDEDD764B9B891846FCF78AFE5B
:1036F80004460D46734A7449744845EC104BFFF76D
:103708000FF96F4B03F51C6353E902236C49C1E9B8
:1037180012230023C7F88C301FE0D7F88C30013310
:10372800674A03F23713DB001344D3E90023C7E9E0
:103738002423634BD3E91223D7E92401FDF74EF97B
:103748000346002B04D05E49D7E92423C1E912239C
:10375800D7F88C300133C7F88C30D7F88C30172B5A
:10376800DBDD5B4BB3F87630A7F88430594AB7F8FD
:103778008630138097ED260B0CF0AEFBB0EE407A46
:10378800F0EE607A9FED4C1BB0EE470AF0EE670A48
:103798000CF0E4FA87ED240B4FF000024FF0000321
:1037A800D7E92401FDF71AF90346002B10D0D7F802
:1037B8009030BB62D7F8943083F00043FB62D7E9BE
:1037C8000A01FDF749F903469BB25B429BB205E04B
:1037D800D7E92401FDF740F903469BB23D4A5380DF
:1037E80097ED1E7BB0EE470AF0EE670A0CF074FB0B
:1037F800B0EE407AF0EE607A9FED2F1BB0EE470AEC
:10380800F0EE670A0CF0AAFA87ED240B4FF00002DD
:103818004FF00003D7E92401FDF7E0F80346002B39
:1038280010D0D7F890303B62D7F8943083F000433B
:103838007B62D7E90801FDF70FF903469BB25B42AB
:103848009BB205E0D7E92401FDF706F903469BB2D0
:10385800204A938097ED1C7BB0EE470AF0EE670A8A
:103868000CF03AFBB0EE407AF0EE607A9FED121B56
:10387800B0EE470AF0EE670A0CF070FA87ED240BF9
:103888004FF000024FF00003D7E92401FDF7A6F836
:103898000346002B20D0D7F89030BB61D7F894307E
:1038A80083F00043FB61D7E90601FDF7D5F803462D
:1038B8009BB25B429BB215E0000000000000F040A4
:1038C8006804002020010020581B0020200E002042
:1038D800A01500203C040020D7E92401FDF7BCF81E
:1038E80003469BB2AE4AD38097ED1A7BB0EE470AE7
:1038F800F0EE670A0CF0F0FAB0EE407AF0EE607A7B
:103908009FEDA51BB0EE470AF0EE670A0CF026FA09
:1039180087ED240B4FF000024FF00003D7E9240194
:10392800FDF75CF80346002B10D0D7F890303B61C8
:10393800D7F8943083F000437B61D7E90401FDF7A1
:103948008BF803469BB25B429BB205E0D7E92401A2
:10395800FDF782F803469BB2914A138197ED187BD5
:10396800B0EE470AF0EE670A0CF0B6FAB0EE407A0D
:10397800F0EE607A9FED881BB0EE470AF0EE670A1A
:103988000CF0ECF987ED240B4FF000024FF0000328
:10399800D7E92401FDF722F80346002B10D0D7F809
:1039A8009030BB60D7F8943083F00043FB60D7E9D0
:1039B8000201FDF751F803469BB25B429BB205E05A
:1039C800D7E92401FDF748F803469BB2744A5381AE
:1039D800744B93ED127BB0EE470AF0EE670A0CF0D9
:1039E8007BFAB0EE407AF0EE607A9FED6B1BB0EE9A
:1039F800470AF0EE670A0CF0B1F987ED240B4FF097
:103A080000024FF00003D7E92401FCF7E7FF034663
:103A1800002B10D0D7F890303B60D7F8943083F063
:103A280000437B60D7E90001FDF716F803469BB217
:103A38005B429BB205E0D7E92401FDF70DF8034688
:103A48009BB2574A9381564AB7F88430D381564B74
:103A5800B3F8DE20524B1A82544B9B79002B13D0BB
:103A6800504B1B881846FCF7CDFC02460B465049C4
:103A7800C1E916234B4BDB891846FCF7C3FC024609
:103A88000B464B49C1E918230023C7F88C3010E0D6
:103A9800484AD7F88C30134400221A70464AD7F89F
:103AA8008C30002122F81310D7F88C300133C7F876
:103AB8008C30D7F88C30072BEADD404B00221A6097
:103AC8003F4B00221A603A4B9B6E1846FCF7AAFC43
:103AD800354BD3E92423FCF781FF0346002B07D09D
:103AE800334B9B6E002B03DB2F4BD3E9202303E0E2
:103AF8004FF000024FF00003C7E926232C4B9B6EC2
:103B08001846FCF78FFC04460D46274BD3E92201E3
:103B18004FF000022B4BFCF737FB02460B462046C2
:103B28002946FCF76FFF0346002B03D0204B0022E9
:103B38009A6604E01E4B9B6E01331D4A9366224829
:103B4800FEF75FFDC7F888002048FEF75AFDC7F862
:103B58008000174B93F86C3003F00403DBB2002BA2
:103B680036D1134A92F86C3043F0040382F86C3073
:103B78000F4A92F86C30022161F3010382F86C302D
:103B880007F1780307F1700207F1680107F1600097
:103B9800FEF768FFB5E000BF000000000000F0403D
:103BA8003C0400206804002000000020A81F00201A
:103BB800A015002060040020500400200C04002000
:103BC800100400200000F03F0004004800100048E6
:103BD8009E4B93F86C3003F00303DBB2012B2ED11C
:103BE8004FF000024FF00003C7E91E234FF0000218
:103BF8004FF00003C7E91C234FF00002944BC7E9BC
:103C08001A234FF00002924BC7E91823D7F88830DF
:103C180003F00403002B74D18C4A92F86C30022113
:103C280061F3010382F86C3007F1780307F1700241
:103C380007F1680107F16000FEF714FF61E04FF03B
:103C48000002834BC7E91E234FF00002804BC7E9EF
:103C58001C234FF000024FF00003C7E91A234FF06E
:103C680000024FF00003C7E918237A4B012283F8BA
:103C78005020784B012283F85220764B012283F89A
:103C8800512074494FF000024FF00003C1E90C23A2
:103C980070494FF000024FF00003C1E910236D494D
:103CA8004FF000024FF00003C1E90A2369494FF0C1
:103CB80000024FF00003C1E90E23D7F8803003F06B
:103CC8004003002B1DD1614A92F86C30012161F349
:103CD800010382F86C304FF000024FF00003C7E98F
:103CE8001E234FF000024FF00003C7E91C234FF0DA
:103CF8000002574BC7E91A234FF00002544BC7E99B
:103D08001823544B544A1A62544BD3E910014FF00C
:103D180000024FF00003FCF761FE0346002B04D0BD
:103D2800D7E92623C7E9242304E04C4BD3E902232F
:103D3800C7E924234FF000024FF00003D7E924011C
:103D4800FCF742FE0346002B04D14FF40073C7F87A
:103D58008C3002E00023C7F88C303E4B1B6AD7F842
:103D68008C2011461846FEF758FC3A4B1A6AD7F8C9
:103D78008C30DB4303F4007319461046FEF75BFCF6
:103D8800344B354A1A62354BD3E912014FF0000221
:103D98004FF00003FCF722FE0346002B04D0D7E9BE
:103DA8002623C7E9242304E02C4BD3E90823C7E9D9
:103DB80024234FF000024FF00003D7E92401FCF759
:103DC80003FE0346002B04D14FF48043C7F88C3020
:103DD80002E00023C7F88C301E4B1B6AD7F88C20F2
:103DE80011461846FEF719FC1A4B1A6AD7F88C3098
:103DF800DB4303F4804319461046FEF71CFC154BC1
:103E0800154A1A62154BD3E91401D7E91E23FCF7AA
:103E1800E5FD0346002B04D0D7E92623C7E9242370
:103E280004E00E4BD3E90023C7E924234FF0000236
:103E38004FF00003D7E92401FCF7C6FD0346002B29
:103E48000ED14FF48073C7F88C300CE0A015002019
:103E58000000F03F68040020001000480000002027
:103E68000023C7F88C30964B1B6AD7F88C20114674
:103E78001846FEF7D2FB924B1A6AD7F88C30DB4310
:103E880003F4807319461046FEF7D5FB8C4B8D4A18
:103E98001A628D4BD3E91601D7E91C23FCF79EFD66
:103EA8000346002B04D0D7E92623C7E9242304E0DE
:103EB800854BD3E90A23C7E924234FF000024FF0CA
:103EC8000003D7E92401FCF77FFD0346002B04D14A
:103ED8004FF40043C7F88C3002E00023C7F88C3059
:103EE800774B1B6AD7F88C2011461846FEF795FBCE
:103EF800734B1A6AD7F88C30DB4303F40043194636
:103F08001046FEF798FB6E4B6E4A1A626E4BD3E969
:103F18001801D7E91A23FCF761FD0346002B04D0EA
:103F2800D7E92623C7E9242304E0674BD3E9042310
:103F3800C7E924234FF000024FF00003D7E924011A
:103F4800FCF742FD0346002B04D14FF48053C7F819
:103F58008C3002E00023C7F88C30594B1B6AD7F825
:103F68008C2011461846FEF758FB554B1A6AD7F8AD
:103F78008C30DB4303F4805319461046FEF75BFB95
:103F88004F4B524A1A62504BD3E91A014FF00002C4
:103F98004FF00003FCF722FD0346002B04D0D7E9BD
:103FA8002623C7E9242304E0474BD3E90E23C7E9B6
:103FB80024234FF000024FF00003D7E92401FCF757
:103FC80003FD0346002B04D14FF48053C7F88C300F
:103FD80002E00023C7F88C30394B1B6AD7F88C20D5
:103FE80011461846FEF719FB354B1A6AD7F88C307C
:103FF800DB4303F4805319461046FEF71CFB304B95
:10400800304A1A62304BD3E91C014FF000024FF0DE
:104018000003FCF7E3FC0346002B04D0D7E9262372
:10402800C7E9242304E0284BD3E90C23C7E9242358
:104038004FF000024FF00003D7E92401FCF7C4FC5D
:104048000346002B04D14FF40053C7F88C3002E02C
:104058000023C7F88C301A4B1B6AD7F88C201146FE
:104068001846FEF7DAFA164B1A6AD7F88C30DB4393
:1040780003F4005319461046FEF7DDFA104B114AB7
:104088001A62114BD3E91E01D7E91823FCF7BAFCD1
:104098000346002B04D00C4BD3E90623C7E926239B
:1040A8004FF000024FF00003D7E92601FCF78CFC23
:1040B8000346002B0CD14FF40063C7F88C300AE09C
:1040C8006804002000100048000000200004004898
:1040D8000023C7F88C30B64B1B6AD7F88C201146E2
:1040E8001846FEF79AFAB24B1A6AD7F88C30DB43B7
:1040F80003F4006319461046FEF79DFAAC4B93EDA6
:104108000E7BB0EE470AF0EE670AFEF7FFFC87ED7C
:10411800240B4FF00002A74BD7E92401FCF75EFC03
:104128000346002B16D04FF000024FF00003D7E9EA
:104138002401FCF767FC0346002B07D0D7E92401CC
:10414800FCF78AFC0346C7F8883007E00023C7F865
:10415800883003E04FF0FF33C7F88830964B1B6C6C
:10416800D7F888101846FDF789FAC7F88800924BE7
:104178001B6CD7F888101846FEF76BFA8C4B93ED3A
:10418800107BB0EE470AF0EE670AFEF7BFFC87ED3A
:10419800240B4FF00002874BD7E92401FCF71EFCE3
:1041A8000346002B16D04FF000024FF00003D7E96A
:1041B8002401FCF727FC0346002B07D0D7E924018C
:1041C800FCF74AFC0346C7F8883007E00023C7F825
:1041D800883003E04FF0FF33C7F88830764B1B6C0C
:1041E800D7F888101846FDF749FAC7F88800724BC7
:1041F8001B6CD7F888101846FEF743FA6C4B93ED02
:104208000C7BB0EE470AF0EE670AFEF77FFC87EDFD
:10421800240B4FF00002674BD7E92401FCF7DEFBC3
:104228000346002B16D04FF000024FF00003D7E9E9
:104238002401FCF7E7FB0346002B07D0D7E924014C
:10424800FCF70AFC0346C7F8883007E00023C7F8E4
:10425800883003E04FF0FF33C7F88830564B1B6DAA
:10426800D7F888101846FDF709FAC7F88800524BA6
:104278001B6DD7F888101846FEF71BFA4C4B93EDC8
:104288000A7BB0EE470AF0EE670AFEF73FFC87EDBF
:10429800240B4FF00002474BD7E92401FCF79EFBA3
:1042A8000346002B16D04FF000024FF00003D7E969
:1042B8002401FCF7A7FB0346002B07D0D7E924010C
:1042C800FCF7CAFB0346C7F8883007E00023C7F8A5
:1042D800883003E04FF0FF33C7F88830364B1B6D4A
:1042E800D7F888101846FDF7C9F9C7F88800324B87
:1042F8001B6DD7F888101846FEF7F3F92C4B2F4A98
:104308001A622F4BD3E92C014FF000024FF0000343
:10431800FCF75AFB0346002B03D18023C7F88C30E7
:1043280002E00023C7F88C30214B1B6AD7F88C2099
:1043380011461846FEF771F91D4B1A6AD7F88C30EA
:10434800DB4303F0800319461046FEF774F9184B57
:104358001C4A1A62164B93F85030002B04D04FF4C5
:104368000053C7F88C3002E00023C7F88C30104B9C
:104378001B6AD7F88C2011461846FEF74EF90C4BED
:104388001A6AD7F88C30DB4303F4005319461046F9
:10439800FEF751F9064B0B4A1A62054B93F8523057
:1043A800002B11D04FF48043C7F88C300FE000BFCA
:1043B800680400200000F041A0150020000C00480F
:1043C80000000020000800480023C7F88C30334B59
:1043D8001B6AD7F88C2011461846FEF71EF92F4B9A
:1043E8001A6AD7F88C30DB4303F480431946104629
:1043F800FEF721F9294B2A4A1A62284B93F85130C3
:10440800002B04D04FF40043C7F88C3002E000239F
:10441800C7F88C30214B1B6AD7F88C2011461846F8
:10442800FEF7FBF81D4B1A6AD7F88C30DB4303F410
:10443800004319461046FEF7FEF8184B194A1A624F
:10444800194BD3E92E014FF000024FF00003FCF79F
:10445800BBFA0346002B03D10823C7F88C3002E0CF
:104468000023C7F88C300D4B1B6AD7F88C201146F7
:104478001846FEF7D2F8094B1A6AD7F88C30DB4396
:1044880003F0080319461046FEF7D5F800F0ECFCD7
:1044980000F000FE00BFA037BD46B0BD6804002094
:1044A8000008004800040048000000200000000048
:1044B800B0B58EB000AF9C4BD3E91623C7E90823EB
:1044C8009A4A9B499B4897ED080BFEF729FA9A4BA5
:1044D80003F5D46353E90223C7E90C230023FB62E5
:1044E80019E0FB6A0133944AD333DB001344D3E960
:1044F8000023C7E90823D7E90823D7E90C01FCF70B
:104508006DFA0346002B03D0D7E90823C7E90C232B
:10451800FB6A0133FB62FB6A172BE2DD97ED0C0B9C
:104528000BF0DAFCB0EE407AF0EE607A9FED7C1B7F
:10453800B0EE470AF0EE670A0BF010FC87ED080BA7
:104548004FF000024FF00003D7E90801FCF746FAE4
:104558000346002B0ED03B6A3B617B6A83F0004325
:104568007B61D7E90401FCF777FA03469BB25B420B
:104578009BB205E0D7E90801FCF76EFA03469BB247
:10458800FB83694BD3E91823C7E908236B4A6C49B5
:104598006C4897ED080BFEF7C3F9674BD3E9162370
:1045A800C7E90C230023FB6219E0FB6A0133624A66
:1045B8000B33DB001344D3E90023C7E90823D7E909
:1045C8000823D7E90C01FCF709FA0346002B03D0AE
:1045D800D7E90823C7E90C23FB6A0133FB62FB6AAE
:1045E800172BE2DD97ED0C0B0BF076FCB0EE407A62
:1045F800F0EE607A9FED4A1BB0EE470AF0EE670ACC
:104608000BF0ACFB87ED080B4FF000024FF00003F6
:10461800D7E90801FCF7E2F90346002B0ED03B6A04
:10462800BB607B6A83F00043FB60D7E90201FCF7BB
:1046380013FA03469BB25B429BB205E0D7E9080137
:10464800FCF70AFA03469BB2BB83374ABB8BA2F836
:104658007230354AFB8BA2F87030374BD3E91623FA
:10466800C7E90C230023FB6219E0FB6A0133324AD5
:104678000B33DB001344D3E90023C7E90823D7E948
:104688000823D7E90C01FCF7C7F90346002B03D030
:10469800D7E90823C7E90C23FB6A0133FB62FB6AED
:1046A800172BE2DD97ED0C0B0BF016FCB0EE407A01
:1046B800F0EE607A9FED1A1BB0EE470AF0EE670A3B
:1046C8000BF04CFB87ED080B4FF000024FF0000396
:1046D800D7E90801FCF782F90346002B0ED03B6AA4
:1046E8003B607B6A83F000437B60D7E90001FCF7FD
:1046F800B3F903469BB25B429BB205E0D7E90801D8
:10470800FCF7AAF903469BB2FB830B4B03F5D46372
:1047180053E90223C7E90C230023FB622EE000BF04
:10472800000000000000F040A0150020100100204B
:1047380098190020000B002068040020F0000020D9
:1047480018160020C0040020FB6A0133304AD33316
:10475800DB001344D3E90023C7E90823D7E908237A
:10476800D7E90C01FCF758F90346002B03D0D7E929
:104778000823C7E90C23FB6A0133FB62FB6A172B8A
:10478800E2DD97ED0C0B0BF0A7FBB0EE407AF0EEF4
:10479800607A9FED1D1BB0EE470AF0EE670A0BF03A
:1047A800DDFA87ED080B4FF000024FF00003D7E960
:1047B8000801FCF713F90346002B0CD03C6A7B6A0E
:1047C80083F0004520462946FCF746F903469BB28C
:1047D8005B429BB205E0D7E90801FCF73DF90346C7
:1047E8009BB2BB830B4AFB8BA2F87630094ABB8B82
:1047F800A2F8743000F038FB00F04CFC00BF3837EA
:10480800BD46B0BDAFF30080000000000000F040DE
:1048180068040020A015002080B582B000AF0023F6
:104828007B6017E06A4BB3F8E0106A4A7B6822F8AD
:104838001310674BB3F8E210674A7B6822F813102D
:10484800634BB3F8E410654A7B6822F813107B6861
:1048580001337B607B68082BE4DD00237B6011E07B
:104868005B4B93F8E8105E4A7B6813440A461A705B
:10487800574BB3F8E6105B4A7B6822F813107B6845
:1048880001337B607B68072BEADD514BD3F8C030DE
:10489800554A13604E4BD3F8C430544A13604C4BFE
:1048A800D3F8C830524A1360494BD3F8CC30514A38
:1048B8001360474BD3F8C8304D4A5360444BD3F884
:1048C800CC304C4A5360424BD3F8C830484A9360C6
:1048D8003F4BD3F8CC30474A936000F059FB3C4B30
:1048E800B3F8D420444BA3F87020394BB3F8D62042
:1048F800414BA3F87220364BB3F8DA203E4BA3F8AD
:104908007420334BB3F8DC203B4BA3F876203A4BAA
:1049180000225A60384B00221A703748FEF760F9B7
:1049280036493748FEF737F836493748FDF7CCFFA0
:1049380036493748FDF7C8FF36493748FDF7C4FF01
:1049480036493748FDF7C0FF36493748FDF7BCFF01
:1049580036493748FEF71FF836493748FDF7B4FFA0
:1049680036493748FDF7B0FF36493748FDF7ACFF01
:10497800214B002283F834201F4B002283F83C206F
:104988001D4B01229A633148FEF772F91A4B012236
:1049980083F83C20184B002283F84420164B002251
:1049A80083F84C20144B01229A642948FEF79CF99D
:1049B800114B012283F84C2026492748FDF784FF34
:1049C80026492748FDF780FF00BF0837BD4680BD50
:1049D8000000002014040020280400203C040020CB
:1049E80060040020500400200C0400201004002063
:1049F800F403002000040020A0150020300100204E
:104A0800181D002048010020C81E002018010020A1
:104A1800781A002008010020B818002000010020A2
:104A2800D8170020F8000020F816002038010020D0
:104A3800801D002040010020E81D002028010020E2
:104A4800381C002020010020581B0020D41500200D
:104A5800E41500201001002098190020F000002023
:104A68001816002080B500AF344B1B78002B11D1ED
:104A7800324B01221A70314B5B68012B0AD12F4B44
:104A88001B7A002B06D02D4BDB6801220421184627
:104A9800FDF7EEFB294B93F83430002B23D1274B3D
:104AA800012283F83420254B9B6B012B1BD1234B10
:104AB80093F83C30002B16D0204B1B6C1846FDF7A2
:104AC800C1FE1E4B1B6C00211846FCF7B4FA1B4BA9
:104AD8001B6C02211846FCF799FB184B1B6C022132
:104AE8001846FCF733FC154B93F84430002B23D1C0
:104AF800124B012283F84420104B9B6C012B1BD1D5
:104B08000E4B93F84C30002B16D00C4B1B6D1846EF
:104B1800FDF798FE094B1B6D00211846FCF78BFA30
:104B2800064B1B6D02211846FCF7B4FC034B1B6DAA
:104B380002211846FCF716FD00BF80BDA015002015
:104B480080B489B000AFF860B9607A60FB68BB6177
:104B58000023FB61BB689B087B611B4B1B68B3F59B
:104B6800C87F2AD00023FB6122E0174B1B68174936
:104B78007A6841F82320FB699B00BA691A44124BF2
:104B88001B681268114903F5C87341F823200E4BBE
:104B98001B680F4A12680D4903F5487341F8232032
:104BA800094B1B680133084A1360FB690133FB6139
:104BB800FA697B699A42D8D300E000BF2437BD4622
:104BC8005DF8047B704700BFB01F0020B81F0020AD
:104BD800B41F002080B584B000AF786072B600BF03
:104BE80000F0A6FC0346FB6007F10C037A68042179
:104BF8001846FFF7A5FF62B600BF00BF1037BD46D5
:104C080080BD000080B582B000AF344B1B785A1CC1
:104C1800D1B2324A1170002B09D0314B01221A60EF
:104C28002E4B1B78013BDAB22C4B1A7053E03B1D1C
:104C38001846FDF715FE62B600BF02200BF072F8A9
:104C4800FEF78EF802200BF078F872B600BF234BFF
:104C58001B78013BDAB2214B1A707B79002B11D0FB
:104C6800204B5B785A1CD1B21E4A5170002B09D0D8
:104C78001B4B01221A601B4B5B78013BDAB2194BC4
:104C88005A7028E0174B5B78002B24D0134B5B78C5
:104C9800002B1FD1114B5B780133DAB20F4B5A70DE
:104CA80062B600BF03200BF03DF8FFF701FC0320BC
:104CB8000BF043F800BF72B600BF0A4B5B78013BAC
:104CC800DAB2084B5A70054B5B78013BDAB2034BFA
:104CD8005A7000E000BF0837BD4680BD7C32002016
:104CE800783200208032002080B584B000AF786030
:104CF8003960374BFB60374BBB60374B00221A706B
:104D0800364B00221A7001DF06F026FB00F0E0FEA9
:104D180000F02EFF00F08EFF01F054FF01F072FB4F
:104D280002F09EF901F0BEFF02F04AFA01F00EFD12
:104D380002F00EFD02F066FC294B1B6800221A6087
:104D480001200AF0EFFFFFF767FD01200AF0F5FFE9
:104D580072B600BF97ED030A00F08AFC204B1B686F
:104D68001B68002B0CBF01230023DBB21A461B4B28
:104D78001A7062B600BF62B600BF15E0184B1B6818
:104D88001B68002B14BF01230023DBB21A46124B09
:104D98001A70114B1B78DBB2002B05D0114B1B6826
:104DA800104A23F0010313600C4B1B78DBB2002B75
:104DB800E4D104200AF0B6FFFFF754FE04200AF0FD
:104DC800BCFF72B600BF002318461037BD4680BD31
:104DD800CDCCCC3C0000A04282320020833200209F
:104DE8006C03010810E000E080B485B000AF034612
:104DF800FB80B7F90630002B02DBFB88FB8101E062
:104E0800FB88FB81B7F90E3018461437BD465DF8AC
:104E1800047B704780B588B004AF03460A46FB712F
:104E28001346BB71FB799BB25B009BB2013399B20D
:104E3800BB799AB24FF0FF3302930223019307F133
:104E48000C0300930123074806F078FE3B7B1B0206
:104E58001AB27B7B1BB213431BB29BB218461037A6
:104E6800BD4680BDB032002080B500AF3B2169202F
:104E7800FFF7D0FF03461846FFF7B6FF03461A466A
:104E880013469B0013445B0007EE903AB8EEE77AAE
:104E9800DFED3B6AC7EE267A3A4BC3ED007A3D2137
:104EA8006920FFF7B7FF03461846FFF79DFF034643
:104EB8001A4613469B0013445B0007EE903AB8EE7F
:104EC800E77ADFED2F6AC7EE267A2E4BC3ED017A1B
:104ED8003F216920FFF79EFF03461846FFF784FF2E
:104EE80003461A4613469B0013445B0007EE903AAC
:104EF800B8EEE77ADFED226AC7EE267A214BC3EDDA
:104F0800027A43216920FFF785FF03461846FFF719
:104F18006BFF034607EE903AB8EEE77ADFED1A6AC0
:104F2800C7EE267A194BC3ED007A45216920FFF7B1
:104F380071FF03461846FFF757FF034607EE903AFE
:104F4800B8EEE77ADFED106AC7EE267A0F4BC3EDAD
:104F5800017A47216920FFF75DFF03461846FFF7EE
:104F680043FF034607EE903AB8EEE77ADFED066AAC
:104F7800C7EE267A054BC3ED027A00BF80BD00BF9D
:104F880000008046F40300200000034300040020D2
:104F980080B586B004AF0023FB714FF0FF33029356
:104FA80001230193FB1D009301236B22D2211D488D
:104FB80006F0B0FC4FF0FF3302930123019307235F
:104FC800009301231922D221164806F0A3FC4FF0C2
:104FD800FF330293012301930023009301231C2232
:104FE800D221104806F096FC4FF0FF3302930123BC
:104FF80001930023009301231B22D221094806F0C4
:1050080089FC4FF0FF33029301230193064B009371
:1050180001237522D321034806F090FD00BF08370D
:10502800BD4680BDB03200208432002080B582B0F9
:1050380000AF00237B600FE07B68432B08D07B68C0
:10504800052B05D07B685BB2184607F0E5FA00E04F
:1050580000BF7B6801337B607B68EF2BECD900BF16
:1050680000BF0837BD4680BD80B582B000AF0023C1
:105078007B6007E07B685BB2184607F0BFFA7B6885
:1050880001337B607B68EF2BF4D900BF00BF083782
:10509800BD4680BD80B500AF4021AA4806F092FB0E
:1050A8000346002B14BF01230023DAB2A64B1A7063
:1050B8000421A64806F086FB0346002B14BF0123F3
:1050C8000023DAB2A04B5A704FF40051A04806F002
:1050D80079FB0346002B14BF01230023DAB29D4B52
:1050E8001A704FF480419A4806F06CFB0346002B77
:1050F80014BF01230023DAB2964B5A704FF40041D3
:10510800934806F05FFB0346002B14BF01230023DE
:10511800DAB2904B9A704FF480518C4806F052FBEB
:105128000346002B14BF01230023DAB28A4B1A70FE
:105138004FF48071834806F045FB0346002B14BFEB
:1051480001230023DAB2844B5A704FF400717D4872
:1051580006F038FB0346002B14BF01230023DAB204
:105168007D4B9A704FF48051764806F02BFB03462E
:10517800002B14BF01230023DAB2774BDA704FF407
:105188000061704806F01EFB0346002B14BF012384
:105198000023DAB2704B1A714FF48041694806F067
:1051A80011FB0346002B14BF01230023DAB26A4B1C
:1051B8005A714FF40041634806F004FB0346002B84
:1051C80014BF01230023DAB2634B9A714FF40051E4
:1051D8005C4806F0F7FA0346002B14BF01230023AE
:1051E800DAB25D4BDA715D4B5B6B9AB25C4B1A803D
:1051F8005A4B9B6B9AB25A4B5A80584BDB6B9AB2FC
:10520800584B1A80554B1B6C9AB2564B5A80FFF775
:105218000DFF08E04FF400714FF0904006F0D2FA0D
:105228000346012B07D103214F4803F0C1F8034679
:10523800002BEFD10AE000BF08E04FF400714FF0F7
:10524800904006F0BFFA0346012B07D102213E48E1
:1052580003F0AEF80346002BEFD10AE000BF08E0E8
:105268004FF400714FF0904006F0ACFA0346012B62
:1052780007D10321374803F09BF80346002BEFD1F1
:105288000AE000BF08E04FF400714FF0904006F0CC
:1052980099FA0346012B07D10C21344803F088F80A
:1052A8000346002BEFD10AE000BF08E04FF400717D
:1052B8004FF0904006F086FA0346012B07D10C21E7
:1052C8002B4803F075F80346002BEFD10AE000BF26
:1052D80008E04FF400714FF0904006F073FA03466F
:1052E800012B07D11221234803F062F80346002B53
:1052F800EFD10AE000BF08E04FF400714FF0904092
:1053080006F060FA0346012B07D112211A4803F070
:105318004FF80346002BEFD10AE000BF08E04FF436
:1053280000714FF0904006F04DFA0346012B07D16B
:105338001221124803F03CF80346002BEFD128E075
:1053480000BF26E000100048883200200004004812
:10535800000800488C3200209032002000040040F1
:10536800A03200209C32002010030108F403002022
:105378000004002014040020280400203C0400201D
:105388004FF400714FF0904006F01CFA0346012BD1
:1053980007D10821514803F00BF80346002BEFD141
:1053A8000AE000BF08E04FF400714FF0904006F0AB
:1053B80009FA0346012B07D10421494802F0F8FFF6
:1053C8000346002BEFD10AE000BF08E04FF400715C
:1053D8004FF0904006F0F6F90346012B07D104215F
:1053E800404802F0E5FF0346002BEFD10AE000BF7A
:1053F80008E04FF400714FF0904006F0E3F90346DF
:10540800012B07D10421384802F0D2FF0346002BB4
:10541800EFD10AE000BF08E04FF400714FF0904070
:1054280006F0D0F90346012B07D108212F4802F0D6
:10543800BFFF0346002BEFD10AE000BF08E04FF49E
:1054480000714FF0904006F0BDF90346012B07D1DB
:105458001021274802F0ACFF0346002BEFD10AE0E9
:1054680000BF08E04FF400714FF0904006F0AAF931
:105478000346012B07D104211E4802F099FF034679
:10548800002BEFD10AE000BF08E04FF400714FF0A5
:10549800904006F097F90346012B07D104211648DE
:1054A80002F086FF0346002BEFD10AE000BF08E0B8
:1054B8004FF400714FF0904006F084F90346012B39
:1054C80007D104210D4802F073FF0346002BEFD1EA
:1054D80000E000BFFFF7C8FD00BF80BD903200208C
:1054E800983200209C320020A03200206004002066
:1054F80050040020100400200C04002014030108AC
:1055080080B584B000AF786005F052FFF8607B6822
:10551800BB6000BF05F04CFF0246FB68D31ABA68AF
:105528009A42F7D800BF00BF1037BD4680BD0000C3
:1055380010B50E4C82B0636A019305F039FF0090F4
:10554800626A019B9A4207D3009B01984FF47A72D2
:1055580002FB030002B010BD05F02AFF636A4FF496
:105568007A7202FB003002B010BD00BF002C01406F
:1055780080B483B000AF03463960FB7197F90730F8
:10558800002B0ADB3B68DAB20C4997F907301201A5
:10559800D2B20B4483F800230AE03B68DAB2084928
:1055A800FB7903F00F03043B1201D2B20B441A76C5
:1055B80000BF0C37BD465DF8047B704700E100E092
:1055C80000ED00E080B582B000AF78607B68013BF9
:1055D800B3F1807F01D301230FE00A4A7B68013BC6
:1055E80053600F214FF0FF30FFF7C2FF054B002239
:1055F8009A60044B07221A60002318460837BD46F4
:1056080080BD00BF10E000E080B500AFBFF34F8F52
:1056180000BFBFF36F8F00BF0B4B1A680B4B1B68A3
:105628009A4202D3084B00221A60074B1B685A1C87
:1056380005490A60002B05D172B600BFFFF7E2FAF0
:1056480062B600BF00BF80BDA4320020A83200208F
:1056580080B400AF054B5B68044A43F08053536045
:1056680000BFBD465DF8047B704700BF00ED00E059
:1056780080B584B000AF87ED010A234B1B6807EEA5
:10568800903AB8EE677AD7ED017A67EE277AFCEEA2
:10569800E77A17EE903AFB60FB68B3F1807F18D386
:1056A800FB6807EE903AB8EE677ADFED186AC7EE46
:1056B800267AFCEEE77A17EE903A0133144A136023
:1056C800134B1B68FA68B2FBF3F31846FFF77AFF2F
:1056D80005E00F4B00221A60F868FFF773FF0D4BC7
:1056E80000221A600C4A0D4B1A600F216FF004005B
:1056F800FFF73EFF0F216FF00100FFF739FF00BFF2
:105708001037BD4680BD00BFDC020020FFFF7F4B85
:10571800A8320020A432002011560008AC32002024
:10572800EFF3008001B5EFF3118003B41EF0100F02
:1057380008BFB0EE400A0A48006803B488B004A065
:1057480006904FF0807007906FF00600864670470D
:1057580003BC8047BFF36F8F00DFFEE700BF000088
:10576800AC3200201EF0100F08BFB0EE400A1EF049
:10577800040F0CBFEFF30880EFF30980816911F87B
:10578800020C10B101280DD00BE01EF0100F0CBF59
:105798001AB008B003BC80F3118803BC80F30088FA
:1057A8000847FEE74EF61451CEF200010A6842F0AF
:1057B80001020A607047F4E700BF00BF80B400AF81
:1057C800054B1B68044A43F40023136000BFBD4621
:1057D8005DF8047B704700BF0010024080B400AF42
:1057E800054B1B68044A43F48033136000BFBD4671
:1057F8005DF8047B704700BF0010024080B400AF22
:10580800074B1B6803F40033B3F5003F01D10123B4
:1058180000E000231846BD465DF8047B704700BFD2
:105828000010024080B483B000AF7860064B9B68DC
:1058380023F0030204497B6813438B6000BF0C37D5
:10584800BD465DF8047B70470010024080B400AF8D
:10585800044B9B6803F00C031846BD465DF8047BB7
:10586800704700BF0010024080B483B000AF78607A
:10587800064B9B6823F0F00204497B6813438B6056
:1058880000BF0C37BD465DF8047B7047001002402E
:1058980080B483B000AF7860064B9B6823F4E06265
:1058A80004497B6813438B6000BF0C37BD465DF825
:1058B800047B70470010024080B483B000AF78606A
:1058C800064B9B6823F4605204497B6813438B6042
:1058D80000BF0C37BD465DF8047B704700100240DE
:1058E80080B400AF054B1B68044A43F08073136013
:1058F80000BFBD465DF8047B704700BF0010024042
:1059080080B400AF074B1B6803F00073B3F1007F4E
:1059180001D1012300E000231846BD465DF8047B51
:10592800704700BF0010024080B485B000AFF86037
:10593800B9607A603B600A4BDA680A4B1340F96831
:10594800BA6811437A68120211433A680A43044953
:105958001343CB6000BF1437BD465DF8047B704726
:10596800001002408C80FFF980B400AF054BDB6863
:10597800044A43F08073D36000BFBD465DF8047BE2
:10598800704700BF0010024080B400AF054B1B6891
:10599800044A43F08063136000BFBD465DF8047B92
:1059A800704700BF0010024080B400AF074B1B686F
:1059B80003F00063B3F1006F01D1012300E000237D
:1059C8001846BD465DF8047B704700BF00100240D2
:1059D80080B485B000AFF860B9607A603B600E4B68
:1059E800DB6823F07302F968BB680B430A49134369
:1059F800CB60094B1B6923F4C00323F4FE437A6888
:105A080011023A680A43044913430B6100BF143773
:105A1800BD465DF8047B70470010024080B400AFBB
:105A2800054B1B69044A43F48013136100BFBD464C
:105A38005DF8047B704700BF0010024080B483B05B
:105A480000AF7860064B1B6823F0070204497B68A7
:105A580013430B6000BF0C37BD465DF8047B7047ED
:105A68000020024080B400AF044B1B6803F007031A
:105A78001846BD465DF8047B704700BF0020024011
:105A880080B483B000AF7860064B1B6823F4C06213
:105A980004497B6813430B6000BF0C37BD465DF8B3
:105AA800047B70470070004080B400AF074B5B690F
:105AB80003F48063B3F5806F01D1012300E0002374
:105AC8001846BD465DF8047B704700BF0070004073
