:020000040800F2
:10000000008001209D070108FF8E0008058F000871
:100010000B8F0008118F0008178F000800000000E8
:100020000000000000000000000000004562000821
:100030001D8F000800000000016200083161000807
:10004000ED070108ED070108ED070108ED070108BC
:10005000ED070108ED070108ED070108ED070108AC
:10006000ED070108ED070108ED0701082B8F0008D7
:10007000CD1F0008ED070108ED070108ED07010895
:10008000398F0008478F0008558F0008ED070108D9
:10009000ED070108ED070108ED070108ED0701086C
:1000A000ED070108658F0008ED070108ED0701085D
:1000B000ED070108ED070108ED070108ED0701084C
:1000C000ED070108ED070108ED070108ED0701083C
:1000D000ED070108ED070108ED070108ED0701082C
:1000E000ED070108ED070108ED070108ED0701081C
:1000F000ED070108ED070108ED070108ED0701080C
:10010000ED070108ED070108ED070108ED070108FB
:10011000ED070108ED070108ED070108ED070108EB
:10012000ED070108ED070108ED070108ED070108DB
:10013000ED070108ED070108ED070108ED070108CB
:10014000ED070108ED070108ED070108798F0008A8
:10015000ED070108ED070108ED070108ED070108AB
:10016000ED070108ED070108ED070108ED0701089B
:10017000ED070108ED070108ED0701080000000088
:08018000ED070108ED0701087D
:1001880081F0004102E000BF83F0004330B54FEA40
:1001980041044FEA430594EA050F08BF90EA020FAD
:1001A8001FBF54EA000C55EA020C7FEA645C7FEA40
:1001B800655C00F0E2804FEA5454D4EB5555B8BF63
:1001C8006D420CDD2C4480EA020281EA030382EAD4
:1001D800000083EA010180EA020281EA0303362D66
:1001E80088BF30BD11F0004F4FEA01314FF4801C39
:1001F8004CEA113102D0404261EB410113F0004F4B
:100208004FEA03334CEA133302D0524263EB430301
:1002180094EA050F00F0A780A4F10104D5F1200E9F
:100228000DDB02FA0EFC22FA05F2801841F10001FA
:1002380003FA0EF2801843FA05F359410EE0A5F1CE
:1002480020050EF1200E012A03FA0EFC28BF4CF0FF
:10025800020C43FA05F3C01851EBE37101F00045B5
:1002680007D54FF0000EDCF1000C7EEB00006EEBC2
:100278000101B1F5801F1BD3B1F5001F0CD349084C
:100288005FEA30004FEA3C0C04F101044FEA4452A3
:1002980012F5800F80F09A80BCF1004F08BF5FEA2A
:1002A800500C50F1000041EB045141EA050130BD0A
:1002B8005FEA4C0C404141EB0101013C28BFB1F51C
:1002C800801FE9D291F0000F04BF01460020B1FA67
:1002D80081F308BF2033A3F10B03B3F120020CDA3A
:1002E8000C3208DD02F1140CC2F10C0201FA0CF018
:1002F80021FA02F10CE002F11402D8BFC2F1200C7D
:1003080001FA02F120FA0CFCDCBF41EA0C01904032
:10031800E41AA2BF01EB0451294330BD6FEA04047B
:100328001F3C1CDA0C340EDC04F11404C4F1200266
:1003380020FA04F001FA02F340EA030021FA04F378
:1003480045EA030130BDC4F10C04C4F1200220FACF
:1003580002F001FA04F340EA0300294630BD21FA0D
:1003680004F0294630BD94F0000F83F4801306BFD3
:1003780081F480110134013D4EE77FEA645C18BFC7
:100388007FEA655C29D094EA050F08BF90EA020F5E
:1003980005D054EA000C04BF1946104630BD91EA56
:1003A800030F1EBF0021002030BD5FEA545C05D159
:1003B8004000494128BF41F0004130BD14F5800498
:1003C8003CBF01F5801130BD01F0004545F0FE410C
:1003D80041F470014FF0000030BD7FEA645C1ABF41
:1003E800194610467FEA655C1CBF0B46024650EA78
:1003F800013406BF52EA033591EA030F41F40021A4
:1004080030BD00BF90F0000F04BF0021704730B529
:100418004FF4806404F132044FF000054FF00001FE
:1004280050E700BF90F0000F04BF0021704730B5BF
:100438004FF4806404F1320410F0004548BF404294
:100448004FF000013EE700BF42004FEAE2014FEAE9
:1004580031014FEA02701FBF12F07F4393F07F4FC4
:1004680081F06051704732F07F4208BF704793F0C7
:100478007F4F04BF41F40021704730B54FF46074DA
:1004880001F0004521F000411CE700BF50EA0102DD
:1004980008BF704730B54FF000050AE050EA010286
:1004A80008BF704730B511F0004502D5404261EBF6
:1004B80041014FF4806404F132045FEA915C3FF437
:1004C800D8AE4FF003025FEADC0C18BF03325FEAD4
:1004D800DC0C18BF033202EBDC02C2F1200300FA85
:1004E80003FC20FA02F001FA03FE40EA0E0021FAAA
:1004F80002F11444BDE600BF70B54FF0FF0C4CF498
:10050800E06C1CEA11541DBF1CEA135594EA0C0F49
:1005180095EA0C0F00F0DEF82C4481EA030621EA84
:100528004C5123EA4C5350EA013518BF52EA0335BF
:1005380041F4801143F4801338D0A0FB02CE4FF071
:100548000005E1FB02E506F00042E0FB03E54FF0A1
:100558000006E1FB03569CF0000F18BF4EF0010E99
:10056800A4F1FF04B6F5007F64F5407404D25FEA95
:100578004E0E6D4146EB060642EAC62141EA555148
:100588004FEAC52040EA5E504FEACE2EB4F1FD0C8A
:1005980088BFBCF5E06F1ED8BEF1004F08BF5FEA08
:1005A800500E50F1000041EB045170BD06F00046BA
:1005B80046EA010140EA020081EA0301B4EB5C0467
:1005C800C2BFD4EB0C0541EA045170BD41F480115F
:1005D8004FF0000E013C00F3AB8014F1360FDEBF84
:1005E800002001F0004170BDC4F10004203C35DA60
:1005F8000C341BDC04F11404C4F1200500FA05F3E3
:1006080020FA04F001FA05F240EA020001F0004283
:1006180021F0004110EBD37021FA04F642EB0601F9
:100628005EEA430E08BF20EAD37070BDC4F10C0423
:10063800C4F1200500FA04F320FA05F001FA04F2E7
:1006480040EA020001F0004110EBD37041F10001D3
:100658005EEA430E08BF20EAD37070BDC4F12005DE
:1006680000FA05F24EEA020E20FA04F301FA05F246
:1006780043EA020321FA04F001F0004121FA04F2EE
:1006880020EA020000EBD3705EEA430E08BF20EABE
:10069800D37070BD94F0000F0FD101F000464000F8
:1006A80041EB010111F4801F08BF013CF7D041EA7A
:1006B800060195F0000F18BF704703F0004652007E
:1006C80043EB030313F4801F08BF013DF7D043EA4F
:1006D8000603704794EA0C0F0CEA135518BF95EA05
:1006E8000C0F0CD050EA410618BF52EA4306D1D18C
:1006F80081EA030101F000414FF0000070BD50EAAB
:10070800410606BF1046194652EA430619D094EA34
:100718000C0F02D150EA013613D195EA0C0F05D11E
:1007280052EA03361CBF104619460AD181EA030172
:1007380001F0004141F0FE4141F470014FF000002A
:1007480070BD41F0FE4141F4780170BD70B54FF0C5
:10075800FF0C4CF4E06C1CEA11541DBF1CEA135545
:1007680094EA0C0F95EA0C0F00F0A7F8A4EB050427
:1007780081EA030E52EA03354FEA013100F088801E
:100788004FEA03334FF0805545EA131343EA1263E7
:100798004FEA022245EA111545EA10654FEA00269C
:1007A8000EF000419D4208BF964244F1FD0404F555
:1007B800407402D25B084FEA3202B61A65EB0305B1
:1007C8005B084FEA32024FF480104FF4002CB6EB6E
:1007D800020E75EB030E22BFB61A754640EA0C00EE
:1007E8005B084FEA3202B6EB020E75EB030E22BF2E
:1007F800B61A754640EA5C005B084FEA3202B6EB6F
:10080800020E75EB030E22BFB61A754640EA9C002D
:100818005B084FEA3202B6EB020E75EB030E22BFFD
:10082800B61A754640EADC0055EA060E18D04FEABB
:10083800051545EA16754FEA06164FEAC30343EA5B
:1008480052734FEAC2025FEA1C1CC0D111F4801F28
:100858000BD141EA00014FF000004FF0004CB6E721
:1008680011F4801F04BF01430020B4F1FD0C88BFC0
:10087800BCF5E06F3FF6AFAEB5EB030C04BFB6EBCB
:10088800020C5FEA500C50F1000041EB045170BDBE
:100898000EF0004E4EEA113114EB5C04C2BFD4EBEB
:1008A8000C0541EA045170BD41F480114FF0000E6F
:1008B800013C90E645EA060E8DE60CEA135594EAEB
:1008C8000C0F08BF95EA0C0F3FF43BAF94EA0C0FEE
:1008D8000AD150EA01347FF434AF95EA0C0F7FF463
:1008E80025AF104619462CE795EA0C0F06D152EAB7
:1008F80003353FF4FDAE1046194622E750EA41069B
:1009080018BF52EA43067FF4C5AE50EA41047FF4AB
:100918000DAF52EA43057FF4EBAE12E74FF0FF3C10
:1009280006E000BF4FF0010C02E000BF4FF0010CE1
:100938004DF804CD4FEA410C7FEA6C5C4FEA430C5A
:1009480018BF7FEA6C5C1BD001B050EA410C0CBFA9
:1009580052EA430C91EA030F02BF90EA020F00200B
:10096800704710F1000F91EA030F58BF994208BF72
:1009780090422CBFD8176FEAE37040F0010070472F
:100988004FEA410C7FEA6C5C02D150EA013C07D186
:100998004FEA430C7FEA6C5CD6D152EA033CD3D0D1
:1009A8005DF8040B704700BF8446104662468C46CB
:1009B8001946634600E000BF01B5FFF7B7FF0028FE
:1009C80048BF10F1000F01BD4DF808EDFFF7F4FF27
:1009D8000CBF012000205DF808FB00BF4DF808EDB2
:1009E800FFF7EAFF34BF012000205DF808FB00BFD5
:1009F8004DF808EDFFF7E0FF94BF012000205DF8F7
:100A080008FB00BF4DF808EDFFF7CEFF94BF0120AB
:100A180000205DF808FB00BF4DF808EDFFF7C4FFA4
:100A280034BF012000205DF808FB00BF4FEA410CED
:100A38007FEA6C5C02D150EA013C0AD14FEA430CD0
:100A48007FEA6C5C02D152EA033C02D14FF000000D
:100A580070474FF0010070474A0011D212F500129A
:100A680011D20DD56FF47873B3EB62520ED44FEAFE
:100A7800C12343F0004343EA505323FA02F070477E
:100A88004FF00000704750EA013002D14FF0FF30BC
:100A980070474FF0000070470348044B834202D070
:100AA800034B03B118477047680300206803002010
:100AB800000000000548064B1B1AD90F01EBA301E3
:100AC800491002D0034B03B1184770476803002050
:100AD800680300200000000010B5064C237843B9D5
:100AE800FFF7DAFF044B13B10448AFF3008001238A
:100AF800237010BD6803002000000000CC0D010821
:100B080008B5054B1BB105490548AFF30080BDE8A2
:100B18000840FFF7CFBF00BF000000006C030020B3
:100B2800CC0D010880B485B000AF78607B681B6885
:100B380003F06003FB60FB68002B04D17B681B6833
:100B480003F01003FB60FB6818461437BD465DF8D8
:100B5800047B704780B483B000AF78607B681B6B00
:100B680018460C37BD465DF8047B704780B483B0E7
:100B780000AF786039607B681A6A3B681A437B6803
:100B88001A6200BF0C37BD465DF8047B704780B41D
:100B980083B000AF786039607B681A6A3B68DB43D2
:100BA8001A407B681A6200BF0C37BD465DF8047BAB
:100BB800704780B483B000AF78607B685B6C43F4A7
:100BC80000427B685A6400BF0C37BD465DF8047B61
:100BD800704780B483B000AF78607B68DB6843F00F
:100BE80001027B68DA6000BF0C37BD465DF8047B04
:100BF800704780B483B000AF78607B68DB6823F00F
:100C080001027B68DA6000BF0C37BD465DF8047BE3
:100C1800704780B483B000AF78607B68DB6803F00E
:100C28000103012B01D1012300E0002318460C37F2
:100C3800BD465DF8047B704780B483B000AF786030
:100C48007B68DB6843F002027B68DA6000BF0C3720
:100C5800BD465DF8047B704780B483B000AF786010
:100C68007B68DB6823F002027B68DA6000BF0C3720
:100C7800BD465DF8047B704780B483B000AF7860F0
:100C88007B68DB6803F00203022B01D1012300E03B
:100C9800002318460C37BD465DF8047B704780B4C6
:100CA80083B000AF78607B68DB6843F004027B6840
:100CB800DA6000BF0C37BD465DF8047B704780B42E
:100CC80083B000AF78607B68DB6823F004027B6840
:100CD800DA6000BF0C37BD465DF8047B704780B40E
:100CE80083B000AF78607B68DB6803F00403042BF3
:100CF80001D1012300E0002318460C37BD465DF8FA
:100D0800047B704780B483B000AF78607B68DB6891
:100D180043F008027B68DA6000BF0C37BD465DF817
:100D2800047B704780B483B000AF78607B68DB6871
:100D380023F008027B68DA6000BF0C37BD465DF817
:100D4800047B704780B483B000AF78607B68DB6851
:100D580003F00803082B01D1012300E00023184603
:100D68000C37BD465DF8047B704780B483B000AF94
:100D780078607B68DB6843F010027B68DA6000BF4C
:100D88000C37BD465DF8047B704780B483B000AF74
:100D980078607B68DB6823F010027B68DA6000BF4C
:100DA8000C37BD465DF8047B704780B483B000AF54
:100DB80078607B68DB6803F01003102B01D10123F6
:100DC80000E0002318460C37BD465DF8047B7047E9
:100DD80080B483B000AF78607B68DB6843F02002A2
:100DE8007B68DA6000BF0C37BD465DF8047B70474E
:100DF80080B483B000AF78607B68DB6823F02002A2
:100E08007B68DA6000BF0C37BD465DF8047B70472D
:100E180080B483B000AF78607B68DB6803F02003A0
:100E2800202B01D1012300E0002318460C37BD46D2
:100E38005DF8047B704780B483B000AF78607B684E
:100E4800DB6843F040027B68DA6000BF0C37BD46C0
:100E58005DF8047B704780B483B000AF78607B682E
:100E6800DB6823F040027B68DA6000BF0C37BD46C0
:100E78005DF8047B704780B483B000AF78607B680E
:100E8800DB6803F04003402B01D1012300E000237D
:100E980018460C37BD465DF8047B704780B483B0B4
:100EA80000AF78607B68DB6843F080027B68DA60BB
:100EB80000BF0C37BD465DF8047B704780B483B033
:100EC80000AF78607B68DB6823F080027B68DA60BB
:100ED80000BF0C37BD465DF8047B704780B483B013
:100EE80000AF78607B68DB6803F08003802B01D15A
:100EF800012300E0002318460C37BD465DF8047B4B
:100F0800704780B582B000AF78600B467B807B88E5
:100F180003F00103002B0CD07B681B681846FFF711
:100F2800AAFF0346012B04D07B681B681846FFF70D
:100F380082FF7B8803F00203002B0CD07B681B68C0
:100F48001846FFF799FE0346012B04D07B681B68FF
:100F58001846FFF771FE7B8803F00403002B0CD0C2
:100F68007B681B681846FFF7BAFE0346012B04D0BE
:100F78007B681B681846FFF792FE7B8803F008031E
:100F8800002B0CD07B681B681846FFF7DBFE034676
:100F9800012B04D07B681B681846FFF7B3FE7B88DB
:100FA80003F01003002B0CD07B681B681846FFF772
:100FB800FCFE0346012B04D07B681B681846FFF72C
:100FC800D4FE7B8803F02003002B0CD07B681B68C1
:100FD8001846FFF71EFE0346012B04D07B681B68EA
:100FE8001846FFF7F6FD7B8803F04003002B0CD072
:100FF8007B681B681846FFF771FF0346012B04D076
:101008007B681B681846FFF749FF7B8803F080035D
:10101800002B0CD07B681B681846FFF7F9FE0346C7
:10102800012B04D07B681B681846FFF7D1FE00BF70
:101038000837BD4680BD80B582B000AF78600B46EA
:101048007B807B8803F00103002B0CD07B681B6836
:101058001846FFF710FF0346012B04D17B681B6875
:101068001846FFF7F8FE7B8803F00203002B0CD02C
:101078007B681B681846FFF7FFFD0346012B04D168
:101088007B681B681846FFF7E7FD7B8803F00403BD
:10109800002B0CD07B681B681846FFF720FE034620
:1010A800012B04D17B681B681846FFF708FE7B8874
:1010B80003F00803002B0CD07B681B681846FFF769
:1010C80041FE0346012B04D17B681B681846FFF7D5
:1010D80029FE7B8803F01003002B0CD07B681B686B
:1010E8001846FFF762FE0346012B04D17B681B6894
:1010F8001846FFF74AFE7B8803F02003002B0CD02C
:101108007B681B681846FFF784FD0346012B04D053
:101118007B681B681846FFF76CFD7B8803F040036B
:10112800002B0CD07B681B681846FFF7D7FE0346D8
:10113800012B04D17B681B681846FFF7BFFE7B882C
:1011480003F08003002B0CD07B681B681846FFF760
:101158005FFE0346012B04D17B681B681846FFF726
:1011680047FE00BF0837BD4680BD000080B582B08D
:1011780000AF78600B46FB70FB78022B06D17B68CA
:101188001B6801211846FFF7F1FC31E07B681B68FA
:10119800194A934213D07B681B68184A93420ED0B1
:1011A8007B681B68164A934209D07B681B68154AFE
:1011B800934204D07B681B68134A934218D1FB788A
:1011C800032B06D17B681B6804211846FFF7CEFC69
:1011D8000EE0FB78042B0BD17B681B6801211846B5
:1011E800FFF7C4FC7B681B6804211846FFF7BEFCA8
:1011F80000BF0837BD4680BD002C014000340140C7
:1012080000400140004401400048014080B582B0E0
:1012180000AF78600B46FB70FB78022B06D17B6829
:101228001B6801211846FFF7B2FC31E07B681B6898
:10123800194A934213D07B681B68184A93420ED010
:101248007B681B68164A934209D07B681B68154A5D
:10125800934204D07B681B68134A934218D1FB78E9
:10126800032B06D17B681B6804211846FFF78FFC07
:101278000EE0FB78042B0BD17B681B680121184614
:10128800FFF785FC7B681B6804211846FFF77FFC85
:1012980000BF0837BD4680BD002C01400034014026
:1012A80000400140004401400048014080B582B040
:1012B80000AF78600B46FB70FB78022B06D17B6889
:1012C8001B6810211846FFF751FC31E07B681B684A
:1012D800194A934213D07B681B68184A93420ED070
:1012E8007B681B68164A934209D07B681B68154ABD
:1012F800934204D07B681B68134A934218D1FB7849
:10130800032B06D17B681B6840211846FFF72EFC8B
:101318000EE0FB78042B0BD17B681B681021184664
:10132800FFF724FC7B681B6840211846FFF71EFC6A
:1013380000BF0837BD4680BD002C01400034014085
:1013480000400140004401400048014080B582B09F
:1013580000AF78600B46FB70FB78022B06D17B68E8
:101368001B6810211846FFF712FC31E07B681B68E8
:10137800194A934213D07B681B68184A93420ED0CF
:101388007B681B68164A934209D07B681B68154A1C
:10139800934204D07B681B68134A934218D1FB78A8
:1013A800032B06D17B681B6840211846FFF7EFFB2B
:1013B8000EE0FB78042B0BD17B681B6810211846C4
:1013C800FFF7E5FB7B681B6840211846FFF7DFFB4A
:1013D80000BF0837BD4680BD002C014000340140E5
:1013E80000400140004401400048014080B582B0FF
:1013F80000AF78600B46FB70FB78022B07D17B6847
:101408001B684FF480711846FFF7B0FB34E07B6827
:101418001B681B4A934213D07B681B68194A934286
:101428000ED07B681B68184A934209D07B681B68FA
:10143800164A934204D07B681B68154A93421BD115
:10144800FB78032B07D17B681B684FF48061184633
:10145800FFF78CFB10E0FB78042B0DD17B681B6831
:101468004FF480711846FFF781FB7B681B684FF4C7
:1014780080611846FFF77AFB00BF0837BD4680BD7C
:10148800002C01400034014000400140004401406C
:101498000048014080B582B000AF78600B46FB7011
:1014A800FB78022B07D17B681B684FF480711846C4
:1014B800FFF76DFB34E07B681B681B4A934213D02F
:1014C8007B681B68194A93420ED07B681B68184AD0
:1014D800934209D07B681B68164A934204D07B6804
:1014E8001B68154A93421BD1FB78032B07D17B68F5
:1014F8001B684FF480611846FFF749FB10E0FB7842
:10150800042B0DD17B681B684FF480711846FFF7D8
:101518003EFB7B681B684FF480611846FFF737FB7A
:1015280000BF0837BD4680BD002C01400034014093
:1015380000400140004401400048014080B582B0AD
:1015480000AF78600B46FB70FB78022B06D17B68F6
:101558001B684FF480511846FFF708FB00BF083797
:10156800BD4680BD80B582B000AF78600B46FB7089
:10157800FB78022B06D17B681B684FF48051184614
:10158800FFF705FB00BF0837BD4680BD80B584B0B6
:1015980000AF78600023FB607B681B68304A934289
:1015A80001D1304BFB607B681A68FB681A60FB68E6
:1015B8001B681846FFF7B6FAB860BB68002B06D060
:1015C800BB68102B03D0FB6801221A7102E0FB688C
:1015D80000221A71FB681B68234A934213D0FB68E8
:1015E8001B68224A93420ED0FB681B68204A93422C
:1015F80009D0FB681B681F4A934204D0FB681B682C
:101608001D4A934204D1FB681B681846FFF7D1FABC
:10161800FB681B68144A934213D0FB681B68134A83
:1016280093420ED0FB681B68114A934209D0FB68AD
:101638001B68104A934204D0FB681B680E4A934209
:1016480008D17B681B681846FFF784FA0346DAB2AC
:10165800FB685A71FB6818461037BD4680BD00BF4D
:101668000004004084030020002C014000340140A5
:1016780000400140004401400048014080B485B06A
:1016880000AF786039603B68FB603B68B3F5803F2A
:101698000CD37B681B68B3F1804F07D07B681B684D
:1016A800064A934202D04FF6FF73FB60FB68184668
:1016B8001437BD465DF8047B704700BF000C00403E
:1016C80080B485B000AF786039603B68002B03D1E7
:1016D8007B684033FB6001E0044BFB60FB68184605
:1016E8001437BD465DF8047B704700BF0C030450F7
:1016F80080B483B000AF78607B68DB6803F4406334
:10170800002B01D1012300E0002318460C37BD4609
:101718005DF8047B704780B483B000AF78603960AF
:101728007B681B6B23F00F023B681A437B681A63C4
:1017380000BF0C37BD465DF8047B704780B483B0AA
:1017480000AF786039607B68DB6823F003023B6890
:101758001A437B68DA6000BF0C37BD465DF8047B2E
:10176800704780B483B000AF78607B68DB6C03F0AF
:10177800C003002B01D1012300E0002318460C37D9
:10178800BD465DF8047B704780B483B000AF7860D5
:101798007B689B6823F0004323F03F0343F001027A
:1017A8007B689A6000BF0C37BD465DF8047B7047C4
:1017B80080B483B000AF78607B689B6823F00043F7
:1017C80023F03F0343F002027B689A6000BF0C37A6
:1017D800BD465DF8047B704780B483B000AF786085
:1017E8007B689B6803F00103012B01D1012300E012
:1017F800002318460C37BD465DF8047B704780B45B
:1018080083B000AF786039607B689B6823F0404301
:1018180023F03F033A6802F08042134343F000424A
:101828007B689A6000BF0C37BD465DF8047B704743
:1018380080B483B000AF78607B689B6803F0004396
:10184800B3F1004F01D1012300E0002318460C3703
:10185800BD465DF8047B704780B483B000AF786004
:101868007B689B6823F0004323F03F0343F00402A6
:101878007B689A6000BF0C37BD465DF8047B7047F3
:1018880080B483B000AF78607B689B6823F0004326
:1018980023F03F0343F008027B689A6000BF0C37CF
:1018A800BD465DF8047B704780B483B000AF7860B4
:1018B8007B681B6803F00803082B01D1012300E0B3
:1018C800002318460C37BD465DF8047B704780B48A
:1018D80083B000AF78607B681B6803F01003102B9F
:1018E80001D1012300E0002318460C37BD465DF8FE
:1018F800047B704780B483B000AF78607B681022A7
:101908001A6000BF0C37BD465DF8047B704780B491
:1019180083B000AF78607B685B6843F008027B683F
:101928005A6000BF0C37BD465DF8047B704780B431
:1019380083B000AF78607B685B6843F040027B68E7
:101948005A6000BF0C37BD465DF8047B704780B411
:1019580083B000AF78607B685B6823F008027B681F
:101968005A6000BF0C37BD465DF8047B704780B4F1
:1019780083B000AF78607B685B6823F010027B68F7
:101988005A6000BF0C37BD465DF8047B704780B4D1
:1019980083B000AF78607B685B6823F040027B68A7
:1019A8005A6000BF0C37BD465DF8047B704780B4B1
:1019B80083B000AF78607B685B6823F080027B6847
:1019C8005A6000BF0C37BD465DF8047B704780B491
:1019D80083B000AF78607B685B6803F01003102B5E
:1019E80001D1012300E0002318460C37BD465DF8FD
:1019F800047B704780B483B000AF78607B685B6815
:101A080003F08003802B01D1012300E00023184656
:101A18000C37BD465DF8047B7047000080B485B084
:101A280000AF786039607B68FB600C4A3B68134400
:101A38001B781A46FB6813441B6808493A680A442D
:101A480012781146FA680A4443F00103136000BF94
:101A58001437BD465DF8047B704700BF3C0E010893
:101A680080B485B000AF786039607B68FB600C4A51
:101A78003B6813441B781A46FB6813441B680849E3
:101A88003A680A4412781146FA680A4423F00103B6
:101A9800136000BF1437BD465DF8047B704700BF74
:101AA8003C0E010880B485B000AF786039607B686F
:101AB800FB60084A3B6813441B781A46FB681344CA
:101AC8001B6803F0200318461437BD465DF8047BF5
:101AD800704700BF3C0E010880B487B000AFF860C3
:101AE800B9607A60FB687B610D4ABB6813441B7858
:101AF8001A467B6913445B681B0C1B040849BA68C7
:101B08000A44127811467A690A4411467A681343DE
:101B18004B6000BF1C37BD465DF8047B704700BFB3
:101B28003C0E010880B487B000AFF860B9607A60F5
:101B38003B60FB687B613B6A102B14D1174ABB687A
:101B480013441B781A467B6913441A467B68D36092
:101B5800124ABB6813441B781A467B6913441A4619
:101B68003B68936013E00D4ABB6813441B781A4620
:101B78007B6913441A467B689360084ABB68134420
:101B88001B781A467B6913441A463B68D36000BF2A
:101B98001C37BD465DF8047B704700BF3C0E01084A
:101BA80080B487B000AFF860B9607A60FB687B6189
:101BB800074ABB6813441B781A467B6913441A46C4
:101BC8007B68936000BF1C37BD465DF8047B704797
:101BD8003C0E010880B483B000AF78607B681B6856
:101BE80003F02003202B01D1012300E00023184635
:101BF8000C37BD465DF8047B704780B483B000AFF6
:101C080078607B6820225A6000BF0C37BD465DF8BB
:101C1800047B704780B485B000AF786039607B681A
:101C2800FB600C4A3B6813441B781A46FB68134454
:101C38001B6808493A680A4412781146FA680A4447
:101C480043F00203136000BF1437BD465DF8047B00
:101C5800704700BF3C0E010880B485B000AF7860C3
:101C680039607B68FB600C4A3B6813441B781A4652
:101C7800FB6813441B6808493A680A4412781146FD
:101C8800FA680A4443F00803136000BF1437BD46DE
:101C98005DF8047B704700BF3C0E010880B485B036
:101CA80000AF786039607B68FB600C4A3B6813447E
:101CB8001B781A46FB6813441B6808493A680A44AB
:101CC80012781146FA680A4423F00203136000BF31
:101CD8001437BD465DF8047B704700BF3C0E010811
:101CE80080B485B000AF786039607B68FB600C4ACF
:101CF8003B6813441B781A46FB6813441B68084961
:101D08003A680A4412781146FA680A4423F0040330
:101D1800136000BF1437BD465DF8047B704700BFF1
:101D28003C0E010880B485B000AF786039607B68EC
:101D3800FB600C4A3B6813441B781A46FB68134443
:101D48001B6808493A680A4412781146FA680A4436
:101D580023F00803136000BF1437BD465DF8047B09
:101D6800704700BF3C0E010880B485B000AF7860B2
:101D780039607B68FB600A4A3B6813441B781A4643
:101D8800FB6813441B6803F00203022B01D10123F3
:101D980000E0002318461437BD465DF8047B704701
:101DA8003C0E010880B584B000AF78600123FB8148
:101DB8007B681B691846FFF79BFC0346002B2FD056
:101DC8007B685B7ADBB2022B11D07B685B7ADBB273
:101DD800042B0CD07B685B7ADBB2082B07D07B68BE
:101DE8001B691846FFF760FD0346012B18D1786878
:101DF80000F0F8F80346002B12D17B685B7ADBB25F
:101E0800082B03D17B6801225A7202E07B682022EA
:101E18005A727B681B691846FFF71EFD0023FB8179
:101E2800FB8918461037BD4680BD80B586B002AF25
:101E3800F860B9607A603B600021F868FFF740FC01
:101E480003461A467968B868FFF7AAFE0021F868C1
:101E5800FFF736FC02463B68002100917968B868B4
:101E6800FFF760FEBA697968B868FFF735FE7968E8
:101E7800B868FFF7CFFE7968B868FFF7EDFE7968B4
:101E8800B868FFF7CBFD00BF1037BD4680BD80B5F1
:101E980084B000AFF860B9607A607968B868FFF715
:101EA800DFFD7968B868FFF71BFF7968B868FFF746
:101EB80039FF7968B868FFF7F1FE00227968B868D9
:101EC800FFF70AFE00BF1037BD4680BD80B584B05D
:101ED80000AF786039600223FB737B68DB79012BE4
:101EE8000FD17B68DA687B681B685B00D118FB7BC5
:101EF8007A68126802FB03F31A4638680EF054FF3A
:101F08000AE07B68D968FB7B7A68126802FB03F3F6
:101F18001A4638680EF048FF00BF1037BD4680BD2E
:101F280080B586B000AFF860B9607A60FB685A691E
:101F3800FB689B7919461046FFF716FF0346DBB28C
:101F4800012B37D1FB685A69BB681046984703468E
:101F5800012B2FD1FB6804225A72FB685A697B68EF
:101F680010469847FB685A69FB689B7919461046E2
:101F7800FFF798FD0346002B19D1FB685A69FB68E7
:101F88009B7919461046FFF76BFDFB685869FB689B
:101F98009B791946FB681B681A46FFF79DFDFB688D
:101FA8005A69FB689B7919461046FFF737FD0123EC
:101FB800FB7501E00023FB75FB7D18461837BD460D
:101FC80080BD000080B500AF034A04490448FFF70C
:101FD800A7FF00BF80BD00BF031C0008DD1B000871
:101FE8001004002080B582B000AF78607B681B6960
:101FF8001846FFF76CFC0346DBB2012B07D17B6860
:102008001B691846FFF776FC7B6810225A727B68BA
:102018005B7ADBB2102B0CBF01230023DBB218461E
:102028000837BD4680BD80B582B000AF78600B46EA
:10203800FB70FB78012B0DD17B681B691846FFF7F5
:1020480057FB0346012B12D07B681B691846FFF724
:1020580003FC0CE07B681B691846FFF782FB03460C
:10206800012B04D07B681B691846FFF709FC00BFE9
:102078000837BD4680BD000090B589B002AFF86052
:10208800084611461A4603467B810B463B81134698
:10209800FB8000237B61FB681B693C4A934201D1AA
:1020A8003B4B7B617B69002B6BD0FB681A697B69B2
:1020B8001A617B690022DA71FB88012B61D03B89A8
:1020C800002B47D07B695B7ADBB2082B42D0FB68D8
:1020D800DA687B69DA60FB681A687B691A60FB68F2
:1020E8005A697B695A61FB689A797B699A71FB68BE
:1020F8001A797B691A717B691B69B96A1846FFF7F7
:102108000AFB7B89012B21D07B89042B16D17B69A3
:102118001B6903211846FFF711FB7B6918697B6966
:1021280059697B699B791C467B69DA687B691B68FE
:10213800009313462246FFF778FE07E07B89022BBF
:1021480004D17B691B691846FFF7E1FB7B6908220C
:102158005A7216E03B89002B13D17B699B7ADBB25C
:10216800082B0ED0FB685A797B695A717B89022B40
:1021780004D17B691B691846FFF7D9FB7B690822E4
:102188009A727B6918461C37BD4690BD0001045001
:102198001004002080B582B000AF78607B681B69AE
:1021A8001846FFF719FB0346002B04D17B681B690F
:1021B8001846FFF7E9FA00BF0837BD4680BD80B56D
:1021C80086B000AFF8600B467A607B810123FB8202
:1021D800FB681B69002B46D07B89012B05D1F86869
:1021E800FFF7E0FD0346FB823DE07B89042B1FD10E
:1021F800FB681B691846FFF77BFA0346002B32D0B1
:10220800FB6801225A72FB681B691846FFF724FB1A
:1022180000BFFB685B7ADBB2042BFAD17968F868F7
:10222800FFF754FEFB6808225A720023FB821AE06B
:102238007B89022B17D1FB685B7ADBB2202B09D094
:10224800FB685B7ADBB2042B04D0FB685B7ADBB2F9
:10225800102B08D1FB6808225A727968F868FFF7D2
:1022680035FE0023FB82FB8A18461837BD4680BD21
:1022780080B582B000AF78600B467B8013463B8008
:102288007B681B691846FFF7A7FA0346002B04D0A2
:102298007B681B691846FFF78BFA7B681B69184631
:1022A800FFF7A8FB0346002B04D07B681B69184680
:1022B800FFF77DFB7B681B691846FFF788FB034621
:1022C800002B04D07B681B691846FFF750FB3B883E
:1022D800002B35D07B88012B1AD07B88022B05D1A7
:1022E8007B681B691846FFF732FB11E07B88042BDB
:1022F8000ED17B6818697B6859697B689B791A4697
:10230800FFF7C5FD7B681B6900211846FFF716FA21
:102318007B680022DA607B6800221A607B680022F2
:102328005A617B6800229A717B6800221A717B6867
:102338001A697B681B7919461046FFF7ECF90AE021
:102348007B6800225A717B88022B04D17B681B6949
:102358001846FFF71CFB00BF0837BD4680BD0000CC
:1023680080B584B000AF78600B46FB707B681B6952
:102378001846FFF731FA0346FB7397F90F30012B24
:1023880004D17B681B691846FFF712FAFB78002B0B
:102398000FD17B681B697F211846FFF730FA00BF11
:1023A8007B681B691846FFF743FA0346012BF7D0F1
:1023B80040E0FB78012B0FD17B681B692C4918463C
:1023C800FFF71DFA00BF7B681B691846FFF730FA54
:1023D8000346012BF7D02DE07B681B697F21184647
:1023E800FFF70DFA00BF7B681B691846FFF720FA54
:1023F8000346012BF7D00023BB8107E000BFBB8950
:102408001BB29BB201339BB21BB2BB81BB891BB20F
:102418009BB2032BF2D97B681B6915491846FFF755
:10242800EEF900BF7B681B691846FFF701FA0346FF
:10243800012BF7D00023BB8107E000BFBB891BB28B
:102448009BB201339BB21BB2BB81BB891BB29BB24F
:10245800032BF2D997F90F30012B04D17B681B6944
:102468001846FFF791F900BF1037BD4680BD00BF81
:1024780000007F4080B483B000AF78607B681B6841
:1024880043F001027B681A6000BF0C37BD465DF857
:10249800047B704780B483B000AF78607B681B68AA
:1024A80023F001027B681A6000BF0C37BD465DF857
:1024B800047B704780B483B000AF786039607B6874
:1024C8001B6823F004023B681A437B681A6000BF4C
:1024D8000C37BD465DF8047B704780B483B000AF0D
:1024E80078607B681B6803F0040318460C37BD4608
:1024F8005DF8047B704780B483B000AF78603960C2
:102508007B683A681A6300BF0C37BD465DF8047BE8
:10251800704780B483B000AF786039607B683A68F0
:102528005A6300BF0C37BD465DF8047B704780B422
:1025380083B000AF786039607B683A689A6300BFFF
:102548000C37BD465DF8047B704780B483B000AF9C
:10255800786039607B683A68DA6300BF0C37BD463B
:102568005DF8047B704780B483B000AF7860396051
:102578007B683A681A6400BF0C37BD465DF8047B77
:10258800704780B483B000AF78607B685B6B184697
:102598000C37BD465DF8047B704780B483B000AF4C
:1025A80078607B689B6B18460C37BD465DF8047BEA
:1025B800704780B483B000AF78607B68DB6B1846E7
:1025C8000C37BD465DF8047B704780B483B000AF1C
:1025D80078607B681B6C18460C37BD465DF8047B39
:1025E800704780B483B000AF78607B685B6943F064
:1025F80001027B685A6100BF0C37BD465DF8047B59
:10260800704780B483B000AF78607B681B69184658
:102618000C37BD465DF8047B704780B483B000AFCB
:10262800786039607B683A689A6100BF0C37BD46AC
:102638005DF8047B704780B483B000AF7860396080
:102648007B683A689A6200BF0C37BD465DF8047B28
:10265800704780B582B000AF786039607B681B68CE
:102668001846FFF78EFF02463B68934205D07B6809
:102678001B6839681846FFF74CFF00BF0837BD468E
:1026880080BD80B582B000AF786039607B681B6818
:102698001846FFF782FF02463B68934205D07B68E5
:1026A8001B6839681846FFF742FF00BF0837BD4668
:1026B80080BD80B582B000AF786039607B681B68E8
:1026C8001846FFF776FF02463B68934205D07B68C1
:1026D8001B6839681846FFF738FF00BF0837BD4642
:1026E80080BD80B582B000AF786039607B681B68B8
:1026F8001846FFF76AFF02463B68934205D07B689D
:102708001B6839681846FFF72EFF00BF0837BD461B
:1027180080BD000080B485B000AF78607B681B681E
:102728009A68074B1340FB60FB68062B0CBF01231C
:102738000023DBB218461437BD465DF8047B7047AA
:102748000700010080B584B000AF78600B46FB70CD
:102758007B681B681846FFF7C0FEF860FB78002B03
:102768001ED07B681B68324A934213D07B681B6873
:10277800304A93420ED07B681B682F4A934209D097
:102788007B681B682D4A934204D07B681B682C4ADF
:10279800934205D17B681B6800211846FFF7ABFE02
:1027A800FB68042B11D07B681B6804211846FFF7CF
:1027B80081FE7B681B681846FFF713FF7B681B6860
:1027C800F9681846FFF776FE04E07B681B68184630
:1027D800FFF707FF7B681B681846FFF74BFEFB787F
:1027E800002B20D07B681B68114A934213D07B686A
:1027F8001B68104A93420ED07B681B680E4A9342AE
:1028080009D07B681B680D4A934204D07B681B681B
:102818000B4A934207D17B681A687B685B79194633
:102828001046FFF768FE00BF1037BD4680BD00BFE9
:10283800002C0140003401400040014000440140A8
:102848000048014080B582B000AF78607B681B68A3
:102858001846FFF71FFE00BF0837BD4680BD0000C1
:1028680080B483B000AF7860074B5B79002B0CBF56
:1028780001230023DAB27B6801331A7000BF0C37DA
:10288800BD465DF8047B7047A820002080B400AFE7
:102898000C4B5B79002B0CBF01230023DAB2094BE8
:1028A8009A71084B5A790132D2B25A71054B5B7949
:1028B800032B02D9034B00225A7100BFBD465DF8B5
:1028C800047B7047A820002080B485B000AF7860F2
:1028D80039607B68012283F8D8203B68D3E900235C
:1028E8007968C1E902237B6801221A600023FB6032
:1028F8000CE07B68D3E902237868F9680231C900E3
:102908000144C1E90023FB680133FB60FB68182B15
:10291800EFDD00BF00BF1437BD465DF8047B70478C
:1029280080B586B000AF87ED040BF860B9607A60B7
:10293800BB68D3E902017B68D3E90023FEF744F8BA
:102948000346002B05D17B68D3E90023B968C1E9A8
:102958000223F868BB681033C82219460EF024FA1F
:10296800F968D7E90423C1E93223FB6803F1D000F1
:10297800BB681033C02219460EF016FABB6803F183
:102988001000FB68C833C82219460EF00DFA00BFC4
:102998001837BD4680BD80B485B000AF7860396017
:1029A8007B68012283F860203B68D3E900237968BB
:1029B800C1E902237B6801221A600023FB600CE056
:1029C8007B68D3E902237868F9680231C9000144B9
:1029D800C1E90023FB680133FB60FB68092BEFDDCD
:1029E80000BF00BF1437BD465DF8047B704780B553
:1029F80086B000AF87ED040BF860B9607A60BB68F9
:102A0800D3E902017B68D3E90023FDF7DDFF034624
:102A1800002B05D17B68D3E90023B968C1E90223FB
:102A2800F868BB681033502219460EF0BDF9F968F2
:102A3800D7E90423C1E91423FB6803F15800BB68F4
:102A48001033482219460EF0AFF9BB6803F11000A5
:102A5800FB685033502219460EF0A6F900BF18370C
:102A6800BD4680BD80B584B000AF87ED000B3868E7
:102A78007B6823F000414FF000022C4BFDF7AEFFBE
:102A88000346002B42D04FF00002294BD7E9000142
:102A9800FDF7B8FF0346002B13D04FF00002244B7C
:102AA800D7E90001FDF772FB02460B4643EC172BF2
:102AB800B0EE470AF0EE670A0DF07AFF87ED020BD9
:102AC80028E04FF000021B4BD7E90001FDF7A4FFF7
:102AD8000346002B06D04FF000024FF00003C7E971
:102AE800022317E04FF00002114BD7E90001FDF770
:102AF8004BFB02460B4643EC172BB0EE470AF0EEB1
:102B0800670A0DF0CDFE87ED020B03E0D7E900233D
:102B1800C7E90223D7E9022343EC172BB0EE470A93
:102B2800F0EE670A1037BD4680BD00BF0000304395
:102B38000000E03F0000E0BF80B58CB002AF7860D5
:102B48007B6800221A727B6801225A607B68103306
:102B5800BB6100237B741A4BFB611A4B3B62012358
:102B6800BB74002387F82430022387F82530092313
:102B7800FB6009233B7407F10C000823009304232E
:102B880001220421FFF778FA02467B68DA607B6845
:102B9800DB6802211846FFF7E3FB7B68DB68184611
:102BA800FFF7F8FA7B68DB6801211846FFF73BFA64
:102BB8007B6801221A7200BF2837BD4680BD00BF5E
:102BC800000104500000024080B5A6B000AF786054
:102BD8001A4BBB6000233B7300237B7307F1080388
:102BE8001846FEF7D3FC02467B68DA607B68DB6830
:102BF80000211846FEF785F97B68DB680221184634
:102C0800FEF7B4FA7B68DB6802211846FEF74EFB34
:102C18007B68DB681846FFF77DFD034687F8973029
:102C280097F89730002B05D17B68DB6800211846A0
:102C3800FFF788FD00BF9837BD4680BD00040040FF
:102C480080B5A6B000AF78601A4BBB6000233B7319
:102C580000237B7307F108031846FEF797FC02462A
:102C68007B68DA607B68DB6800211846FEF749F963
:102C78007B68DB6802211846FEF7B8FB7B68DB68D7
:102C880002211846FEF75AFC7B68DB681846FFF7F6
:102C980041FD034687F8973097F89730002B05D108
:102CA8007B68DB6800211846FFF74CFD00BF9837AA
:102CB800BD4680BD000400402DE9B04FA4B000AF70
:102CC800FFF7E4FD7E4BDB687E4A04211846FFF7D8
:102CD80076FA7B4BB3F8E030A7F86630794BDB899E
:102CE800794A1382774B1B88774AD383754B9B8924
:102CF800754A5382734B5B88734A9383714B5B8924
:102D0800714A93826F4B9B886F4A53836D4B1B8923
:102D18006D4AD3826B4BDB886B4A13830023FB66B7
:102D28000BE0694AFB6E083332F813306649FA6ED5
:102D380021F81230FB6E0133FB66FB6E072BF0DDCA
:102D4800614B5B881846FDF75DFB04460D465F4AFC
:102D58005F49604845EC104BFFF749FE5A4B03F5B5
:102D6800536353E90223C7E922230023FB661DE0CE
:102D7800FB6E0133544A03F2A513DB001344D3E975
:102D880000235149C1E924234F4BD3E92423D7E930
:102D98002201FDF723FE0346002B04D04A4BD3E95A
:102DA8002423C7E92223FB6E0133FB66FB6E082B45
:102DB800DEDD494A49494A4897ED220BFFF7B0FD45
:102DC800414B03F5805353E902233F49C1E92223CC
:102DD8000023FB661FE0FB6E01333B4A03F2FF133F
:102DE800DB001344D3E900233749C1E92423364BD8
:102DF800D3E92201344BD3E92423FDF70DFE034622
:102E0800002B05D0304BD3E924232F49C1E92223D5
:102E1800FB6E0133FB66FB6E172BDCDD2A4B9B88B0
:102E28001846FDF7EFFA04460D462E4A2E492F485C
:102E380045EC104BFFF774FD234B03F5086353E98A
:102E48000223C7E922230023FB661DE0FB6E013342
:102E58001D4A03F20F13DB001344D3E900231A4978
:102E6800C1E92423184BD3E92423D7E92201FDF72C
:102E7800B5FD0346002B04D0134BD3E92423C7E93F
:102E88002223FB6E0133FB66FB6E172BDEDD0E4B38
:102E9800DB881846FDF7B6FA04460D46144A15496C
:102EA800154845EC104BFFF73BFD074B03F5AC63AA
:102EB80053E90223C7E91C230023FB663BE000BF5C
:102EC800281600204C040020A004002068010020DF
:102ED800181E0020C811002080010020C81F0020F3
:102EE8009814002050010020781B0020180D0020A5
:102EF80040010020B8190020F8090020FB6E0133BA
:102F08006E4AAB33DB001344D3E900236B49C1E9B4
:102F180024236A4BD3E92423D7E91C01FDF75EFD7E
:102F28000346002B04D0654BD3E92423C7E91C23AF
:102F3800FB6E0133FB66FB6E172BDFDD5F4B1B89D6
:102F48001846FDF75FFA04460D465D4A5D495E483E
:102F580045EC104BFFF7E4FC584BD3E9F223C7E9E3
:102F680020230023FB661CE0FB6E0133534A7933B0
:102F7800DB001344D3E900235049C1E924234F4B14
:102F8800D3E92423D7E92001FDF728FD0346002BC8
:102F980004D04A4BD3E92423C7E92023FB6E01332D
:102FA800FB66FB6E172BDFDD444B5B891846FDF78C
:102FB80029FA04460D46454A4549464845EC104B12
:102FC800FFF7AEFC3D4BD3E98E23C7E91E23002350
:102FD800FB661CE0FB6E0133384A4733DB001344C1
:102FE800D3E900233549C1E92423344BD3E9242309
:102FF800D7E91E01FDF7F2FC0346002B04D02F4B46
:10300800D3E92423C7E91E23FB6E0133FB66FB6E5D
:10301800172BDFDD294B9B891846FDF7F3F904468A
:103028000D462D4A2D492E4845EC104BFFF7DFFC85
:10303800224B03F55D6353E902232049C1E92623A6
:103048000023FB661FE0FB6E01331C4A03F2B91331
:10305800DB001344D3E900231849C1E92423174BA3
:10306800D3E92601154BD3E92423FDF7B7FC034622
:10307800002B05D0114BD3E924231049C1E926239D
:10308800FB6E0133FB66FB6E082BDCDD0B4B93ED0F
:10309800267B144A14491548B0EE470AF0EE670A31
:1030A800FFF73EFC054B03F5676353E90223034929
:1030B800C1E926230023FB663AE000BFA0040020F4
:1030C80038010020D81800206808002030010020AE
:1030D800F8170020D806002070010020801E00206C
:1030E8006812002078010020E81E00200813002044
:1030F800FB6E0133AE4A03F2CD13DB001344D3E970
:103108000023AB49C1E92423A94BD3E92601A84BE5
:10311800D3E92423FDF780FC0346002B05D0A44BFC
:10312800D3E92423A249C1E92623FB6E0133FB66B8
:10313800FB6E172BDCDD9F4BB3F8E230A7F8643049
:103148009D4AB7F866301380994B93ED227BB0EE19
:10315800470AF0EE670A0DF02BFCB0EE407AF0EE6D
:10316800607A9FED911BB0EE470AF0EE670A0DF00A
:1031780061FBB0EE407AF0EE607A8D4B83ED247BF4
:103188008B4BD3E924014FF000024FF00003FDF709
:1031980025FC0346002B0ED0854BD3E9242390460B
:1031A80083F0004940464946FDF756FC03469BB26A
:1031B8005B429BB208E07E4BD3E9242310461946B4
:1031C800FDF74AFC03469BB27B4A538097ED220BDE
:1031D8000DF0EEFBB0EE407AF0EE607A9FED721BD8
:1031E800B0EE470AF0EE670A0DF024FBB0EE407A25
:1031F800F0EE607A6E4B83ED247B6D4BD3E92401AE
:103208004FF000024FF00003FDF7E8FB0346002BE8
:103218000ED0674BD3E92423924683F0004B5046E7
:103228005946FDF719FC03469BB25B429BB208E086
:103238005F4BD3E9242310461946FDF70DFC0346DE
:103248009BB25D4A938097ED1C0B0DF0B1FBB0EE7D
:10325800407AF0EE607A9FED541BB0EE470AF0EE2C
:10326800670A0DF0E7FAB0EE407AF0EE607A504B5C
:1032780083ED247B4E4BD3E924014FF000024FF03D
:103288000003FDF7ABFB0346002B0FD0484BD3E9F7
:103298002423BA6483F00043FB64D7E91201FDF7E5
:1032A800DBFB03469BB25B429BB208E0404BD3E991
:1032B800242310461946FDF7CFFB03469BB23E4A2E
:1032C800D38097ED200B0DF073FBB0EE407AF0EE53
:1032D800607A9FED351BB0EE470AF0EE670A0DF0F5
:1032E800A9FAB0EE407AF0EE607A314B83ED247B98
:1032F8002F4BD3E924014FF000024FF00003FDF7F4
:103308006DFB0346002B0FD0294BD3E924233A64E5
:1033180083F000437B64D7E91001FDF79DFB03466A
:103328009BB25B429BB208E0214BD3E924231046B1
:103338001946FDF791FB03469BB21F4A138197ED8F
:103348001E0B0DF035FBB0EE407AF0EE607A9FED83
:10335800161BB0EE470AF0EE670A0DF06BFAB0EEF6
:10336800407AF0EE607A124B83ED247B104BD3E960
:1033780024014FF000024FF00003FDF72FFB034636
:10338800002B1BD00A4BD3E92423BA6383F00043F4
:10339800FB63D7E90E01FDF75FFB03469BB25B4277
:1033A8009BB214E0AFF30080000000000000F04082
:1033B800A00400202816002060040020924BD3E9C6
:1033C800242310461946FDF747FB03469BB28F4A54
:1033D80053818D4B93ED267BB0EE470AF0EE670ADA
:1033E8000DF0E6FAB0EE407AF0EE607A9FED841BBD
:1033F800B0EE470AF0EE670A0DF01CFAB0EE407A1C
:10340800F0EE607A804B83ED247B7F4BD3E9240177
:103418004FF000024FF00003FDF7E0FA0346002BDF
:103428000FD0794BD3E924233A6383F000437B63BD
:10343800D7E90C01FDF710FB03469BB25B429BB238
:1034480008E0714BD3E9242310461946FDF704FB25
:1034580003469BB26D4A93816C4AB7F86430D381B6
:103468006B4BB3F81431694A13826A4BB3F8E430F2
:10347800A7F86630644B5B881846FCF7C3FF044620
:103488000D46654A6549664845EC104BFFF748FA12
:103498005D4B03F53A6353E902235B49C1E92223F3
:1034A8000023FB661FE0FB6E0133574A03F27313D8
:1034B800DB001344D3E900235349C1E92423524BC9
:1034C800D3E92201504BD3E92423FDF7A5FA03469B
:1034D800002B05D04C4BD3E924234B49C1E92223C7
:1034E800FB6E0133FB66FB6E172BDCDD464B03F5E9
:1034F800086353E902234449C1E926230023FB66F4
:103508001FE0FB6E0133404A03F20F13DB00134444
:10351800D3E900233C49C1E924233B4BD3E92601E5
:10352800394BD3E92423FDF777FA0346002B05D05E
:10353800354BD3E924233449C1E92623FB6E0133F3
:10354800FB66FB6E172BDCDD2F4B03F5AC6353E9F1
:103558000223C7E922230023FB661CE0FB6E01332C
:10356800294AAB33DB001344D3E900232649C1E9D8
:103578002423254BD3E92423D7E92201FDF74CFA6C
:103588000346002B04D0204BD3E92423C7E9222388
:10359800FB6E0133FB66FB6E172BDFDD1A4BD3E99D
:1035A800F223C7E91C230023FB661CE0FB6E0133F2
:1035B800154A7933DB001344D3E900231249C1E9E2
:1035C8002423114BD3E92423D7E91C01FDF724FA5E
:1035D8000346002B04D00C4BD3E92423C7E91C2352
:1035E800FB6E0133FB66FB6E172BDFDD064BD3E961
:1035F8008E23C7E920230023FB6630E0AFF3008069
:10360800000000000000F040A0040020600400203A
:10361800000000202816002060010020381D00202E
:1036280038100020FB6E0133AD4A4733DB001344EA
:10363800D3E90023AA49C1E92423A94BD3E92423C8
:10364800D7E92001FDF7E8F90346002B04D0A44B85
:10365800D3E92423C7E92023FB6E0133FB66FB6E05
:10366800172BDFDD9E4B9B891846FCF7CBFE0446E3
:103678000D469C4A9C499D4845EC104BFFF750F974
:10368800974B03F5216353E90223C7E91E2300235F
:10369800FB661DE0FB6E0133914A03F24113DB0028
:1036A8001344D3E900238E49C1E924238C4BD3E981
:1036B8002423D7E91E01FDF7AFF90346002B04D0F8
:1036C800874BD3E92423C7E91E23FB6E0133FB662E
:1036D800FB6E172BDEDD864BB3F8E630A7F86430B7
:1036E800844AB7F8663013807D4B93ED227BB0EEA9
:1036F800470AF0EE670A0DF05BF9B0EE407AF0EE9B
:10370800607A9FED751BB0EE470AF0EE670A0DF080
:1037180091F8B0EE407AF0EE607A714B83ED247B3D
:103728006F4BD3E924014FF000024FF00003FDF77F
:1037380055F90346002B0FD0694BD3E92423BA620D
:1037480083F00043FB62D7E90A01FDF785F90346D8
:103758009BB25B429BB208E0614BD3E9242310463D
:103768001946FDF779F903469BB2624A53805C4BD0
:1037780093ED267BB0EE470AF0EE670A0DF018F9D4
:10378800B0EE407AF0EE607A9FED531BB0EE470A38
:10379800F0EE670A0DF04EF8B0EE407AF0EE607A7F
:1037A8004F4B83ED247B4E4BD3E924014FF00002AD
:1037B8004FF00003FDF712F90346002B0FD0484BDA
:1037C800D3E924233A6283F000437B62D7E90801F6
:1037D800FDF742F903469BB25B429BB208E0404BBF
:1037E800D3E9242310461946FDF736F903469BB260
:1037F800404A938097ED220B0DF0DAF8B0EE407A4C
:10380800F0EE607A9FED341BB0EE470AF0EE670ADF
:103818000DF010F8B0EE407AF0EE607A304B83EDA0
:10382800247B2F4BD3E924014FF000024FF0000313
:10383800FDF7D4F80346002B0FD0294BD3E92423F6
:10384800BA6183F00043FB61D7E90601FDF704F98B
:1038580003469BB25B429BB208E0214BD3E9242389
:1038680010461946FDF7F8F803469BB2214AD38063
:1038780097ED1C0B0DF09CF8B0EE407AF0EE607AF4
:103888009FED151BB0EE470AF0EE670A0CF0D2FF69
:10389800B0EE407AF0EE607A114B83ED247B104B4A
:1038A800D3E924014FF000024FF00003FDF796F82A
:1038B8000346002B20D00A4BD3E924233A6183F036
:1038C80000437B61D7E90401FDF7C6F803469BB2C4
:1038D8005B429BB219E000BF000000000000F0400E
:1038E800A004002058010020581C0020A80E002029
:1038F8002816002074040020814BD3E924231046A5
:103908001946FDF7A9F803469BB27E4A138197ED45
:10391800200B0DF04DF8B0EE407AF0EE607A9FED96
:10392800761BB0EE470AF0EE670A0CF083FFB0EEA4
:10393800407AF0EE607A724B83ED247B704BD3E9CA
:1039480024014FF000024FF00003FDF747F803464B
:10395800002B0FD06A4BD3E92423BA6083F00043CD
:10396800FB60D7E90201FDF777F803469BB25B429B
:103978009BB208E0624BD3E9242310461946FDF7B1
:103988006BF803469BB25F4A538197ED1E0B0DF00F
:103998000FF8B0EE407AF0EE607A9FED571BB0EE6C
:1039A800470AF0EE670A0CF045FFB0EE407AF0EEF9
:1039B800607A534B83ED247B514BD3E924014FF0BC
:1039C80000024FF00003FDF709F80346002B0FD063
:1039D8004B4BD3E924233A6083F000437B60D7E95B
:1039E8000001FDF739F803469BB25B429BB208E041
:1039F800434BD3E9242310461946FDF72DF8034617
:103A08009BB2404A93813F4AB7F86430D3813E4B1A
:103A1800B3F81A213B4B1A823C4B9B79002B13D0ED
:103A2800374B1B881846FCF7EDFC02460B46384915
:103A3800C1E91623324BDB891846FCF7E3FC024642
:103A48000B463349C1E918230023FB660CE0314AD1
:103A5800FB6E134400221A702F4AFB6E002122F8D5
:103A68001310FB6E0133FB66FB6E072BEFDD2B4B50
:103A780000221A602A4B00221A60254BD3F8D8304E
:103A88001846FCF7CFFC204BD3E92423FCF7A6FF0C
:103A98000346002B08D01E4BD3F8D830002B03DB8D
:103AA800194BD3E9202303E04FF000024FF0000345
:103AB8001349C1E92223164BD3F8D8301846FCF72E
:103AC800B1FC04460D46104BD3E922014FF0000229
:103AD800144BFCF759FB02460B4620462946FCF7D7
:103AE80091FF0346002B1FD0094B0022C3F8D820B2
:103AF80021E000BFAFF30080000000000000F040AC
:103B0800A00400207404002000000020A820002049
:103B1800281600209804002088040020440400206F
:103B2800480400200000F03FC54BD3F8D8300133DB
:103B3800C34AC2F8D830C348FEF763FDB866BB6E07
:103B480003F00403002B0CBF01230023DBB287F82A
:103B58006330BD48FEF755FDB866BC4BB3F800317D
:103B68001A46BB4B9B8902FB03F31846FCF74AFC39
:103B78004FF00002B74BFCF7BFFC02460B4610465D
:103B88001946B24BD3E92823FCF7E0FD02460B4661
:103B980043EC172BB0EE470AF0EE670AFEF762FF18
:103BA80051EC100BA94BD3E92823FCF7A5FC0246DE
:103BB8000B46A949C1E92423A44BB3F802311A469C
:103BC800A34B5B8802FB03F31846FCF71BFC4FF082
:103BD8000002A04BFCF790FC02460B461046194623
:103BE8009A4BD3E92A23FCF7B1FD02460B4643EC76
:103BF800172BB0EE470AF0EE670AFEF733FF51ECD9
:103C0800100B924BD3E92A23FCF776FC02460B46AD
:103C18009149C1E926238D4BB3F804311A468C4BE0
:103C28005B8902FB03F31846FCF7ECFB4FF000023C
:103C3800884BFCF761FC02460B4610461946834B3D
:103C4800D3E92C23FCF782FD02460B4643EC172BE5
:103C5800B0EE470AF0EE670AFEF704FF51EC100BCE
:103C68007A4BD3E92C23FCF747FC02460B46C7E9FD
:103C78002223764BB3F806311A46754B1B8902FB93
:103C880003F31846FCF7BEFB4FF00002714BFCF73C
:103C980033FC02460B46104619466C4BD3E92E23DB
:103CA800FCF754FD02460B4643EC172BB0EE470ACF
:103CB800F0EE670AFEF7D6FE51EC100B634BD3E922
:103CC8002E23FCF719FC02460B46C7E91C235F4B61
:103CD800B3F808311A465E4BDB8802FB03F318463B
:103CE800FCF790FB4FF000025A4BFCF705FC02462C
:103CF8000B4610461946554BD3E93023FCF726FDF1
:103D080002460B4643EC172BB0EE470AF0EE670A63
:103D1800FEF7A8FE51EC100B4C4BD3E93023FCF70F
:103D2800EBFB02460B46C7E92023484BB3F80A31A0
:103D38001A46474B9B8802FB03F31846FCF762FBC5
:103D48004FF00002434BFCF7D7FB02460B461046E8
:103D580019463E4BD3E93223FCF7F8FC02460B46E2
:103D680043EC172BB0EE470AF0EE670AFEF77AFE2F
:103D780051EC100B354BD3E93223FCF7BDFB02465F
:103D88000B46C7E91E23314BB3F80C311A46304BAA
:103D98001B8802FB03F31846FCF734FB4FF00002C4
:103DA8002C4BFCF7A9FB02460B4610461946274B3D
:103DB800D3E93423FCF7CAFC02460B4643EC172B25
:103DC800B0EE470AF0EE670AFEF74CFE51EC100B16
:103DD8001E4BD3E93423FCF78FFB02460B46C7E999
:103DE80016231A4BB3F80E311A46194BDB8902FB1E
:103DF80003F31846FCF706FB4FF00002154BFCF7DF
:103E08007BFB02460B4610461946104BD3E9362376
:103E1800FCF79CFC02460B4643EC172BB0EE470A16
:103E2800F0EE670AFEF71EFE51EC100B074BD3E9C4
:103E38003623FCF761FB02460B46C7E914230DE065
:103E48002816002000040048001000480000002048
:103E58004C0400200000503EA00400209C4B93F826
:103E6800E8307E2B07D89A4B93F8E8300133DAB262
:103E7800974B83F8E820964B93F8DC3003F0400327
:103E8800DBB2002B14D1924A92F8DC3043F04003A5
:103E980082F8DC308E4B002283F8E8208C4A92F8B6
:103EA800DC30042161F3020382F8DC3000F097BCB7
:103EB800874B93F8DC30C3F30203DBB2013B032BDF
:103EC80000F27C8401A252F823F000BFE53E00080E
:103ED8006F40000877410008DD4500087C4BD3E9B6
:103EE8001A017B4BD3E92823FCF78CFD0346002BF2
:103EF80009D0774A92F8DC30022161F3020382F894
:103F0800DC3000F06CBC6EE0714BD3E91A014FF065
:103F18000002704BFCF73AF902460B466C49C1E9BE
:103F28001A236B4BD3E920016B4BD3E92623FCF70B
:103F38002DF902460B466649C1E92023644BD3E9B3
:103F48002201654BD3E92423FCF720F902460B46EE
:103F58005F49C1E922235E4BD3E93001D7E9162333
:103F6800FCF714F902460B465949C1E93023584B6E
:103F7800D3E92A01D7E91E23FCF708F902460B46C4
:103F88005349C1E92A23524BD3E92E01D7E920230B
:103F9800FCF7FCF802460B464D49C1E92E234C4B71
:103FA800D3E93401D7E91C23FCF7F0F802460B46A5
:103FB8004749C1E93423464BD3E92C01D7E92223E9
:103FC800FCF7E4F802460B464149C1E92C23404B73
:103FD800D3E93201D7E91423FCF7D8F802460B4697
:103FE8003B49C1E932233A4BD3E91A01384BD3E9AB
:103FF8002823FCF7FDFC0346002B85D1344BD3E97D
:104008002001334BD3E91A23FCF7A0FB02460B46E9
:104018002F49C1E91C232E4BD3E922012C4BD3E9AC
:104028001A23FCF793FB02460B462949C1E91E23D4
:10403800274BD3E93001264BD3E91A23FCF786FB3B
:1040480002460B462249C1E92423214BD3E9340116
:104058001F4BD3E91A23FCF779FB02460B461C4990
:10406800C1E92623BBE3BB6E03F04003002B10D14C
:10407800174A92F8DC30032161F3020382F8DC303E
:10408800134A92F8DC30012161F3C50382F8DC3071
:10409800A5E30F4BD3E91C014FF000024FF00003DA
:1040A800FCF792FC0346002B10D0094BD3E91E0104
:1040B8004FF000024FF08043FCF79AFC0346002BB8
:1040C80004D1054B93F8A130002B07D0012306E05B
:1040D800281600200000F03FA00400200023DAB2D8
:1040E800B34B83F8A120B34BD3E91C014FF0000276
:1040F8004FF00003FCF768FC0346002B0AD0AD4BD9
:10410800D3E91E014FF00002AB4BFCF771FC0346EC
:10411800002B07D0A64B012283F8A220A44B012232
:1041280083F8A120A34BD3E91C014FF000024FF004
:104138000003FCF749FC0346002B0BD09D4BD3E949
:104148001E014FF000029D4BFCF752FC0346002B6A
:1041580000D144E3964B012283F8A020944B01221E
:1041680083F8A220924B012283F8A12037E397F825
:104178006330002B37D08F4A92F8DC306FF3C503D9
:1041880082F8DC308B4A92F8DC30052161F30203B7
:1041980082F8DC30864B002283F8A020844B002272
:1041A80083F8A220824B002283F8A12080494FF097
:1041B80000024FF00003C1E90C237D494FF00002D3
:1041C8004FF00003C1E9102379494FF000024FF086
:1041D8000003C1E90A2376494FF000024FF00003BB
:1041E800C1E90E23FBE2734B93F8DC30C3F3C2033F
:1041F800DBB2013B042B00F2E78101A252F823F065
:104208001D420008014300085B430008CD43000835
:10421800EB430008664BD3E92645664BD3E91C01FE
:104228004FF00002664BFBF7B1FF02460B462046F3
:104238002946FCF7F1FB0346002B13D15C4BD3E96D
:1042480024455C4BD3E91E014FF000025C4BFBF7A1
:104258009DFF02460B4620462946FCF7DDFB034638
:10426800002B08D0534A92F8DC30052161F3C503CE
:1042780082F8DC30ADE14E4B002283F8A0204C4B95
:10428800002283F8A2204A4B002283F8A120484943
:104298004FF000024FF00003C1E9162344494FF0E4
:1042A80000024FF00003C1E9182341494FF0000212
:1042B800424BC1E912233E494FF000023F4BC1E98E
:1042C80014233B4938A3D3E90023C1E90C23384917
:1042D80035A3D3E90023C1E9102335494FF0000283
:1042E8004FF00003C1E90A2331494FF000024FF0B3
:1042F8000003C1E90E236CE12E4B93F8E830272B1D
:1043080008D92C4A92F8DC30012161F3C50382F800
:10431800DC305EE126494FF000024FF00003C1E9AE
:104328000C23234920A3D3E90023C1E91023204902
:104338001DA3D3E90023C1E90A231D494FF0000258
:104348004FF00003C1E90E23194B012283F8A02086
:104358003FE1184B93F8E8304F2B40F23781154A6C
:1043680092F8DC30062161F3C50382F8DC3010498D
:104378004FF000024FF00003C1E90C230C494FF045
:1043880000024FF00003C1E9102309494FF0000271
:104398004FF00003C1E90A2305494FF000024FF02E
:1043A8000003C1E90E2311E1000000000070A740DE
:1043B800A0040020281600200000F83F0000F03F6D
:1043C8000000E03F8C4B93F8E830272B40F2008147
:1043D800894A92F8DC30012161F3C50382F8DC30A8
:1043E800F6E0854BD3E924014FF00002834BFBF73D
:1043F800CDFE02460B46D7E92001FCF70DFB03462C
:10440800002B16D07C4BD3E92623D7E91C01FCF7F7
:10441800E5FA0346002B0CD0774B002283F8E820FE
:10442800754A92F8DC30022161F3C50382F8DC306A
:10443800C9E0714BD3E92423D7E92001FCF7CEFA70
:104448000346002B3BD06C4BD3E926014FF000020A
:104458006A4BFBF79BFE02460B46D7E91C01FCF7AB
:10446800DBFA0346002B2AD0634B002283F8E820AE
:10447800614A92F8DC30032161F3C50382F8DC302D
:104488005F495BA3D3E90023C1E90C235C494FF0E2
:1044980000024FF00003C1E9102359494FF0000210
:1044A8004FF00003C1E90A23554951A3D3E900237A
:1044B800C1E90E23524B012283F8A22083E04E4B20
:1044C800D3E924014FF000024C4BFBF75FFE024694
:1044D8000B46D7E92001FCF79FFA0346002B3BD097
:1044E800454BD3E926014FF00002444BFBF74EFE43
:1044F80002460B46D7E91C01FCF78EFA0346002B4F
:104508002AD03D4B002283F8E8203B4A92F8DC3061
:10451800042161F3C50382F8DC30394934A3D3E9B7
:104528000023C1E90C2336494FF000024FF0000385
:10453800C1E9102332494FF000024FF00003C1E9EE
:104548000A232F492AA3D3E90023C1E90E232C4BC0
:10455800012283F8A12036E029494FF000024FF0EC
:104568000003C1E9122326494FF000024FF000036F
:10457800C1E9142322494FF00002224BC1E9162356
:104588001F494FF000021F4BC1E918231C494FF087
:1045980000024FF00003C1E90C2319494FF0000253
:1045A8004FF00003C1E9102315494FF000024FF006
:1045B8000003C1E90A2312494FF000024FF000033B
:1045C800C1E90E2305E004E000BF08E100BF06E1F1
:1045D80000BF04E1084B93F8E8304F2B14D9064A82
:1045E80092F8DC30012161F3020382F8DC30F6E056
:1045F800000000000070A740281600200000E03FDF
:10460800A00400200000F03F9E4B93F8A030002B40
:104618000CBF01230023DBB21A469A4B83F8A02073
:10462800984B93F8A230002B0CBF01230023DBB278
:104638001A46944B83F8A220924B93F8A130002B92
:104648000CBF01230023DBB21A468E4B83F8A1204E
:104658008C494FF000024FF00003C1E90C2389494F
:104668004FF000024FF00003C1E9102385494FF0D5
:1046780000024FF00003C1E90A2382494FF000020B
:104688004FF00003C1E90E237F494FF000024FF0BD
:104698000003C1E91C237C494FF000024FF00003DE
:1046A800C1E91E2378494FF000024FF00003C1E929
:1046B800262375494FF000024FF00003C1E9242377
:1046C80071494FF000024FF00003C1E91A236E4907
:1046D8004FF000026D4BC1E928236B494FF00002EF
:1046E8004FF00003C1E9202367494FF000024FF063
:1046F8000003C1E9222364494FF000024FF0000390
:10470800C1E9302360494FF000024FF00003C1E9CE
:104718002A235D494FF000024FF00003C1E92E2320
:1047280059494FF000024FF00003C1E934235649BC
:104738004FF000024FF00003C1E92C2352494FF01B
:1047480000024FF00003C1E932234E494FF0000246
:104758004FF00003C1E912234A494FF000024FF01D
:104768000003C1E9142347494FF000024FF000034A
:10477800C1E9162343494FF000024FF00003C1E995
:10478800182340494FF000024FF00003C1E91A23F3
:104798003C494FF000024FF00003C1E91C2339499E
:1047A8004FF000024FF00003C1E91E2335494FF0D6
:1047B80000024FF00003C1E9202310E097F86330AE
:1047C800002B0BD0304B002283F8E8202E4A92F8B9
:1047D800DC30042161F3020382F8DC3000BF294B8E
:1047E8002B4A1A62274BD3E91A012A4BD3E9102323
:1047F800FCF712F90346002B06D0224BD3E92223FB
:104808002049C1E9242305E0224BD3E902231D49AD
:10481800C1E924231B4BD3E924014FF000024FF0D8
:104828000003FCF7D1F80346002B03D14FF40073C3
:10483800FB6601E00023FB66124B1B6AFA6E114609
:104848001846FDF7EAFE0F4B1A6AFB6EDB4303F4CA
:10485800007319461046FDF7EEFE0A4B0C4A1A6221
:10486800084BD3E91C010B4BD3E91223FCF7D4F80E
:104878000346002B10D0034BD3E922230149C1E999
:1048880024230FE0A004002028160020000049403F
:1048980000100048000000209A4BD3E908239A49E9
:1048A800C1E92423984BD3E924014FF000024FF0CB
:1048B8000003FCF789F80346002B03D14FF480432B
:1048C800FB6601E00023FB668F4B1B6AFA6E1146FC
:1048D8001846FDF7A2FE8C4B1A6AFB6EDB4303F405
:1048E800804319461046FDF7A6FE874B874A1A6291
:1048F800854BD3E91201834BD3E91423FCF78CF8D9
:104908000346002B06D0804BD3E922237E49C1E918
:10491800242305E07B4BD3E900237B49C1E9242309
:10492800794BD3E924014FF000024FF00003FCF764
:104938004BF80346002B03D14FF48073FB6601E06C
:104948000023FB66704B1B6AFA6E11461846FDF78A
:1049580064FE6D4B1A6AFB6EDB4303F480731946E1
:104968001046FDF768FE684B684A1A62664BD3E941
:104978001401644BD3E91623FCF74EF80346002BC9
:1049880006D0614BD3E922235F49C1E9242305E01E
:104998005C4BD3E90A235C49C1E924235A4BD3E988
:1049A80024014FF000024FF00003FCF70DF8034616
:1049B800002B03D14FF40043FB6601E00023FB66A4
:1049C800514B1B6AFA6E11461846FDF726FE4E4BF0
:1049D8001A6AFB6EDB4303F4004319461046FDF7E1
:1049E8002AFE494B494A1A62474BD3E91601454BFF
:1049F800D3E91823FCF710F80346002B06D0424BE6
:104A0800D3E922234049C1E9242305E03D4BD3E9FA
:104A180004233D49C1E924233B4BD3E924014FF04A
:104A280000024FF00003FBF7CFFF0346002B03D132
:104A38004FF48053FB6601E00023FB66324B1B6A90
:104A4800FA6E11461846FDF7E8FD2F4B1A6AFB6E01
:104A5800DB4303F4805319461046FDF7ECFD2A4B5F
:104A68002B4A1A62284BD3E92001264BD3E91A2393
:104A7800FBF7D2FF0346002B06D0234BD3E92223B2
:104A88002149C1E9242305E01E4BD3E90E231E4921
:104A9800C1E924231C4BD3E924014FF000024FF055
:104AA8000003FBF791FF0346002B03D14FF480531B
:104AB800FB6601E00023FB66134B1B6AFA6E114686
:104AC8001846FDF7AAFD104B1A6AFB6EDB4303F488
:104AD800805319461046FDF7AEFD0B4B0B4A1A6280
:104AE800094BD3E91E01074BD3E91C23FBF794FFBD
:104AF8000346002B0ED0044BD3E922230249C1E917
:104B080024230DE000000020A0040020001000482D
:104B180000040048AE4BD3E90C23AE49C1E9242375
:104B2800AC4BD3E924014FF000024FF00003FBF730
:104B38004BFF0346002B03D14FF40053FB6601E003
:104B48000023FB66A34B1B6AFA6E11461846FDF755
:104B580064FDA04B1A6AFB6EDB4303F4005319464D
:104B68001046FDF768FD9B4B9B4A1A62994BD3E9A7
:104B78001801974BD3E91E23FBF73AFF0346002B96
:104B880005D0934BD3E906239249C1E92223914BDF
:104B9800D3E922014FF000024FF00003FBF714FFA6
:104BA8000346002B03D14FF40063FB6601E00023AA
:104BB800FB66884B1B6AFA6E11461846FDF72DFDF9
:104BC800844B1A6AFB6EDB4303F4006319461046F4
:104BD800FDF731FD7F4B93ED0E7BB0EE470AF0EE0B
:104BE800670AFDF73FFFB0EE407AF0EE607A794B46
:104BF80083ED247B774BD3E924014FF00002774BF8
:104C0800FBF7ECFE0346002B18D0724BD3E92401C6
:104C18004FF000024FF00003FBF7F4FE0346002BB1
:104C280009D06C4BD3E9242310461946FBF714FF2F
:104C38000346BB6605E00023BB6602E04FF0FF3386
:104C4800BB66674B1B6CB96E1846FCF717FDB86658
:104C5800634B1B6CB96E1846FDF7FBFC5D4B93ED7F
:104C6800107BB0EE470AF0EE670AFDF7FBFEB0EEE8
:104C7800407AF0EE607A574B83ED247B554BD3E9AD
:104C880024014FF00002554BFBF7A8FE0346002B0A
:104C980018D0504BD3E924014FF000024FF0000325
:104CA800FBF7B0FE0346002B09D04A4BD3E9242377
:104CB80010461946FBF7D0FE0346BB6605E0002305
:104CC800BB6602E04FF0FF33BB66454B1B6CB96E09
:104CD8001846FCF7D3FCB866414B1B6CB96E1846F6
:104CE800FDF7CFFC3B4B93ED0C7BB0EE470AF0EEA3
:104CF800670AFDF7B7FEB0EE407AF0EE607A354B02
:104D080083ED247B334BD3E924014FF00002334B6E
:104D1800FBF764FE0346002B18D02E4BD3E9240181
:104D28004FF000024FF00003FBF76CFE0346002B28
:104D380009D0284BD3E9242310461946FBF78CFEEB
:104D48000346BB6605E00023BB6602E04FF0FF3375
:104D5800BB66234B1B6DB96E1846FCF78FFCB86613
:104D68001F4B1B6DB96E1846FDF7A3FC194B93ED4D
:104D78000A7BB0EE470AF0EE670AFDF773FEB0EE65
:104D8800407AF0EE607A134B83ED247B114BD3E924
:104D980024014FF00002114BFBF720FE0346002BC5
:104DA80023D00C4BD3E924014FF000024FF000034D
:104DB800FBF728FE0346002B14D0064BD3E9242327
:104DC80010461946FBF748FE0346BB6610E000BFD5
:104DD80000000020A0040020001000480000F0415E
:104DE800281600200023BB6602E04FF0FF33BB66A5
:104DF8005E4B1B6DB96E1846FCF740FCB8665B4B02
:104E08001B6DB96E1846FDF76CFC594B594A1A626E
:104E1800594BD3E938014FF000024FF00003FBF77C
:104E2800D3FD0346002B02D18023FB6601E000235B
:104E3800FB664F4B1B6AFA6E11461846FDF7EDFBF1
:104E48004B4B1A6AFB6EDB4303F08003194610468E
:104E5800FDF7F1FB464B494A1A62454B93F8A030DF
:104E6800002B03D04FF40053FB6601E00023FB66E0
:104E78003F4B1B6AFA6E11461846FDF7CEFB3C4BBA
:104E88001A6AFB6EDB4303F4005319461046FDF71C
:104E9800D2FB374B394A1A62354B93F8A230002BB4
:104EA80003D04FF48043FB6601E00023FB66304BE0
:104EB8001B6AFA6E11461846FDF7AFFB2C4B1A6AAF
:104EC800FB6EDB4303F4804319461046FDF7B3FB42
:104ED800274B2A4A1A62264B93F8A130002B03D09D
:104EE8004FF40043FB6601E00023FB66204B1B6A7E
:104EF800FA6E11461846FDF790FB1D4B1A6AFB6EB9
:104F0800DB4303F4004319461046FDF794FB184BA6
:104F18001B4A1A62184BD3E93A014FF000024FF0CE
:104F28000003FBF751FD0346002B02D10823FB6663
:104F380001E00023FB660E4B1B6AFA6E1146184609
:104F4800FDF76BFB0A4B1A6AFB6EDB4303F00803A1
:104F580019461046FDF76FFB00F0F2FC00F006FE64
:104F680000BF9037BD46BDE8B08F00BF28160020AF
:104F7800A0040020000C00480000002000080048A1
:104F88000004004800000000B0B58EB000AF9C4B94
:104F9800D3E91623C7E908239A4A9B499B4897ED0A
:104FA800080BFDF7BDFC9A4B03F5DE6353E90223BA
:104FB800C7E90C230023FB6219E0FB6A0133944A1A
:104FC800DD33DB001344D3E90023C7E90823D7E91D
:104FD8000823D7E90C01FBF701FD0346002B03D09A
:104FE800D7E90823C7E90C23FB6A0133FB62FB6A94
:104FF800172BE2DD97ED0C0B0BF0DAFCB0EE407AE4
:10500800F0EE607A9FED7C1BB0EE470AF0EE670A7F
:105018000BF010FC87ED080B4FF000024FF0000377
:10502800D7E90801FBF7DAFC0346002B0ED03B6AF0
:105038003B617B6A83F000437B61D7E90401FBF79E
:105048000BFD03469BB25B429BB205E0D7E9080122
:10505800FBF702FD03469BB2FB83694BD3E9182398
:10506800C7E908236B4A6C496C4897ED080BFDF7B4
:1050780057FC674BD3E92A23C7E90C230023FB62BB
:1050880019E0FB6A0133624A1533DB001344D3E9A4
:105098000023C7E90823D7E90823D7E90C01FBF760
:1050A8009DFC0346002B03D0D7E90823C7E90C234E
:1050B800FB6A0133FB62FB6A172BE2DD97ED0C0BF1
:1050C8000BF076FCB0EE407AF0EE607A9FED4A1B6A
:1050D800B0EE470AF0EE670A0BF0ACFB87ED080B61
:1050E8004FF000024FF00003D7E90801FBF776FC08
:1050F8000346002B0ED03B6ABB607B6A83F00043FB
:10510800FB60D7E90201FBF7A7FC03469BB25B42B1
:105118009BB205E0D7E90801FBF79EFC03469BB26A
:10512800BB83374ABB8BA2F8E230354AFB8BA2F827
:10513800E030374BD3E92A23C7E90C230023FB626D
:1051480019E0FB6A0133324A1533DB001344D3E913
:105158000023C7E90823D7E90823D7E90C01FBF79F
:105168005BFC0346002B03D0D7E90823C7E90C23CF
:10517800FB6A0133FB62FB6A172BE2DD97ED0C0B30
:105188000BF016FCB0EE407AF0EE607A9FED1A1B39
:10519800B0EE470AF0EE670A0BF04CFB87ED080B00
:1051A8004FF000024FF00003D7E90801FBF716FCA7
:1051B8000346002B0ED03B6A3B607B6A83F00043BA
:1051C8007B60D7E90001FBF747FC03469BB25B42D3
:1051D8009BB205E0D7E90801FBF73EFC03469BB20A
:1051E800FB830B4B03F5DE6353E90223C7E90C236A
:1051F8000023FB622EE000BF000000000000F0402A
:105208002816002048010020981A0020880B00204A
:10521800A0040020280100201817002048050020BD
:10522800FB6A0133304ADD33DB001344D3E9002342
:10523800C7E90823D7E90823D7E90C01FBF7ECFBFA
:105248000346002B03D0D7E90823C7E90C23FB6AE0
:105258000133FB62FB6A172BE2DD97ED0C0B0BF0B9
:10526800A7FBB0EE407AF0EE607A9FED1D1BB0EE22
:10527800470AF0EE670A0BF0DDFA87ED080B4FF0EE
:1052880000024FF00003D7E90801FBF7A7FB03462C
:10529800002B0CD03C6A7B6A83F0004520462946E7
:1052A800FBF7DAFB03469BB25B429BB205E0D7E90A
:1052B8000801FBF7D1FB03469BB2BB830B4AFB8B70
:1052C800A2F8E630094ABB8BA2F8E43000F038FBBC
:1052D80000F04CFC00BF3837BD46B0BDAFF30080CE
:1052E800000000000000F040A00400202816002064
:1052F80080B582B000AF00237B6017E06A4BB3F83B
:105308001C116A4A7B6822F81310674BB3F81E1108
:10531800674A7B6822F81310634BB3F82011654A7B
:105328007B6822F813107B6801337B607B68082B4D
:10533800E4DD00237B6011E05B4B93F824115E4AA7
:105348007B6813440A461A70574BB3F822115B4A1C
:105358007B6822F813107B6801337B607B68072B1E
:10536800EADD514BD3F8F030554A13604E4BD3F871
:10537800F430544A13604C4BD3F8F830524A136057
:10538800494BD3F8FC30514A1360474BD3F8F830F7
:105398004D4A5360444BD3F8FC304C4A5360424B5F
:1053A800D3F8F830484A93603F4BD3F8FC30474A6B
:1053B800936000F059FB3C4BB3F81021444BA3F821
:1053C800E020394BB3F81221414BA3F8E220364BC9
:1053D800B3F816213E4BA3F8E420334BB3F8182159
:1053E8003B4BA3F8E6203A4B00225A60384B002288
:1053F8001A703748FDF7A0FB36493748FDF7CBFA56
:1054080036493748FDF760FA36493748FDF75CFA00
:1054180036493748FDF758FA36493748FDF754FA00
:1054280036493748FDF750FA36493748FDF7B3FA99
:1054380036493748FDF748FA36493748FDF744FA00
:1054480036493748FDF740FA214B002283F83420CB
:105458001F4B002283F83C201D4B01229A633148E0
:10546800FDF7B2FB1A4B012283F83C20184B0022AF
:1054780083F84420164B002283F84C20144B012259
:105488009A642948FDF7DCFB114B012283F84C2074
:1054980026492748FDF718FA26492748FDF714FA40
:1054A80000BF0837BD4680BD000000204C04002026
:1054B8006004002074040020980400208804002060
:1054C80044040020480400202C0400203804002054
:1054D8002816002068010020181E002080010020E6
:1054E800C81F002050010020781B00204001002028
:1054F800B819002038010020D818002030010020F9
:10550800F817002070010020801E0020780100207C
:10551800E81E002060010020381D002058010020EE
:10552800581C00205C1600206C1600204801002042
:10553800981A0020280100201817002080B500AF15
:10554800344B1B78002B11D1324B01221A70314B8E
:105558005B68012B0AD12F4B1B7A002B06D02D4BF1
:10556800DB68012204211846FCF782FE294B93F8D8
:105578003430002B23D1274B012283F83420254BCC
:105588009B6B012B1BD1234B93F83C30002B16D07F
:10559800204B1B6C1846FDF755F91E4B1B6C002160
:1055A8001846FBF748FD1B4B1B6C02211846FBF7FE
:1055B8002DFE184B1B6C02211846FBF7C7FE154B36
:1055C80093F84430002B23D1124B012283F8442056
:1055D800104B9B6C012B1BD10E4B93F84C30002BBE
:1055E80016D00C4B1B6D1846FDF72CF9094B1B6D9B
:1055F80000211846FBF71FFD064B1B6D02211846BC
:10560800FBF748FF034B1B6D02211846FBF7AAFF67
:1056180000BF80BD2816002080B489B000AFF860B4
:10562800B9607A60FB68BB610023FB61BB689B08BB
:105638007B611B4B1B68B3F5C87F2AD00023FB6135
:1056480022E0174B1B6817497A6841F82320FB6949
:105658009B00BA691A44124B1B681268114903F57A
:10566800C87341F823200E4B1B680F4A12680D4976
:1056780003F5487341F82320094B1B680133084A96
:105688001360FB690133FB61FA697B699A42D8D3DD
:1056980000E000BF2437BD465DF8047B704700BFBB
:1056A800B0200020B8200020B420002080B584B0AD
:1056B80000AF786072B600BF00F0A6FC0346FB603E
:1056C80007F10C037A6804211846FFF7A5FF62B6B4
:1056D80000BF00BF1037BD4680BD000080B582B056
:1056E80000AF344B1B785A1CD1B2324A1170002BD0
:1056F80009D0314B01221A602E4B1B78013BDAB2DC
:105708002C4B1A7053E03B1D1846FDF7A9F862B6FA
:1057180000BF02200BF072F8FDF7CEFA02200BF062
:1057280078F872B600BF234B1B78013BDAB2214BE5
:105738001A707B79002B11D0204B5B785A1CD1B2A0
:105748001E4A5170002B09D01B4B01221A601B4BBB
:105758005B78013BDAB2194B5A7028E0174B5B783B
:10576800002B24D0134B5B78002B1FD1114B5B7897
:105778000133DAB20F4B5A7062B600BF03200BF048
:105788003DF8FFF701FC03200BF043F800BF72B6A9
:1057980000BF0A4B5B78013BDAB2084B5A70054BE5
:1057A8005B78013BDAB2034B5A7000E000BF083760
:1057B800BD4680BD7C330020783300208033002034
:1057C80080B584B000AF78603960374BFB60374BE9
:1057D800BB60374B00221A70364B00221A7001DF6B
:1057E80006F026FB00F0E0FE00F02EFF00F08EFF32
:1057F80001F054FF01F072FB02F09EF901F0BEFFC8
:1058080002F04AFA01F00EFD02F00EFD02F066FC0D
:10581800294B1B6800221A6001200AF0EFFFFFF7EE
:1058280067FD01200AF0F5FF72B600BF97ED030A85
:1058380000F08AFC204B1B681B68002B0CBF01235F
:105848000023DBB21A461B4B1A7062B600BF62B661
:1058580000BF15E0184B1B681B68002B14BF012301
:105868000023DBB21A46124B1A70114B1B78DBB2BD
:10587800002B05D0114B1B68104A23F0010313605D
:105888000C4B1B78DBB2002BE4D104200AF0B6FFE6
:10589800FFF754FE04200AF0BCFF72B600BF0023D5
:1058A80018461037BD4680BDCDCCCC3C0000A04288
:1058B8008233002083330020440E010810E000E00A
:1058C80080B485B000AF0346FB80B7F90630002BE3
:1058D80002DBFB88FB8101E0FB88FB81B7F90E3016
:1058E80018461437BD465DF8047B704780B588B00C
:1058F80004AF03460A46FB711346BB71FB799BB2A2
:105908005B009BB2013399B2BB799AB24FF0FF3377
:1059180002930223019307F10C0300930123074824
:1059280006F078FE3B7B1B021AB27B7B1BB213434B
:105938001BB29BB218461037BD4680BDB03300205D
:1059480080B500AF3B216920FFF7D0FF034618461A
:10595800FFF7B6FF03461A4613469B0013445B0045
:1059680007EE903AB8EEE77ADFED3B6AC7EE267AA3
:105978003A4BC3ED007A3D216920FFF7B7FF034694
:105988001846FFF79DFF03461A4613469B0013442B
:105998005B0007EE903AB8EEE77ADFED2F6AC7EEC4
:1059A800267A2E4BC3ED017A3F216920FFF79EFF2F
:1059B80003461846FFF784FF03461A4613469B0022
:1059C80013445B0007EE903AB8EEE77ADFED226AFF
:1059D800C7EE267A214BC3ED027A43216920FFF7EF
:1059E80085FF03461846FFF76BFF034607EE903A1C
:1059F800B8EEE77ADFED1A6AC7EE267A194BC3EDDF
:105A0800007A45216920FFF771FF03461846FFF722
:105A180057FF034607EE903AB8EEE77ADFED106AD3
:105A2800C7EE267A0F4BC3ED017A47216920FFF7AD
:105A38005DFF03461846FFF743FF034607EE903A1B
:105A4800B8EEE77ADFED066AC7EE267A054BC3EDB6
:105A5800027A00BF80BD00BF000080462C040020F1
:105A6800000003433804002080B586B004AF00234B
:105A7800FB714FF0FF33029301230193FB1D009349
:105A880001236B22D2211D4806F0B0FC4FF0FF33F2
:105A98000293012301930723009301231922D221A2
:105AA800164806F0A3FC4FF0FF330293012301933D
:105AB8000023009301231C22D221104806F096FCF3
:105AC8004FF0FF3302930123019300230093012336
