:020000040800F2
:1000000000800120ADFA00080F8200081582000868
:100010001B820008218200082782000800000000DF
:10002000000000000000000000000000555500081E
:100030002D820008000000001155000841540008FE
:10004000FDFA0008FDFA0008FDFA0008FDFA0008B4
:10005000FDFA0008FDFA0008FDFA0008FDFA0008A4
:10006000FDFA0008FDFA0008FDFA00083B820008CE
:10007000CD1F0008FDFA0008FDFA0008FDFA00088F
:10008000498200085782000865820008FDFA0008CE
:10009000FDFA0008FDFA0008FDFA0008FDFA000864
:1000A000FDFA000875820008FDFA0008FDFA000854
:1000B000FDFA0008FDFA0008FDFA0008FDFA000844
:1000C000FDFA0008FDFA0008FDFA0008FDFA000834
:1000D000FDFA0008FDFA0008FDFA0008FDFA000824
:1000E000FDFA0008FDFA0008FDFA0008FDFA000814
:1000F000FDFA0008FDFA0008FDFA0008FDFA000804
:10010000FDFA0008FDFA0008FDFA0008FDFA0008F3
:10011000FDFA0008FDFA0008FDFA0008FDFA0008E3
:10012000FDFA0008FDFA0008FDFA0008FDFA0008D3
:10013000FDFA0008FDFA0008FDFA0008FDFA0008C3
:10014000FDFA0008FDFA0008FDFA0008898200089F
:10015000FDFA0008FDFA0008FDFA0008FDFA0008A3
:10016000FDFA0008FDFA0008FDFA0008FDFA000893
:10017000FDFA0008FDFA0008FDFA00080000000082
:08018000FDFA0008FDFA000879
:1001880081F0004102E000BF83F0004330B54FEA40
:1001980041044FEA430594EA050F08BF90EA020FAD
:1001A8001FBF54EA000C55EA020C7FEA645C7FEA40
:1001B800655C00F0E2804FEA5454D4EB5555B8BF63
:1001C8006D420CDD2C4480EA020281EA030382EAD4
:1001D800000083EA010180EA020281EA0303362D66
:1001E80088BF30BD11F0004F4FEA01314FF4801C39
:1001F8004CEA113102D0404261EB410113F0004F4B
:100208004FEA03334CEA133302D0524263EB430301
:1002180094EA050F00F0A780A4F10104D5F1200E9F
:100228000DDB02FA0EFC22FA05F2801841F10001FA
:1002380003FA0EF2801843FA05F359410EE0A5F1CE
:1002480020050EF1200E012A03FA0EFC28BF4CF0FF
:10025800020C43FA05F3C01851EBE37101F00045B5
:1002680007D54FF0000EDCF1000C7EEB00006EEBC2
:100278000101B1F5801F1BD3B1F5001F0CD349084C
:100288005FEA30004FEA3C0C04F101044FEA4452A3
:1002980012F5800F80F09A80BCF1004F08BF5FEA2A
:1002A800500C50F1000041EB045141EA050130BD0A
:1002B8005FEA4C0C404141EB0101013C28BFB1F51C
:1002C800801FE9D291F0000F04BF01460020B1FA67
:1002D80081F308BF2033A3F10B03B3F120020CDA3A
:1002E8000C3208DD02F1140CC2F10C0201FA0CF018
:1002F80021FA02F10CE002F11402D8BFC2F1200C7D
:1003080001FA02F120FA0CFCDCBF41EA0C01904032
:10031800E41AA2BF01EB0451294330BD6FEA04047B
:100328001F3C1CDA0C340EDC04F11404C4F1200266
:1003380020FA04F001FA02F340EA030021FA04F378
:1003480045EA030130BDC4F10C04C4F1200220FACF
:1003580002F001FA04F340EA0300294630BD21FA0D
:1003680004F0294630BD94F0000F83F4801306BFD3
:1003780081F480110134013D4EE77FEA645C18BFC7
:100388007FEA655C29D094EA050F08BF90EA020F5E
:1003980005D054EA000C04BF1946104630BD91EA56
:1003A800030F1EBF0021002030BD5FEA545C05D159
:1003B8004000494128BF41F0004130BD14F5800498
:1003C8003CBF01F5801130BD01F0004545F0FE410C
:1003D80041F470014FF0000030BD7FEA645C1ABF41
:1003E800194610467FEA655C1CBF0B46024650EA78
:1003F800013406BF52EA033591EA030F41F40021A4
:1004080030BD00BF90F0000F04BF0021704730B529
:100418004FF4806404F132044FF000054FF00001FE
:1004280050E700BF90F0000F04BF0021704730B5BF
:100438004FF4806404F1320410F0004548BF404294
:100448004FF000013EE700BF42004FEAE2014FEAE9
:1004580031014FEA02701FBF12F07F4393F07F4FC4
:1004680081F06051704732F07F4208BF704793F0C7
:100478007F4F04BF41F40021704730B54FF46074DA
:1004880001F0004521F000411CE700BF50EA0102DD
:1004980008BF704730B54FF000050AE050EA010286
:1004A80008BF704730B511F0004502D5404261EBF6
:1004B80041014FF4806404F132045FEA915C3FF437
:1004C800D8AE4FF003025FEADC0C18BF03325FEAD4
:1004D800DC0C18BF033202EBDC02C2F1200300FA85
:1004E80003FC20FA02F001FA03FE40EA0E0021FAAA
:1004F80002F11444BDE600BF70B54FF0FF0C4CF498
:10050800E06C1CEA11541DBF1CEA135594EA0C0F49
:1005180095EA0C0F00F0DEF82C4481EA030621EA84
:100528004C5123EA4C5350EA013518BF52EA0335BF
:1005380041F4801143F4801338D0A0FB02CE4FF071
:100548000005E1FB02E506F00042E0FB03E54FF0A1
:100558000006E1FB03569CF0000F18BF4EF0010E99
:10056800A4F1FF04B6F5007F64F5407404D25FEA95
:100578004E0E6D4146EB060642EAC62141EA555148
:100588004FEAC52040EA5E504FEACE2EB4F1FD0C8A
:1005980088BFBCF5E06F1ED8BEF1004F08BF5FEA08
:1005A800500E50F1000041EB045170BD06F00046BA
:1005B80046EA010140EA020081EA0301B4EB5C0467
:1005C800C2BFD4EB0C0541EA045170BD41F480115F
:1005D8004FF0000E013C00F3AB8014F1360FDEBF84
:1005E800002001F0004170BDC4F10004203C35DA60
:1005F8000C341BDC04F11404C4F1200500FA05F3E3
:1006080020FA04F001FA05F240EA020001F0004283
:1006180021F0004110EBD37021FA04F642EB0601F9
:100628005EEA430E08BF20EAD37070BDC4F10C0423
:10063800C4F1200500FA04F320FA05F001FA04F2E7
:1006480040EA020001F0004110EBD37041F10001D3
:100658005EEA430E08BF20EAD37070BDC4F12005DE
:1006680000FA05F24EEA020E20FA04F301FA05F246
:1006780043EA020321FA04F001F0004121FA04F2EE
:1006880020EA020000EBD3705EEA430E08BF20EABE
:10069800D37070BD94F0000F0FD101F000464000F8
:1006A80041EB010111F4801F08BF013CF7D041EA7A
:1006B800060195F0000F18BF704703F0004652007E
:1006C80043EB030313F4801F08BF013DF7D043EA4F
:1006D8000603704794EA0C0F0CEA135518BF95EA05
:1006E8000C0F0CD050EA410618BF52EA4306D1D18C
:1006F80081EA030101F000414FF0000070BD50EAAB
:10070800410606BF1046194652EA430619D094EA34
:100718000C0F02D150EA013613D195EA0C0F05D11E
:1007280052EA03361CBF104619460AD181EA030172
:1007380001F0004141F0FE4141F470014FF000002A
:1007480070BD41F0FE4141F4780170BD70B54FF0C5
:10075800FF0C4CF4E06C1CEA11541DBF1CEA135545
:1007680094EA0C0F95EA0C0F00F0A7F8A4EB050427
:1007780081EA030E52EA03354FEA013100F088801E
:100788004FEA03334FF0805545EA131343EA1263E7
:100798004FEA022245EA111545EA10654FEA00269C
:1007A8000EF000419D4208BF964244F1FD0404F555
:1007B800407402D25B084FEA3202B61A65EB0305B1
:1007C8005B084FEA32024FF480104FF4002CB6EB6E
:1007D800020E75EB030E22BFB61A754640EA0C00EE
:1007E8005B084FEA3202B6EB020E75EB030E22BF2E
:1007F800B61A754640EA5C005B084FEA3202B6EB6F
:10080800020E75EB030E22BFB61A754640EA9C002D
:100818005B084FEA3202B6EB020E75EB030E22BFFD
:10082800B61A754640EADC0055EA060E18D04FEABB
:10083800051545EA16754FEA06164FEAC30343EA5B
:1008480052734FEAC2025FEA1C1CC0D111F4801F28
:100858000BD141EA00014FF000004FF0004CB6E721
:1008680011F4801F04BF01430020B4F1FD0C88BFC0
:10087800BCF5E06F3FF6AFAEB5EB030C04BFB6EBCB
:10088800020C5FEA500C50F1000041EB045170BDBE
:100898000EF0004E4EEA113114EB5C04C2BFD4EBEB
:1008A8000C0541EA045170BD41F480114FF0000E6F
:1008B800013C90E645EA060E8DE60CEA135594EAEB
:1008C8000C0F08BF95EA0C0F3FF43BAF94EA0C0FEE
:1008D8000AD150EA01347FF434AF95EA0C0F7FF463
:1008E80025AF104619462CE795EA0C0F06D152EAB7
:1008F80003353FF4FDAE1046194622E750EA41069B
:1009080018BF52EA43067FF4C5AE50EA41047FF4AB
:100918000DAF52EA43057FF4EBAE12E74FF0FF3C10
:1009280006E000BF4FF0010C02E000BF4FF0010CE1
:100938004DF804CD4FEA410C7FEA6C5C4FEA430C5A
:1009480018BF7FEA6C5C1BD001B050EA410C0CBFA9
:1009580052EA430C91EA030F02BF90EA020F00200B
:10096800704710F1000F91EA030F58BF994208BF72
:1009780090422CBFD8176FEAE37040F0010070472F
:100988004FEA410C7FEA6C5C02D150EA013C07D186
:100998004FEA430C7FEA6C5CD6D152EA033CD3D0D1
:1009A8005DF8040B704700BF8446104662468C46CB
:1009B8001946634600E000BF01B5FFF7B7FF0028FE
:1009C80048BF10F1000F01BD4DF808EDFFF7F4FF27
:1009D8000CBF012000205DF808FB00BF4DF808EDB2
:1009E800FFF7EAFF34BF012000205DF808FB00BFD5
:1009F8004DF808EDFFF7E0FF94BF012000205DF8F7
:100A080008FB00BF4DF808EDFFF7CEFF94BF0120AB
:100A180000205DF808FB00BF4DF808EDFFF7C4FFA4
:100A280034BF012000205DF808FB00BF4FEA410CED
:100A38007FEA6C5C02D150EA013C0AD14FEA430CD0
:100A48007FEA6C5C02D152EA033C02D14FF000000D
:100A580070474FF0010070474A0011D212F500129A
:100A680011D20DD56FF47873B3EB62520ED44FEAFE
:100A7800C12343F0004343EA505323FA02F070477E
:100A88004FF00000704750EA013002D14FF0FF30BC
:100A980070474FF0000070470348044B834202D070
:100AA800034B03B118477047A0020020A0020020A2
:100AB800000000000548064B1B1AD90F01EBA301E3
:100AC800491002D0034B03B118477047A002002019
:100AD800A00200200000000010B5064C237843B99E
:100AE800FFF7DAFF044B13B10448AFF3008001238A
:100AF800237010BDA002002000000000DC000108E7
:100B080008B5054B1BB105490548AFF30080BDE8A2
:100B18000840FFF7CFBF00BF00000000A40200207C
:100B2800DC00010880B485B000AF78607B681B6882
:100B380003F06003FB60FB68002B04D17B681B6833
:100B480003F01003FB60FB6818461437BD465DF8D8
:100B5800047B704780B483B000AF78607B681B6B00
:100B680018460C37BD465DF8047B704780B483B0E7
:100B780000AF786039607B681A6A3B681A437B6803
:100B88001A6200BF0C37BD465DF8047B704780B41D
:100B980083B000AF786039607B681A6A3B68DB43D2
:100BA8001A407B681A6200BF0C37BD465DF8047BAB
:100BB800704780B483B000AF78607B685B6C43F4A7
:100BC80000427B685A6400BF0C37BD465DF8047B61
:100BD800704780B483B000AF78607B68DB6843F00F
:100BE80001027B68DA6000BF0C37BD465DF8047B04
:100BF800704780B483B000AF78607B68DB6823F00F
:100C080001027B68DA6000BF0C37BD465DF8047BE3
:100C1800704780B483B000AF78607B68DB6803F00E
:100C28000103012B01D1012300E0002318460C37F2
:100C3800BD465DF8047B704780B483B000AF786030
:100C48007B68DB6843F002027B68DA6000BF0C3720
:100C5800BD465DF8047B704780B483B000AF786010
:100C68007B68DB6823F002027B68DA6000BF0C3720
:100C7800BD465DF8047B704780B483B000AF7860F0
:100C88007B68DB6803F00203022B01D1012300E03B
:100C9800002318460C37BD465DF8047B704780B4C6
:100CA80083B000AF78607B68DB6843F004027B6840
:100CB800DA6000BF0C37BD465DF8047B704780B42E
:100CC80083B000AF78607B68DB6823F004027B6840
:100CD800DA6000BF0C37BD465DF8047B704780B40E
:100CE80083B000AF78607B68DB6803F00403042BF3
:100CF80001D1012300E0002318460C37BD465DF8FA
:100D0800047B704780B483B000AF78607B68DB6891
:100D180043F008027B68DA6000BF0C37BD465DF817
:100D2800047B704780B483B000AF78607B68DB6871
:100D380023F008027B68DA6000BF0C37BD465DF817
:100D4800047B704780B483B000AF78607B68DB6851
:100D580003F00803082B01D1012300E00023184603
:100D68000C37BD465DF8047B704780B483B000AF94
:100D780078607B68DB6843F010027B68DA6000BF4C
:100D88000C37BD465DF8047B704780B483B000AF74
:100D980078607B68DB6823F010027B68DA6000BF4C
:100DA8000C37BD465DF8047B704780B483B000AF54
:100DB80078607B68DB6803F01003102B01D10123F6
:100DC80000E0002318460C37BD465DF8047B7047E9
:100DD80080B483B000AF78607B68DB6843F02002A2
:100DE8007B68DA6000BF0C37BD465DF8047B70474E
:100DF80080B483B000AF78607B68DB6823F02002A2
:100E08007B68DA6000BF0C37BD465DF8047B70472D
:100E180080B483B000AF78607B68DB6803F02003A0
:100E2800202B01D1012300E0002318460C37BD46D2
:100E38005DF8047B704780B483B000AF78607B684E
:100E4800DB6843F040027B68DA6000BF0C37BD46C0
:100E58005DF8047B704780B483B000AF78607B682E
:100E6800DB6823F040027B68DA6000BF0C37BD46C0
:100E78005DF8047B704780B483B000AF78607B680E
:100E8800DB6803F04003402B01D1012300E000237D
:100E980018460C37BD465DF8047B704780B483B0B4
:100EA80000AF78607B68DB6843F080027B68DA60BB
:100EB80000BF0C37BD465DF8047B704780B483B033
:100EC80000AF78607B68DB6823F080027B68DA60BB
:100ED80000BF0C37BD465DF8047B704780B483B013
:100EE80000AF78607B68DB6803F08003802B01D15A
:100EF800012300E0002318460C37BD465DF8047B4B
:100F0800704780B582B000AF78600B467B807B88E5
:100F180003F00103002B0CD07B681B681846FFF711
:100F2800AAFF0346012B04D07B681B681846FFF70D
:100F380082FF7B8803F00203002B0CD07B681B68C0
:100F48001846FFF799FE0346012B04D07B681B68FF
:100F58001846FFF771FE7B8803F00403002B0CD0C2
:100F68007B681B681846FFF7BAFE0346012B04D0BE
:100F78007B681B681846FFF792FE7B8803F008031E
:100F8800002B0CD07B681B681846FFF7DBFE034676
:100F9800012B04D07B681B681846FFF7B3FE7B88DB
:100FA80003F01003002B0CD07B681B681846FFF772
:100FB800FCFE0346012B04D07B681B681846FFF72C
:100FC800D4FE7B8803F02003002B0CD07B681B68C1
:100FD8001846FFF71EFE0346012B04D07B681B68EA
:100FE8001846FFF7F6FD7B8803F04003002B0CD072
:100FF8007B681B681846FFF771FF0346012B04D076
:101008007B681B681846FFF749FF7B8803F080035D
:10101800002B0CD07B681B681846FFF7F9FE0346C7
:10102800012B04D07B681B681846FFF7D1FE00BF70
:101038000837BD4680BD80B582B000AF78600B46EA
:101048007B807B8803F00103002B0CD07B681B6836
:101058001846FFF710FF0346012B04D17B681B6875
:101068001846FFF7F8FE7B8803F00203002B0CD02C
:101078007B681B681846FFF7FFFD0346012B04D168
:101088007B681B681846FFF7E7FD7B8803F00403BD
:10109800002B0CD07B681B681846FFF720FE034620
:1010A800012B04D17B681B681846FFF708FE7B8874
:1010B80003F00803002B0CD07B681B681846FFF769
:1010C80041FE0346012B04D17B681B681846FFF7D5
:1010D80029FE7B8803F01003002B0CD07B681B686B
:1010E8001846FFF762FE0346012B04D17B681B6894
:1010F8001846FFF74AFE7B8803F02003002B0CD02C
:101108007B681B681846FFF784FD0346012B04D053
:101118007B681B681846FFF76CFD7B8803F040036B
:10112800002B0CD07B681B681846FFF7D7FE0346D8
:10113800012B04D17B681B681846FFF7BFFE7B882C
:1011480003F08003002B0CD07B681B681846FFF760
:101158005FFE0346012B04D17B681B681846FFF726
:1011680047FE00BF0837BD4680BD000080B582B08D
:1011780000AF78600B46FB70FB78022B06D17B68CA
:101188001B6801211846FFF7F1FC31E07B681B68FA
:10119800194A934213D07B681B68184A93420ED0B1
:1011A8007B681B68164A934209D07B681B68154AFE
:1011B800934204D07B681B68134A934218D1FB788A
:1011C800032B06D17B681B6804211846FFF7CEFC69
:1011D8000EE0FB78042B0BD17B681B6801211846B5
:1011E800FFF7C4FC7B681B6804211846FFF7BEFCA8
:1011F80000BF0837BD4680BD002C014000340140C7
:1012080000400140004401400048014080B582B0E0
:1012180000AF78600B46FB70FB78022B06D17B6829
:101228001B6801211846FFF7B2FC31E07B681B6898
:10123800194A934213D07B681B68184A93420ED010
:101248007B681B68164A934209D07B681B68154A5D
:10125800934204D07B681B68134A934218D1FB78E9
:10126800032B06D17B681B6804211846FFF78FFC07
:101278000EE0FB78042B0BD17B681B680121184614
:10128800FFF785FC7B681B6804211846FFF77FFC85
:1012980000BF0837BD4680BD002C01400034014026
:1012A80000400140004401400048014080B582B040
:1012B80000AF78600B46FB70FB78022B06D17B6889
:1012C8001B6810211846FFF751FC31E07B681B684A
:1012D800194A934213D07B681B68184A93420ED070
:1012E8007B681B68164A934209D07B681B68154ABD
:1012F800934204D07B681B68134A934218D1FB7849
:10130800032B06D17B681B6840211846FFF72EFC8B
:101318000EE0FB78042B0BD17B681B681021184664
:10132800FFF724FC7B681B6840211846FFF71EFC6A
:1013380000BF0837BD4680BD002C01400034014085
:1013480000400140004401400048014080B582B09F
:1013580000AF78600B46FB70FB78022B06D17B68E8
:101368001B6810211846FFF712FC31E07B681B68E8
:10137800194A934213D07B681B68184A93420ED0CF
:101388007B681B68164A934209D07B681B68154A1C
:10139800934204D07B681B68134A934218D1FB78A8
:1013A800032B06D17B681B6840211846FFF7EFFB2B
:1013B8000EE0FB78042B0BD17B681B6810211846C4
:1013C800FFF7E5FB7B681B6840211846FFF7DFFB4A
:1013D80000BF0837BD4680BD002C014000340140E5
:1013E80000400140004401400048014080B582B0FF
:1013F80000AF78600B46FB70FB78022B07D17B6847
:101408001B684FF480711846FFF7B0FB34E07B6827
:101418001B681B4A934213D07B681B68194A934286
:101428000ED07B681B68184A934209D07B681B68FA
:10143800164A934204D07B681B68154A93421BD115
:10144800FB78032B07D17B681B684FF48061184633
:10145800FFF78CFB10E0FB78042B0DD17B681B6831
:101468004FF480711846FFF781FB7B681B684FF4C7
:1014780080611846FFF77AFB00BF0837BD4680BD7C
:10148800002C01400034014000400140004401406C
:101498000048014080B582B000AF78600B46FB7011
:1014A800FB78022B07D17B681B684FF480711846C4
:1014B800FFF76DFB34E07B681B681B4A934213D02F
:1014C8007B681B68194A93420ED07B681B68184AD0
:1014D800934209D07B681B68164A934204D07B6804
:1014E8001B68154A93421BD1FB78032B07D17B68F5
:1014F8001B684FF480611846FFF749FB10E0FB7842
:10150800042B0DD17B681B684FF480711846FFF7D8
:101518003EFB7B681B684FF480611846FFF737FB7A
:1015280000BF0837BD4680BD002C01400034014093
:1015380000400140004401400048014080B582B0AD
:1015480000AF78600B46FB70FB78022B06D17B68F6
:101558001B684FF480511846FFF708FB00BF083797
:10156800BD4680BD80B582B000AF78600B46FB7089
:10157800FB78022B06D17B681B684FF48051184614
:10158800FFF705FB00BF0837BD4680BD80B584B0B6
:1015980000AF78600023FB607B681B68304A934289
:1015A80001D1304BFB607B681A68FB681A60FB68E6
:1015B8001B681846FFF7B6FAB860BB68002B06D060
:1015C800BB68102B03D0FB6801221A7102E0FB688C
:1015D80000221A71FB681B68234A934213D0FB68E8
:1015E8001B68224A93420ED0FB681B68204A93422C
:1015F80009D0FB681B681F4A934204D0FB681B682C
:101608001D4A934204D1FB681B681846FFF7D1FABC
:10161800FB681B68144A934213D0FB681B68134A83
:1016280093420ED0FB681B68114A934209D0FB68AD
:101638001B68104A934204D0FB681B680E4A934209
:1016480008D17B681B681846FFF784FA0346DAB2AC
:10165800FB685A71FB6818461037BD4680BD00BF4D
:1016680000040040BC020020002C0140003401406E
:1016780000400140004401400048014080B485B06A
:1016880000AF786039603B68FB603B68B3F5803F2A
:101698000CD37B681B68B3F1804F07D07B681B684D
:1016A800064A934202D04FF6FF73FB60FB68184668
:1016B8001437BD465DF8047B704700BF000C00403E
:1016C80080B485B000AF786039603B68002B03D1E7
:1016D8007B684033FB6001E0044BFB60FB68184605
:1016E8001437BD465DF8047B704700BF0C030450F7
:1016F80080B483B000AF78607B68DB6803F4406334
:10170800002B01D1012300E0002318460C37BD4609
:101718005DF8047B704780B483B000AF78603960AF
:101728007B681B6B23F00F023B681A437B681A63C4
:1017380000BF0C37BD465DF8047B704780B483B0AA
:1017480000AF786039607B68DB6823F003023B6890
:101758001A437B68DA6000BF0C37BD465DF8047B2E
:10176800704780B483B000AF78607B68DB6C03F0AF
:10177800C003002B01D1012300E0002318460C37D9
:10178800BD465DF8047B704780B483B000AF7860D5
:101798007B689B6823F0004323F03F0343F001027A
:1017A8007B689A6000BF0C37BD465DF8047B7047C4
:1017B80080B483B000AF78607B689B6823F00043F7
:1017C80023F03F0343F002027B689A6000BF0C37A6
:1017D800BD465DF8047B704780B483B000AF786085
:1017E8007B689B6803F00103012B01D1012300E012
:1017F800002318460C37BD465DF8047B704780B45B
:1018080083B000AF786039607B689B6823F0404301
:1018180023F03F033A6802F08042134343F000424A
:101828007B689A6000BF0C37BD465DF8047B704743
:1018380080B483B000AF78607B689B6803F0004396
:10184800B3F1004F01D1012300E0002318460C3703
:10185800BD465DF8047B704780B483B000AF786004
:101868007B689B6823F0004323F03F0343F00402A6
:101878007B689A6000BF0C37BD465DF8047B7047F3
:1018880080B483B000AF78607B689B6823F0004326
:1018980023F03F0343F008027B689A6000BF0C37CF
:1018A800BD465DF8047B704780B483B000AF7860B4
:1018B8007B681B6803F00803082B01D1012300E0B3
:1018C800002318460C37BD465DF8047B704780B48A
:1018D80083B000AF78607B681B6803F01003102B9F
:1018E80001D1012300E0002318460C37BD465DF8FE
:1018F800047B704780B483B000AF78607B681022A7
:101908001A6000BF0C37BD465DF8047B704780B491
:1019180083B000AF78607B685B6843F008027B683F
:101928005A6000BF0C37BD465DF8047B704780B431
:1019380083B000AF78607B685B6843F040027B68E7
:101948005A6000BF0C37BD465DF8047B704780B411
:1019580083B000AF78607B685B6823F008027B681F
:101968005A6000BF0C37BD465DF8047B704780B4F1
:1019780083B000AF78607B685B6823F010027B68F7
:101988005A6000BF0C37BD465DF8047B704780B4D1
:1019980083B000AF78607B685B6823F040027B68A7
:1019A8005A6000BF0C37BD465DF8047B704780B4B1
:1019B80083B000AF78607B685B6823F080027B6847
:1019C8005A6000BF0C37BD465DF8047B704780B491
:1019D80083B000AF78607B685B6803F01003102B5E
:1019E80001D1012300E0002318460C37BD465DF8FD
:1019F800047B704780B483B000AF78607B685B6815
:101A080003F08003802B01D1012300E00023184656
:101A18000C37BD465DF8047B7047000080B485B084
:101A280000AF786039607B68FB600C4A3B68134400
:101A38001B781A46FB6813441B6808493A680A442D
:101A480012781146FA680A4443F00103136000BF94
:101A58001437BD465DF8047B704700BF4C01010890
:101A680080B485B000AF786039607B68FB600C4A51
:101A78003B6813441B781A46FB6813441B680849E3
:101A88003A680A4412781146FA680A4423F00103B6
:101A9800136000BF1437BD465DF8047B704700BF74
:101AA8004C01010880B485B000AF786039607B686C
:101AB800FB60084A3B6813441B781A46FB681344CA
:101AC8001B6803F0200318461437BD465DF8047BF5
:101AD800704700BF4C01010880B487B000AFF860C0
:101AE800B9607A60FB687B610D4ABB6813441B7858
:101AF8001A467B6913445B681B0C1B040849BA68C7
:101B08000A44127811467A690A4411467A681343DE
:101B18004B6000BF1C37BD465DF8047B704700BFB3
:101B28004C01010880B487B000AFF860B9607A60F2
:101B38003B60FB687B613B6A102B14D1174ABB687A
:101B480013441B781A467B6913441A467B68D36092
:101B5800124ABB6813441B781A467B6913441A4619
:101B68003B68936013E00D4ABB6813441B781A4620
:101B78007B6913441A467B689360084ABB68134420
:101B88001B781A467B6913441A463B68D36000BF2A
:101B98001C37BD465DF8047B704700BF4C01010847
:101BA80080B487B000AFF860B9607A60FB687B6189
:101BB800074ABB6813441B781A467B6913441A46C4
:101BC8007B68936000BF1C37BD465DF8047B704797
:101BD8004C01010880B483B000AF78607B681B6853
:101BE80003F02003202B01D1012300E00023184635
:101BF8000C37BD465DF8047B704780B483B000AFF6
:101C080078607B6820225A6000BF0C37BD465DF8BB
:101C1800047B704780B485B000AF786039607B681A
:101C2800FB600C4A3B6813441B781A46FB68134454
:101C38001B6808493A680A4412781146FA680A4447
:101C480043F00203136000BF1437BD465DF8047B00
:101C5800704700BF4C01010880B485B000AF7860C0
:101C680039607B68FB600C4A3B6813441B781A4652
:101C7800FB6813441B6808493A680A4412781146FD
:101C8800FA680A4443F00803136000BF1437BD46DE
:101C98005DF8047B704700BF4C01010880B485B033
:101CA80000AF786039607B68FB600C4A3B6813447E
:101CB8001B781A46FB6813441B6808493A680A44AB
:101CC80012781146FA680A4423F00203136000BF31
:101CD8001437BD465DF8047B704700BF4C0101080E
:101CE80080B485B000AF786039607B68FB600C4ACF
:101CF8003B6813441B781A46FB6813441B68084961
:101D08003A680A4412781146FA680A4423F0040330
:101D1800136000BF1437BD465DF8047B704700BFF1
:101D28004C01010880B485B000AF786039607B68E9
:101D3800FB600C4A3B6813441B781A46FB68134443
:101D48001B6808493A680A4412781146FA680A4436
:101D580023F00803136000BF1437BD465DF8047B09
:101D6800704700BF4C01010880B485B000AF7860AF
:101D780039607B68FB600A4A3B6813441B781A4643
:101D8800FB6813441B6803F00203022B01D10123F3
:101D980000E0002318461437BD465DF8047B704701
:101DA8004C01010880B584B000AF78600123FB8145
:101DB8007B681B691846FFF79BFC0346002B2FD056
:101DC8007B685B7ADBB2022B11D07B685B7ADBB273
:101DD800042B0CD07B685B7ADBB2082B07D07B68BE
:101DE8001B691846FFF760FD0346012B18D1786878
:101DF80000F0F8F80346002B12D17B685B7ADBB25F
:101E0800082B03D17B6801225A7202E07B682022EA
:101E18005A727B681B691846FFF71EFD0023FB8179
:101E2800FB8918461037BD4680BD80B586B002AF25
:101E3800F860B9607A603B600021F868FFF740FC01
:101E480003461A467968B868FFF7AAFE0021F868C1
:101E5800FFF736FC02463B68002100917968B868B4
:101E6800FFF760FEBA697968B868FFF735FE7968E8
:101E7800B868FFF7CFFE7968B868FFF7EDFE7968B4
:101E8800B868FFF7CBFD00BF1037BD4680BD80B5F1
:101E980084B000AFF860B9607A607968B868FFF715
:101EA800DFFD7968B868FFF71BFF7968B868FFF746
:101EB80039FF7968B868FFF7F1FE00227968B868D9
:101EC800FFF70AFE00BF1037BD4680BD80B584B05D
:101ED80000AF786039600223FB737B68DB79012BE4
:101EE8000FD17B68DA687B681B685B00D118FB7BC5
:101EF8007A68126802FB03F31A4638680EF0DCF8B9
:101F08000AE07B68D968FB7B7A68126802FB03F3F6
:101F18001A4638680EF0D0F800BF1037BD4680BDAD
:101F280080B586B000AFF860B9607A60FB685A691E
:101F3800FB689B7919461046FFF716FF0346DBB28C
:101F4800012B37D1FB685A69BB681046984703468E
:101F5800012B2FD1FB6804225A72FB685A697B68EF
:101F680010469847FB685A69FB689B7919461046E2
:101F7800FFF798FD0346002B19D1FB685A69FB68E7
:101F88009B7919461046FFF76BFDFB685869FB689B
:101F98009B791946FB681B681A46FFF79DFDFB688D
:101FA8005A69FB689B7919461046FFF737FD0123EC
:101FB800FB7501E00023FB75FB7D18461837BD460D
:101FC80080BD000080B500AF034A04490448FFF70C
:101FD800A7FF00BF80BD00BF031C0008DD1B000871
:101FE8004803002080B582B000AF78607B681B6929
:101FF8001846FFF76CFC0346DBB2012B07D17B6860
:102008001B691846FFF776FC7B6810225A727B68BA
:102018005B7ADBB2102B0CBF01230023DBB218461E
:102028000837BD4680BD80B582B000AF78600B46EA
:10203800FB70FB78012B0DD17B681B691846FFF7F5
:1020480057FB0346012B12D07B681B691846FFF724
:1020580003FC0CE07B681B691846FFF782FB03460C
:10206800012B04D07B681B691846FFF709FC00BFE9
:102078000837BD4680BD000090B589B002AFF86052
:10208800084611461A4603467B810B463B81134698
:10209800FB8000237B61FB681B693C4A934201D1AA
:1020A8003B4B7B617B69002B6BD0FB681A697B69B2
:1020B8001A617B690022DA71FB88012B61D03B89A8
:1020C800002B47D07B695B7ADBB2082B42D0FB68D8
:1020D800DA687B69DA60FB681A687B691A60FB68F2
:1020E8005A697B695A61FB689A797B699A71FB68BE
:1020F8001A797B691A717B691B69B96A1846FFF7F7
:102108000AFB7B89012B21D07B89042B16D17B69A3
:102118001B6903211846FFF711FB7B6918697B6966
:1021280059697B699B791C467B69DA687B691B68FE
:10213800009313462246FFF778FE07E07B89022BBF
:1021480004D17B691B691846FFF7E1FB7B6908220C
:102158005A7216E03B89002B13D17B699B7ADBB25C
:10216800082B0ED0FB685A797B695A717B89022B40
:1021780004D17B691B691846FFF7D9FB7B690822E4
:102188009A727B6918461C37BD4690BD0001045001
:102198004803002080B582B000AF78607B681B6977
:1021A8001846FFF719FB0346002B04D17B681B690F
:1021B8001846FFF7E9FA00BF0837BD4680BD80B56D
:1021C80086B000AFF8600B467A607B810123FB8202
:1021D800FB681B69002B46D07B89012B05D1F86869
:1021E800FFF7E0FD0346FB823DE07B89042B1FD10E
:1021F800FB681B691846FFF77BFA0346002B32D0B1
:10220800FB6801225A72FB681B691846FFF724FB1A
:1022180000BFFB685B7ADBB2042BFAD17968F868F7
:10222800FFF754FEFB6808225A720023FB821AE06B
:102238007B89022B17D1FB685B7ADBB2202B09D094
:10224800FB685B7ADBB2042B04D0FB685B7ADBB2F9
:10225800102B08D1FB6808225A727968F868FFF7D2
:1022680035FE0023FB82FB8A18461837BD4680BD21
:1022780080B582B000AF78600B467B8013463B8008
:102288007B681B691846FFF7A7FA0346002B04D0A2
:102298007B681B691846FFF78BFA7B681B69184631
:1022A800FFF7A8FB0346002B04D07B681B69184680
:1022B800FFF77DFB7B681B691846FFF788FB034621
:1022C800002B04D07B681B691846FFF750FB3B883E
:1022D800002B35D07B88012B1AD07B88022B05D1A7
:1022E8007B681B691846FFF732FB11E07B88042BDB
:1022F8000ED17B6818697B6859697B689B791A4697
:10230800FFF7C5FD7B681B6900211846FFF716FA21
:102318007B680022DA607B6800221A607B680022F2
:102328005A617B6800229A717B6800221A717B6867
:102338001A697B681B7919461046FFF7ECF90AE021
:102348007B6800225A717B88022B04D17B681B6949
:102358001846FFF71CFB00BF0837BD4680BD0000CC
:1023680080B584B000AF78600B46FB707B681B6952
:102378001846FFF731FA0346FB7397F90F30012B24
:1023880004D17B681B691846FFF712FAFB78002B0B
:102398000FD17B681B697F211846FFF730FA00BF11
:1023A8007B681B691846FFF743FA0346012BF7D0F1
:1023B80040E0FB78012B0FD17B681B692C4918463C
:1023C800FFF71DFA00BF7B681B691846FFF730FA54
:1023D8000346012BF7D02DE07B681B697F21184647
:1023E800FFF70DFA00BF7B681B691846FFF720FA54
:1023F8000346012BF7D00023BB8107E000BFBB8950
:102408001BB29BB201339BB21BB2BB81BB891BB20F
:102418009BB2032BF2D97B681B6915491846FFF755
:10242800EEF900BF7B681B691846FFF701FA0346FF
:10243800012BF7D00023BB8107E000BFBB891BB28B
:102448009BB201339BB21BB2BB81BB891BB29BB24F
:10245800032BF2D997F90F30012B04D17B681B6944
:102468001846FFF791F900BF1037BD4680BD00BF81
:1024780000007F4080B483B000AF78607B681B6841
:1024880043F001027B681A6000BF0C37BD465DF857
:10249800047B704780B483B000AF78607B681B68AA
:1024A80023F001027B681A6000BF0C37BD465DF857
:1024B800047B704780B483B000AF786039607B6874
:1024C8001B6823F004023B681A437B681A6000BF4C
:1024D8000C37BD465DF8047B704780B483B000AF0D
:1024E80078607B681B6803F0040318460C37BD4608
:1024F8005DF8047B704780B483B000AF78603960C2
:102508007B683A681A6300BF0C37BD465DF8047BE8
:10251800704780B483B000AF786039607B683A68F0
:102528005A6300BF0C37BD465DF8047B704780B422
:1025380083B000AF786039607B683A689A6300BFFF
:102548000C37BD465DF8047B704780B483B000AF9C
:10255800786039607B683A68DA6300BF0C37BD463B
:102568005DF8047B704780B483B000AF7860396051
:102578007B683A681A6400BF0C37BD465DF8047B77
:10258800704780B483B000AF78607B685B6B184697
:102598000C37BD465DF8047B704780B483B000AF4C
:1025A80078607B689B6B18460C37BD465DF8047BEA
:1025B800704780B483B000AF78607B68DB6B1846E7
:1025C8000C37BD465DF8047B704780B483B000AF1C
:1025D80078607B681B6C18460C37BD465DF8047B39
:1025E800704780B483B000AF78607B685B6943F064
:1025F80001027B685A6100BF0C37BD465DF8047B59
:10260800704780B483B000AF78607B681B69184658
:102618000C37BD465DF8047B704780B483B000AFCB
:10262800786039607B683A689A6100BF0C37BD46AC
:102638005DF8047B704780B483B000AF7860396080
:102648007B683A689A6200BF0C37BD465DF8047B28
:10265800704780B582B000AF786039607B681B68CE
:102668001846FFF78EFF02463B68934205D07B6809
:102678001B6839681846FFF74CFF00BF0837BD468E
:1026880080BD80B582B000AF786039607B681B6818
:102698001846FFF782FF02463B68934205D07B68E5
:1026A8001B6839681846FFF742FF00BF0837BD4668
:1026B80080BD80B582B000AF786039607B681B68E8
:1026C8001846FFF776FF02463B68934205D07B68C1
:1026D8001B6839681846FFF738FF00BF0837BD4642
:1026E80080BD80B582B000AF786039607B681B68B8
:1026F8001846FFF76AFF02463B68934205D07B689D
:102708001B6839681846FFF72EFF00BF0837BD461B
:1027180080BD000080B485B000AF78607B681B681E
:102728009A68074B1340FB60FB68062B0CBF01231C
:102738000023DBB218461437BD465DF8047B7047AA
:102748000700010080B584B000AF78600B46FB70CD
:102758007B681B681846FFF7C0FEF860FB78002B03
:102768001ED07B681B68324A934213D07B681B6873
:10277800304A93420ED07B681B682F4A934209D097
:102788007B681B682D4A934204D07B681B682C4ADF
:10279800934205D17B681B6800211846FFF7ABFE02
:1027A800FB68042B11D07B681B6804211846FFF7CF
:1027B80081FE7B681B681846FFF713FF7B681B6860
:1027C800F9681846FFF776FE04E07B681B68184630
:1027D800FFF707FF7B681B681846FFF74BFEFB787F
:1027E800002B20D07B681B68114A934213D07B686A
:1027F8001B68104A93420ED07B681B680E4A9342AE
:1028080009D07B681B680D4A934204D07B681B681B
:102818000B4A934207D17B681A687B685B79194633
:102828001046FFF768FE00BF1037BD4680BD00BFE9
:10283800002C0140003401400040014000440140A8
:102848000048014080B582B000AF78607B681B68A3
:102858001846FFF71FFE00BF0837BD4680BD0000C1
:1028680080B483B000AF7860074B5B79002B0CBF56
:1028780001230023DAB27B6801331A7000BF0C37DA
:10288800BD465DF8047B7047281F002080B400AF68
:10289800084B5A790132D2B25A71064B5B79032B35
:1028A80002D9044B00225A7100BFBD465DF8047B73
:1028B800704700BF281F002080B485B000AF786043
:1028C80039607B68012283F8D8203B68D3E900236C
:1028D8007968C1E902237B6801221A600023FB6042
:1028E8000CE07B68D3E902237868F9680231C900F3
:1028F8000144C1E90023FB680133FB60FB68182B26
:10290800EFDD00BF00BF1437BD465DF8047B70479C
:1029180080B586B000AF87ED040BF860B9607A60C7
:10292800BB68D3E902017B68D3E90023FEF74CF8C2
:102938000346002B05D17B68D3E90023B968C1E9B8
:102948000223F868BB681033C82219460DF0B4FB9F
:10295800F968D7E90423C1E93223FB6803F1D00001
:10296800BB681033C02219460DF0A6FBBB6803F103
:102978001000FB68C833C82219460DF09DFB00BF44
:102988001837BD4680BD80B485B000AF7860396027
:102998007B68012283F860203B68D3E900237968CB
:1029A800C1E902237B6801221A600023FB600CE066
:1029B8007B68D3E902237868F9680231C9000144C9
:1029C800C1E90023FB680133FB60FB68092BEFDDDD
:1029D80000BF00BF1437BD465DF8047B704780B563
:1029E80086B000AF87ED040BF860B9607A60BB6809
:1029F800D3E902017B68D3E90023FDF7E5FF03462D
:102A0800002B05D17B68D3E90023B968C1E902230B
:102A1800F868BB681033502219460DF04DFBF96871
:102A2800D7E90423C1E91423FB6803F15800BB6804
:102A38001033482219460DF03FFBBB6803F1100024
:102A4800FB685033502219460DF036FB00BF18378B
:102A5800BD4680BD80B584B000AF87ED000B3868F7
:102A68007B6823F000414FF000022C4BFDF7B6FFC6
:102A78000346002B42D04FF00002294BD7E9000152
:102A8800FDF7C0FF0346002B13D04FF00002244B84
:102A9800D7E90001FDF77AFB02460B4643EC172BFA
:102AA800B0EE470AF0EE670A0DF00AF987ED020B5F
:102AB80028E04FF000021B4BD7E90001FDF7ACFFFF
:102AC8000346002B06D04FF000024FF00003C7E981
:102AD800022317E04FF00002114BD7E90001FDF780
:102AE80053FB02460B4643EC172BB0EE470AF0EEB9
:102AF800670A0DF05DF887ED020B03E0D7E90023C4
:102B0800C7E90223D7E9022343EC172BB0EE470AA3
:102B1800F0EE670A1037BD4680BD00BF00003043A5
:102B28000000E03F0000E0BF80B58CB002AF7860E5
:102B38007B6800221A727B6801225A607B68103316
:102B4800BB6100237B741A4BFB611A4B3B62012368
:102B5800BB74002387F82430022387F82530092323
:102B6800FB6009233B7407F10C000823009304233E
:102B780001220421FFF780FA02467B68DA607B684D
:102B8800DB6802211846FFF7EBFB7B68DB68184619
:102B9800FFF700FB7B68DB6801211846FFF743FA63
:102BA8007B6801221A7200BF2837BD4680BD00BF6E
:102BB800000104500000024080B5A6B000AF786064
:102BC8001A4BBB6000233B7300237B7307F1080398
:102BD8001846FEF7DBFC02467B68DA607B68DB6838
:102BE80000211846FEF78DF97B68DB68022118463C
:102BF800FEF7BCFA7B68DB6802211846FEF756FB35
:102C08007B68DB681846FFF785FD034687F8973031
:102C180097F89730002B05D17B68DB6800211846B0
:102C2800FFF790FD00BF9837BD4680BD0004004007
:102C380080B5A6B000AF78601A4BBB6000233B7329
:102C480000237B7307F108031846FEF79FFC024632
:102C58007B68DA607B68DB6800211846FEF751F96B
:102C68007B68DB6802211846FEF7C0FB7B68DB68DF
:102C780002211846FEF762FC7B68DB681846FFF7FE
:102C880049FD034687F8973097F89730002B05D110
:102C98007B68DB6800211846FFF754FD00BF9837B2
:102CA800BD4680BD0004004080B582B000AFFFF78C
:102CB800EDFD00237B600CE04F4A7B681344002243
:102CC8001A704E4A7B68002122F813107B68013382
:102CD8007B607B68072BEFDD494B00221A60494B6C
:102CE80000221A60484B3B60484BD3E904014FF07F
:102CF80000024FF00003FDF767FE0346002B02D1E8
:102D080080237B6001E000237B607B68194638687C
:102D1800FFF783FC7B68DB4303F0800319463868C0
:102D2800FFF789FC3A4B3B60384BD3E906014FF07B
:102D380000024FF00003FDF747FE0346002B02D1C7
:102D480008237B6001E000237B607B6819463868B4
:102D5800FFF763FC7B68DB4303F008031946386818
:102D6800FFF769FC2B4B3B60284BD3E900014FF080
:102D780000024FF00003FDF727FE0346002B03D1A6
:102D88004FF480737B6001E000237B607B68194609
:102D98003868FFF742FC7B68DB4303F4807319460D
:102DA8003868FFF748FC1B4B3B60184BD3E902011E
:102DB8004FF000024FF00003FDF706FE0346002B1C
:102DC80003D14FF400437B6001E000237B607B6804
:102DD80019463868FFF721FC7B68DB4303F400439E
:102DE80019463868FFF727FC01F032FF02F046F871
:102DF80000BF0837BD4680BDD003002084030020F3
:102E08007C03002080030020000C00480000002004
:102E18000004004800100048B0B5B0B000AFA64BA1
:102E2800DB68A64A04211846FFF7C9F9A34BDB89DA
:102E3800A34A1380A14B1B88A14AD3819F4B9B892E
:102E48009F4A53809D4B5B889D4A93819B4B5B892E
:102E58009B4A9380994B9B88994A5381974B1B892E
:102E6800974AD380954BDB88954A13810023C7F88E
:102E7800943011E0924AD7F8943032F81300904910
:102E8800D7F8943003F10802034621F81230D7F836
:102E980094300133C7F89430D7F89430072BE9DD24
:102EA800874B1B8A1846FDF7ADFA04460D46854A3E
:102EB8008549864845EC104BFFF72AFD804B03F502
:102EC800D66353E902237E49C1E912230023C7F8D8
:102ED80094301EE0D7F894300133794AD533DB00BB
:102EE8001344D3E90023C7E92223754BD3E91223FE
:102EF800D7E92201FDF790FD0346002B04D0704965
:102F0800D7E92223C1E91223D7F894300133C7F84F
:102F18009430D7F89430172BDCDD694B5B8A184660
:102F2800FDF770FA04460D46694A6A496A4845EC55
:102F3800104BFFF754FD624B03F54F6353E902232F
:102F48005F49C1E914230023C7F894301FE0D7F87C
:102F5800943001335A4A03F29D13DB001344D3E93A
:102F68000023C7E92223564BD3E91423D7E92201CA
:102F7800FDF752FD0346002B04D05149D7E922231F
:102F8800C1E91423D7F894300133C7F89430D7F83F
:102F98009430082BDBDD4A4B93ED147B4F4A5049A4
:102FA8005048B0EE470AF0EE670AFFF7B1FC444B11
:102FB80003F57C6353E90223C7E926230023C7F8F6
:102FC80094301DE0D7F8943001333D4A03F2F713EB
:102FD800DB001344D3E90023C7E92223D7E92223DE
:102FE800D7E92601FDF718FD0346002B03D0D7E9E2
:102FF8002223C7E92623D7F894300133C7F8943041
:10300800D7F89430172BDDDD2D4B9B8A1846FDF73A
:10301800F9F904460D46344A3449354845EC104B15
:10302800FFF776FC264B03F5046353E90223244992
:10303800C1E914230023C7F894301FE0D7F894306F
:1030480001331F4A03F20713DB001344D3E90023BB
:10305800C7E922231A4BD3E91423D7E92201FDF744
:10306800DBFC0346002B04D01549D7E92223C1E92C
:103078001423D7F894300133C7F89430D7F8943034
:10308800172BDBDD0E4BDB8A1846FDF7BBF9044630
:103098000D46184A1849194845EC104BFFF738FCFB
:1030A800074B03F5A46353E902230549C1E9162335
:1030B8000023C7F8943042E0201500209403002034
:1030C800D80300208000002018190020800A002062
:1030D800A0000020981C0020C0100020B80000208C
:1030E800481E00209013002088000020F8190020B6
:1030F800100C00207800002038180020F00800206C
:10310800D7F8943001338B4AA333DB001344D3E957
:103118000023C7E92223874BD3E91623D7E92201E5
:10312800FDF77AFC0346002B04D08249D7E9222315
:10313800C1E91623D7F894300133C7F89430D7F88B
:103148009430172BDCDD7B4B1B8B1846FDF75AF9A7
:1031580004460D46784A7949794845EC104BFFF703
:10316800D7FB744BD3E9E223C7E92E230023C7F822
:1031780094301CE0D7F8943001336E4A7133DB0089
:103188001344D3E90023C7E92223D7E92223D7E947
:103198002E01FDF723FC0346002B03D0D7E9222399
:1031A800C7E92E23D7F894300133C7F89430D7F8FD
:1031B8009430172BDEDD5F4B5B8B1846FDF722F949
:1031C80004460D465F4A6049604845EC104BFFF7DE
:1031D8009FFB584BD3E97E23C7E92C230023C7F86C
:1031E80094301CE0D7F894300133524A3F33DB0067
:1031F8001344D3E90023C7E92223D7E92223D7E9D7
:103208002C01FDF7EBFB0346002B03D0D7E9222363
:10321800C7E92C23D7F894300133C7F89430D7F88E
:103228009430172BDEDD434B9B8B1846FDF7EAF8ED
:1032380004460D46464A4749474845EC104BFFF7B8
:10324800CEFB3C4B03F5596353E90223C7E92A2314
:103258000023C7F894301DE0D7F894300133354A7D
:1032680003F2B113DB001344D3E90023C7E9222397
:10327800D7E92223D7E92A01FDF7B0FB0346002B43
:1032880003D0D7E92223C7E92A23D7F8943001339A
:10329800C7F89430D7F89430082BDDDD2F4A304931
:1032A800304897ED2A0BFFF733FB224B03F5636396
:1032B80053E90223C7E928230023C7F894301DE007
:1032C800D7F8943001331B4A03F2C513DB001344CB
:1032D800D3E90023C7E92223D7E92223D7E9280124
:1032E800FDF79AFB0346002B03D0D7E92223C7E951
:1032F8002823D7F894300133C7F89430D7F894309E
:10330800172BDDDD0B4BDB8B1846FDF77BF80446EE
:103318000D46154A1549164845EC104BFFF7F8FAC3
:10332800044BD3E91A23C7E92A230023C7F89430AA
:103338003DE000BFD803002070000020581700208F
:10334800600700206800002078160020D0050020C3
:10335800A8000020001D002060110020B0000020FF
:10336800681D002000120020600000209815002031
:1033780040040020D7F894300133B74A0D33DB00FE
:103388001344D3E90023C7E92223D7E92223D7E945
:103398002A01FDF723FB0346002B03D0D7E922239C
:1033A800C7E92A23D7F894300133C7F89430D7F8FF
:1033B8009430172BDEDDA84B93ED127BB0EE470A55
:1033C800F0EE670A0CF07CFCB0EE407AF0EE607A22
:1033D8009FED9F1BB0EE470AF0EE670A0CF0B2FBB8
:1033E80087ED220B4FF000024FF00003D7E92201CE
:1033F800FDF7F4FA0346002B10D0D7F88830BB67E6
:10340800D7F88C3083F00043FB67D7E91E01FDF73E
:1034180023FB03469BB25B429BB205E0D7E922013E
:10342800FDF71AFB03469BB28C4A138097ED260BD7
:103438000CF046FCB0EE407AF0EE607A9FED841B0B
:10344800B0EE470AF0EE670A0CF07CFB87ED220B22
:103458004FF000024FF00003D7E92201FDF7BEFA52
:103468000346002B10D0D7F888303B67D7F88C304C
:1034780083F000437B67D7E91C01FDF7EDFA0346AB
:103488009BB25B429BB205E0D7E92201FDF7E4FA63
:1034980003469BB2714A53806F4B93ED147BB0EE99
:1034A800470AF0EE670A0CF00BFCB0EE407AF0EE3B
:1034B800607A9FED671BB0EE470AF0EE670A0CF0E2
:1034C80041FB87ED220B4FF000024FF00003D7E9D4
:1034D8002201FDF783FA0346002B10D0D7F8883075
:1034E800BB66D7F88C3083F00043FB66D7E91A0136
:1034F800FDF7B2FA03469BB25B429BB205E0D7E9FF
:103508002201FDF7A9FA03469BB2544A9380524B15
:1035180093ED167BB0EE470AF0EE670A0CF0D0FB8D
:10352800B0EE407AF0EE607A9FED491BB0EE470AA4
:10353800F0EE670A0CF006FB87ED220B4FF0000255
:103548004FF00003D7E92201FDF748FA0346002BA4
:1035580010D0D7F888303B66D7F88C3083F000431A
:103568007B66D7E91801FDF777FA03469BB25B4201
:103578009BB205E0D7E92201FDF76EFA03469BB23C
:10358800364AD38097ED2E0B0CF09AFBB0EE407ABA
:10359800F0EE607A9FED2E1BB0EE470AF0EE670A58
:1035A8000CF0D0FA87ED220B4FF000024FF0000329
:1035B800D7E92201FDF712FA0346002B10D0D7F8FD
:1035C8008830BB65D7F88C3083F00043FB65D7E9BA
:1035D8001601FDF741FA03469BB25B429BB205E038
:1035E800D7E92201FDF738FA03469BB21B4A13813B
:1035F80097ED2C0B0CF064FBB0EE407AF0EE607A9D
:103608009FED131BB0EE470AF0EE670A0CF09AFA2A
:1036180087ED220B4FF000024FF00003D7E922019B
:10362800FDF7DCF90346002B1AD0D7F888303B6544
:10363800D7F88C3083F000437B65D7E91401FDF798
:103648000BFA03469BB25B429BB20FE0AFF30080DC
:10365800000000000000F040D8030020A80300206C
:10366800D7E92201FDF7F8F903469BB2A24A538134
:1036780097ED280B0CF024FBB0EE407AF0EE607A60
:103688009FED9B1BB0EE470AF0EE670A0CF05AFA62
:1036980087ED220B4FF000024FF00003D7E922011B
:1036A800FDF79CF90346002B10D0D7F88830BB648F
:1036B800D7F88C3083F00043FB64D7E91201FDF79B
:1036C800CBF903469BB25B429BB205E0D7E92201E6
:1036D800FDF7C2F903469BB2874A938197ED2A0BFF
:1036E8000CF0EEFAB0EE407AF0EE607A9FED801BB7
:1036F800B0EE470AF0EE670A0CF024FA87ED220BC9
:103708004FF000024FF00003D7E92201FDF766F9F8
:103718000346002B10D0D7F888303B64D7F88C309C
:1037280083F000437B64D7E91001FDF795F9034660
:103738009BB25B429BB205E0D7E92201FDF78CF909
:1037480003469BB26C4AD3816C4BB3F850306A4A3B
:1037580013826B4B03F5D66353E90223C7E926238B
:103768000023C7F894301CE0D7F894300133644A3A
:10377800D533DB001344D3E90023C7E92223D7E973
:103788002223D7E92601FDF747F90346002B03D08A
:10379800D7E92223C7E92623D7F894300133C7F89D
:1037A8009430D7F89430172BDEDD554B5B8A1846DA
:1037B800FCF728FE04460D46524A5349534845EC47
:1037C800104BFFF7A5F84E4B03F5366353E9022378
:1037D800C7E928230023C7F894301DE0D7F89430B0
:1037E8000133474A03F26B13DB001344D3E9002388
:1037F800C7E92223D7E92223D7E92801FDF70CF9E5
:103808000346002B03D0D7E92223C7E92823D7F89A
:1038180094300133C7F89430D7F89430172BDDDD96
:10382800374B03F5046353E902233549C1E91423EF
:103838000023C7F894301FE0D7F894300133304A9A
:1038480003F20713DB001344D3E90023C7E922235B
:103858002B4BD3E91423D7E92201FDF7BFF8034620
:10386800002B04D02649D7E92223C1E91423D7F82D
:1038780094300133C7F89430D7F89430172BDBDD38
:103888001F4B03F5A46353E902231D49C1E916231D
:103898000023C7F894301EE0D7F894300133184A53
:1038A800A333DB001344D3E90023C7E92223144BD5
:1038B800D3E91623D7E92201FDF790F80346002B38
:1038C80004D00F49D7E92223C1E91623D7F8943049
:1038D8000133C7F89430D7F89430172BDCDD084B48
:1038E800D3E9E223C7E92E230023C7F894302CE05C
:1038F800000000000000F040A803002000000020A5
:10390800D803002098000020B81B0020300F0020AA
:10391800D7F894300133AA4A7133DB001344D3E952
:103928000023C7E92223D7E92223D7E92E01FDF78F
:1039380073F80346002B03D0D7E92223C7E92E23C7
:10394800D7F894300133C7F89430D7F89430172B50
:10395800DEDD9B4BD3E97E23C7E92C230023C7F880
:1039680094301CE0D7F894300133954A3F33DB009C
:103978001344D3E90023C7E92223D7E92223D7E94F
:103988002C01FDF749F80346002B03D0D7E9222381
:10399800C7E92C23D7F894300133C7F89430D7F807
:1039A8009430172BDEDD864B9B8B1846FCF72AFDDF
:1039B80004460D46834A8449844845EC104BFEF77B
:1039C800A7FF7F4B03F51D6353E90223C7E92A23A9
:1039D8000023C7F894301DE0D7F894300133784AB3
:1039E80003F23913DB001344D3E90023C7E9222388
:1039F800D7E92223D7E92A01FDF70EF80346002B61
:103A080003D0D7E92223C7E92A23D7F89430013312
:103A1800C7F89430D7F89430172BDDDD684BD3E91D
:103A28001A236749C1E912230023C7F894301EE01E
:103A3800D7F894300133624A0D33DB001344D3E9DD
:103A48000023C7E922235E4BD3E91223D7E92201D9
:103A5800FCF7C4FF0346002B04D05949D7E92223B9
:103A6800C1E91223D7F894300133C7F89430D7F856
:103A78009430172BDCDD97ED260B0CF021F9B0EE16
:103A8800407AF0EE607A9FED4C1BB0EE470AF0EEFC
:103A9800670A0CF057F887ED220B4FF000024FF041
:103AA8000003D7E92201FCF799FF0346002B10D049
:103AB800D7F88830BB63D7F88C3083F00043FB63BA
:103AC800D7E90E01FCF7C8FF03469BB25B429BB2E5
:103AD80005E0D7E92201FCF7BFFF03469BB23C4A49
:103AE800138097ED280B0CF0EBF8B0EE407AF0EE6F
:103AF800607A9FED311BB0EE470AF0EE670A0CF0D2
:103B080021F887ED220B4FF000024FF00003D7E9B0
:103B18002201FCF763FF0346002B10D0D7F888304A
:103B28003B63D7F88C3083F000437B63D7E90C0103
:103B3800FCF792FF03469BB25B429BB205E0D7E9D4
:103B48002201FCF789FF03469BB2214A53801C4B94
:103B580093ED147BB0EE470AF0EE670A0CF0B0F86C
:103B6800B0EE407AF0EE607A9FED131BB0EE470A94
:103B7800F0EE670A0BF0E6FF87ED220B4FF000022C
:103B88004FF00003D7E92201FCF728FF0346002B7A
:103B980020D0D7F88830BB62D7F88C3083F0004348
:103BA800FB62D7E90A01FCF757FF03469BB25B4269
:103BB8009BB215E0AFF30080000000000000F04069
:103BC800D803002090000020D81A0020A00D002063
:103BD800BC030020D7E92201FCF73EFF03469BB255
:103BE800C14A9380C14B93ED167BB0EE470AF0EEC5
:103BF800670A0CF065F8B0EE407AF0EE607A9FED57
:103C0800B81BB0EE470AF0EE670A0BF09BFF87ED92
:103C1800220B4FF000024FF00003D7E92201FCF716
:103C2800DDFE0346002B10D0D7F888303B62D7F86A
:103C38008C3083F000437B62D7E90801FCF70CFF66
:103C480003469BB25B429BB205E0D7E92201FCF731
:103C580003FF03469BB2A44AD38097ED2E0B0CF0CA
:103C68002FF8B0EE407AF0EE607A9FED9D1BB0EE33
:103C7800470AF0EE670A0BF065FF87ED220B4FF05D
:103C880000024FF00003D7E92201FCF7A7FE034624
:103C9800002B10D0D7F88830BB61D7F88C3083F070
:103CA8000043FB61D7E90601FCF7D6FE03469BB249
:103CB8005B429BB205E0D7E92201FCF7CDFE034643
:103CC8009BB2894A138197ED2C0B0BF0F9FFB0EEEC
:103CD800407AF0EE607A9FED821BB0EE470AF0EE74
:103CE800670A0BF02FFF87ED220B4FF000024FF011
:103CF8000003D7E92201FCF771FE0346002B10D020
:103D0800D7F888303B61D7F88C3083F000437B616B
:103D1800D7E90401FCF7A0FE03469BB25B429BB2C5
:103D280005E0D7E92201FCF797FE03469BB26E4AED
:103D3800538197ED2A0B0BF0C3FFB0EE407AF0EEFB
:103D4800607A9FED671BB0EE470AF0EE670A0BF04A
:103D5800F9FE87ED220B4FF000024FF00003D7E980
:103D68002201FCF73BFE0346002B10D0D7F8883021
:103D7800BB60D7F88C3083F00043FB60D7E90201C1
:103D8800FCF76AFE03469BB25B429BB205E0D7E9AB
:103D98002201FCF761FE03469BB2534A9381534BC1
:103DA80093ED127BB0EE470AF0EE670A0BF088FF3E
:103DB800B0EE407AF0EE607A9FED491BB0EE470A0C
:103DC800F0EE670A0BF0BEFE87ED220B4FF0000203
:103DD8004FF00003D7E92201FCF700FE0346002B51
:103DE80010D0D7F888303B60D7F88C3083F0004388
:103DF8007B60D7E90001FCF72FFE03469BB25B42CC
:103E08009BB205E0D7E92201FCF726FE03469BB2E8
:103E1800354AD381364BB3F85220334B1A82354892
:103E2800FEF7EFFBC7F890003348FEF7EAFBC7F848
:103E380084002F4BB3F848301A462C4B9B8902FB61
:103E480003F31846FCF7DEFA4FF000022B4BFCF7A1
:103E580053FB02460B4610461946254BD3E9082367
:103E6800FCF774FC02460B4643EC172BB0EE470AEE
:103E7800F0EE670AFEF7EEFD51EC100B1C4BD3E990
:103E88000823FCF739FB02460B46C7E926231C4BDF
:103E980093F874301E2B07D8194B93F874300133FC
:103EA800DAB2174B83F87420154B93F8703003F08F
:103EB8002003DBB2002B25D1114A92F8703043F071
:103EC800200382F870300E4B002283F874200C4ACD
:103ED80092F87030052161F3020382F8703028E20D
:103EE800000000000000F040BC030020D8030020C0
:103EF8000000002000040048001000480000503E68
:103F080020150020B04B93F87030C3F30203DBB2E6
:103F1800013B032B00F29A8101A252F823F000BF63
:103F2800393F000855400008B94000082F420008F2
:103F3800A54BD3E918014FF00002A44BFCF762FD32
:103F48000346002B4FD0A04A92F87030022161F34B
:103F5800020382F870309C4BD3E916014FF000023F
:103F68009B4BFCF745FD0346002B0BD0994B0122D8
:103F780083F86020974B012283F86220954B012239
:103F880083F86120904BD3E916014FF00002924B61
:103F9800FCF72EFD0346002B0BD08E4B002283F836
:103FA80060208C4B012283F862208A4B012283F81F
:103FB8006120854BD3E916014FF000024FF0804392
:103FC800FCF716FD0346002B00D1B2E1814B00221D
:103FD80083F860207F4B002283F862207D4B01220A
:103FE80083F86120A5E118E0774BD3E918014FF079
:103FF8000002774BFCF7CAF802460B467249C1E942
:104008001823714BD3E91A01D7E92623FCF7BEF828
:1040180002460B466C49C1E91A236B4BD3E91801D8
:104028004FF00002694BFCF7E3FC0346002BDBD1A1
:10403800654BD3E91A01644BD3E91823FCF786FBD7
:1040480002460B466049C1E9162372E1D7F884306D
:1040580003F04003002B40F069815B4A92F870300E
:10406800032161F3020382F87030574A92F87030E6
:10407800012161F3C40382F87030564950A3D3E993
:104088000023C1E90C2353494DA3D3E90023C1E917
:10409800102350494FF000024FF00003C1E90A23F2
:1040A8004C494FF000024FF00003C1E90E233DE1F7
:1040B800D7F8903003F00403002B37D1424A92F826
:1040C80070306FF3C40382F870303F4A92F8703052
:1040D800042161F3020382F870303E4B002283F81A
:1040E80060203C4B002283F862203A4B002283F880
:1040F800612038494FF000024FF00003C1E90C235A
:1041080034494FF000024FF00003C1E91023314950
:104118004FF000024FF00003C1E90A232D494FF088
:1041280000024FF00003C1E90E2302E1264B93F889
:10413800703003F01803DBB2082B34D1224BD3E9DB
:1041480016014FF00002254BFCF720F802460B46FB
:10415800D7E92601FCF760FC0346002B00D1E8E014
:10416800194A92F87030022161F3C40382F8703062
:1041780018494FF000024FF00003C1E90C2315491C
:104188000FA3D3E90023C1E9102312490CA3D3E9F3
:104198000023C1E90A230F494FF000024FF0000342
:1041A800C1E90E23C5E0084BD3E91623D7E9260158
:1041B800FCF71EFC0346002B12D1BAE0AFF30080D7
:1041C800000000000070A7402015002000004940B2
:1041D8000000F03FD80300200000F83F0000E03F57
:1041E800AD4A92F87030012161F3C40382F870304F
:1041F800AA49A7A3D3E90023C1E90C23A749A4A38B
:10420800D3E90023C1E91023A4494FF000024FF07D
:104218000003C1E90A23A1494FF000024FF000034F
:10422800C1E90E2385E0D7F8903003F00403002B92
:104238007ED1994B002283F87420974A92F8703007
:10424800052161F3020382F8703071E0924B93F814
:104258007430132B14D9904A92F87030012161F30D
:10426800020382F870308D4B002283F860208B4B5C
:10427800002283F86220894B002283F8612058E0ED
:10428800864B93F86030002B0CBF01230023DBB270
:104298001A46824B83F86020804B93F86230002BDB
:1042A8000CBF01230023DBB21A467C4B83F8622043
:1042B8007A4B93F86130002B0CBF01230023DBB24B
:1042C8001A46764B83F8612074494FF000024FF08C
:1042D8000003C1E90C2371494FF000024FF00003BD
:1042E800C1E910236D494FF000024FF00003C1E906
:1042F8000A236A494FF000024FF00003C1E90E2378
:1043080065494FF000024FF00003C1E916236249E6
:104318004FF000024FF00003C1E918235E494FF047
:1043280000024FF00003C1E91A2302E000BF00E0D9
:1043380000BF5A4B93ED0E7BB0EE470AF0EE670ACA
:10434800FEF788FB87ED220B4FF00002544BD7E9AC
:104358002201FCF743FB0346002B16D04FF0000266
:104368004FF00003D7E92201FCF74CFB0346002B72
:1043780007D0D7E92201FCF76FFB0346C7F8903056
:1043880007E00023C7F8903003E04FF0FF33C7F889
:104398009030414B1B6CD7F890101846FDF76EF91A
:1043A800C7F890003C4B1B6CD7F890101846FEF7E6
:1043B80050F93A4B93ED107BB0EE470AF0EE670ADE
:1043C800FEF748FB87ED220B4FF00002344BD7E98C
:1043D8002201FCF703FB0346002B16D04FF0000226
:1043E8004FF00003D7E92201FCF70CFB0346002B32
:1043F80007D0D7E92201FCF72FFB0346C7F8903016
:1044080007E00023C7F8903003E04FF0FF33C7F808
:104418009030214B1B6CD7F890101846FDF72EF9F9
:10442800C7F890001C4B1B6CD7F890101846FEF785
:1044380028F91A4B93ED0C7BB0EE470AF0EE670AA9
:10444800FEF708FB87ED220B4FF00002144BD7E96B
:104458002201FCF7C3FA0346002B23D04FF00002D9
:104468004FF00003D7E92201FCF7CCFA0346002BF2
:1044780007D0D7E92201FCF7EFFA0346C7F89030D6
:1044880014E00023C7F8903010E000BFAFF30080BD
:10449800000000000070A74020150020D80300206D
:1044A8000000F0414FF0FF33C7F89030604B1B6DB0
:1044B800D7F890101846FDF7E1F8C7F890005C4B64
:1044C8001B6DD7F890101846FEF7F3F8594B93ED8B
:1044D8000A7BB0EE470AF0EE670AFEF7BBFA87EDF3
:1044E800220B4FF00002544BD7E92201FCF776FA71
:1044F8000346002B16D04FF000024FF00003D7E917
:104508002201FCF77FFA0346002B07D0D7E92201E6
:10451800FCF7A2FA0346C7F8903007E00023C7F873
:10452800903003E04FF0FF33C7F89030404B1B6DDD
:10453800D7F890101846FDF7A1F8C7F890003C4B43
:104548001B6DD7F890101846FEF7CBF8394B3B4A4D
:104558001A62384B93F86030002B04D04FF40053A4
:10456800C7F8943002E00023C7F89430314B1B6A37
:10457800D7F8942011461846FEF74FF82D4B1A6AC3
:10458800D7F89430DB4303F4005319461046FEF77E
:1045980052F8284B294A1A62264B93F86230002BAE
:1045A80004D04FF48043C7F8943002E00023C7F8E2
:1045B8009430204B1B6AD7F8942011461846FEF712
:1045C8002CF81C4B1A6AD7F89430DB4303F4804369
:1045D80019461046FEF72FF8164B184A1A62154B63
:1045E80093F86130002B04D04FF40043C7F894309F
:1045F80002E00023C7F894300E4B1B6AD7F89420CA
:1046080011461846FEF709F80A4B1A6AD7F894308B
:10461800DB4303F4004319461046FEF70CF800F09C
:1046280017FB00F02BFC00BFC037BD46B0BD00BF74
:1046380020150020D80300200000F04100080048A1
:1046480080B582B000AF00237B6011E05A4B93F82D
:104658005A105A4A7B6813440A461A70564BB3F8E4
:104668004E10574A7B6822F813107B6801337B6031
:104678007B68072BEADD504B9B6B524A13604E4B0D
:10468800DB6B514A13604C4B1B6C504A13604A4B0E
:104698005B6C4F4A1360484B1B6C4C4A5360464B4B
:1046A8005B6C4B4A5360444B1B6C484A9360424BCB
:1046B8005B6C474A936000237B6017E03E4BB3F87E
:1046C8005410444A7B6822F813103B4BB3F8561039
:1046D800414A7B6822F81310374BB3F858103F4A09
:1046E8007B6822F813107B6801337B607B68082B9A
:1046F800E4DD00F041FB3A4B00225A60384B0022BF
:104708001A703748FEF710FA36493748FEF7D4F8DA
:1047180036493748FEF737F936493748FEF7CCF8B7
:1047280036493748FEF7C8F836493748FEF7C4F81F
:1047380036493748FEF7C0F836493748FEF7BCF81F
:1047480036493748FEF71FF936493748FEF7B4F8B7
:1047580036493748FEF7B0F836493748FEF7ACF81F
:1047680036493748FEF7A8F81D4B002283F8342055
:104778001B4B002283F83C20194B01229A633148D5
:10478800FEF71AFA164B012283F83C20144B00223C
:1047980083F84420124B002283F84C20104B01224E
:1047A8009A642948FEF744FA0D4B012283F84C20FD
:1047B80000BF0837BD4680BD00000020D0030020A0
:1047C800840300207C030020800300206403002071
:1047D8007003002094030020A8030020BC030020DD
:1047E800201500208000002018190020A0000020BB
:1047F800981C0020B8000020481E002088000020D7
:10480800F8190020780000203818002070000020D7
:10481800581700206800002078160020A800002003
:10482800001D0020B0000020681D0020600000204E
:104838009815002098000020B81B00209000002048
:10484800D81A0020541500206415002080B500AF48
:10485800344B1B78002B11D1324B01221A70314B8B
:104868005B68012B0AD12F4B1B7A002B06D02D4BEE
:10487800DB68012204211846FDF7FAFC294B93F85E
:104888003430002B23D1274B012283F83420254BC9
:104898009B6B012B1BD1234B93F83C30002B16D07C
:1048A800204B1B6C1846FDF7CDFF1E4B1B6C0021DF
:1048B8001846FCF7C0FB1B4B1B6C02211846FCF783
:1048C800A5FC184B1B6C02211846FCF73FFD154B45
:1048D80093F84430002B23D1124B012283F8442053
:1048E800104B9B6C012B1BD10E4B93F84C30002BBB
:1048F80016D00C4B1B6D1846FDF7A4FF094B1B6D1A
:1049080000211846FCF797FB064B1B6D0221184641
:10491800FCF7C0FD034B1B6D02211846FCF722FE75
:1049280000BF80BD2015002080B489B000AFF860BA
:10493800B9607A60FB68BB610023FB61BB689B08B8
:104948007B611B4B1B68B3F5C87F2AD00023FB6132
:1049580022E0174B1B6817497A6841F82320FB6946
:104968009B00BA691A44124B1B681268114903F577
:10497800C87341F823200E4B1B680F4A12680D4973
:1049880003F5487341F82320094B1B680133084A93
:104998001360FB690133FB61FA697B699A42D8D3DA
:1049A80000E000BF2437BD465DF8047B704700BFB8
:1049B800301F0020381F0020341F002080B584B02D
:1049C80000AF786072B600BF00F0A6FC0346FB603B
:1049D80007F10C037A6804211846FFF7A5FF62B6B1
:1049E80000BF00BF1037BD4680BD000080B582B053
:1049F80000AF344B1B785A1CD1B2324A1170002BCD
:104A080009D0314B01221A602E4B1B78013BDAB2D8
:104A18002C4B1A7053E03B1D1846FDF721FF62B678
:104A280000BF02200BF072F8FEF73EF902200BF0EF
:104A380078F872B600BF234B1B78013BDAB2214BE2
:104A48001A707B79002B11D0204B5B785A1CD1B29D
:104A58001E4A5170002B09D01B4B01221A601B4BB8
:104A68005B78013BDAB2194B5A7028E0174B5B7838
:104A7800002B24D0134B5B78002B1FD1114B5B7894
:104A88000133DAB20F4B5A7062B600BF03200BF045
:104A98003DF8FEF7C1F903200BF043F800BF72B6EA
:104AA80000BF0A4B5B78013BDAB2084B5A70054BE2
:104AB8005B78013BDAB2034B5A7000E000BF08375D
:104AC800BD4680BDFC310020F831002000320020B6
:104AD80080B584B000AF78603960374BFB60374BE6
:104AE800BB60374B00221A70364B00221A7001DF68
:104AF80006F026FB00F0E0FE00F02EFF00F08EFF2F
:104B080001F054FF01F072FB02F09EF901F0BEFFC4
:104B180002F04AFA01F00EFD02F00EFD02F066FC0A
:104B2800294B1B6800221A6001200AF0EFFFFFF7EB
:104B380087FD01200AF0F5FF72B600BF97ED030A62
:104B480000F08AFC204B1B681B68002B0CBF01235C
:104B58000023DBB21A461B4B1A7062B600BF62B65E
:104B680000BF15E0184B1B681B68002B14BF0123FE
:104B78000023DBB21A46124B1A70114B1B78DBB2BA
:104B8800002B05D0114B1B68104A23F0010313605A
:104B98000C4B1B78DBB2002BE4D104200AF0B6FFE3
:104BA800FFF754FE04200AF0BCFF72B600BF0023D2
:104BB80018461037BD4680BDCDCCCC3C0000A04285
:104BC80002320020033200205401010810E000E006
:104BD80080B485B000AF0346FB80B7F90630002BE0
:104BE80002DBFB88FB8101E0FB88FB81B7F90E3013
:104BF80018461437BD465DF8047B704780B588B009
:104C080004AF03460A46FB711346BB71FB799BB29E
:104C18005B009BB2013399B2BB799AB24FF0FF3374
:104C280002930223019307F10C0300930123074821
:104C380006F078FE3B7B1B021AB27B7B1BB2134348
:104C48001BB29BB218461037BD4680BD30320020DB
:104C580080B500AF3B216920FFF7D0FF0346184617
:104C6800FFF7B6FF03461A4613469B0013445B0042
:104C780007EE903AB8EEE77ADFED3B6AC7EE267AA0
:104C88003A4BC3ED007A3D216920FFF7B7FF034691
:104C98001846FFF79DFF03461A4613469B00134428
:104CA8005B0007EE903AB8EEE77ADFED2F6AC7EEC1
:104CB800267A2E4BC3ED017A3F216920FFF79EFF2C
:104CC80003461846FFF784FF03461A4613469B001F
:104CD80013445B0007EE903AB8EEE77ADFED226AFC
:104CE800C7EE267A214BC3ED027A43216920FFF7EC
:104CF80085FF03461846FFF76BFF034607EE903A19
:104D0800B8EEE77ADFED1A6AC7EE267A194BC3EDDB
:104D1800007A45216920FFF771FF03461846FFF71F
:104D280057FF034607EE903AB8EEE77ADFED106AD0
:104D3800C7EE267A0F4BC3ED017A47216920FFF7AA
:104D48005DFF03461846FFF743FF034607EE903A18
:104D5800B8EEE77ADFED066AC7EE267A054BC3EDB3
:104D6800027A00BF80BD00BF0000804664030020B7
:104D7800000003437003002080B586B004AF002311
:104D8800FB714FF0FF33029301230193FB1D009346
:104D980001236B22D2211D4806F0B0FC4FF0FF33EF
:104DA8000293012301930723009301231922D2219F
:104DB800164806F0A3FC4FF0FF330293012301933A
:104DC8000023009301231C22D221104806F096FCF0
:104DD8004FF0FF3302930123019300230093012333
:104DE8001B22D221094806F089FC4FF0FF330293B9
:104DF80001230193064B009301237522D321034815
:104E080006F090FD00BF0837BD4680BD3032002057
:104E18000432002080B582B000AF00237B600FE031
:104E28007B68432B08D07B68052B05D07B685BB279
:104E3800184607F0E5FA00E000BF7B6801337B60A5
:104E48007B68EF2BECD900BF00BF0837BD4680BD9B
:104E580080B582B000AF00237B6007E07B685BB25F
:104E6800184607F0BFFA7B6801337B607B68EF2B3D
:104E7800F4D900BF00BF0837BD4680BD80B500AF7C
:104E88004021AA4806F092FB0346002B14BF0123D9
:104E98000023DAB2A64B1A700421A64806F086FB56
:104EA8000346002B14BF01230023DAB2A04B5A702B
:104EB8004FF40051A04806F079FB0346002B14BFBD
:104EC80001230023DAB29D4B1A704FF480419A48AF
:104ED80006F06CFB0346002B14BF01230023DAB253
:104EE800964B5A704FF40041934806F05FFB034617
:104EF800002B14BF01230023DAB2904B9A704FF4B1
:104F080080518C4806F052FB0346002B14BF012346
:104F18000023DAB28A4B1A704FF48071834806F086
:104F280045FB0346002B14BF01230023DAB2844B50
:104F38005A704FF400717D4806F038FB0346002B89
:104F480014BF01230023DAB27D4B9A704FF48051CD
:104F5800764806F02BFB0346002B14BF01230023E1
:104F6800DAB2774BDA704FF40061704806F01EFB36
:104F78000346002B14BF01230023DAB2704B1A71C9
:104F88004FF48041694806F011FB0346002B14BF1B
:104F980001230023DAB26A4B5A714FF40041634887
:104FA80006F004FB0346002B14BF01230023DAB2EA
:104FB800634B9A714FF400515C4806F0F7FA0346C8
:104FC800002B14BF01230023DAB25D4BDA715D4B6D
:104FD8005B6B9AB25C4B1A805A4B9B6B9AB25A4BDA
:104FE8005A80584BDB6B9AB2584B1A80554B1B6C46
:104FF8009AB2564B5A80FFF70DFF08E04FF4007144
:105008004FF0904006F0D2FA0346012B07D1032156
:105018004F4803F0C1F80346002BEFD10AE000BF68
:1050280008E04FF400714FF0904006F0BFFA0346D5
:10503800012B07D102213E4803F0AEF80346002BAE
:10504800EFD10AE000BF08E04FF400714FF0904044
:1050580006F0ACFA0346012B07D10321374803F0C9
:105068009BF80346002BEFD10AE000BF08E04FF49D
:1050780000714FF0904006F099FA0346012B07D1D2
:105088000C21344803F088F80346002BEFD10AE0DE
:1050980000BF08E04FF400714FF0904006F086FA28
:1050A8000346012B07D10C212B4803F075F8034662
:1050B800002BEFD10AE000BF08E04FF400714FF079
:1050C800904006F073FA0346012B07D112212348BA
:1050D80003F062F80346002BEFD10AE000BF08E0B6
:1050E8004FF400714FF0904006F060FA0346012B30
:1050F80007D112211A4803F04FF80346002BEFD1CD
:105108000AE000BF08E04FF400714FF0904006F04D
:105118004DFA0346012B07D11221124803F03CF83F
:105128000346002BEFD128E000BF26E0001000481E
:105138000832002000040048000800480C32002013
:105148001032002000040040203200201C320020D1
:10515800F800010864030020700300209403002075
:10516800A8030020BC0300204FF400714FF09040CA
:1051780006F01CFA0346012B07D10821514803F019
:105188000BF80346002BEFD10AE000BF08E04FF40C
:1051980000714FF0904006F009FA0346012B07D141
:1051A8000421494802F0F8FF0346002BEFD10AE03A
:1051B80000BF08E04FF400714FF0904006F0F6F998
:1051C8000346012B07D10421404802F0E5FF0346BE
:1051D800002BEFD10AE000BF08E04FF400714FF058
:1051E800904006F0E3F90346012B07D10421384823
:1051F80002F0D2FF0346002BEFD10AE000BF08E01F
:105208004FF400714FF0904006F0D0F90346012B9F
:1052180007D108212F4802F0BFFF0346002BEFD12A
:105228000AE000BF08E04FF400714FF0904006F02C
:10523800BDF90346012B07D11021274802F0ACFF26
:105248000346002BEFD10AE000BF08E04FF40071DD
:105258004FF0904006F0AAF90346012B07D104212C
:105268001E4802F099FF0346002BEFD10AE000BF69
:1052780008E04FF400714FF0904006F097F90346AC
:10528800012B07D10421164802F086FF0346002BA4
:10529800EFD10AE000BF08E04FF400714FF09040F2
:1052A80006F084F90346012B07D104210D4802F0CA
:1052B80073FF0346002BEFD100E000BFFFF7C8FDE6
:1052C80000BF80BD10320020183200201C320020A0
:1052D80020320020D0030020840300208003002017
:1052E8007C030020FC00010880B584B000AF786022
:1052F80005F052FFF8607B68BB6000BF05F04CFF0B
:105308000246FB68D31ABA689A42F7D800BF00BFB2
:105318001037BD4680BD000010B50E4C82B0636AE0
:10532800019305F039FF0090626A019B9A4207D306
:10533800009B01984FF47A7202FB030002B010BD83
:1053480005F02AFF636A4FF47A7202FB003002B05C
:1053580010BD00BF002C014080B483B000AF0346ED
:105368003960FB7197F90730002B0ADB3B68DAB22A
:105378000C4997F907301201D2B20B4483F8002385
:105388000AE03B68DAB20849FB7903F00F03043BF3
:105398001201D2B20B441A7600BF0C37BD465DF835
:1053A800047B704700E100E000ED00E080B582B0CA
:1053B80000AF78607B68013BB3F1807F01D30123A4
:1053C8000FE00A4A7B68013B53600F214FF0FF3022
:1053D800FFF7C2FF054B00229A60044B07221A60B0
:1053E800002318460837BD4680BD00BF10E000E026
:1053F80080B500AFBFF34F8F00BFBFF36F8F00BF03
:105408000B4B1A680B4B1B689A4202D3084B0022BD
:105418001A60074B1B685A1C05490A60002B05D106
:1054280072B600BFFFF7E2FA62B600BF00BF80BDE8
:10543800243200202832002080B400AF054B5B687E
:10544800044A43F08053536000BFBD465DF8047BB7
:10545800704700BF00ED00E080B584B000AF87ED75
:10546800010A234B1B6807EE903AB8EE677AD7ED2E
:10547800017A67EE277AFCEEE77A17EE903AFB603E
:10548800FB68B3F1807F18D3FB6807EE903AB8EE5B
:10549800677ADFED186AC7EE267AFCEEE77A17EE30
:1054A800903A0133144A1360134B1B68FA68B2FB35
:1054B800F3F31846FFF77AFF05E00F4B00221A6056
:1054C800F868FFF773FF0D4B00221A600C4A0D4B6A
:1054D8001A600F216FF00400FFF73EFF0F216FF0F5
:1054E8000100FFF739FF00BF1037BD4680BD00BF80
:1054F8004C020020FFFF7F4B28320020243200207E
:10550800F95300082C320020EFF3008001B5EFF3C7
:10551800118003B41EF0100F08BFB0EE400A0A480D
:10552800006803B488B004A006904FF0807007901C
:105538006FF006008646704703BC8047BFF36F8F45
:1055480000DFFEE700BF00002C3200201EF0100F25
:1055580008BFB0EE400A1EF0040F0CBFEFF308803E
:10556800EFF30980816911F8020C10B101280DD000
:105578000BE01EF0100F0CBF1AB008B003BC80F38C
:10558800118803BC80F300880847FEE74EF61451E3
:10559800CEF200010A6842F001020A607047F4E79F
:1055A80000BF00BF80B400AF054B1B68044A43F43A
:1055B8000023136000BFBD465DF8047B704700BF41
:1055C8000010024080B400AF054B1B68044A43F446
:1055D8008033136000BFBD465DF8047B704700BF91
:1055E8000010024080B400AF074B1B6803F400337F
:1055F800B3F5003F01D1012300E000231846BD4662
:105608005DF8047B704700BF0010024080B483B08F
:1056180000AF7860064B9B6823F0030204497B685F
:1056280013438B6000BF0C37BD465DF8047B7047A1
:105638000010024080B400AF044B9B6803F00C03D9
:105648001846BD465DF8047B704700BF0010024055
:1056580080B483B000AF7860064B9B6823F0F002FB
:1056680004497B6813438B6000BF0C37BD465DF867
:10567800047B70470010024080B483B000AF7860AC
:10568800064B9B6823F4E06204497B6813438B60F4
:1056980000BF0C37BD465DF8047B70470010024020
:1056A80080B483B000AF7860064B9B6823F46052E7
:1056B80004497B6813438B6000BF0C37BD465DF817
:1056C800047B70470010024080B400AF054B1B6894
:1056D800044A43F08073136000BFBD465DF8047B45
:1056E800704700BF0010024080B400AF074B1B6832
:1056F80003F00073B3F1007F01D1012300E0002320
:105708001846BD465DF8047B704700BF0010024094
:1057180080B485B000AFF860B9607A603B600A4B2E
:10572800DA680A4B1340F968BA6811437A681202BA
:1057380011433A680A4304491343CB6000BF143746
:10574800BD465DF8047B7047001002408C80FFF96D
:1057580080B400AF054BDB68044A43F08073D36024
:1057680000BFBD465DF8047B704700BF00100240D3
:1057780080B400AF054B1B68044A43F08063136094
:1057880000BFBD465DF8047B704700BF00100240B3
:1057980080B400AF074B1B6803F00063B3F1006FE0
:1057A80001D1012300E000231846BD465DF8047BC3
:1057B800704700BF0010024080B485B000AFF860A9
:1057C800B9607A603B600E4BDB6823F07302F968BE
:1057D800BB680B430A491343CB60094B1B6923F48D
:1057E800C00323F4FE437A6811023A680A43044965
:1057F80013430B6100BF1437BD465DF8047B704747
:105808000010024080B400AF054B1B69044A43F402
:105818008013136100BFBD465DF8047B704700BF6D
:105828000010024080B483B000AF7860064B1B685C
:1058380023F0070204497B6813430B6000BF0C3751
:10584800BD465DF8047B70470020024080B400AF7D
:10585800044B1B6803F007031846BD465DF8047B3C
:10586800704700BF0020024080B483B000AF78606A
:10587800064B1B6823F4C06204497B6813430B6022
:1058880000BF0C37BD465DF8047B704700700040D0
:1058980080B400AF074B5B6903F48063B3F5806F96
:1058A80001D1012300E000231846BD465DF8047BC2
:1058B800704700BF0070004080B500AF0420FFF7BC
:1058C800B1FF00BFFFF7C2FF0346042BFAD14FF424
:1058D8000070FFF7C9FF00BFFFF7DAFF0346002B90
:1058E800FAD1FFF76FFE00BFFFF77CFE0346012BDE
:1058F800FAD1FFF757FE0023142200210320FFF7F7
:1059080007FFFFF725FFFFF7DFFE00BFFFF7ECFEFD
:105918000346012BFAD10320FFF778FE00BFFFF7FB
:1059280089FE03460C2BFAD10020FFF791FE0020D8
:10593800FFF7A2FE0020FFF7B3FE064802F03CFD89
:105948000F2002F0CBFC0346002B01D000F02CF80E
:1059580000BF80BD00B4C40480B500AF00230C2292
:1059680000210320FFF728FFFFF74CFFFFF700FF98
:1059780000BFFFF70DFF0346012BFAD100BF00BFA0
:1059880080BD000080B582B000AF78607B681B687E
:10599800044A934201D105F0EBFB00BF0837BD462E
:1059A80080BD00BF002C014080B400AF72B600BFBC
:1059B800FEE7000080B485B000AF7860084BDA6C71
:1059C80007497B681343CB64054BDA6C7B6813404B
:1059D800FB60FB6800BF1437BD465DF8047B704769
:1059E8000010024080B483B000AF786039607B68F3
:1059F8003A689A6100BF0C37BD465DF8047B704772
:105A080080B483B000AF786039607B683A689A6286
:105A180000BF0C37BD465DF8047B704780B586B083
:105A280000AF3B4600221A605A609A60DA601A6139
:105A38005A611020FFF7BEFF0420FFF7BBFF80204C
:105A4800FFF7B8FF0120FFF7B5FF0220FFF7B2FF0D
:105A58000820FFF7AFFF4FF400516348FFF7C2FF7C
:105A68004FF440416048FFF7CBFF4FF47B415F485C
:105A7800FFF7C6FF41F208015D48FFF7C1FF80212B
:105A88005C48FFF7BDFF40F2BF433B6003237B60E8
:105A980000233B613B461946544802F0E8FD402389
:105AA8003B6000237B6001233B613B4619464F481E
:105AB80002F0DDFD4FF460433B6001237B6000236F
:105AC800BB600023FB6000233B613B461946464808
