:020000040800F2
:1000000000800120A9590008551300085713000863
:10001000591300085B1300085D130008000000007E
:10002000000000000000000000000000F959000876
:100030005F13000800000000F9590008F959000892
:10004000F9590008F9590008F9590008F959000848
:10005000F9590008F9590008F9590008F959000838
:10006000F9590008F9590008F95900086113000806
:1000700063130008F9590008F9590008F9590008F4
:10008000F9590008F959000865130008F9590008E2
:10009000F9590008F9590008F9590008F9590008F8
:1000A000F959000869130008F9590008F9590008BE
:1000B000F9590008F9590008F9590008F9590008D8
:1000C000F9590008F9590008F9590008F9590008C8
:1000D000F9590008F9590008F9590008F9590008B8
:1000E000F9590008F9590008F9590008F9590008A8
:1000F000F9590008F9590008F9590008F959000898
:10010000F9590008F9590008F9590008F959000887
:10011000F9590008F9590008F9590008F959000877
:10012000F9590008F9590008F9590008F959000867
:10013000F9590008F9590008F9590008F959000857
:10014000F9590008F9590008F9590008791300080D
:10015000F9590008F9590008F9590008F959000837
:10016000F9590008F9590008F9590008F959000827
:10017000F9590008F9590008F95900080000000071
:08018000F9590008F9590008C3
:1001880010B5054C237833B9044B13B10448AFF3C9
:1001980000800123237010BD08010020000000002A
:1001A800545A000808B5034B1BB103490348AFF381
:1001B800008008BD000000000C010020545A00080F
:1001C80010B5002404E0A4F11903012B0BD8013465
:1001D800EF2C0CD8412CFAD003D8052CF7D0F2D24A
:1001E80001E0432CF3D060B201F084F9EFE710BDD1
:1001F8002DE9F843704D714C714F4021384601F09C
:100208007DFA003818BF01206E4E3070DFF8E89193
:100218000421484601F072FA003818BF01207070B6
:10022800DFF8B8814FF40051404601F067FA003812
:1002380018BF0120644E30704FF48041404601F0F1
:100248005DFA003818BF012070704FF40041404635
:1002580001F054FA003818BF0120B0704FF48051F3
:10026800484601F04BFA003818BF0120574E30704D
:100278004FF48071384601F041FA003818BF012068
:1002880070704FF48051384601F038FA003818BFC2
:100298000120B0704FF40071384601F02FFA003891
:1002A80018BF0120F0704FF48041384601F026FA5B
:1002B800003818BF012030714FF40061384601F052
:1002C8001DFA003818BF012070714FF400413846FC
:1002D80001F014FA003818BF0120B0714FF4005132
:1002E800384601F00BFA003818BF0120F071384B7E
:1002F800596B384A1180996B5180D96B364A1180F5
:100308001B6C5380FFF75CFF04E04FF480413348D7
:1003180001F0FBF90321A8B205F0AAF80028F4D1EE
:100328000221284805F0A4F80028F9D1032126481D
:1003380005F09EF80028F9D10C21294805F098F815
:100348000028F9D10C21274805F092F80028F9D1A6
:100358001221254805F08CF80028F9D112212348EC
:1003680005F086F80028F9D11221214805F080F817
:100378000028F9D10821154805F07AF80028F9D1A4
:1003880004211C4805F074F80028F9D1042112480A
:1003980005F06EF80028F9D104210E4805F068F838
:1003A8000028F9D10421A0B205F062F80028F9D19B
:1003B80062B6BDE8F88300BF705A0008745A000896
:1003C8000010004838010020340100202C010020D2
:1003D80000040040240100202801002000080048F3
:1003E800880100207C0100206401002050010020C9
:1003F8003C010020780100200004004800B587B0C7
:100408000A4640004FF0FF3302930223019305ABE5
:1004180000930123C118064801F080FC9DF81400E0
:100428009DF8153043EA002007B05DF804FB00BFD3
:10043800E001002000B2704710B52DED028B3B2182
:100448006920FFF7DBFFFFF7F5FF00EB80004000B6
:1004580007EE900AF8EEE77A9FED2C8A67EE887A25
:100468002B4CC4ED007A3D216920FFF7C7FFFFF749
:10047800E1FF00EB8000400007EE900AF8EEE77A13
:1004880067EE887AC4ED017A3F216920FFF7B6FF4D
:10049800FFF7D0FF00EB8000400007EE900AF8EE6F
:1004A800E77A67EE887AC4ED027A43216920FFF77C
:1004B800A5FFFFF7BFFF07EE900AF8EEE77A9FED7A
:1004C800158A87EE887A144C84ED007A45216920D4
:1004D800FFF794FFFFF7AEFF07EE900AF8EEE77A12
:1004E80087EE887A84ED017A47216920FFF786FF35
:1004F800FFF7A0FF07EE900AF8EEE77A87EE887A12
:1005080084ED027ABDEC028B10BD00BF000080387C
:1005180088010020000003437C010020F0B587B06B
:1005280000278DF817701B4D4FF0FF3602960124F7
:1005380001940DF11703009323466B22D22128461C
:1005480001F017FB02960194072300932346192212
:10055800D221284601F00DFB02960194009723460C
:100568001C22D221284601F004FB02960194009730
:1005780023461B22D221284601F0FBFA0296019459
:10058800054B009323467522D321284601F0C6FB6C
:1005980007B0F0BDE00100203A01002000B500F0EE
:1005A8000700C0F1070CBCF1040F28BF4FF0040C82
:1005B800031D062B0FD9C31E4FF0FF3E0EFA0CF099
:1005C80021EA000199400EFA03FE22EA0E0241EAEE
:1005D80002005DF804FB0023EEE70000104BDA6828
:1005E80022F0730242F00302DA601A6922F4C002B0
:1005F80022F4FE4242F440621A611A6942F48012FF
:100608001A611A6842F080621A6001E0012B06D074
:10061800034B1B6813F00063F8D00123F6E770471B
:1006280000100240F0B599B0002415941694179460
:100638000F94109411941294139414940B940C9492
:100648000D940E94059406940794089409940A94BA
:10065800B44BD3F8882042F04052C3F88820DA6CB3
:1006680042F40052DA64DA6C02F400520492049AFA
:10067800DA6C42F00102DA64DA6C02F001020392E9
:10068800039ADA6C42F00402DA64DA6C02F00402CB
:100698000292029ADA6C42F00202DA64DB6C03F02E
:1006A80002030193019BF82305930326069605A9E7
:1006B8004FF0904003F09DF8302305930696099477
:1006C800994F05A9384603F094F8059606960994BB
:1006D800964D05A9284603F08CF84FF09042D36A4E
:1006E80043F0F803D362FB6A43F03003FB62EB6A22
:1006F8003343EB628E4BD3F8A82022F00F020F2170
:1007080091FAA1F1C3F8A8209A6822F4804222F055
:1007180010029A609A6822F440529A609A6842F0ED
:1007280020029A609A6822F040029A609A6842F021
:1007380080029A609A6822F4407242F480729A6049
:100748009A6822F4406242F480629A60794BD868D1
:1007580022462146C0F30220FFF720FF0001C0B265
:10076800754B83F812034FF480221A60159416947F
:100778001794724D15A9284602F05CFF0F940823C0
:10078800109311941294139614940FA9284602F00A
:1007980069FF2B6923F4FE7343F00C032B612B696B
:1007A80023F400732B610B940C94654C0BA9204621
:1007B80002F006FFA36823F0E073A360AB6823F0A0
:1007C800204323F03F03AB60AB6823F0104323F0D2
:1007D8003F0343F08053AB605A4B1B689B095A4A4E
:1007E800A2FB03239B0903EB83039B00574AA2FB4D
:1007F8000323F34000E0013B002BFCD14F4B1A6B65
:1008080022F4F86242F400721A635A6942F0E06214
:100818005A61D3F8B02022F48072C3F8B0201A6B62
:1008280022F4F83242F410421A635A6942F06052D4
:100838005A61D3F8B02022F40072C3F8B0201A6BC2
:1008480022F4F80242F420121A639A6942F007026D
:100858009A61D3F8B02022F48062C3F8B0201A6BF2
:1008680022F0F85242F030621A639A6942F0380274
:100878009A61D3F8B02022F40062C3F8B0205A6B12
:1008880022F01F0242F00C025A639A6942F4E072A5
:100898009A61D3F8B02022F48052C3F8B0205A6B82
:1008A80022F4F86242F450725A639A6942F4606220
:1008B8009A61D3F8B02022F40052C3F8B0205A6BE2
:1008C80022F4F83242F460425A639A6922F4E04210
:1008D8009A61D3F8B02022F48042C3F8B0205A6B52
:1008E80022F4F80242F470125A639A6942F46032B0
:1008F8009A61D3F8B02022F40042C3F8B0205A6BB2
:1009080022F0F85242F080525A639A6942F4E01297
:100918009A61D3F8B02022F48032C3F8B02019B01D
:10092800F0BD00BF00100240000800480004004865
:100938000000024000ED00E000E100E0000004508B
:100948000003045000000020632D3E05CDCCCCCC24
:10095800F0B599B000241594169417940F94109438
:1009680011941294139414940B940C940D940E9463
:10097800059406940794089409940A94C64BD3F8EE
:10098800882042F04052C3F88820DA6C42F40052C2
:10099800DA64DA6C02F400520492049ADA6C42F0D7
:1009A8000102DA64DA6C02F001020392039ADA6C4B
:1009B80042F00402DA64DA6C02F004020292029A4B
:1009C800DA6C42F00202DA64DB6C03F00203019392
:1009D800019BF82305930326069605A94FF090403E
:1009E80002F007FF3023059306960994AB4F05A93B
:1009F800384602F0FEFE059606960994A84D05A90C
:100A0800284602F0F6FE4FF09042D36A43F0F8030E
:100A1800D362FB6A43F03003FB62EB6A3343EB6259
:100A2800A04BD3F8A82022F0F002F02191FAA1F10E
:100A3800C3F8A820DA6922F4804222F01002DA61B1
:100A4800DA6922F44052DA61DA6942F02002DA61A6
:100A5800DA6922F04002DA61DA6942F08002DA618A
:100A6800DA6922F4407242F48072DA61DA6922F4B7
:100A7800406242F48062DA618B4BD8682246214694
:100A8800C0F30220FFF78AFD0001C0B2874B83F84C
:100A980012034FF480221A60159416941794844D0B
:100AA80015A9284602F0C6FD0F9408231093119447
:100AB8001294139614940FA9284602F0D3FD2B69BB
:100AC80023F4FE7343F00C032B612B6923F40073AA
:100AD8002B610B94774C0BA9204602F071FDA3689B
:100AE80023F0E073A360AB6823F0204323F03F03B7
:100AF800AB60AB6823F0104323F03F0343F080530F
:100B0800AB606D4B1B689B096C4AA2FB03239B09D6
:100B180003EB83039B006A4AA2FB0323F34000E034
:100B2800013B002BFCD1674BD3F8302122F4F8624B
:100B380042F40072C3F83021D3F8142142F0E06285
:100B4800C3F814215A4AD2F8B01021F48071C2F8BF
:100B5800B010D3F8301121F4F83141F41041C3F842
:100B68003011D3F8141141F06051C3F81411D2F8C0
:100B7800B01021F40071C2F8B010D3F8301121F48C
:100B8800F80141F42011C3F83011D3F8181141F0DD
:100B98000701C3F81811D2F8B01021F48061C2F827
:100BA800B010D3F8301121F0F85141F03061C3F89A
:100BB8003011D3F8181141F03801C3F81811D2F8E0
:100BC800B01021F40061C2F8B010D3F8341121F04C
:100BD8001F0141F00C01C3F83411D3F8181141F486
:100BE800E071C3F81811D2F8B01021F48051C2F89E
:100BF800B010D3F8341121F4F86141F45071C3F8FE
:100C08003411D3F8181141F46061C3F81811D2F8FF
:100C1800B01021F40051C2F8B010D3F8341121F407
:100C2800F83141F46041C3F83411D3F8181141F494
:100C3800E041C3F81811D2F8B01021F48041C2F88D
:100C4800B010D3F8341121F4F80141F47011C3F84D
:100C58003411D3F8181141F46031C3F81811D2F8DF
:100C6800B01021F40041C2F8B010D3F8341121F0CB
:100C7800F85141F08051C3F83411D3F8181141F4F8
:100C8800E011C3F81811D2F8B03023F48033C2F859
:100C9800B03019B0F0BD00BF001002400008004895
:100CA800000400480000024000ED00E000E100E020
:100CB800000104500003045000000020632D3E058D
:100CC800CDCCCCCC0000045030B583B0144B9A6C1A
:100CD80042F001029A649B6C03F001030193019BAB
:100CE800104DE86800221146C0F30220FFF756FCB9
:100CF8000001C0B20C4C84F80B034FF4006323606E
:100D0800E86800221146C0F30220FFF747FC000103
:100D1800C0B284F80C034FF48053236003B030BD95
:100D28000010024000ED00E000E100E02DE9F04F86
:100D38008DB0002406940794089409940A940B949F
:100D4800664BDA6C42F01002DA64DA6C02F01002D8
:100D58000592059ADA6C42F00402DA64DA6C02F061
:100D680004020492049ADA6C42F08002DA64DA6CC3
:100D780002F080020392039ADA6C42F00102DA640C
:100D8800DA6C02F001020292029ADA6C42F0020274
:100D9800DA64DA6C02F002020192019ADA6C42F02B
:100DA8000802DA64DB6C03F008030093009BDFF8A9
:100DB80034914FF40053C9F818304FF44043C9F840
:100DC8002830DFF824814FF47B4BC8F828B0444F13
:100DD80041F20803BB62DFF814A18023CAF8283067
:100DE80040F2BF4306930326079606A9404602F041
:100DF80000FD40230693079401250A9506A940465D
:100E080002F0F7FC4FF460430693079508940994A1
:100E18000A9406A9484602F0ECFC41F60F430693F3
:100E280007960A9406A9484602F0E3FC48F20773BD
:100E3800069307960A9406A94FF0904002F0D9FC51
:100E48000423069307940A9506A9384602F0D1FCB4
:100E5800CDF818B00795089609940A9406A9404653
:100E680002F0C7FC4FF4805306930795089609943F
:100E78000A9406A9384602F0BCFC4EF2D033069319
:100E880007960A9406A9384602F0B3FC4FF67F731A
:100E9800069307960A9406A9504602F0AAFC8023F6
:100EA80006930795089409940A9406A9504602F0F7
:100EB800A0FC082306930795089409940A9406A9A8
:100EC800384602F096FC2023069307940A9406A954
:100ED800384602F08EFC0DB0BDE8F08F00100240DD
:100EE800000400480008004800100048000C0048B2
:100EF80008B50268034B9A4200D008BD00F05AFAC0
:100F0800FBE700BF002C014072B6FEE708B5344A83
:100F1800136823F0070343F004031360304B1B6886
:100F280003F00703042BF9D12E4A136823F4C06396
:100F380043F40073136000E033B12A4B5B6913F488
:100F48008063F9D00123F7E7274A136843F4803315
:100F5800136001E0012B06D0234B1B6813F4003308
:100F6800F8D00123F6E72049C868204A024042F435
:100F7800A05242F00302CA60CA6842F08072CA6096
:100F88000A6842F080720A6001E0012A06D0164A17
:100F9800126812F00072F8D01A46F6E7124A9368FF
:100FA80043F003039360104B9B6803F00C030C2B76
:100FB800F9D10D4B9A6822F0F0029A609A6822F4EF
:100FC800E0629A609A6822F460529A60084803F0D6
:100FD80087F90F2000F070F900B908BDFFF794FFFA
:100FE8000020024000700040001002408C80FFF991
:100FF80000B4C40408B51148114B0360114B436099
:10100800002383600122C260036143618361C3617D
:10101800036200F04AFD50B90021084800F056FF6D
:1010280038B90021054800F07FFF20B908BDFFF757
:101038006BFFFFF769FFFFF767FF00BFE0010020C4
:1010480000580040EC9C901000B58FB000230A9324
:101058000B930C930D9307930893099300930193B3
:10106800029303930493059306932B482B4A02603B
:10107800436083604FF47A62C260036180238361B6
:1010880002F07EF8002836D14FF480530A930AA95B
:10109800214802F0C5F980BB1F4802F0A1F870BBD7
:1010A80000230793099307A91B4802F039FA40BBAC
:1010B8006023009300220192029204926946164826
:1010C80002F004F9F8B904226946134802F0FEF860
:1010D800D8B908226946104802F0F8F8B8B90C22C5
:1010E80069460D4802F0F2F898B90B4800F0BAF8D2
:1010F8000FB05DF804FBFFF707FFFFF705FFFFF7E9
:1011080003FFFFF701FFFFF7FFFEFFF7FDFEFFF705
:10111800FBFEFFF7F9FE00BF940100200004004029
:1011280008B500F037F9FFF7F1FEFFF757FAFFF7B8
:10113800FDFDFFF7C9FDFFF775FA04F047F9FFF762
:1011480083FFFFF757FFFFF703FCFFF7E7F9FFF708
:1011580073F9FFF74DF8FAE782B00A4B1A6E42F0BE
:1011680001021A661A6E02F001020092009A9A6D44
:1011780042F080529A659B6D03F080530193019B66
:1011880002B070470010024010B588B000230393E6
:1011980004930593069307930268174B9A4201D06C
:1011A80008B010BD154CD4F8883023F44043C4F877
:1011B8008830E36C43F00203E364E36C03F002035A
:1011C8000193019B4FF4406303931223049300237C
:1011D8000593032306930423079303A9084800F003
:1011E8008DF9A36D43F48003A365A36D03F4800315
:1011F8000293029BD4E700BF005800400010024051
:101208000004004800B583B00368134A934205D030
:10121800124A93420DD003B05DF804FB104B9A6D4F
:1012280042F002029A659B6D03F002030093009B53
:10123800F1E70B4B9A6D42F004029A659B6D03F03F
:1012480004030193019B002211461E2000F03EF981
:101258001E2000F04BF9DEE70004004000080040C3
:101268000010024000B587B0002301930293039356
:101278000493059302680E4B9A4202D007B05DF8BA
:1012880004FB03F50333DA6C42F00402DA64DB6C26
:1012980003F004030093009B4FF47073019302233F
:1012A8000293059301A9034800F028F9E6E700BF77
:1012B800000400400008004830B589B004461E4BC1
:1012C8001A6E42F400621A661B6E03F400630193FF
:1012D800019B02A903A801F065FC01F051FC174A23
:1012E800A2FB00239B0C013B1548164A026040F202
:1012F800E732C2604360002303618360836101F0C9
:101308003FFF054610B1284609B030BD0C4801F032
:10131800CBFD05460028F6D1192000F0E7F80F2C80
:1013280001D90125EFE700222146192000F0CEF867
:10133800054B1C60E7E700BF0010024083DE1B433B
:1013480034020020002C014008000020FEE7FEE7E0
:10135800FEE7FEE7FEE770477047704770470000FA
:1013680008B5024801F0EBFD08BD00BF34020020BB
:1013780008B5024801F0CFF808BD00BF8419002065
:10138800034AD2F8883043F47003C2F888307047B3
:1013980000ED00E010B5032000F086F80F20FFF7FD
:1013A8008BFF10B10124204610BD0446FFF7D4FE80
:1013B800F9E70000034B1B78034A11680B441360DC
:1013C800704700BF0400002080020020014B18680D
:1013D800704700BF8002002038B50446FFF7F6FFCB
:1013E8000546B4F1FF3F02D0044B1B781C44FFF7BD
:1013F800EDFF401BA042FAD338BD00BF0400002017
:10140800002807DB00F01F02400901239340024A2D
:1014180042F82030704700BF00E100E000280CDBF4
:1014280000F01F024009012393402030034A42F88C
:101438002030BFF34F8FBFF36F8F704700E100E09C
:10144800002808DB0901C9B200F1604000F56140DD
:1014580080F80013704700F00F000901C9B2014B72
:101468001954704714ED00E000B500F00700C0F112
:10147800070CBCF1040F28BF4FF0040C031D062B0A
:101488000FD9C31E4FF0FF3E0EFA0CF021EA0001FF
:1014980099400EFA03FE22EA0E0241EA02005DF8C4
:1014A80004FB0023EEE70000074AD36823F4E06357
:1014B8001B041B0C000200F4E060034343F0BF630D
:1014C80043F40033D360704700ED00E010B50446E4
:1014D800054BD868C0F30220FFF7C6FF0146204637
:1014E800FFF7AEFF10BD00BF00ED00E008B5FFF745
:1014F80087FF08BD08B5FFF791FF08BDF0B583B0B9
:1015080000236BE085685E000324B44025EA0405E7
:10151800CC68B4402C438460456825EA0C054C68C7
:10152800C4F300149C402C43446069E0C56A25EA72
:101538000C05C4F3C0049C402C43C46266E0DD087B
:10154800083550F8254003F0070C4FEA8C0C4FF093
:101558000F0E0EFA0CFE24EA0E0E0C6904FA0CF4B7
:1015680044EA0E0440F8254067E0062400E0002421
:1015780004FA0EF42C430CF1020C5C4D45F82C4097
:101588005B4CA568D44325EA02064F6817F4801F10
:1015980001D042EA0506564DAE60ED6804EA05063C
:1015A8004F6817F4001F01D042EA0506504DEE605F
:1015B8006D6804EA05064F6817F4003F01D042EA57
:1015C80005064B4D6E602D682C404E6816F4803F22
:1015D80001D042EA0504464A146001330A6832FA27
:1015E80003F400F081804FF0010C0CFA03FC1CEAB4
:1015F8000202F2D04C6804F00304013C012C81D9AA
:101608004C6804F0030EBEF1030F8FD04C6804F051
:101618000304032C0CD0C4685D004FF0030C0CFAD3
:1016280005FC24EA0C0C8C68AC4044EA0C04C46049
:101638004C6804F00304022C81D004684FEA430E7E
:101648004FF0030C0CFA0EFC24EA0C0C4C6804F066
:10165800030404FA0EF444EA0C0404604C6814F41D
:10166800403FBAD0234C256E45F001052566246E0F
:1016780004F001040194019C4FEA930C0CF102055B
:101688001A4C54F8255003F0030E4FEA8E0E0F241F
:1016980004FA0EF425EA0405B0F1904F3FF467AF61
:1016A800154CA04216D004F58064A04214D004F56D
:1016B8008064A04212D004F58064A04210D004F5E2
:1016C8008064A0420ED004F58064A0423FF44DAF80
:1016D80007244DE701244BE7022449E7032447E7A1
:1016E800042445E7052443E703B0F0BD00000140AA
:1016F8000004014000100240000400480369194238
:1017080001D00120704700207047436901EA0302B5
:1017180021EA030141EA02418161704703689A693D
:1017280012F0020F01D000229A6203689A6912F03F
:10173800010F03D19A6942F001029A61704710B40F
:10174800019CC1F3090141EA02411943214321F0F7
:10175800004102685368640D04F4806444F07F74A7
:1017680044F4583444F47F7444F0030423EA040333
:101778000B4353605DF8044B70472DE9F041044674
:1017880003689E6916F010067CD00D46904610221C
:10179800DA61002637462368986910F0200F30D1A7
:1017A8007FBBB5F1FF3FF6D0FFF710FEA0EB0800B6
:1017B800A84201D8002DEED121684B6803F480437C
:1017C80094F84220D2B2886910F4004F02D00BB9C5
:1017D800202A0ED123689B6913F0200FDBD1FFF775
:1017E800F5FDA0EB08001928F4D946F020060127DA
:1017F800D1E74B6843F480434B60FFF7E7FD804631
:10180800E8E70FB92022DA6146F0040601252268CC
:10181800936913F4807F05D046F001064FF4807178
:10182800D161012513F4806F06D046F008062268BE
:101838004FF48061D161012513F4007F24D046F074
:10184800020623684FF40072DA6101252046FFF78B
:1018580065FF2268536823F0FF7323F48B3323F466
:10186800FF7323F001035360636C334363642023E5
:1018780084F84130002384F8423084F84030284608
:10188800BDE8F0810025C2E7002DF8D0DEE770B58D
:1018980004460D46164623689B6913F0020F22D1B1
:1018A800324629462046FFF768FFF0B9B5F1FF3FF9
:1018B800F1D0FFF78BFD801BA84201D8002DEAD19B
:1018C80023689B6913F0020FE5D1636C43F0200392
:1018D8006364202384F84130002384F8423084F87C
:1018E8004030012000E0002070BD0120FCE72DE918
:1018F800F04105460F46164698462C68A46937EA13
:1019080004040CBF01240024B44222D1B8F1FF3FE3
:10191800F3D0FFF75BFD069BC01A404502D8B8F12B
:10192800000FEAD12B689B6937EA03030CBF012338
:101938000023B342E1D16B6C43F020036B64202396
:1019480085F84130002385F8423085F84030012081
:1019580000E00020BDE8F0812DE9F04182B00446A6
:1019680090461D46089E099F194B00934FF08073BF
:10197800EAB2FFF7E4FE3A4631462046FFF787FF12
:10198800F8B9012D0ED123685FFA88F29A620097A0
:101998003346002280212046FFF7A9FFA8B902B0EC
:1019A800BDE8F08123684FEA18229A623A46314628
:1019B8002046FFF76CFF30B923685FFA88F29A6215
:1019C800E5E70120EBE70120E9E70120E7E700BFB1
:1019D800002000802DE9F04182B0044690461D4663
:1019E800089E099F184B00930023EAB2FFF7A7FE51
:1019F8003A4631462046FFF74AFFF8B9012D0ED185
:101A080023685FFA88F29A620097334600224021E1
:101A18002046FFF76CFFA8B902B0BDE8F081236843
:101A28004FEA18229A623A4631462046FFF72FFFBE
:101A380030B923685FFA88F29A62E5E70120EBE79C
:101A48000120E9E70120E7E70020008070B504469F
:101A58000D46164604E023689B6913F0200F12D048
:101A680023689B6913F0200F1BD132462946204674
:101A7800FFF783FEB8B9FFF7A9FC801BA842EAD894
:101A8800002DEDD1E7E7636C43F020036364202366
:101A980084F84130002384F8423084F84030012033
:101AA80000E0002070BD0120FCE700285FD010B5E1
:101AB800044690F84130002B48D0242384F8413064
:101AC8002268136823F0010313606368226823F017
:101AD800706313612268936823F400439360E3689A
:101AE800012B38D0A368226843F404439360E36869
:101AF800022B36D02268536823F4006353602268AF
:101B0800536843F0007343F4004353602268D3687A
:101B180023F40043D360236962691343A1692268EF
:101B280043EA0123D360E369216A22680B43136007
:101B38002268136843F001031360002060642023C7
:101B480084F84130206384F8420010BD80F84030AA
:101B5800FFF71AFBB1E7A368226843F400439360D8
:101B6800C5E72268536843F400635360C7E7012060
:101B780070472DE9F04F83B00E46BDF834A00E9D96
:101B880090F84110C9B2202940F0BB800446904625
:101B980099460C9BCBB1BAF1000F16D090F84030A3
:101BA800012B00F0B2804FF0010B80F840B0FFF736
:101BB8000DFC0746009019235A464FF40041204671
:101BC800FFF795FE30B101209CE04FF40073636489
:101BD800012097E0212384F84130402384F84230E3
:101BE800002363640C9A6262A4F82AA063630197D5
:101BF80000954B46424631462046FFF7ADFE70B988
:101C0800638D9BB2FF2B0FD9FF22228500230093FF
:101C18004FF0807331462046FFF791FD21E0002305
:101C280084F8403058466DE0628D92B222850023D8
:101C380000934FF00073D2B231462046FFF77FFD84
:101C48000FE0628D92B22285002300934FF000735B
:101C5800D2B231462046FFF772FD638D9BB2002B4E
:101C680033D03A4629462046FFF711FE00284ED1C8
:101C7800626A236812789A62636A01336362638DC9
:101C88009BB2013B9BB26385238D013B9BB22385AD
:101C9800628D92B2002AE0D0002BDED100972B464D
:101CA800002280212046FFF722FE90BB638D9BB265
:101CB800FF2BC6D9FF222285002300934FF08073A3
:101CC80031462046FFF73BFDC7E73A4629462046FE
:101CD800FFF7BCFEF8B923682022DA6121684B6857
:101CE80023F0FF7323F48B3323F4FF7323F00103F2
:101CF8004B6084F84120002384F8423084F8403057
:101D080000E0022003B0BDE8F08F0220FAE70120CE
:101D1800F8E70120F6E70120F4E700002DE9F04F8D
:101D280083B00E46BDF834A00E9D90F84110C9B29C
:101D3800202940F0BC800446904699460C9BCBB1C4
:101D4800BAF1000F16D090F84030012B00F0B380A4
:101D58004FF0010B80F840B0FFF738FB07460090C2
:101D680019235A464FF400412046FFF7C0FD30B111
:101D780001209DE04FF400736364012098E0222362
:101D880084F84130402384F84230002363640C9A7D
:101D98006262A4F82AA06363019700954B46424605
:101DA80031462046FFF716FE70B9638D9BB2FF2BB4
:101DB8000FD9FF222285444B00934FF080733146A0
:101DC8002046FFF7BCFC21E0002384F84030584649
:101DD8006EE0628D92B222853B4B00934FF0007308
:101DE800D2B231462046FFF7AAFC0FE0628D92B2CC
:101DF8002285002300934FF00073D2B2314620466B
:101E0800FFF79DFC638D9BB2002B34D000972B46C7
:101E1800002204212046FFF76AFD00284DD12368DF
:101E28005A6A636A1A70636A01336362228D013ADF
:101E380092B22285638D9BB2013B9BB26385638D11
:101E48009BB2002BDED0002ADCD100972B468021E4
:101E58002046FFF74CFD90BB638D9BB2FF2BC5D985
:101E6800FF222285002300934FF0807331462046DD
:101E7800FFF765FCC6E73A4629462046FFF7E6FD28
:101E8800F8B923682022DA6121684B6823F0FF73D0
:101E980023F48B3323F4FF7323F001034B6084F89E
:101EA8004120002384F8423084F8403000E00220CA
:101EB80003B0BDE8F08F0220FAE70120F8E701201F
:101EC800F6E70120F4E700BF00240080034690F8FD
:101ED8004120D2B2202A23D190F84020012A21D0D3
:101EE800012280F84020242280F8412000680268FE
:101EF80022F0010202601868026822F4805202602F
:101F0800186802681143016019680A6842F0010202
:101F18000A60202283F84120002083F8400070479F
:101F28000220704702207047034690F84120D2B241
:101F3800202A21D190F84020012A1FD0012280F8C0
:101F48004020242280F841200068026822F0010223
:101F580002601868026822F4706242EA0122026094
:101F680019680A6842F001020A60202283F84120B9
:101F7800002083F840007047022070470220704715
:101F88002DE9F843076801EBC10300EB83031A6DE1
:101F9800DB6C9A4254D880460C469B1A01EBC1026E
:101FA80000EB8202526C9A4200D31A4602F10309EE
:101FB8004FEA990913E006F103094FEA990904EB7E
:101FC800C40508EB8505B3B2E2B2A96C384601F046
:101FD80048FFAB6C3344AB642B6D33442B6507EB84
:101FE800441303F510639B699BB24B4512D304EB72
:101FF800C40308EB83031A6DDB6C9A420AD24BB117
:102008009B1A04EBC40208EB8202566C9E42D2D3A0
:102018001E46D0E704EBC40308EB8308D8F84C202D
:10202800D8F850309A420ED804F00F040122A2408A
:10203800D7F8343823EA0203C7F83438002000E020
:102048000120BDE8F8830020FBE770B58AB00028BE
:1020580000F097800546046890F8BD343BB303232D
:1020680085F8BD34E36B13F4807F01D10023EB6066
:10207800286801F0BFFC2C4654F8106BEC460FCCD6
:10208800ACE80F000FCCACE80F0094E803008CE834
:1020980003002B1D0ECB304601F018FC044658B146
:1020A800022385F8BD34012420460AB070BD80F8AB
:1020B800BC3403F097FAD2E70021286802F0ADF8A3
:1020C800234616E003EBC30205EB8202012182F8E6
:1020D8003D1082F83C30A2F85630002182F84010BA
:1020E8005164916403EBC30205EB8202D1640133AE
:1020F800DBB269688B42E5D316E004EBC40305EB59
:102108008303002283F87D2283F87C4283F88022AF
:10211800C3F88422C3F8882204EBC40305EB8303C5
:10212800C3F88C220134E4B2A142E6D82C4654F814
:10213800106BEC460FCCACE80F000FCCACE80F00EE
:1021480094E803008CE803002B1D0ECB304601F009
:10215800ADFC044660B9002385F83830012385F8C2
:10216800BD346B6A012B08D0286802F015F89BE78C
:10217800022385F8BD34012496E7284600F0DEFCEA
:10218800F2E7012490E7026890F8BC34012B16D0DE
:1021980010B50446012380F8BC34836A012B09D0AA
:1021A800206801F021FC206801F0E8FF002084F895
:1021B800BC0410BD936B43F480339363F0E70220B3
:1021C8007047000038B503681C6C03EB411303F536
:1021D80030639D680B4A94420FD115F4004F03D029
:1021E8004FF400429A600BE015F0200F01D0202236
:1021F8009A60C9B203F056FA02E0C9B203F052FA83
:10220800002038BD0A31544F10B503681C6C03EB2D
:102218004113D3F8081B074A944207D903F53063E2
:1022280011F4004F02D04FF400429A6003F032FAE2
:10223800002010BD0A30544F90F8BC34012B0DD04B
:1022480010B50446012380F8BC3480F838100068C3
:1022580001F084FF002084F8BC0410BD0220704700
:1022680038B505468C4611F0800F29D101F00F0EC4
:102278000EEBCE04A40004F51E740444211D0EEBDD
:10228800CE0E00EB8E0E00208EF87D020CF00F0CA7
:1022980081F800C08A600B714A780AB1A1F81AC0A7
:1022A800022B1DD095F8BC34012B1CD0012385F8D6
:1022B800BC34286801F0B8FC002085F8BC0438BD9F
:1022C80001F00F0000EBC0018900383129440431C6
:1022D80000EBC00005EB8000012480F83D40D5E705
:1022E80000234B71DEE70220E9E710B504460A46F1
:1022F80011F0800F20D101F00F0000EBC0039B000C
:1023080003F51E732344191D00EBC00004EB800085
:10231800002380F87D3202F00F020A7094F8BC3472
:10232800012B19D0012384F8BC34206801F0CAFCC1
:10233800002084F8BC0410BD01F00F0000EBC003BE
:102348009B0038332344191D00EBC00004EB8000C8
:10235800012380F83D30DEE70220ECE710B501F0FC
:102368000F0C0CEBCC01890001F51E7101440CEB3C
:10237800CC0E00EB8E0ECEF88822CEF88C320024DC
:10238800CEF890428EF87D428EF87CC20431006807
:1023980001F07CFD204610BD01F00F0101EBC101E9
:1023A80000EB8100D0F89002704710B501F00F0CD7
:1023B8000CEBCC018900383101440CEBCC0E00EB5E
:1023C8008E0ECEF84820CEF84C300024CEF850407F
:1023D80001238EF83D308EF83CC00431006801F0CE
:1023E80055FD204610BD38B501F00F0542689542ED
:1023F80038D804460B4611F0800F1FD101EBC101FC
:10240800890001F51E710144043103EBC30300EB9D
:102418008303002283F87D2201238B700D7094F8CA
:10242800BC34012B20D0012384F8BC34206801F08F
:102438003AFE8DB1002084F8BC0438BD05EBC50117
:10244800890038310144043105EBC50300EB8303EF
:10245800012283F83D20DFE704F2C441206801F03F
:102468001DFFE7E70120E8E70220E6E701F00F0398
:102478004268934231D810B5044611F0800F1ED13E
:1024880003EBC301890001F51E710144043103EB1C
:10249800C30200EB8202002082F87D0200228A70CB
:1024A8000B7094F8BC34012B19D0012384F8BC3488
:1024B800206801F025FE002084F8BC0410BD03EB61
:1024C800C301890038310144043103EBC30200EB36
:1024D8008202012082F83D00E0E7012070470220D7
:1024E800ECE708B511F0800F0CD101F00F0101EBFA
:1024F800C101890001F51E7101440431006801F031
:1025080051FC08BD01F00F0101EBC1018900383110
:1025180001440431F2E72DE9F04F83B00446056821
:10252800284601F076FE10B103B0BDE8F08F0646EC
:10253800206801F03FFE0028F6D005F50067BB686B
:10254800C3F30D23C4F8FC34206801F033FE10F007
:10255800020F04D02268536903F002035361206814
:1025680001F028FE10F0100F14D02268936923F0B0
:1025780010039361D5F8208008F00F09C8F343438E
:10258800022B69D0062B00F08D802268936943F0F6
:1025980010039361206801F00DFE10F4002F40F045
:1025A8009380206801F006FE10F4802F40F0FC8034
:1025B800206801F0FFFD0028C0F26581206801F065
:1025C800F9FD10F4006F09D0BB6813F0010F40F05B
:1025D80072812268536903F400635361206801F033
:1025E800E9FD10F0006F15D02268536903F000630D
:1025F800536194F8F434002B40F06181012184F890
:10260800F41423685B6DC3F38303C4F8F8342046DD
:1026180003F08EF9206801F0CDFD10F4805F40F0E2
:102628005281206801F0C6FD10F4005F40F09E81E1
:10263800206801F0BFFD10F0080F40F0AF8120685E
:1026480001F0B8FD10F0800F00F0C281AB6923F0F3
:102658008003AB610126ABE147F6F07318EA030F7C
:1026680093D04FEA181A4FEAC903019309EBC90B33
:1026780004EB8B0BC8F30A12DBF88812284601F02A
:10268800EFFCDBF88832CAF30A0A5344CBF88832E5
:10269800DBF89032019A4A4404EB82025344C2F8B0
:1026A800903272E7082204F2C441284601F0D8FCAF
:1026B80009EBC90304EB8303D3F89022C8F30A1883
:1026C8004244C3F8902260E7206801F077FD804615
:1026D800B14635E005EB49130122C3F8082B4946FA
:1026E8002046FFF76FFD3CE005EB49130822C3F8CD
:1026F800082B49462046FFF787FD35E009EBC9035B
:1027080004EB830393F87F32012B41D005EB491387
:102718000222C3F8082B1AF0200F04D005EB491346
:102728002022C3F8082B1AF4005F05D005EB4913E3
:102738004FF40052C3F8082B09F101094FEA580871
:10274800B8F1000F3FF42DAF18F0010FF4D05FFA85
:1027580089FB5946206801F041FD824610F0010FBF
:10276800B8D11AF0080FBFD11AF0100F04D005EB3A
:1027780049131022C3F8082B1AF0020FCBD06B694B
:1027880013F0800FBAD07B6843F480637B60B5E7B1
:1027980009EBC90304EB8303002283F87F2259461F
:1027A800204602F0E1FFB1E7206801F00FFD804606
:1027B800B1461BE009F00F02012101FA02F27B6B1E
:1027C80023EA02037B6305EB4913C3F8081959464A
:1027D800204602F073FF1AE01AF0020F30D11AF007
:1027E800800F4BD109F101094FEA5808B8F1000FE1
:1027F8003FF4DEAE18F0010FF4D05FFA89FB5946BA
:10280800206801F0F4FC824610F0010FD2D11AF0D2
:10281800080F04D005EB49130822C3F808291AF059
:10282800100F04D005EB49131022C3F808291AF039
:10283800400FD1D005EB49134022C3F80829CBE754
:102848004946284601F0DCF809EBC90304EB830389
:1028580093F83F30012B05D005EB49130222C3F84A
:102868000829BCE709EBC90304EB8303002283F8BA
:102878003F205946204602F07DFFEDE749462046B5
:10288800FFF77EFBAEE77B6823F001037B6094F8DB
:10289800F434012B08D0204602F04CFF226853691B
:1028A80003F00043536189E6002184F8F4142046BC
:1028B80003F03EF8F2E7204602F024FF89E62046BE
:1028C80002F020FFA6E67B6823F001037B6010215D
:1028D800206801F095F81AE005EB46134FF67F31B2
:1028E800C3F80819D3F8002922F40012C3F8002904
:1028F800C3F8081BD3F8002B22F40012C3F8002BEE
:10290800D3F8002B42F00062C3F8002B013663684D
:10291800B342E1D8FB6943F00113FB61236BD3B1E8
:10292800D7F8843043F00B03C7F884307B6C43F04E
:102938000B037B64D5F8003823F4FE63C5F8003830
:1029480004F2C441206801F0A9FC2268536903F429
:102958008053536165E67B6943F4005343F02B03CE
:102968007B613B6943F00B033B61E3E7206801F0BF
:1029780085FC206801F04AF92061266800F0FAF821
:102988000146227C304600F0BDFF204602F0A7FE3B
:102998002268536903F40053536149E6204602F064
:1029A80098FE2268536903F00803536147E601362D
:1029B8006368B3420CD906EBC60304EB830393F8B0
:1029C8007F32012BF3D1F1B22046FFF78AFDEEE703
:1029D800206801F0EFFB10F4801F27D1206801F078
:1029E800E9FB10F4001F5BD0012328E0013663687F
:1029F800B3421DD905EB4613D3F8002906EBC603ED
:102A080004EB830393F84030012BEFD1002AEDDA71
:102A180006EBC60304EB8303012283F83F2066F02C
:102A28007F01C9B22046FFF75CFDDFE70126DEE73C
:102A38002268536903F480135361CFE70133626856
:102A48009A4228D905EB4312D2F8001B03EBC302C4
:102A580004EB820292F88022012AEFD10029EDDAF4
:102A680001F48031D4F8FC2402F001029142E5D14E
:102A780003EBC30204EB8202012182F87F12AA69E8
:102A880042F08002AA616A6912F0800FD6D17B6891
:102A980043F400737B602268536903F400135361A5
:102AA800206801F087FB10F0804F10D1206801F0FA
:102AB80081FB10F0040F3FF437AD23685D6815F013
:102AC800040F0DD1226853682B4353602CE5204630
:102AD80002F056FE2268536903F080435361E5E72C
:102AE800204602F053FEEDE710B40468606A31B97D
:102AF80040EA0240A06200205DF8044B70478C4613
:102B0800A36A00EB1340002308E003F1400104EB43
:102B18008101496800EB11400133DBB20CF1FF3150
:102B28008B42F2D340EA02400CF13F0104EB8104EE
:102B38006060E0E703685962002070470346026856
:102B48000121C0F80015002083F8F404936943F0CC
:102B580000639361536D43F0805343F0030353655F
:102B680070470000024A536843F48063536070471B
:102B780000700040014B1868704700BF000000203B
:102B880008B5FFF7F7FF054B9B68C3F3C223044A58
:102B9800D35C03F01F03D84008BD00BF00100240FB
:102BA8007C5A00080F2303600B4B9A6802F003025B
:102BB80042609A6802F0F00282609A6802F4E06269
:102BC800C2609B68DB0803F4E0630361034B1B6886
:102BD80003F007030B60704700100240002002401A
:102BE80030B4026A036A23F001030362446883690C
:102BF80023F4803323F073030D681D4322F002028F
:102C08008B6813431C4A90420FD002F50062904231
:102C18000BD002F54062904207D002F580629042E4
:102C280003D002F58062904205D123F00803CA68F8
:102C38001A4322F00403104A90420FD002F50062B2
:102C480090420BD002F54062904207D002F58062B4
:102C5800904203D002F58062904205D124F440747A
:102C68004A6922438C691443446085614A68426317
:102C7800036230BC704700BF002C014030B4036AC7
:102C8800026A22F4807202624468C26922F48032C5
:102C980022F073020D68154323F400738A6843EA2F
:102CA8000223184A904203D002F50062904206D1EE
:102CB80023F40063CA6843EA022323F48063114AB9
:102CC80090420FD002F5006290420BD002F54062AC
:102CD800904207D002F58062904203D002F58062EC
:102CE800904207D124F440524C6942EA04128C699C
:102CF80042EA04144460C5614A68C263036230BC96
:102D0800704700BF002C014030B4036A026A22F405
:102D1800805202624468C26922F0807222F4E6425C
:102D28000D6842EA052223F400538D6843EA05330F
:102D38000F4DA8420FD005F50065A8420BD005F548
:102D48004065A84207D005F58065A84203D005F57F
:102D58008065A84204D124F480444D6944EA85146E
:102D68004460C2614A680264036230BC704700BFB5
:102D7800002C014030B4036A026A22F480320262F5
:102D88004468426D22F4803222F070020D681543C7
:102D980023F400338A6843EA02430F4A90420FD073
:102DA80002F5006290420BD002F54062904207D0D3
:102DB80002F58062904203D002F58062904204D10D
:102DC80024F480344A6944EA0224446045654A6828
:102DD8008265036230BC7047002C014030B4036A3E
:102DE800026A22F4801202624468426D22F0807204
:102DF80022F4E0420D6842EA052223F400138D68AC
:102E080043EA05530F4DA8420FD005F50065A842C7
:102E18000BD005F54065A84207D005F58065A842A6
:102E280003D005F58065A84204D124F480244D69B7
:102E380044EA8524446042654A68C265036230BC3E
:102E4800704700BF002C014010B4036A046A24F0E4
:102E580001040462846924F0F00C4CEA021223F0A5
:102E68000A030B43826103625DF8044B704710B498
:102E7800036A046A24F010040462846924F4704C20
:102E88004CEA023223F0A00343EA01138261036291
:102E98005DF8044B7047836823F070030B4343F0DD
:102EA800070383607047000090F83D30DBB2012BC8
:102EB80036D1022380F83D300268D36843F001031D
:102EC800D3600368194A93421CD0B3F1804F19D0DC
:102ED800A2F59432934215D002F58062934211D044
:102EE80002F5806293420DD002F59432934209D0E4
:102EF80002F54062934205D01A6842F001021A6056
:102F08000020704799680A4A0A40062A0AD0B2F592
:102F1800803F09D01A6842F001021A600020704709
:102F2800012070470020704700207047002C0140A6
:102F3800070001007047704770477047704770B5C9
:102F480004460368DE681D6915F0020F10D016F0FC
:102F5800020F0DD06FF002021A6101230377036894
:102F68009B6913F0030F64D0FFF7E6FF0023237774
:102F780015F0040F12D016F0040F0FD023686FF06D
:102F880004021A610223237723689B6913F4407FA4
:102F980055D02046FFF7D0FF0023237715F0080F00
:102FA80012D016F0080F0FD023686FF008021A61CC
:102FB800042323772368DB6913F0030F46D02046E8
:102FC800FFF7BAFF0023237715F0100F12D016F081
:102FD800100F0FD023686FF010021A6108232377AF
:102FE8002368DB6913F4407F37D02046FFF7A4FF3E
:102FF8000023237715F0010F02D016F0010F33D10B
:1030080015F0800F02D016F0800F35D115F4807FAF
:1030180002D016F0800F37D115F0400F02D016F00D
:10302800400F39D115F0200F02D016F0200F3BD1F8
:1030380070BDFFF780FF2046FFF77FFF96E7204629
:10304800FFF779FF2046FFF778FFA5E72046FFF74F
:1030580072FF2046FFF771FFB4E72046FFF76BFFCA
:103068002046FFF76AFFC3E723686FF001021A6181
:103078002046FDF73DFFC3E723686FF080021A6121
:10308800204600F09AFAC1E723686FF480721A614B
:10309800204600F093FABFE723686FF040021A61F8
:1030A8002046FFF74BFFBDE723686FF020021A6147
:1030B800204600F081FABBE70368304A904212D0FC
:1030C800B0F1804F0FD0A2F5943290420BD002F5A8
:1030D8008062904207D002F58062904203D002F5E8
:1030E8009432904203D123F070034A681343234A71
:1030F80090421ED0B0F1804F1BD0A2F5943290427E
:1031080017D002F58062904213D002F58062904297
:103118000FD002F5943290420BD002F540629042F3
:1031280007D002F58062904203D002F58062904297
:1031380003D123F44073CA68134323F080034A6918
:10314800134303608B68C3620B6883620B4B98421E
:103158000FD003F5006398420BD003F54063984203
:1031680007D003F58063984203D003F58063984243
:1031780001D10B690363012343617047002C0140AF
:1031880060B310B5044690F83D3013B3022384F8B9
:103198003D30214651F8040BFFF78EFF012384F8D8
:1031A800483084F83E3084F83F3084F8403084F862
:1031B800413084F8423084F8433084F8443084F84D
:1031C800453084F8463084F8473084F83D30002094
:1031D80010BD80F83C30FEF715F8D7E7012070479E
:1031E80060B310B5044690F83D3013B3022384F859
:1031F8003D30214651F8040BFFF75EFF012384F8A8
:10320800483084F83E3084F83F3084F8403084F801
:10321800413084F8423084F8433084F8443084F8EC
:10322800453084F8463084F8473084F83D30002033
:1032380010BD80F83C30FFF77DFED7E701207047CE
:1032480030B4036A026A22F010020262446882699A
:1032580022F0807222F4E6420D6842EA052223F049
:1032680020038D6843EA0513174DA84203D005F5DE
:103278000065A84206D123F08003CD6843EA051310
:1032880023F04003104DA8420FD005F50065A84271
:103298000BD005F54065A84207D005F58065A84222
:1032A80003D005F58065A84207D124F4406C4C6929
:1032B8004CEA840C8C694CEA8404446082614A6854
:1032C8008263036230BC7047002C014038B590F827
:1032D8003C30012B00F0958004460D46012380F810
:1032E8003C30142A00F28880DFE802F00B868686DC
:1032F8001F86868634868686488686865D86868686
:1033080071000068FFF76CFC2268936943F00803BA
:1033180093612268936923F0040393612268936997
:1033280029690B439361002067E00068FFF788FF75
:103338002268936943F4006393612268936923F4D4
:103348008063936122689369296943EA0123936141
:10335800002052E00068FFF791FC2268D36943F02F
:103368000803D3612268D36923F00403D361226878
:10337800D36929690B43D36100203EE00068FFF759
:10338800C3FC2268D36943F40063D3612268D3691C
:1033980023F48063D3612268D369296943EA01234E
:1033A800D361002029E00068FFF7E4FC2268536D30
:1033B80043F0080353652268536D23F004035365F3
:1033C8002268536D29690B435365002015E0006896
:1033D800FFF704FD2268536D43F4006353652268C8
:1033E800536D23F4806353652268536D296943EA5A
:1033F80001235365002000E00120002384F83C30BD
:1034080038BD0220FCE710B4846824F47F4C42EAFB
:1034180003220A4342EA0C0282605DF8044B7047BB
:1034280090F83C30012B76D010B50446012380F883
:103438003C30022380F83D3002689068374B0340E7
:1034480093600B68602B4CD029D8402B54D00CD9F2
:10345800502B22D1CA6849682068FFF7F5FC502133
:103468002068FFF718FD002005E0202B0DD009D9B2
:10347800302B0AD00120012384F83D30002384F842
:103488003C3010BD0BB1102B05D119462068FFF751
:1034980002FD0020EFE70120EDE70120EBE7B3F59F
:1034A800805F34D0B3F5005F0CD1CB684A68896877
:1034B8002068FFF7A8FF2268936843F4804393606D
:1034C8000020D8E7702B24D1CB684A688968206827
:1034D800FFF799FF2268936843F077039360002011
:1034E800C9E7CA6849682068FFF7C1FC60212068FD
:1034F800FFF7D1FC0020BEE7CA6849682068FFF7DB
:10350800A3FC40212068FFF7C6FC0020B3E7002099
:10351800B1E70120AFE70220704700BF8800FEFF37
:1035280090F83C20012A42D030B40346012280F8AA
:103538003C20022280F83D200068426884681D4DC6
:10354800A84203D005F50065A84203D122F4700211
:103558004D682A4322F070020D682A4342601A68B7
:103568001448824216D0B2F1804F13D0A0F594309F
:1035780082420FD000F5806082420BD000F5806057
:10358800824207D000F59430824203D000F54060B3
:10359800824204D124F08004896821439160012289
:1035A80083F83D20002083F83C0030BC704702209F
:1035B800704700BF002C01407047704770470000FB
:1035C80010B44C68174B9A6812F0010200D001221F
:1035D800154B9B6813F0010300D001231343134AD2
:1035E800926812F0010200D00122134315D164B190
:1035F80082680F4B13400A6814438A681443CA68E8
:10360800144323438360002008E08268084B13407A
:103618000A6813438360002000E001205DF8044B32
:10362800704700BF0000045000010450000204501D
:10363800E030C0FF836813F0010F10D110B4C368E5
:1036480023F4804323F038030A684C6822438968CE
:103658000A431343C36000205DF8044B7047012000
:10366800704700004A68836813F0010F26D110B430
:10367800BAB1C368124A1A400B688C682343CC68F5
:1036880023430C6923434C6923431A43C2604B68A4
:10369800026B22F00F021343036300205DF8044B12
:1036A8007047C368064A1A400B68CC6823430C6904
:1036B80023434C6923431A43C260E8E7012070475B
:1036C8003CC0F0FF10B4046891FAA1F3A3B1B3FAB7
:1036D80083F35B004FF0030C0CFA03F324EA0303B3
:1036E80091FAA1F151B1B1FA81F149008A4013432D
:1036F80003605DF8044B70472023EAE72021F4E7D4
:1037080010B4846891FAA1F3A3B1B3FA83F35B0010
:103718004FF0030C0CFA03F324EA030391FAA1F126
:1037280051B1B1FA81F149008A40134383605DF8D1
:10373800044B70472023EAE72021F4E710B4C4685B
:1037480091FAA1F3A3B1B3FA83F35B004FF0030C32
:103758000CFA03F324EA030391FAA1F151B1B1FA87
:1037680081F149008A401343C3605DF8044B7047F8
:103778002023EAE72021F4E710B4046A91FAA1F3C0
:10378800A3B1B3FA83F39B004FF00F0C0CFA03F3C9
:1037980024EA030391FAA1F151B1B1FA81F1890048
:1037A8008A40134303625DF8044B70472023EAE71D
:1037B8002021F4E710B4446A090A91FAA1F3A3B1ED
:1037C800B3FA83F39B004FF00F0C0CFA03F324EACF
:1037D800030491FAA1F151B1B1FA81F189008A404B
:1037E800144344625DF8044B70472023EAE7202124
:1037F800F4E7F8B507460E460D6895FAA5F515B134
:10380800B5FA85F51BE0202519E0B268214638464F
:10381800FFF776FF3268F1687B6823EA020301FB51
:1038280002F213437B6016E0726921463846FFF7BF
:10383800C1FF726821463846FFF744FF01353468F6
:1038480034FA05F217D00122AA401440F6D0736862
:10385800013B012BD9D9326921463846FFF76EFF63
:103868007368022BE5D1FF2CDED8726921463846F1
:10387800FFF782FFDDE70020F8BD000082B00023DB
:103888000193019B01330193019A0F4B9A4215D87A
:103898000369002BF5DA00230193036943F0010360
:1038A8000361019B01330193019A074B9A4208D89F
:1038B800036913F0010FF4D1002000E0032002B0E7
:1038C80070470320FBE700BF400D030084B010B52C
:1038D80004460DF10C0C8CE80E00C36843F040035D
:1038E800C360FFF7CBFF0C9B3BB9A36B43F480335A
:1038F800A363BDE8104004B07047A36B23F4803382
:10390800A363F6E7022A0AD00922C36823F4705396
:10391800C360C36843EA8223C36000207047234B17
:103928000B44234A93422FD9224B0B44224A9342F9
:103938002CD9A1F57403A3F51053204A934227D933
:10394800A1F18373A3F5E7431D4A934222D31D4B8C
:103958000B441D4A93421FD91C4B0B441C4A9342EB
:103968001CD31C4B0B441C4A934219D3A1F1B773C7
:10397800A3F55853194A934214D3194B0B44194AC7
:10398800934211D20722C0E70F22BEE70E22BCE7FE
:103998000D22BAE70C22B8E70B22B6E70A22B4E7F1
:1039A8000922B2E70822B0E70622AEE7405327FF14
:1039B800FF340C00401E1BFF3F420F007F4F1200D8
:1039C80020D6130060B6E5FE5FE3160000D3CEFEF6
:1039D80040771B00C05BB3FEC09121002075380002
:1039E800E05459FEE09C4100836843F00103836082
:1039F80000207047836823F001038360002070472C
:103A080082B000230193019B01330193019A0F4B6C
:103A18009A4215D80369002BF5DA0023019389012E
:103A280041F020010161019B01330193019A074B89
:103A38009A4208D8036913F0200FF4D1002000E05F
:103A4800032002B070470320FBE700BF400D0300CE
:103A580082B000230193019B01330193019A0E4B1D
:103A68009A4213D80369002BF5DA00230193102337
:103A78000361019B01330193019A074B9A4208D8CD
:103A8800036913F0100FF4D1002000E0032002B006
:103A980070470320FBE700BF400D0300D0F8003853
:103AA8001943C0F8001800207047000084B0F8B52A
:103AB800044607A880E80E00002306E003F1400250
:103AC80004EB82020021516001330E2BF6D9119EBE
:103AD80076BBD4F8043843F00203C4F80438A36B67
:103AE80023F40013A363236843F04003236023688F
:103AF80043F0800323600023C4F8003E03212046DE
:103B0800FFF7CCFF10212046FFF77AFF054600B1EA
:103B180001252046FFF79CFF00B1012504F5006C44
:103B28000023CCF81030CCF81430CCF81C300FE05F
:103B3800A36B43F40013A363DDE7C3B94FF0006040
:103B4800C2F8000900220A614FF67F328A60013309
:103B58000799994210D904EB431202F51061D2F883
:103B680000090028E9DB0020C2F80009EAE74FF065
:103B78009040C2F80009E5E700230AE0BBB14FF026
:103B88009047C2F8007B002202614FF67F328260C4
:103B98000133994210D904EB431202F53060D2F890
:103BA800007B002FEADB0027C2F8007BEBE74FF031
:103BB8000067C2F8007BE6E7DCF8103023F4807376
:103BC800CCF810300023A3616FF080436361A369D0
:103BD80043F01003A361A2690B4B1343A3610D9B30
:103BE8001BB1A36943F00803A361012E04D0284642
:103BF800BDE8F84004B07047A36943F0804343F040
:103C08000403A361F3E700BF00383C80D0F808380C
:103C180003F00603022B05D0062B01D00F207047B6
:103C2800022070470220704710B591F800C04B7809
:103C3800012B23D000F5006ED0F81C380CF00F04CF
:103C48000122A24043EA0243C0F81C3800EB4C10A2
:103C5800D0F8003B13F4004F0ED1D0F8003B8A682F
:103C6800C2F30A02097942EA8142134343F08053BE
:103C780043F40043C0F8003B002010BDD0F81C28D6
:103C88000CF00F0E03FA0EF39BB21343C0F81C3866
:103C980000EB4C10D0F8003913F4004FECD1D0F8F9
:103CA80000398A68C2F30A02097942EA814242EA83
:103CB8008C52134343F0805343F40043C0F8003957
:103CC800DAE7000030B40B784A78012A26D000EBF6
:103CD8004313D3F8002B002A52DBD0F83C480A786B
:103CE80002F00F024FF0010C0CFA02F224EA024231
:103CF800C0F83C28D0F81C28097801F00F010CFA0C
:103D080001FC22EA0C42C0F81C28D3F8001B234A05
:103D18000A40C3F8002B002030BC704700EB431367
:103D2800D3F80029002A1EDBD0F83C580A7802F0A4
:103D38000F02012404FA02F292B225EA0202C0F844
:103D48003C28D0F81C28097801F00F018C40A4B257
:103D580022EA0402C0F81C28D3F80019104A0A40C5
:103D6800C3F80029D7E7D3F8002942F00062C3F866
:103D78000029D3F8002942F08042C3F80029D3E78C
:103D8800D3F8002B42F00062C3F8002BD3F8002BC5
:103D980042F08042C3F8002B9FE700BF0078F3EFA2
:103DA800007833EC10B483B00246002301934878BE
:103DB80001280BD00B7802EB4313D3F8000B002833
:103DC8002DDB002003B05DF8044B70470B7802EB45
:103DD8004313D3F80049002C01DB0020F2E7D3F8A5
:103DE800004944F00064C3F800490B7802EB431320
:103DF800D3F8004944F08044C3F80049019B0133DB
:103E08000193019C42F210739C42DBD80B7802EBC1
:103E18004313D3F80039002BF0DB0020D2E7D3F8A6
:103E2800000B40F00060C3F8000B0B7802EB431363
:103E3800D3F8000B40F08040C3F8000B019B01331E
:103E48000193019842F21073984208D80B7802EB5C
:103E58004313D3F8003B002BF0DB0020B2E701202E
:103E6800B0E710B5DC1CA4084FF0000E09E000EB29
:103E7800023C0CF5805C51F8043BCCF800300EF1A4
:103E8800010EA645F3D3002010BD000070B50A78D6
:103E98004B78012B2BD000EB421C0CF530631C69CE
:103EA800E40CE4041C611C6924F0FF5424F4C014DD
:103EB8001C61002A40F09C800A690AB18A680A617C
:103EC8008A680A621C69C2F3120222431A611A69DB
:103ED80042F400221A610B79012B00F0AC80DCF867
:103EE800003B43F00443CCF8003B002070BD0B6955
:103EF80073BB00EB4213D3F8104924F0FF5424F4A9
:103F0800C014C3F81049D3F8104944F40024C3F886
:103F18001049D3F81049E40CE404C3F8104900EB45
:103F28004212D2F8003943F00443C2F800390B7941
:103F3800012B45D00B69002BD7D0D0F8343809783D
:103F480001F00F0101228A401343C0F83438CCE74E
:103F580000EB421303F510631C69E40CE4041C61D4
:103F68001C6924F0FF5424F4C0141C61DAB90D69EB
:103F78008C68A54200D90C611C6944F400241C61BA
:103F88001C690D69C5F3120C44EA0C041C610C7918
:103F9800012CC4D11C6924F0C0441C611C6944F084
:103FA80000541C61BBE71D690C698E683444013CF0
:103FB800B4FBF6F4294E06EAC4442C431C61DFE73F
:103FC800D0F8083813F4807F0BD1D2F8003943F0C9
:103FD8000053C2F800390B8A0A78C968FFF741FF15
:103FE80083E7D2F8003943F08053C2F80039F2E78A
:103FF8000A6952B91A698C68C4F3120422431A6117
:104008001A6942F400221A6165E78C682244013A71
:10401800B2FBF4F292B202FB04F40C621C690F4D7D
:1040280005EAC24222431A611A690C6AC4F31204EF
:1040380022431A614FE7D0F8083813F4807F06D17D
:10404800DCF8003B43F00053CCF8003B47E7DCF8D2
:10405800003B43F08053CCF8003B40E70000F81FDA
:1040680010B5844608464FEA920E02F00302002378
:1040780005E00CF58051096840F8041B01337345CD
:10408800F7D37AB10CF5805CDCF800400021CBB2A4
:10409800DB0024FA03F300F8013B0131013A92B244
:1040A800002AF4D110BD0B784A78012A14D000EB0D
:1040B8004310D0F8002B002A06DB2BB1D0F8003BC8
:1040C80023F08043C0F8003BD0F8003B43F40013D2
:1040D800C0F8003B0020704700EB4310D0F80029DF
:1040E800002A06DB2BB1D0F8003923F08043C0F852
:1040F8000039D0F8003943F40013C0F80039E9E773
:104108000B784A78012A0ED000EB4310D0F8003B18
:1041180023F40013C0F8003B0B79023BDBB2012B00
:1041280015D90020704700EB4310D0F8003923F46C
:104138000013C0F800390B79023BDBB2012BF0D831
:10414800D0F8003943F08053C0F80039E9E7D0F8D7
:10415800003B43F08053C0F8003BE2E7D0F800385A
:1041680023F4FE63C0F80038D0F80038090101F4E0
:10417800FE610B43C0F8003800207047D0F8003EBD
:1041880023F00303C0F8003ED0F8043823F00203FC
:10419800C0F8043800207047D0F8003E23F003032D
:1041A800C0F8003ED0F8043843F00203C0F80438E1
:1041B800002070474269806910407047D0F818386D
:1041C80000F50060C0691840000C7047D0F8183836
:1041D80000F50060C069184080B2704700EB4111DB
:1041E800D1F8082B00F50060406910407047D0F8FE
:1041F8001028D0F8343801F00F0C23FA0CF3DB0147
:10420800DBB2134300EB411000F5106080681840E2
:104218007047406900F00100704738B50546C3682B
:1042280023F0C043C360012913D019BBC36843F00E
:104238008043C36000240120FDF7CEF801342846EE
:10424800FFF7E7FF08B1312CF5D9322C14D0002044
:1042580038BDC36843F00053C36000240120FDF754
:10426800BBF801342846FFF7D4FF0128EDD0312CE4
:10427800F4D9EAE70120EBE70120E9E7D0F80039B3
:1042880023F4FF6323F00703C0F80039D0F804389B
:1042980043F48073C0F8043800207047026C0F4B59
:1042A8009A4203D9D0F8003B002B14DB0023C0F856
:1042B800103BD0F8103B43F40023C0F8103BD0F873
:1042C800103B43F01803C0F8103BD0F8103B43F004
:1042D800C043C0F8103B0020704700BF0A30544F5D
:1042E800014B1860704700BF0000002010B5D0F8DF
:1042F800D43203F1B00250F822408CB100EB8200B6
:1043080043687BB194F80002FF280DD09B6894F8AD
:10431800012221469847FF2384F80032002010BD6F
:104328000320FCE70020FAE70020F8E70A230380CF
:104338000048704788000020F8B506460F4F8221D4
:10434800384600F03FFC05460121384600F03AFCAB
:1043580004468121384600F035FC0DB11022AA71BF
:104368001CB1402222710022627118B140220271F0
:1043780000224271432333800048F8BD0C0000201E
:10438800F8B506460F4F8221384600F01BFC05465B
:104398000121384600F016FC04468121384600F019
:1043A80011FC0DB11022AA711CB140222271002209
:1043B800627118B140220271002242714323338096
:1043C8000048F8BD0C000020F8B506460F4F8221C2
:1043D800384600F0F7FB05460121384600F0F2FBAD
:1043E80004468121384600F0EDFB0DB11022AA7178
:1043F8001CB1002222710222627118B100220271DE
:1044080002224271432333800048F8BD0C0000208B
:1044180038B5D0F8D432B03350F8235095B10446AB
:1044280001F080FAC5F80C02D4F8D432B03304EBAA
:1044380083046368DB6805F50371D5F804029847BF
:10444800002038BD0320FCE738B5D0F8C852D0F8B2
:10445800D432B03350F8234084B301F00F0303EB98
:10446800830200EB820292694AB103EBC30C05EBAD
:104478008C056D6CB2FBF5FC05FB1C2292B1002388
:10448800C4F81432D0F8D432B03300EB8300436858
:104498001B69ABB10A4604F50471D4F808029847C1
:1044A800002038BD03EB830300EB830300249C61E9
:1044B8002346224601F018FA2046F2E70320F0E7E7
:1044C8000020EEE7F0B583B0D0F8D43203F1B002A3
:1044D80050F8227000228DF80720ADF80420002F34
:1044E8007BD004460D46097811F0600634D0202EA2
:1044F8006CD1EA882AB311F0800F07D16B7887F85E
:104508000032EA883F2A13D8D2B212E0B03300EB67
:1045180083035B689B68394668789847EA88072A66
:1045280028BF07223946204600F00EFF002651E03A
:10453800402287F801223946204600F01AFF00265B
:1045480048E0B03300EB83035B689B680022294690
:104558006878984700263DE06F780B2F31D8DFE860
:1045680007F006393030303030303030162690F8C9
:104578009C32DBB2032B04D0294600F060FB0326F3
:1045880028E0022201A900F0DFFE3E4622E090F872
:104598009C32DBB2032B04D0294600F050FB0326E3
:1045A80018E001220DF1070100F0CEFE12E090F8AC
:1045B8009C32DBB2032B0DD0294600F040FB0326CA
:1045C80008E0294600F03BFB032603E0294600F0FB
:1045D80036FB0326304603B0F0BD0326FAE738B5AC
:1045E8000446812101F02DF9002525870121204667
:1045F80001F027F9A4F878518221204601F021F929
:10460800A4F84C50A4F84E50D4F8D43203F1B002B8
:1046180054F822209AB1B03304EB83035B685B68DB
:104628009847D4F8D432B03354F8230001F0B6F9DF
:10463800D4F8D432B03344F82350C4F8BC52002024
:1046480038BD70B504464FF4077001F0A3F900288F
:1046580049D005464FF40772002101F0CAF9D4F891
:10466800D432B03344F82350C4F8BC52237C002B16
:1046780041D14FF4007302228121204601F0CFF886
:10468800012626874FF4007302223146204601F0A6
:10469800C6F8A4F878611023A4F84E300823032242
:1046A8008221204601F0BBF80123A4F84C300026F3
:1046B800C5F80462D4F8D432B03304EB83035B68E2
:1046C8001B689847C5F81462C5F81862D5F8042223
:1046D80062B3257C1DBB4FF400730121204601F015
:1046E80012F9284670BDD4F8D432B033002244F809
:1046F80023200225F5E7402302228121204601F0EC
:104708008EF801262687402302223146204601F0F2
:1047180086F8A4F878611023A4F84E30BEE7402349
:104728000121204601F0EFF80025DAE70225D8E755
:1047380039B1D0F8D432B03300EB830041600020A7
:10474800704703207047D0F8D432B03350F8233084
:104758002BB1C3F80812C3F81022002070470320B9
:104768007047D0F8D432B03350F823301BB1C3F8B7
:104778000412002070470320704708B5D0F8D432DF
:10478800B03350F823208AB1D2F814320BB101208B
:1047980008BD0123C2F81432D2F81032C362D2F82D
:1047A8000822812101F0A0F80020F1E70320EFE7BB
:1047B80010B5D0F8D432B03350F8232092B1047C2D
:1047C80044B94FF40073D2F80422012101F09BF898
:1047D800204610BD4023D2F80422012101F093F8AD
:1047E8000024F5E70324F3E798B108B50346002051
:1047F800C3F8B802C3F8C402C3F8D00209B1C3F8B9
:10480800B412012183F89C121A70184600F0C4FFF4
:1048180008BD0320704710B582B00023ADF80630FC
:1048280089B10446C0F8B812CB6A23B10DF106006D
:104838009847C4F8D002D4F8D8320133C4F8D83233
:10484800002002B010BD0320FBE708B500F0D8FF38
:1048580008BD08B5D0F8B83213B11B68984708BD31
:104868000020FCE708B5D0F8B8325B68984700B973
:1048780008BD0320FCE738B5044600F2AA252846FF
:1048880000F0C9F90123C4F89432B4F8B032C4F87E
:10489800983294F8AA1201F01F03012B0DD0022BB5
:1048A80010D02BB101F08001204600F0D9FF03E0C1
:1048B8002946204600F096FB38BD2946204600F0E0
:1048C800CCFBF9E72946204600F009FCF4E7F8B5E7
:1048D8000446012380F89C320023C0F894324360D8
:1048E800C0F8A43280F8A032D0F8B832DBB15B68E7
:1048F800DBB1002198470746C8B94023002211467A
:10490800204600F08CFF0126A4F864614025C4F815
:1049180060512B4600228021204600F080FFA684AB
:1049280025623846F8BD0027E7E70027E5E70327B3
:10493800E3E701740020704790F89C32DBB2042B47
:1049480004D090F89C32DBB280F89D32042380F8C2
:104958009C320020704790F89C32DBB2042B01D0C7
:104968000020704790F89D32DBB280F89C32F7E760
:1049780008B590F89C32DBB2032B01D0002008BDAB
:10498800D0F8B832002BF9D0DB69002BF6D0984765
:10499800F4E708B5D0F8D432AE3350F823205AB132
:1049A80090F89C32DBB2032B01D0002008BD136ABB
:1049B80023B198470020F9E70320F7E70020F5E73F
:1049C80008B5D0F8D432AE3350F823205AB190F855
:1049D8009C32DBB2032B01D0002008BD536A23B1FF
:1049E80098470020F9E70320F7E70020F5E70020C3
:1049F800704708B5012380F89C32D0F8B83223B14B
:104A08005B680179984710B908BD0020FCE70320CE
:104A1800FAE7002070470020704738B504460D4675
:104A2800002943D11346D0F89422032A01D008461E
:104A380038BDD0F85C11D0F86021914212D890F8B6
:104A4800AA3203F01F03012B17D0022B1CD02846D3
:104A580094F89C32DBB2032B1BD0204600F0A0FC5C
:104A68002846E5E7891AC0F85C118A4228BF0A4639
:104A7800194600F08DFC2846DAE790F8AE12FFF7E9
:104A8800C8FF0028E9D1E3E790F8AE12FFF7C3FFAB
:104A9800F7E700F1AE0354F823301A69002ADCD096
:104AA800C4F8D4021B6920469847D6E701F07F0175
:104AB800FFF7B1FF90B994F89C32DBB2032BB7D162
:104AC80000F1AE0354F823309A69002AB0D0C4F834
:104AD800D4029B69294620469847A9E70020A7E702
:104AE80038B504460D4600294BD11346D0F8942218
:104AF800022A07D094F8A00218B1002384F8A03243
:104B0800284638BDC269016A8A420ED88A4218D03E
:104B180094F89C32DBB2032B27D08021204600F08A
:104B28009FFE204600F047FCE4E7521AC26119468E
:104B380000F017FC00231A461946204600F0E3FE51
:104B4800D8E783699942E3D8D0F898229342DFD214
:104B58000022114600F005FC0021C4F898120B460B
:104B68000A46204600F0CFFEC4E7D4F8B832DA6827
:104B7800002AD2D00022C4F8D422DB682046984705
:104B8800CBE741F08001FFF746FF90B994F89C32DB
:104B9800DBB2032BB5D100F1AE0354F823305A69C8
:104BA800002AAED0C4F8D4025B692946204698474B
:104BB800A7E70020A5E70B88027813440B80037849
:104BC80018447047428803789A4218D930B583B0A0
:104BD80004460D46ADF806306388BDF806209A42B3
:104BE8000AD20DF10601FFF7E6FF4378052BF3D152
:104BF8008378AB42F0D100E0002003B030BD002044
:104C080070470346002002E00130C0B201331A7831
:104C1800002AF9D170470B7803704B7843708B7872
:104C2800CA7843EA022343800B794A7943EA02238C
:104C380083808B79CA7943EA0223C380704710B511
:104C48000446802100F00CFE0021204600F008FEFA
:104C580010BD30B583B004460D460023ADF80630CC
:104C68004A88130A013B0E2B00F2BC80DFE803F0F0
:104C7800153044BABA9EABBABABABABABABA0800C8
:104C8800D0F8B432DB6923B10DF10601007C9847F6
:104C98000AE02946FFF7D3FF18E0D0F8B4321B68C2
:104CA8000DF10601007C9847EA88002A00F0A380ED
:104CB800BDF80630002B00F099809A4228BF1A46AA
:104CC800ADF806200146204600F03EFB03B030BD9B
:104CD800037C43B9D0F8B8329B6A0DF106009847B7
:104CE80002234370E0E7D0F8B832DB6A0DF1060022
:104CF800984702234370D7E7D2B2052A52D8DFE893
:104D080002F003101D2A3744D0F8B4325B6823B18F
:104D18000DF10601007C9847C6E72946FFF78FFF8B
:104D2800D4E7D0F8B4329B6823B10DF10601007CBA
:104D38009847B9E72946FFF782FFC7E7D0F8B432AA
:104D4800DB6823B10DF10601007C9847ACE72946E2
:104D5800FFF775FFBAE7D0F8B4321B6923B10DF13C
:104D68000601007C98479FE72946FFF768FFADE7F3
:104D7800D0F8B4325B6923B10DF10601007C984785
:104D880092E72946FFF75BFFA0E7D0F8B4329B69AA
:104D980023B10DF10601007C984785E72946FFF706
:104DA8004EFF93E72946FFF74AFF8FE7037C33B9A5
:104DB800D0F8B8325B6B0DF10600984774E72946C6
:104DC800FFF73DFF82E7037C43B9D0F8B8321B6B8D
:104DD8000DF1060098470723437065E72946FFF75A
:104DE8002EFF73E72946FFF72AFF6FE7294620467B
:104DF800FFF725FF6AE7204600F0D2FA66E738B5E4
:104E080004468B88FBB9CB88EBB94B887F2B1AD823
:104E180003F07F0590F89C32DBB2032B0CD080F8AE
:104E28009E52294600F051FD204600F0B9FA35B1EE
:104E3800022384F89C3209E0FFF701FF06E0012312
:104E480084F89C3202E02046FFF7F9FE38BD0000E6
:104E580070B504460E468D782F4B1D70012D10D865
:104E680090F89C32DBB2022B0FD0032B26D0FFF731
:104E7800E6FE294B19782046FFF7F4FC032528465F
:104E880070BDFFF7DCFE0325F9E7A5B145602946AB
:104E9800FFF7DFFC054638B131462046FFF7CFFE65
:104EA800022384F89C32EAE7204600F079FA0323CB
:104EB80084F89C32E3E700F073FAE0E7CDB141688B
:104EC8008D4225D0C9B2FFF7CDFC134B197861602C
:104ED8002046FFF7BEFC0546B0B131462046FFF735
:104EE800AEFE21792046FFF7BDFC022384F89C32F0
:104EF800C5E7022380F89C3245602946FFF7B2FCDB
:104F0800204600F04DFABAE7204600F049FAB6E725
:104F180000F046FA0025B2E78402002008B5CB88E5
:104F2800012B0BD190F89C32DBB2022B09D9032B51
:104F380009D10122011D00F007FA01E0FFF77FFE09
:104F480008BD5BB213B9FFF77AFEF9E70146002303
:104F580041F8083F012200F0F7F9F1E708B590F8A9
:104F68009C32013B022B12D8CB88022B0CD1012397
:104F7800C360D0F8A4320BB10323C360022200F14E
:104F88000C0100F0E1F908BDFFF759FEFBE7FFF758
:104F980056FEF8E708B54B88012B04D0022B07D042
:104FA800FFF74DFE08BDC0F8A43200F0F9F9F9E7A3
:104FB8008B881B0A80F8A03200F0F2F9F2E708B5F6
:104FC80090F89C32013B022B09D84B88012B00D06A
:104FD80008BD0023C0F8A43200F0E2F9F8E7FFF7B3
:104FE8002EFEF5E738B50C7804F06004202C06D0C6
:104FF800402C04D06CB1FFF722FE002407E0D0F863
:10500800D432AE3350F823309B6898470446204684
:1050180038BD4D78092D1DD8DFE805F012191C168A
:105028001C08051C0F0BFFF714FEF0E7FFF7E7FE5F
:10503800EDE7FFF70DFF0446E9E7FFF76FFFE6E747
:10504800FFF78CFF2C46E2E7FFF7A4FFDFE7FFF747
:10505800B6FFDCE7FFF7F3FDD9E770B505460C4668
:105068000B7803F06003202B07D0402B05D023B129
:10507800FFF7E5FD0026304670BD95F89C32013BF0
:10508800022B26D82179012905D921462846FFF780
:10509800D6FD0026EFE72846FFF7BBFC68B900F10C
:1050A800AE0255F82220916889B1C5F8D4029368F8
:1050B800214628469847064600E00326E388002B49
:1050C800D9D1002ED7D1284600F06AF9D3E70326B4
:1050D800F4E721462846FFF7B2FD0026CBE72DE985
:1050E800F04106460D468B88DFB20C7804F0600468
:1050F800202C08D0402C06D0DCB1FFF7A0FD0024FE
:105108002046BDE8F08139463046FFF784FC044666
:10511800002840F0F880C6F8D40200F1AE0356F833
:1051280023309B68002BEBD029463046984704462D
:10513800E6E791F80180B8F1010F31D0B8F1030F1B
:1051480005D0B8F1000F67D0FFF779FDD8E790F8E0
:105158009C32DBB2022B04D0032B12D0FFF76FFD79
:10516800CEE70FB1802F04D129463046FFF767FDFF
:10517800C6E7394600F074FB8021304600F070FB2A
:10518800BEE74B8823B91FB1802F01D0CB881BB154
:10519800304600F005F9B3E7394600F061FBF7E760
:1051A80090F89C32DBB2022B04D0032B12D0FFF70D
:1051B80046FDA5E70FB1802F04D129463046FFF7F9
:1051C8003EFD9DE7394600F04BFB8021304600F05C
:1051D80047FB95E74B88002B92D117F07F0F17D12B
:1051E800304600F0DDF839463046FFF714FC002859
:1051F80086D1C6F8D40200F1AE0256F82220926891
:10520800002A00F08280294630469047044677E716
:10521800394600F034FBE3E790F89C22D2B2022A28
:1052280005D0032A27D0FFF70AFD444668E70FB1E7
:10523800802F13D113F0800F14D107F07F0707EBED
:105248008707B90001F5A8713144043100230B60C8
:105258000222304600F078F8444651E7FFF7EFFCA9
:1052680044464DE707F07F0707EB8707B900103181
:1052780031440431EAE75BB2002B1FDB07F00F0271
:1052880002EB820200EB8202B2F864211AB3002B0F
:1052980025DB07F07F0303EB83039C0004F5A87468
:1052A800344404340FB1802F22D10023236002221A
:1052B8002146304600F048F8444621E707F00F023F
:1052C80002EB820200EB8202928C002ADFD1FFF708
:1052D800B6FC444614E7FFF7B2FC444610E707F073
:1052E8007F0303EB83039C00103434440434D9E770
:1052F8003946304600F0D2FA10B101232360D6E7D0
:1053080000232360D3E70024FAE60446F8E6D0B188
:1053180070B50D4616460446FFF773FC431C5B0048
:105328009BB233802B7003236B70022307E0EA548F
:1053380001345A1CD2B20021A9540233DBB22278BC
:10534800002AF4D170BD704708B513460222C0F890
:1053580094228361C3610A46002100F0C5FA002047
:1053680008BD08B513460A46002100F0BDFA002022
:1053780008BD08B513460322C0F89422C0F8583176
:10538800C0F85C310A46002100F0BDFA002008BDD3
:1053980008B513460A46002100F0B5FA002008BDFA
:1053A80008B50422C0F8942200231A46194600F0D2
:1053B8009BFA002008BD08B50522C0F894220023F6
:1053C8001A46194600F09FFA002008BD08B50022C9
:1053D8000F491048FFF708FA70B90F490D48FFF751
:1053E8001AFA60B90D490B48FFF7A2F950B90948F4
:1053F800FFF72BFA48B908BDFBF786FDEDE7FBF789
:1054080083FDEFE7FBF780FDF1E7FBF77DFDF2E7B2
:10541800E8000020880200205000002094000020AE
:1054280000207047002070470020704710B50146E3
:10543800044C2046FFF795F92046FFF7B9F90020FC
:1054480010BD00BF8802002010B5064C0022064996
:105458002046FFF778F905492046FFF782F9002032
:1054680010BD00BF8802002064050020640D0020E4
:10547800094BD3F8BC32D3F814320BB10120704772
:1054880010B5054C0A4601462046FFF75CF9204650
:10549800FFF773F910BD00BF8802002012230B80AC
:1054A80000487047D400002004230B800048704750
:1054B800C40000200C230B8000487047C80000205F
:1054C800002393421ED200B510E00CF1370C01F80E
:1054D80013C000014FEA430C0CF1010C4FF0000E11
:1054E80001F80CE00133DBB2934209D24FEA107C99
:1054F800B0F1204FE9D20CF1300C01F813C0E8E705
:105508005DF804FB7047000038B50B4BD3F89005E5
:10551800D3F89445D3F89835C01800D138BD074D55
:1055280008222946FFF7CCFF042205F11001204686
:10553800FFF7C6FFF2E700BF0070FF1FAA000020B8
:1055480008B51A230B80FFF7DFFF014808BD00BF2D
:10555800A800002008B50A4628B905490548FFF7FC
:10556800D6FE034808BD02490248FFF7D0FEF8E717
:1055780064150020845A000810B50A46034C2146D9
:105588000348FFF7C4FE204610BD00BF6415002085
:105598009C5A000808B50A4628B905490548FFF786
:1055A800B6FE034808BD02490248FFF7B0FEF8E717
:1055B80064150020B05A000808B50A4628B90549FC
:1055C8000548FFF7A4FE034808BD02490248FFF753
:1055D8009EFEF8E764150020BC5A000808B5FBF7E2
:1055E80095FC08BD10B588B0002303930493059378
:1055F800069307930368B3F1A04F01D008B010BD1C
:10560800234CD4F8883023F0406343F08063C4F817
:105618008830E36C43F00103E364E36C03F00103B7
:105628000093009B4FF4C053039302230493032376
:1056380006930A23079303A94FF09040FBF75EFFF8
:10564800E36C43F48053E364E36C03F48053019305
:10565800019BA36D13F0805F17D1A36D43F08053B6
:10566800A365A36D03F080530293029BFDF77AFABA
:10567800A36D23F08053A365002211464320FBF756
:1056880025FF4320FBF732FFB8E7FDF76BFAF3E796
:105698000010024008B500F2C441D0F80805FFF731
:1056A800EAF808BD08B501EBC10300EB8303D3F8A2
:1056B8008822D0F80805FFF7B0F908BD08B501EB56
:1056C800C10300EB83039A6CD0F80805FFF708FACA
:1056D80008BD08B5D0F80805FFF74AF908BD10B5A8
:1056E80004460369022B09D10121D4F80805FFF704
:1056F80020F9D4F80805FFF7EAF810BDFBF704FC19
:10570800F2E7000010B504460268D2F8003E43F004
:105718000103C2F8003ED0F80805FFF70DF9236A27
:1057280023B1034A136943F00603136110BD00BF98
:1057380000ED00E010B504460268D2F8003E23F000
:105748000103C2F8003E036A23B9D4F80805FFF73D
:1057580002F910BD034A136923F006031361FFF72A
:105768003DFFF2E700ED00E008B5D0F80805FFF7C7
:1057780027F908BD08B5D0F80805FFF70AF908BDEC
:1057880008B5D0F80805FFF732F908BD08B5D0F814
:105798000805FFF72EF908BD02780AB10020704706
:1057A80010B503461548C0F80835C3F8C8024FF0CD
:1057B800A04303600623436002230361836100233F
:1057C800C3610362436283620363C362FCF73DFC07
:1057D80080B90A4C80212046FDF7ACF9402200210F
:1057E8002046FDF781F9802201212046FDF77CF94A
:1057F800002010BDFBF788FBEBE700BF84190020F1
:1058080008B5D0F8C802FCF7BEFC032805D8DFE8C5
:1058180000F003040203012008BD0320FCE708B5DB
:1058280094461A466346D0F8C802FCF719FD0328C7
:1058380005D8DFE800F003040203012008BD0320B7
:10584800FCE708B5D0F8C802FCF74FFD032805D8D7
:10585800DFE800F003040203012008BD0320FCE791
:1058680008B5D0F8C802FCF7BEFD032805D8DFE864
:1058780000F003040203012008BD0320FCE708B57B
:10588800D0F8C802FCF7F2FD032805D8DFE800F0DD
:1058980003040203012008BD0320FCE7D0F8C83246
:1058A80011F0800F08D101F07F0101EBC10103EB7A
:1058B800810393F87E02704701F07F0101EBC1017B
:1058C80003EB810393F83E00704708B5D0F8C8028F
:1058D800FCF7B2FC032805D8DFE800F00304020354
:1058E800012008BD0320FCE708B5D0F8C802FCF782
:1058F8005CFD032805D8DFE800F00304020301205B
:1059080008BD0320FCE708B5D0F8C802FCF726FD5F
:10591800032805D8DFE800F003040203012008BDCE
:105928000320FCE708B5D0F8C802FCF735FD08BD30
:1059380010B5044611B1012916D010BD036A5BB930
:105948002268D2F8003E23F00103C2F8003ED4F8E2
:105958000805FFF700F8F0E7FFF740FE0C4A136967
:1059680023F006031361EBE70268D2F8003E43F028
:105978000103C2F8003ED0F80805FEF7DDFF236AF0
:10598800002BDAD0024A136943F006031361D4E707
:1059980000ED00E0004870476417002070470000E1
:1059A800DFF834D0FBF7ECFC0C480D490D4A002316
:1059B80002E0D458C4500433C4188C42F9D30A4ABC
:1059C8000A4C002301E013600432A242FBD300F02A
:1059D80019F8FBF7A5FBFEE7008001200000002076
:1059E80008010020E05A000808010020901E00204D
:1059F800FEE702440346934200D1704703F8011BB7
:105A0800F9E7000070B50D4D0D4C641BA41000267D
:105A1800A64209D10B4D0C4C00F018F8641BA410D9
:105A28000026A64205D170BD55F8043B98470136BB
:105A3800EEE755F8043B98470136F2E7D05A0008DC
:105A4800D05A0008D05A0008D45A0008F8B500BF48
:105A5800F8BC08BC9E467047F8B500BFF8BC08BC47
:085A68009E467047000000009B
:105A70004A4A41003330393900000000000000007C
:105A80000102030453544D33322056697274756118
:105A90006C20436F6D506F727400000053544D6959
:105AA00063726F656C656374726F6E696373000017
:105AB00043444320436F6E666967000043444320BC
:105AC000496E746572666163650000000000000045
:085AD000AD0100080000000018
